:100000000C94E1040C94DA150C9467150C94090512
:100010000C9409050C9409050C9409050C94090528
:100020000C9409050C9409050C9409050C94090518
:100030000C9409050C9409050C9409050C94090508
:100040000C94B2110C9409050C94860F0C945A0F61
:100050000C9409050C9409050C9409050C940905E8
:100060000C9409050C94090509250D251F25392532
:100070002D25452551256A258025AA25AA25084A2A
:10008000D73B3BCE016E84BCBFFDC12F3D6C7431AC
:100090009ABD56833DDA3D00C77F11BED9E4BB4C03
:1000A0003E916BAAAABE000000803F05A84CCDB2CD
:1000B000D44EB93836A9020C50B9918688083CA6AE
:1000C000AAAA2ABE000000803F0664EC1B3C04BCC8
:1000D000163E3BE5B93CC93C37C29E5A3D66049882
:1000E000083EEA69AAAA3E000000803F5069746396
:1000F0006820696E204E54534300526F6C6C202070
:10010000696E204E54534300506974636820696ED1
:100110002050414C00526F6C6C2020696E20504181
:100120004C002020486F72697A6F6E20616E676C98
:10013000657300566572746963616C206F666673DF
:1001400000486F72697A6F6E74616C206F666673B7
:1001500000436F6E74726173740053637265656EF1
:100160007320436F756E7400202053637265656E53
:1001700020706172616D7300525353492077617230
:100180006E696E67004261747420636861726765AE
:10019000207761726E004F766572737065656420BA
:1001A0007761726E696E67005374616C6C20776161
:1001B000726E696E670042617474203220776172DA
:1001C0006E696E670042617474657279207761723E
:1001D0006E696E67002020204F534420736574754C
:1001E0007000252E336600252E30660025332E3113
:1001F0006676002201680000001501665F0225088E
:100200000166630225FA0066670225EC00666B0250
:1002100025D50100000000C50142360200B60142AA
:100220006F0200A801623502109601623402108547
:1002300001623C02107801623D021068010000007A
:10024000005A016274021151016233021241015AD3
:1002500071021333017A70021466666640000080F2
:100260003F100CBA000A00001BE8031A52B80E40F7
:1002700085EB51401966BB0012800C1CA0141E00B7
:100280000000080002010000030407000000000055
:1002900000000000000000250028002B00010204DF
:1002A00008102040800102040810200102040810F8
:1002B00020040404040404040402020202020203EF
:1002C0000303030303100E0F1123317A7A7A7A7A2B
:1002D0000A000601020203050A0A0B020C01327C25
:1002E0008900EDD968770000005900000000000087
:1002F0000000D69FDCA81817AA90437327F6B968A8
:10030000EDF4DED409FEE61C1C84DDE80B992927F8
:10031000D6DF8D210F036418EFEE1E99B782527657
:10032000941500347C000026149E988F0000006A0B
:1003300031168F8C059600E7B73F360000000000AD
:100340000000AF669ED0385D8A6C20B95422007CD4
:10035000ED044C80387486EDCBFA57CBDC19E20003
:100360001DDF5506E5CB01C30000000000000000C2
:10037000009AB20086DBD0BC5416131586004E449A
:10038000BD7F6F151590010000B500000000000052
:100390002F0000AEE5000000000000000000004754
:1003A000000000000000000000000000000000004D
:1003B000000000000000000000000000000000003D
:1003C0000000000000000000000000000000005AD3
:1003D00000000000000008CC31AA2C532E000206B9
:1003E0000A0F141E2D3C53637265656E2030004E5B
:1003F0006F20696E707574206461746121202575A9
:10040000FF000000FF000100040000000300E1FF06
:100410001F00F1FF0F00FCFF0400C0E0401F9CFF25
:10042000640001000A006400E803EC01E701E20156
:1004300020284E5453432900202850414C290011B4
:10044000020C0000F301056B138F08095B13000019
:1004500000000015480E00010F17000207170003E7
:10046000331BBC84F11A2605D01600074E1A00343F
:10047000491A0335441A0418B71B0006B9080008C6
:1004800038190009331A0025C01A008B9F1B0B0A6C
:1004900022190019B31A000D96195C11160A1116CB
:1004A000FA09121222051417130513134407021434
:1004B0005F187F0F621BBD2ECB17571BE2081D9CD8
:1004C000980A151D9216000EF90A091E930C0021B8
:1004D000A9070020E71700224F0A8F2417181F2BA7
:1004E000B7171F2C8417002D5B17002F3C1700A790
:1004F000E31700A8DF1700A9DB1700AAD717001F12
:1005000031050026901800306916003117170033A6
:100510009316002391100032DB12009A710B000039
:1005200000000046656E63652046617221004665E5
:100530006E63652048696768210046656E636520C3
:100540004C6F772100426174742042206C6F7721D8
:100550000048696768205653706565642100204C27
:100560006F772052737369210042617474657279E8
:10057000204C6F7721004F7665725370656564215A
:100580000020205374616C6C21004E6F2047505343
:1005900020666978210042616420436F6E66696756
:1005A0003A202564206D79203739004D696E696DD8
:1005B0004F53442D4578747261204D41564C696EFD
:1005C0006B20322E34FF506C616E652072393334EB
:1005D000204456FF0025303269FF003A2530326949
:1005E0003A00B0B1B4B5B6B77B7DB8B9002534696F
:1005F000050025352E3166002090910025322E30E1
:1006000066002520342E3066002520342E31660009
:100610002520342E3266008A058105760569055E3F
:1006200005510545053A052E05230525392E356664
:10063000002531302E3666002530356C64002530BB
:10064000366C64002533690025332E306600202087
:100650007820207920207AFF0020B3FF20B3FF20EC
:10066000C5FF20B3FF20B300B2FFB2FFC6FFB2FF49
:10067000B20031062B063E06380625342E306600C1
:100680000302010000000000240027002A000000EF
:100690000000230026002900716C6F690071686FEB
:1006A00076007173746200696E69740067756964BD
:1006B000006C6F69740072746C006175746F006116
:1006C00074756E006372757A0066627762006662A6
:1006D0007761006163726F007472616900737461A5
:1006E00062006369726300696E6974006D69737397
:1006F000006D5F256400706F736800616C74680042
:100700006D616E750061726D002534690507002505
:10071000346905060025352E32660025342E3166F3
:10072000006F7665726C6F61640066726F7A656ED9
:100730000053747265616D00FF20CECECECE60CEC8
:10074000CECECE00FF20202024CB7C40CB240082C4
:10075000808180818084808180818083808180818C
:100760008085808180818020C8C8C8C87EC8C8C8EC
:10077000C820FF0020202024CBB8B9CB2420202083
:10078000FF0020586500253269000007E206DD06FB
:10079000D806D306CE06C906C406BF06F106BA06B9
:1007A000B606B106F106F106AC06A706A2069D063E
:1007B000980605070007FB06F606F106EC06F106AB
:1007C000F106E70625342E326600256900432569C7
:1007D00020002E253032640025346900A125372EF3
:1007E0003266009125372E32660025362E3166009E
:1007F00025372E3266003420285253534929204B86
:100800000033202843757272656E7429204B0032C4
:100810002028563229204B00202020202020204153
:1008200000312028563129204B0020202050696EAD
:100830002053656E736F727300F0070B68F8060043
:10084000EA078F68F40600EA071473F00600EA0767
:100850001D73EC0600EA071268E80600E3079076CD
:10086000E40600DC07A076E00600EA07BD61DC06CE
:1008700000EA075777D80600EA070166D406004366
:100880002564253569FF00696E66006E616E002A79
:1008900008000000002108738002251808738402F4
:1008A000270F08730000251808730000270108733C
:1008B000000026180873000027F6077300002618AA
:1008C000087300002700407A10F35A00A0724E18F7
:1008D000090010A5D4E80000E87648170000E40BF2
:1008E00054020000CA9A3B000000E1F505000080B8
:1008F000969800000040420F000000A08601000012
:1009000000102700000000E8030000000064000061
:100910000000000A00000000000100000000002CA0
:1009200076D888DC674F0823DFC1DFAE59E1B1B765
:1009300096E5E3E453C63AE651997696E8E6C28432
:1009400026EB898C9B62ED407C6FFCEFBC9C9F404A
:10095000F2BAA56FA5F490055A2AF75C936B6CF96F
:10096000676DC11BFCE0E40D47FEF520E6B500D045
:10097000ED902E0300943577050080841E0800005A
:10098000204E0A000000C80C333333330F986E1228
:10099000831141EF8D2114893BE65516CFFEE6DB2E
:1009A00018D1844B381BF77C1D901DA4BBE4242078
:1009B0003284725E228100C9F124ECA1E53D27005A
:1009C000163611241FBECFEFD8E0DEBFCDBF27E023
:1009D000AEE3B1E001C01D92A033B207E1F711E030
:1009E000A0E0B1E0E4E7F6E702C005900D92AE3377
:1009F000B107D9F714E0C1EED4E004C02197FE019D
:100A00000E94CE3AC03ED107C9F70E940C230C9435
:100A1000383B0C94000083EA92E00197F1F70895C7
:100A200080E090E0089596FB222720F94091D601BE
:100A30005091D7016091D8017091D90188E496E076
:100A40000C94581496FB222720F94091FD015091F7
:100A5000FE016091FF017091000288E496E00C9421
:100A60005814292F8091890290918A028F739927B7
:100A7000029710F026FF04C08EE392E00C94302021
:100A80000895CF93DF9388E80E949612CFE0D1E0DB
:100A900088810E94CA1289810E94CA128EE8DF9161
:100AA000CF910C9496122F923F924F925F926F9239
:100AB0007F928F929F92AF92BF92CF92DF92EF92EE
:100AC000FF920F931F93CF93DF93CDB7DEB72F978E
:100AD0000FB6F894DEBF0FBECDBF8091F301803416
:100AE00089F44090630250906402609065027090B7
:100AF000660220915F023091600240916102509144
:100B0000620210C040906B0250906C0260906D02C7
:100B100070906E02209167023091680240916902E4
:100B200050916A026091690170916A01072E000C70
:100B3000880B990B2A873B874C875D870E948036FC
:100B40002A853B854C855D850E94DF364B015C0123
:100B500080912A0480FF04C0B7FAB094B7F8B0942B
:100B6000C501B4010E941839AB016A35710538F02E
:100B70009B012D543F4F2935310578F4A9014734A5
:100B8000510564F54A3151050CF54A30510518F10B
:100B900028E02F8783EF10ED2EC06B3571051CF018
:100BA000AB01435B5109CA0157FF03C09195819581
:100BB00091098734910594F48A3191059CF40A9740
:100BC000B0F038E03F8785EF12EE15C047E04F8761
:100BD00088EF19ED10C059E05F870BC01F868DECC0
:100BE00011EC09C067E06F878BEF1BEE04C089E052
:100BF0008F878DEC16EC2CE030E03A83298300E0FF
:100C00004F85042E000C550B58874F8386508987DB
:100C1000202F002E000C330B3C832B836091670147
:100C200070916801620F731F072E000C880B990BDF
:100C30000E94803627EA32E94BE25CEB0E94DF3605
:100C4000A30192010E94DF360E940B3A20E030E0BF
:100C500040EA50E40E94DF3620E030E040E951E411
:100C60000E94DF366B017C0120E030E0A9010E9488
:100C7000B43920E030E040E05FE387FD0BC0C701FE
:100C8000B6010E94C3370E9418391B013DE2230EB2
:100C9000311C0AC0C701B6010E94C2370E94183930
:100CA0001B014DE2240E311C9DE05981951B9E874E
:100CB0008B819C819195819591099E838D836E8511
:100CC000862F90E029813A81281739070CF47DC0DE
:100CD00025E33AEF4EE85CE3C501B4010E94DF363C
:100CE0000E940B3A6B017C019E852CE0929F602D47
:100CF00011246E54062E000C770B880B990B0E9462
:100D000080369B01AC01C701B6010E94DF360E940C
:100D100018399101260F371FC90101978A359105AE
:100D200008F04FC062E170E00E94793A7B014F8584
:100D3000442379F05EEE5603C001579F900D1124B5
:100D4000820F931F019697FD019695958795D82E52
:100D500001C0D12C64E06E198E8581500E94AA12C8
:100D6000002399F06E85653081F46B817C8177FF7B
:100D700002C06D817E81072E000C880B990B4AE022
:100D80000E94422086E08E8704C08D2D810F0E9434
:100D9000CA12DD20B1F04D2D50E02F813885421769
:100DA00053077CF034E0E316F10459F04985D40E82
:100DB00063E06E198E8581500E94AA128D2D0E94CB
:100DC000CA125E855F5F5E877ACF37FE09C0025E1A
:100DD00089819A8104979A838983049739F018CF7F
:100DE0003BE52316310414F00E51F2CF2F960FB6C7
:100DF000F894DEBF0FBECDBFDF91CF911F910F9151
:100E0000FF90EF90DF90CF90BF90AF909F908F902A
:100E10007F906F905F904F903F902F900895CF9369
:100E2000813110F08051FCCF811101C080E1880F29
:100E3000CEEFC80F80E98C0F0E94CA1281E98C0F97
:100E4000CF910C94CA1285E20C94961280E20C9415
:100E50009612809138048F5F809338040C94BB12F3
:100E6000692F0C9449137F936F939F938F938CE218
:100E700097E09F938F930E9408200F900F900F9000
:100E80000F900F900F9008956091FC0170E084E442
:100E900096E00E9433070C942307EF92FF920F9382
:100EA0001F93CF93DF938C01D62FC42F6CE370E098
:100EB0000E94653A7C0184E496E00E943307CC23CB
:100EC00049F0B7018BED95E00E943307CF776C2F87
:100ED00070E011C0DD2331F080910807882311F004
:100EE00080E201C08AE30E94CA12C8016CE370E08C
:100EF0000E94653ABC0185ED95E0DF91CF911F918D
:100F00000F91FF90EF900C943307CF93DF931F92D4
:100F1000CDB7DEB77F936F935F934F939F938F937C
:100F20008CE297E09F938F9329830E9408200FB64D
:100F3000F894DEBF0FBECDBF2981222331F0822F6E
:100F40000F90DF91CF910C94CA120F90DF91CF9147
:100F50000895CF92DF92EF92FF920F931F93CF935A
:100F6000DF9380911A0790911B07FC013A96D49168
:100F70003296C4910D96FC010591149160915C012B
:100F800070915D0180E090E00E947E3620E030E0CC
:100F900040E251E40E94A6386B017C016C2F70E0A6
:100FA00080E090E00E9480369B01AC01C701B60151
:100FB0000E94DF366B017C01B80180E090E00E9466
:100FC0007E369B01AC01C701B6010E94C33720E009
:100FD00030E048EC52E40E94A638AB01BC012D2F52
:100FE00082EF95E0DF91CF911F910F91FF90EF90ED
:100FF000DF90CF900C94850720E00C9485070E9429
:10100000A6116093F8017093F9018093FA0190930F
:10101000FB018091890290918A029093F201809362
:10102000F101ECEFF6E081E0808382830895CF93B5
:10103000DF93EC01CB01BA010E94803620E836E94B
:1010400048E15BE40E94A638688379838A839B83A6
:10105000DF91CF910895CF93DF93EC019A01AB011B
:10106000688179818A819B810E94C33768837983F3
:101070008A839B83DF91CF9108958F929F92AF9245
:10108000BF92CF92DF92EF92FF920F931F93CF9375
:101090008C014A015B01C22FFC01C080D180E2803B
:1010A000F38020E030E0A901C701B6010E94793643
:1010B000882311F0C23030F4F80180829182A2823C
:1010C000B3821FC0A7019601C501B4010E94C237B7
:1010D0004B015C016C2F70E080E090E00E94803654
:1010E0009B01AC01C501B4010E94A6389B01AC0173
:1010F000C701B6010E94C337F80160837183828300
:101100009383CF911F910F91FF90EF90DF90CF903D
:10111000BF90AF909F908F900895CF92DF92EF9203
:10112000FF92CF93DF93EC016A017B019A01AB013F
:10113000688179818A819B810E94793687FF04C00A
:10114000C882D982EA82FB82DF91CF91FF90EF9033
:10115000DF90CF90089524E0880F991F2A95E1F73A
:101160008C549F4F68E671E00E94793ACB0101965A
:1011700008958091A9019091AA010E94AB080E9454
:101180000F076091A9017091AA018DEE95E00C9472
:101190003307CF93DF93EC010E94A6112881398198
:1011A000CB01821B930BDF91CF91089597FF03C072
:1011B00088599E4F0895893621E0920714F0885689
:1011C000914008950F931F93CF93DF93C92F809180
:1011D0005E0190915F010E94D6088C014091CE0182
:1011E0005091CF016091D0017091D10124E685E248
:1011F00094E00E943D08C6FBDD27D0F94091CE0166
:101200005091CF016091D0017091D1012D2F88E4D0
:1012100096E00E9458140E9429072091CB0130913A
:10122000CC01C801821B930B0E94AB089C2F9072CB
:10123000C5FD98E0890F0E940F0740912504509149
:10124000260460912704709128042D2F8CEF95E0DF
:10125000DF91CF911F910F910C9458142091890226
:1012600030918A02260F311D3093C5062093C406A3
:101270008093C306809181028093C206089520E086
:1012800030E04AE754E40E94A6380895E0911A0736
:10129000F0911B07659175918591949108958F92B6
:1012A0009F92AF92BF92CF92DF92EF92FF926091A6
:1012B000160270911702072E000C880B990B0E94E2
:1012C00080366B017C018090FD019090FE01A09022
:1012D000FF01B09000020E9446099B01AC01C501CC
:1012E000B4010E94DF369B01AC01C701B6010E9428
:1012F000A63820E030E040E251E40E94DF36AB0146
:10130000BC0124E684E394E0FF90EF90DF90CF905F
:10131000BF90AF909F908F900C943D08E0911A077A
:10132000F0911B073496659175918591949108957C
:10133000CF92DF92EF92FF920F931F93CF93DF93A1
:1013400000D000D0CDB7DEB79B01AC0169833A83F2
:101350004B835C830E948E0929813A814B815C8199
:101360000E94DF366B017C0120E03CE34CE156E457
:101370000E94793600911A0710911B07F801181680
:101380003CF039962491B701A6018AE796E024C083
:1013900070966591749180E090E00E947E369B018A
:1013A000AC01C701B6010E94A6386B017C010E9406
:1013B00018396A30710534F06436710534F08AE703
:1013C00096E005C084EC97E002C08BE197E0F8015D
:1013D0003F962491B701A6010F900F900F900F90A8
:1013E000DF91CF911F910F91FF90EF90DF90CF9001
:1013F0000C94850740910102509102026091030212
:101400007091040296FD09C04115510561057105F1
:1014100021F0CB01BA010C9498094091D20150916E
:10142000D3016091D4017091D501F3CF0F931F9335
:10143000292F207495FF15C06091D2017091D301BE
:101440008091D4019091D501222329F12091AF01FF
:101450003091B0014091B1015091B2010E94C23768
:101460001AC06091BB017091BC018091BD01909147
:10147000BE01222361F00091C7011091C8012091A3
:10148000C9013091CA01601B710B820B930B0E9442
:1014900080360E943F091F910F910C94980960912A
:1014A000F4067091F5068091F6069091F7060C947B
:1014B00098099B01FC014081518162817381420F37
:1014C000531F611D711D408351836283738308958F
:1014D0000F931F93CF93DF93EC018B010E94A61112
:1014E000DC01CB01800F911FA11DB11D8883998361
:1014F000AA83BB83DF91CF911F910F91089596FB33
:10150000222720F930E095FD03C080E090E002C082
:1015100082E090E0282B392B21503109233031050E
:1015200028F4F901E95EFE4F8081089580E0089576
:10153000CF92DF92EF92FF92CF93DF93D82FC92FF4
:101540000E947F0A80930901C7FD4CC0C4FF2AC0D6
:1015500081E080930F0720E030E040E752E46091A3
:10156000E5017091E6018091E7019091E8010E9408
:10157000A6386B017C010E9418399B0177FF04C0DB
:1015800022273327261B370B2A3031052CF5D6FDB1
:1015900003C080E196E002C089E096E028E1B7014F
:1015A000A60112C010920F07E0911A07F0911B07D5
:1015B000729624914091E5015091E6016091E70116
:1015C0007091E80182E096E0DF91CF91FF90EF907B
:1015D000DF90CF900C94850724363105ECF282E041
:1015E00096E0DCCFDF91CF91FF90EF90DF90CF902E
:1015F00008951F93CF93DF931F92CDB7DEB7192FB6
:101600000E947F0A282F6091E2017091E30180E03F
:1016100090E029830E947E36AB01BC01298181E2E2
:1016200094E00E943D086091210470912204809111
:101630002304909124040E94183984E496E00E94C7
:10164000330780913B0280FD08C014FF06C00F9055
:10165000DF91CF911F910C9423070F90DF91CF91D1
:101660001F91089595FB222720F994FD02C090E078
:1016700001C092E0922B86FD02C080E001C084E0B0
:10168000892B08950E941912811102C00C940B0538
:1016900008958EBD0DB407FEFDCF8EB58FEF8EBDC4
:1016A0000DB407FEFDCF8EB508958EBD0DB407FEB7
:1016B000FDCF8EB56EBD0DB407FEFDCF8EB508957E
:1016C000CF93DF93FC016491EC012196662331F006
:1016D0008CE297E00E946812CE01F4CFDF91CF91A7
:1016E0000895CF92DF92EF92FF920F931F93CF93C3
:1016F000DF9380910207882309F4F7C0192F109215
:101700000207C090D601D090D701E090D801F090A8
:10171000D9010E9446099B01AC01C701B6010E9494
:10172000DF360E941839E0911F02F091200280916B
:101730000E07882349F081E090E02091CD0122300E
:1017400008F080E0EC0102C0C0E0D0E0009131027E
:1017500001110AC02091350230E06217730724F4AA
:101760008091070780FDC26020913402222329F076
:1017700030E0261737070CF4C46030911E02209128
:10178000E40140913602442369F0CF0164E670E041
:101790000E94653A6115710529F0842F90E0681761
:1017A0007907E4F040913C024423C9F054E6359FA8
:1017B000C0011124322F27FF02C031E0320F3595CE
:1017C000830F911D37FD9A95622F220F770B0E9490
:1017D000793A842F90E0681779070CF4C8608091FB
:1017E0003B0280FD0BC080913D0290E02091E20120
:1017F0003091E3012817390708F4C061C090E50172
:10180000D090E601E090E701F090E80120E030E0C0
:10181000A901C701B6010E94B43918161CF4C7010A
:10182000B60103C0C701B60190580E941839CB0118
:101830006AE070E00E94793A013049F48091350203
:10184000882329F090E0861797070CF4C0628091F6
:101850001C0290911D0220916F02222369F064E620
:1018600070E00E94653A6115710531F0822F90E0B9
:10187000681779070CF4C06416FF0EC080915A01F6
:10188000813011F4C0680DC0823011F4D16009C0FC
:10189000833011F4D26005C0209719F41092290406
:1018A00024C09091290481E09111890F809329042B
:1018B000809129044FEF480F21E030E002C0220F51
:1018C000331F4A95E2F78B3018F081E021E030E0D9
:1018D000A9014C235D23452B21F48F5F220F331F79
:1018E000F2CF809329048917C9F2E0912904EE23ED
:1018F00089F0F0E0EE0FFF1FEB5EF94F85919491B8
:10190000DF91CF911F910F91FF90EF90DF90CF90DB
:101910000C94600BDF91CF911F910F91FF90EF908E
:10192000DF90CF900895CF92DF92EF92FF92CF9306
:1019300020910307222309F4FCC0C82F96FF13C08F
:1019400020E030E0A9016091FD017091FE018091DD
:10195000FF01909100020E947936882309F4E9C0C2
:101960000E944F0921C0809131028111E2C020E024
:1019700030E0A9016091FD017091FE018091FF01AD
:10198000909100020E947936882309F4D2C00E9407
:101990004F099091FC0180910607933068F0811106
:1019A00003C081E0809306078C2FCF91FF90EF90CA
:1019B000DF90CF900C949C14882311F18091010248
:1019C00090910202A0910302B091040280931D0441
:1019D00090931E04A0931F04B09320048091F406FA
:1019E0009091F506A091F606B091F7068093190440
:1019F00090931A04A0931B04B0931C041092060742
:101A0000C090E901D090EA01E090EB01F090EC0188
:101A10002DEC3CEC4CE45DEBC701B6010E9479363D
:101A200087FF67C0C0900102D0900202E0900302DD
:101A3000F0900402A701960160911D0470911E04AC
:101A400080911F04909120040E94C2379B01AC0139
:101A5000C701B6010E94A6386B017C0120911904D0
:101A600030911A0440911B0450911C046091F406BB
:101A70007091F5068091F6069091F7060E94C237A4
:101A80009B01AC01C701B6010E94DF366B017C01EE
:101A90000E948E099B01AC01C701B6010E94DF368E
:101AA0006B017C010E941839CB016031774224F42C
:101AB0001816190644F03DC0C12C8CE3D82E8CE1D9
:101AC000E82E86E4F82EC7FD03C08EEE0E94961223
:101AD000E0911A07F0911B0739962491B701A601EE
:101AE0008AE796E0CF91FF90EF90DF90CF900C9433
:101AF00085072DEC3CEC4CE45DEBC701B6010E9480
:101B0000B43987FD16C0809167019091680197FFF5
:101B100010C080910807882319F089EF95E002C072
:101B200088EF95E0CF91FF90EF90DF90CF900C94ED
:101B3000600BCF91FF90EF90DF90CF90089565E01C
:101B400082E00E9449138BEA95E00E94600B0E949C
:101B5000A611882799274AE00E9442208091160703
:101B6000882359F061E081E00E94491360914702A7
:101B700070E086E995E00E9433070E946F1266E9E3
:101B800070E080E090E00C946C11CF92DF92EF92C5
:101B9000FF920F931F93CF93DF931F92CDB7DEB7C2
:101BA0006B017C018B01040F151FC016D10689F053
:101BB000F70161917F01C60169830E949D376981A8
:101BC000861719F0C6010E94A537FFEFCF1ADF0A6A
:101BD000ECCF0F90DF91CF911F910F91FF90EF907D
:101BE000DF90CF900895EF92FF920F931F93CF93C2
:101BF000DF938C01040F151FEC017B01E81AF90A31
:101C0000C017D10739F0C7018C0F9D1F0E949D3767
:101C10008993F6CFDF91CF911F910F91FF90EF90B5
:101C20000895CF93DF9300D0CDB7DEB79091F70141
:101C3000682F70E0660F771F80E8989F600D711D18
:101C4000112442E050E0CE0101960E94F30D8981FB
:101C50009A810F900F90DF91CF91089584E20E94B6
:101C6000110E8091CB019091CC01880F991F8D9618
:101C70006AE570E00E94793A77FF03C0685F7F4FA2
:101C8000FBCF67707727FB01EE51FA4F84910895DF
:101C90004F925F926F927F928F929F92AF92BF927C
:101CA000EF92FF920F931F93CF93DF93F82ED92FCC
:101CB00096FD0CC06D2F81E08F0D0E94491380911D
:101CC0002A0481FD1CC00E94530519C0C5E082EBA7
:101CD0000E94CA121DE0115019F00E942607FBCF86
:101CE000C33011F083EB01C085EC0E94CA120E9440
:101CF0002907C150F9F2C33051F786ECE9CFD4FF80
:101D000079C0C091AB01D091AC010091AD011091AF
:101D1000AE01C80117FF04C088279927801B910BCB
:101D20006AEF70E00E94793AE62F472FCE01D7FF85
:101D300004C0882799278C1B9D0B6AEF70E00E94D6
:101D4000793A2E2F342F261737070CF49B01B9014F
:101D50006F5F7F4F7093C7066093C606072E000C17
:101D6000880B990B0E9480364B015C010E942E0E5D
:101D7000E82EB801110F880B990B0E9480362B01B9
:101D80003C012CEB34E743E95CE3C501B4010E945C
:101D9000A6389B01AC01C301B2010E94A6380E9483
:101DA000183912E0160FBE01DD0F880B990B0E9447
:101DB00080362B013C0122E430E645EE5CE3C501B0
:101DC000B4010E94A6389B01AC01C301B2010E947C
:101DD000A63820E030E040E05FE30E94C3370E9475
:101DE0001839962F612F85E0891B0E94AA128E2D2B
:101DF0000E94CA12F7FC16C062E085E00E94AA1297
:101E00008AEE95E0DF91CF911F910F91FF90EF90B7
:101E1000BF90AF909F908F907F906F905F904F900A
:101E20000C94600BDF91CF911F910F91FF90EF9079
:101E3000BF90AF909F908F907F906F905F904F90EA
:101E4000089581E08093FC0688E0ECE2F4E0DF0195
:101E50001D928A95E9F780E00E94110E90932B0461
:101E600080932A040895FB012081822790E1899FB5
:101E7000900111242827822F90E0582F44279C019D
:101E800063E0220F331F6A95E1F742275327218130
:101E900030E02427352774E0959587957A95E1F70A
:101EA000822793279183808308959C01862FB9010F
:101EB0000C94330F1F920F920FB60F9211248F9331
:101EC0009F93EF93FF939091C0048091BF04981764
:101ED00079F0E091C004F0E0E554FB4F80818093FD
:101EE000C6008091C0048F5F83708093C00405C0DA
:101EF0008091C1008F7D8093C100FF91EF919F91F0
:101F00008F910F900FBE0F901F9018951F920F92F8
:101F10000FB60F9211242F938F939F93EF93FF93FC
:101F20009091C6008091B9048F5F8F772091BA0499
:101F3000821741F0E091B904F0E0E75CFB4F908339
:101F40008093B904FF91EF919F918F912F910F9002
:101F50000FBE0F901F901895CF92DF92EF92FF92D5
:101F60000F931F93CF93DF936C017A018B01C0E035
:101F7000D0E0CE15DF0589F0D8016D918D01D60135
:101F8000ED91FC910190F081E02DC6010995892B1E
:101F900011F47E0102C02196ECCFC701DF91CF91F1
:101FA0001F910F91FF90EF90DF90CF9008950895CB
:101FB0003FB7F8948091BE069091BF06A091C006ED
:101FC000B091C10626B5A89B05C02F3F19F0019618
:101FD000A11DB11D3FBFBA2FA92F982F8827820FAF
:101FE000911DA11DB11DBC01CD0142E0660F771FFF
:101FF000881F991F4A95D1F708959091BF049F5F5C
:1020000093702091C0049217E1F3E091BF04F0E0D7
:10201000E554FB4F80839093BF048091C1008062A0
:102020008093C100089508958091C10084FF03C08A
:10203000862F0E94FD0F81E090E00895E9EBF4E027
:1020400081818083EFEBF4E080818183089590911A
:10205000C100892F807194FF0EC09091B9048091C6
:10206000BA04981302C080E00895E091BA04F0E049
:10207000E75CFB4F80810895089580E0089580E03B
:10208000089580E00895CF92DF92EF92FF92CF9370
:102090006B017C01C42F20E030E0A9010E94B4391B
:1020A000181624F0F7FAF094F7F8F094C701B60187
:1020B0000E941839072E000C880B990B0E9480365D
:1020C0009B01AC01C701B6010E94C237C11105C016
:1020D00020E034E244E759E404C020E030E543EC7A
:1020E00057E40E94DF360E941839CF91FF90EF909D
:1020F000DF90CF9008950E94333B882311F080E455
:1021000001C080E09091F301981751F08093F301A2
:102110005E986091F3016C6180E00E94550B5E9ABD
:102120000895CF93DF9387FD04C08EE496E00E946C
:10213000600BCEE4D1E0499159916991799188E49D
:1021400096E00E94FC0781E0CA35D807A1F70E94FB
:102150002907C8E4D1E06991799184E496E00E946E
:10216000330781E0CE34D807B1F7DF91CF910895DE
:102170000F931F9390E0FC01E356FD4F7491FC0117
:10218000EF54FD4FE491662311F0672F01C060E02A
:10219000F0E0EE0FFF1FE257F94F8591949189010E
:1021A0009A013F70462F672F0E94C7226115710563
:1021B0008105910549F0DC01CB010196A11DB11DFE
:1021C000BC01CD019F7003C060E070E0CB011F91A6
:1021D0000F910895833081F028F4813099F0823096
:1021E000A1F008958730A9F08830B9F08430D1F497
:1021F000809180008F7D03C0809180008F778093D5
:102200008000089584B58F7702C084B58F7D84BD2A
:1022100008958091B0008F7703C08091B0008F7DCA
:102220008093B0000895CF93DF9390E0FC01E356D4
:10223000FD4F2491FC01EF54FD4F8491882361F1FF
:1022400090E0880F991FFC01EC57F94FC591D4918C
:10225000FC01ED56FD4FA591B491611109C09FB7E6
:10226000F8948881209582238883EC912E230BC0DB
:10227000623061F49FB7F8943881822F8095832370
:102280008883EC912E2B2C939FBF06C08FB7F894B8
:10229000E8812E2B28838FBFDF91CF9108958E3058
:1022A00008F08E5087702091000190E4299F9001E2
:1022B0001124822B80937C0080917A00806480932B
:1022C0007A0080917A0086FDFCCF80917800209181
:1022D000790090E0922B08958F929F92AF92BF92D7
:1022E000CF92DF92EF92FF926B017C010E94D80F98
:1022F0004B015C01C114D104E104F104F1F00E942E
:10230000D80FDC01CB0188199909AA09BB09883EBD
:102310009340A105B10570F321E0C21AD108E1088C
:10232000F10888EE880E83E0981EA11CB11CC11430
:10233000D104E104F10419F7DDCFFF90EF90DF90B5
:10234000CF90BF90AF909F908F9008952FB7F89443
:102350006091BA067091BB068091BC069091BD0653
:102360002FBF08951F920F920FB60F9211242F9333
:102370003F938F939F93AF93BF938091BA069091B1
:10238000BB06A091BC06B091BD063091B90623E012
:10239000230F2D3720F40196A11DB11D05C026E89D
:1023A000230F0296A11DB11D2093B9068093BA0692
:1023B0009093BB06A093BC06B093BD068091BE0669
:1023C0009091BF06A091C006B091C1060196A11DD3
:1023D000B11D8093BE069093BF06A093C006B09334
:1023E000C106BF91AF919F918F913F912F910F9017
:1023F0000FBE0F901F9018959091C100892F80718A
:1024000094FF14C09091B9048091BA04981302C04B
:1024100080E00895E091BA04F0E0E75CFB4F808132
:102420009091BA049F5F9F779093BA0408950C949B
:10243000FC119091C100892F807194FF06C080919A
:10244000B9049091BA04891B8F7708950C941912DE
:102450009B01AC018091C10084FD1092C1001092DB
:10246000C0041092BF041092BA041092B90421154E
:1024700031054105510501F1211581EE380741056E
:10248000510509F182E08093C00060E079E08DE3BE
:1024900090E00E948D3ADA01C9010197A109B109C2
:1024A000AC01BD017695679557954795942F852F7B
:1024B0008093C5009093C40088E98093C10086E0B2
:1024C0008093C20008951092C00090E180E0F0CFA8
:1024D000DC01ED91FC910190F081E02D09945E9872
:1024E00060E085E00E94550B60E086E00E94550B9D
:1024F00061E084E00E94550B5E9AE9EDF4E080E231
:102500005E9890819EBD0DB407FEFDCF9EB5819370
:102510005E9A96E0E93BF90798F35E988FEF8EBDDF
:102520000DB407FEFDCF8EB55E9A08952091D704B5
:102530003091D804203E91E0390758F4A9014F5F4B
:102540005F4F5093D8044093D704F901E752FB4FF3
:102550008083089590913804690F9091D604890F73
:1025600090E02EE1629F800D911D11249093D8047C
:102570008093D7040895209138048091D60490E088
:102580003EE1239F800D911D11249093D8048093E8
:10259000D70408958F3F39F4809138048F5F80937A
:1025A00038040C94BB120C949612862F0E94CA1207
:1025B00081E090E008951F93CF93DF93182FC92FE8
:1025C00087FD10C096FF04C0D0E089E596E003C007
:1025D000D1E088E696E00E94600B812F9C2F0E943C
:1025E000300701C0D0E08091E5019091E601A09113
:1025F000E701B091E801BC01CD0190589B01AC010D
:102600000E94C3370E94183980912A0482FF05C0B6
:10261000CB016CE370E00E94793AC5FF05C0CB01A5
:102620006AE070E00E94793AC4FF06C077FF02C0FA
:102630006F5F7F4F7595679516FF08C077FF02C0E3
:102640006D5F7F4F75956795759567959B01235DC8
:102650003F4F37FF02C02F5F3F4FC90195958795C8
:1026600069E070E00E94793A65302CF467FD06C09D
:10267000CFECC81B05C0CEE764E002C0C0E660E056
:102680008D2F0E94AA128C2FDF91CF911F910C9455
:10269000CA128F718093D6046F7060933804809152
:1026A000F301803411F0673010F40C94BB126350C6
:1026B00060933804FACFCF936AE086E00E94491312
:1026C000C0E08C2F0E941D1C0E942907CF5FC430E0
:1026D000C1F7CF91089566E089E00E9449130C94F8
:1026E00053055E9880912E0281FD06C080912D02D7
:1026F00083FF1CC081E01BC080EA0E94490B80FF61
:1027000007C081E00E947D1080912D02886008C082
:1027100081FF09C080E00E947D1080912D02877F9B
:1027200080932D0206C082FDE1CF03C080E00E94AD
:102730007D105E9A0895CF93DF935E98E091330207
:10274000E43008F0E0E0F0E0E058F94FC49180E1B7
:10275000D1E0D80F6C2F0E94550B8D2FD032C1F7CE
:102760006091710282E00E94550B6091700283E0DB
:102770000E94550B5E9ADF91CF9108955E988CEE82
:102780000E94490B682F6F7E8CE60E94550B62E118
:102790008CE00E94550B6091F3016C6380E00E9415
:1027A000550B66E970E080E090E00E946C1160914A
:1027B000F3016C6180E00E94550B0C949B13CF9346
:1027C000DF935E98C0E1DFEFC15081F46091F301C7
:1027D000626080E00E94550B6FE070E080E090E066
:1027E0000E946C11DF91CF910C94BE1380EA0E947D
:1027F000490B877059F784E0815031F0DEBD0DB48C
:1028000007FEFDCF9EB5F8CF6FE070E080E090E06E
:102810000E946C11D9CFE0917202F0E0EE0FFF1F21
:10282000E25FFD4F208131814FB7882309F0F89492
:1028300080917902813001F118F0823039F136C08F
:10284000E0913E01F0913F01908180910502892B3A
:1028500080832230310540F0C901880F991F880F0D
:10286000991F05970197F1F7E0913E01F0913F0123
:1028700090818091050217C0E0913E01F0913F01E7
:10288000809105022D3D35406CF009C0E0913E017C
:10289000F0913F01809105022C3D35401CF4908160
:1028A000892B03C090818095892380834FBF089531
:1028B000CF92DF92EF92FF921F93CF93DF93EC01C1
:1028C0006A017B01122F0E9446099B01AC01C701DE
:1028D000B6010E94DF36112341F026E636E646E6D1
:1028E00050E40E94A63828E106C0E0911A07F09152
:1028F0001B0738962491AB01BC01CE01DF91CF912B
:102900001F91FF90EF90DF90CF900C948507262FBA
:1029100030E0F901E75DFD4F87FD0CC091E0908349
:10292000F901E85EFD4F86FB992790F99083862F89
:102930000C941D1C10820895CF93C82F609134040D
:102940007091350480913604909137040E941839B3
:10295000615071096F30774298F4C7FD03C086E17A
:102960000E949612409134045091350460913604CF
:102970007091370421E08AE796E0CF910C948507A7
:10298000CF910895CF93C42F28EE33E040E050E07C
:102990000E948D3ADA01C90140E06C2FCF910C946E
:1029A0004D07CF93DF93282F86FB442740F9E42F70
:1029B000F0E0DB016D917D918D919C91EE0FFF1FF9
:1029C00025FF1DC0EA58F94FC591D4910E944310CC
:1029D0009F938F937F936F93DF93CF938CE297E0D6
:1029E0009F938F930E940820ADB7BEB718960FB67D
:1029F000F894BEBF0FBEADBFDF91CF910895EE58E2
:102A0000F94F25913491AB01BC01C901DF91CF9100
:102A10000C94FC07EF92FF921F93CF93DF931F92CA
:102A2000CDB7DEB7182F7C018E2D811B861760F481
:102A3000F70181917F019091C10094FFF5CF6983E7
:102A40000E94FD0F6981F0CF0F90DF91CF911F9110
:102A5000FF90EF9008950E94C23720EC3BE649EDCD
:102A600057E40E94DF36089597FD05C08F3F91051A
:102A700009F01CF4089580E008958FEF0895E09127
:102A80000E01EF5FE0930E01E770F0E0EE0FFF1F25
:102A9000EA53FB4F9183808388E060E070E08150CF
:102AA000E82FF0E0EE0FFF1FEA53FB4F208131814A
:102AB000620F731F8111F3CF80E090E00E947E3699
:102AC00020E030E040E05EE30E94DF3608951F9290
:102AD0000F920FB60F921124CF92DF92EF92FF92D6
:102AE0002F933F934F935F936F937F938F939F9316
:102AF000AF93BF93CF93DF93EF93FF930E94D80FD1
:102B00006B017C01E2E8F2E08491E0EAF2E0D4912A
:102B1000E4EBF2E0C491CC23B9F081110E94EA10F9
:102B2000EC2FF0E0EE0FFF1FE257F94FA591B491A3
:102B3000EC91ED2349F0C092C204D092C304E0921C
:102B4000C404F092C5041FC08091C2049091C304D4
:102B5000A091C404B091C5040097A105B10599F0F6
:102B6000C81AD90AEA0AFB0AD092A701C092A601A4
:102B70001092C2041092C3041092C4041092C504AF
:102B800081E08093C104FF91EF91DF91CF91BF91DC
:102B9000AF919F918F917F916F915F914F913F91F5
:102BA0002F91FF90EF90DF90CF900F900FBE0F907E
:102BB0001F9018951F920F920FB60F9211242F930A
:102BC0003F934F935F936F937F938F939F93AF93B5
:102BD000BF93EF93FF9381E080937C021092880271
:102BE00080917B028F5F80937B020E94A61160938D
:102BF0008302709384028093850290938602809171
:102C00008702882321F00E946F1210928702FF91A1
:102C1000EF91BF91AF919F918F917F916F915F9154
:102C20004F913F912F910F900FBE0F901F901895CD
:102C3000E091F60135E0E39FF0011124EF5BFB4FDB
:102C40009491915020910A016091F4017091F501E5
:102C500087FF03C0222339F004C0882311F029170D
:102C600021F0280F03C0292F01C020E0FB0136E02E
:102C7000239FE00DF11D1124339645915491452B6E
:102C800039F320930A01089590E0880F991FDC0121
:102C9000AA5FBD4FFC01E45DFB4F8D919C912081AB
:102CA0003181821B930B0895A6E0B2E0ECE2F4E0E0
:102CB00080819181883E934028F48D919C91119759
:102CC000918380833296129684E0E433F80781F78B
:102CD00008950895E82FF0E0EE0FFF1FEA5FFD4F23
:102CE00020813181662329F040E253E088E998E0B1
:102CF00004C048EE53E080ED97E02417350780F0DC
:102D0000241B350B841B950B65E070E00E94653A2F
:102D1000C9010E94653A862F653018F084E0089555
:102D200080E008950895EF92FF920F931F93CF9341
:102D300000E411E0C0E096FD20C089E0E82EF12C0F
:102D4000F801819191918F018C549440B7010E94B8
:102D5000653A83ED97E00E943307C13019F40E9471
:102D6000290702C00E942607CF5FC43049F712C06E
:102D70000E942607CF5FC43069F0F801619171911C
:102D80008F0188ED97E00E943307C13089F70E94D8
:102D90002907F0CFCF911F910F91FF90EF900895E9
:102DA0001F93CF93DF93D82F192F8091CD018230BD
:102DB00019F020F0CFE003C0CFE101C0CAE280915A
:102DC0006D0190916E01883C910520F0809108077B
:102DD0008111C0E2D7FD02C016FF11C060916F01E2
:102DE00070E086E897E00E943307D7FD0CC016FF1D
:102DF0000AC08C2FDF91CF911F910C94CA128C2F97
:102E00000E94CA12EBCFDF91CF911F91089560917C
:102E1000690170916A018FE097E00C94330760912B
:102E200067017091680189E097E00C943307CF93B4
:102E3000C92F809117078823E9F060917D02709176
:102E40007E0280917F02909180022CE330E040E08E
:102E500050E00E948D3ADA01C901C5FF04C0462F37
:102E6000406860E004C0C6FB662760F940E0CF918F
:102E70000C944D07CF9108951F93CF93DF93182F94
:102E80000E94320B8C5FC82FD0E017FD07C0BE0137
:102E90006F5F7F4F8DEC97E00E943307CC0FDD1FF3
:102EA000CA5FDD4F6881798188ED97E0DF91CF912E
:102EB0001F910C9433071F93CF93DF93182FC92FC3
:102EC0000E94320BD4E0D80F17FD08C06D2F70E0C0
:102ED0006F5F7F4F8AEC97E00E943307C6FB66273F
:102EE00060F98D2F0E946A16D82FC0E0CD1302C062
:102EF00081E801C080E80E94CA12CF5FC530B1F7F7
:102F0000DF91CF911F9108951F93CF93DF93182FD7
:102F1000C92F0E94320BD4E0D80F17FD08C06D2FC7
:102F200070E06F5F7F4F8DEC97E00E943307C6FB28
:102F3000662760F98D2F0E946A16182FC0E0D3E033
:102F4000CE010E949D378F3F71F0811103C0112384
:102F500051F01150111102C00E94CA122196C038BE
:102F600083E0D80769F7DF91CF911F9108956091B1
:102F70006D0170916E0180E090E00E947E3620E04D
:102F800030E048EC52E40E94A638AB01BC0184EC6E
:102F900097E00C94FC074091ED015091EE01609197
:102FA000EF017091F00188E496E00C94FC0763E077
:102FB000892F0C94871462E0892F0C94871461E0A8
:102FC000892F0C94871460E0892F0C9487140F9339
:102FD0001F93CF93DF9306E012E0C0E0D0E0F8014A
:102FE000619171918F012196CE010E941920C83004
:102FF000D105A9F7DF91CF911F910F910895CF933C
:10300000DF93611103C0C5E1D7E002C0CBE1D7E097
:10301000BC0180E090E00E947E360E943F09AB0137
:10302000BC012DE0CE01DF91CF910C9485070F9369
:103030001F93CF93DF9300D000D0CDB7DEB70091C0
:10304000C6061091C7060E948E099B01AC016AEF6B
:10305000609FC001619F900D1124BC01990F880BE6
:10306000990B2C8339834A835B830E9480362C81A1
:1030700039814A815B810E94DF36E0911A07F09125
:103080001B07083211055CF03F9624912C830E94A7
:103090003F09AB01BC012C8184EC97E006C0399656
:1030A0002491AB01BC018AE796E00F900F900F903E
:1030B0000F90DF91CF911F910F910C948507809114
:1030C00070018E30B9F42091A50130E087E090E0E6
:1030D000482FB901082E02C0759567950A94E2F74A
:1030E00060FD03C00197A0F748E04093A501E2EB23
:1030F000F7E002C0EAE8F7E06091A50170E0CB01DB
:10310000880F991FE80FF91F859194910E9433074A
:1031100080910307882319F086E80C94961208958D
:10312000EF92FF920F931F93CF93DF931F92CDB730
:10313000DEB720917101222309F470C04091C406CA
:103140005091C5062091890230918A024217530797
:1031500009F464C020915B01233010F401E201C046
:1031600000E0692F182F8091C3069AE1F92EF81A12
:10317000F7FC14C08F2D8695810F0E94491317FD0F
:1031800002C0011155C081E791E00F90DF91CF910E
:103190001F910F91FF90EF900C94302017FD02C00B
:1031A00001114AC066FD1DC0F1942F2D30E08091C1
:1031B00081029091C206891B90E0B901660F771FCA
:1031C0000E94793A4091820241110DC0009729F086
:1031D000215031098217930731F421E020938202B4
:1031E00002C080E090E09C012F583E4F7901890198
:1031F000065E1F4FF70181917F01811109C00F9079
:10320000DF91CF911F910F91FF90EF900C942607C3
:103210000E94CA12E016F10669F7F1CF109271010F
:103220000F90DF91CF911F910F91FF90EF90089534
:10323000802F0E94CA12A7CF802F69830E94CA12D2
:103240006981B0CFCF9380910A07882379F0C92F85
:103250008091A8010E940F07C6FF08C06091A801D5
:1032600070E084E496E0CF910C943307CF910895F9
:10327000FF920F931F93CF93DF93F82E092F192FEF
:10328000107287FD08C096FD06C01123C1F184E7C6
:1032900097E00E94600B83EC0E9496128091CB0114
:1032A0009091CC0148E1489F9001499F300D112435
:1032B000C9010C9668E671E00E94793A6450710980
:1032C000C62F77FF02C0C8E1C60F111102C0D9E0B6
:1032D00001C0DAE0EC2FF0E0E15BF84F84910E944E
:1032E000CA12CF5FC83108F0C0E0D15099F787E823
:1032F0000E949612F7FC14C006FD04C011C087E6B8
:1033000097E0C7CF111103C088E397E002C084E4BF
:1033100097E0DF91CF911F910F91FF900C94600B7C
:10332000DF91CF911F910F91FF900895AF92BF92BF
:10333000CF92DF92EF92FF921F93CF93DF9300D053
:1033400000D0CDB7DEB78091A5018A3009F07DC0ED
:10335000A0906101B090620188EEA81683E0B806E3
:1033600054F489E1A8168CEFB8064CF489E1A82E34
:103370008CEFB82E04C097EEA92E93E0B92EE09101
:103380001A07F0911B07399614916091600170E063
:1033900086E897E00E9433070E9426076091630148
:1033A0007091640180E090E00E947E366B017C01A8
:1033B0000E948E099B01AC01C701B6010E94DF3655
:1033C000AB01BC01212F8AE796E00E9485070E948D
:1033D000290780916501909166010E94D60820918D
:1033E000CB013091CC01821B930B0E94AB080E9451
:1033F0000F0782E897E00E94600B0E948E099B01F4
:10340000AC01B501BB0C880B990B29833A834B8324
:103410005C830E94803629813A814B815C810E94C5
:10342000DF36AB01BC01212F8AE796E00F900F90A9
:103430000F900F90DF91CF911F91FF90EF90DF9051
:10344000CF90BF90AF900C9485070F900F900F9086
:103450000F90DF91CF911F91FF90EF90DF90CF9071
:10346000BF90AF90089587FD04C00E942E0E0E9469
:10347000CA126091CB017091CC0184E496E00E9465
:10348000330785E00C94961267EB71E0892F0C945A
:10349000D11463EB71E0892F0C94D1141F93CF9357
:1034A000DF934091B7015091B8016091B9017091DB
:1034B000BA01452B462B472B69F44091B30150913B
:1034C000B4016091B5017091B601452B462B472B95
:1034D00009F445C094FD02C01FEF01C010E2C92FDE
:1034E000D82F80910807882301F1809114078A3032
:1034F00050F081E397E00E94600B812F0E94CA1276
:103500008AE297E00DC0809115078A3070F081E360
:1035100097E00E94600B812F0E94CA1281E297E01F
:10352000DF91CF911F910C94600BD7FD03C083E016
:103530000E94961263EB71E08C2F0E94D114812FB0
:103540000E94CA12D7FD03C084E00E94961267EB66
:1035500071E08C2FDF91CF911F910C94D114DF91EA
:10356000CF911F91089596FB442740F96091DE01A9
:103570007091DF018091E0019091E1010C94C214FF
:10358000CF93DF93D82FC92F0E94300788E00E9485
:1035900096126091DE017091DF018091E0019091BF
:1035A000E10140E00E94C2140E940A21C6FF05C04A
:1035B0006C2F8AE08D0F0E94491383E00E949612BF
:1035C00063EB71E080E00E94D1140E94290784E03F
:1035D0000E94961267EB71E080E0DF91CF910C942E
:1035E000D1141F93CF93DF931F92CDB7DEB797FD12
:1035F0002DC0192F91E090931807912F0E947F0AF8
:10360000282F60911C0270911D0280E090E02983B8
:103610000E947E36AB01BC01298180ED96E00E94BC
:103620003D08129511706091D0067091D10680917D
:10363000D2069091D3060E941F39DC01CB01612F85
:103640000F90DF91CF911F910C94FF1781E0909123
:103650006F02911101C080E0809318070F90DF91F5
:10366000CF911F9108951F93CF93DF931F92CDB7F2
:10367000DEB7192F0E947F0A282F60911F027091D8
:10368000200280E090E029830E947E36AB01BC01DD
:1036900029818CEC96E00E943D0812951170609192
:1036A000CC067091CD068091CE069091CF060E94F7
:1036B0001F39DC01CB01612F0F90DF91CF911F915A
:1036C0000C94FF170F931F93CF93DF931F92CDB7E7
:1036D000DEB7192F0E947F0A282F60911602709181
:1036E0001702072E000C880B990B29830E94803645
:1036F000AB01BC01298188EC96E00E943D0814FDD5
:1037000003C005E117E002C00BE117E02AE037ED46
:1037100043E25CE36091C8067091C9068091CA06D5
:103720009091CB060E94DF36AB01BC012EE0C801B0
:103730000F90DF91CF911F910F910C94850796FB0D
:10374000882780F98093190780910A07882371F0F0
:1037500097FD0CC06091DA017091DB018091DC0172
:103760009091DD010E9480360C94980908951F9372
:10377000CF93DF93382F192F2091E4012F55C0915B
:103780001E02263008F04FC0D0E080E09C2F64E697
:1037900070E00E94653ACB016138710540F029E87C
:1037A00020930F0180589109E0E1F1E012C02DE86B
:1037B000209310016231710550F4209108072223F3
:1037C00031F020E220930F012093100109C0EFE0B7
:1037D000F1E06AE170E00E94653A2DE8261B208343
:1037E00037FF0E94410516FF0AC0BE0186E897E038
:1037F0000E943307DF91CF911F910C9423076091B2
:10380000D4067091D5068091D6069091D7060E9475
:10381000183988ED97E00E94330781E0DF91CF915E
:103820001F910C94961224E6C29FC00111246FEFE1
:1038300070E00E94793AEB01A8CF1F93CF93DF93FA
:10384000CDB7DEB768970FB6F894DEBF0FBECDBF19
:10385000182F88E1189FB001112460587D4F48E16E
:1038600050E0CE0101960E94F30DE12FF0E0EE0F43
:10387000FF1FEF5DFD4F6081718180E090E00E944D
:103880007E3629813A814B815C810E94DF362D8111
:103890003E814F8158850E94C3379F938F937F93BA
:1038A0006F93CE0109969F938F938CE297E09F933D
:1038B0008F930E94F9200FB6F894DEBF0FBECDBFE4
:1038C00068960FB6F894DEBF0FBECDBFDF91CF91E3
:1038D0001F9108952F923F924F925F926F927F9225
:1038E0008F929F92AF92BF92CF92DF92EF92FF9210
:1038F0000F931F93CF93DF93CDB7DEB763970FB6C8
:10390000F894DEBF0FBECDBF6C874A016901CE01BE
:1039100001963C01F4018C8580FD259180FF219169
:103920004F01222309F45BC3253241F480FD259128
:1039300080FF21914F01253291F409C02A3039F4DA
:103940006DE08CE297E02B8B0E9468122B89622F2E
:103950008CE297E00E94681256016501DBCF10E00F
:10396000F12C00E00032A0F42B3269F030F4203268
:1039700059F0233269F400612CC02D3239F0203324
:1039800039F4016026C00260046023C0086021C0D1
:1039900007FD28C080ED820F8A3078F406FF06C04C
:1039A000FAE01F9F800D1124182F13C02AE0F29E09
:1039B000800D1124F82E00620CC02E3221F406FD79
:1039C0000EC3006406C02C3611F4006802C028360D
:1039D00049F4F4018C8580FD259180FF21914F01F0
:1039E0002111C0CF8BEB820F833018F40061205E71
:1039F00006C08BE9820F833008F06CC10F7E06FF92
:103A000016E00F73502E253621F4902F9064592E16
:103A100008C0263621F4E02FE0685E2E02C01111A6
:103A2000115057FE06C01C3350F4EE24E394E10E0F
:103A300008C0183040F0E12C27E017E006C05CE336
:103A4000E52E27E002C0212FE12C5601F4E0AF0E55
:103A5000B11CF60160817181828193810E2DA301D9
:103A60000E9491216C01098100FF02C003FF07C081
:103A700051FC08C052FE09C040E2442E07C03DE29E
:103A8000432E04C02BE2422E01C0412C802F8C70AB
:103A900019F0411063C29CC257FE0FC0EC0C04FF2A
:103AA00004C08A81813309F4EA941E1474F5F8E0A5
:103AB000FE1578F598E0E92E2CC056FC2AC0812F1F
:103AC00090E08C159D059CF02CEFC2162FEFD206CE
:103AD00074F0852D8068582E0AC0E2E0F0E0EC0F0B
:103AE000FD1FE10FF11D8081803319F41150111178
:103AF000F4CF57FE0EC0EE24E394E10E812F90E048
:103B0000C816D9062CF41C1904C0EE24E39401C095
:103B100010E057FE06C01C141D0434F4C6010196C3
:103B200005C085E090E002C081E090E04110019680
:103B3000112331F0212F30E02F5F3F4F820F931F71
:103B40002F2D30E08217930714F4F81A01C0F12CDE
:103B5000852D897049F4FF2039F060E28CE297E00E
:103B60000E946812FA94F7CF442029F0642D8CE269
:103B700097E00E94681253FC09C0FF2039F060E30F
:103B80008CE297E00E946812FA94F7CF57FE54C077
:103B90009C2D8D2DD7FE02C090E080E0292E382E7E
:103BA000412C512CF601EE19F109FE87ED87C60173
:103BB00082199309988B8F87612F70E0EE27FF277A
:103BC000E61BF70BFA8BE98BFFEF2F163F0629F464
:103BD0006EE28CE297E00E946812C214D3046CF08B
:103BE0008D859E858215930544F4EF85F889E40D53
:103BF000F51DE60DF71D618101C060E391E0291A12
:103C00003108EFEF4E1A5E0A89899A89281639061B
:103C10002CF08CE297E00E946812D6CF2C143D0461
:103C200009F053C08A81863328F4853309F04DC0EA
:103C300004FD4BC061E349C06A81613309F00F7E26
:103C40008CE297E00E946812111104C054FC17C066
:103C500065E616C06EE28CE297E00E94681282E090
:103C6000EE24E394E80EF301E80FF11D60818CE28D
:103C700097E00E94681211508E2D91F7E7CF65E40E
:103C80008CE297E00E946812D7FC05C0C114D104F1
:103C900039F404FF05C0D194C194D1086DE201C08C
:103CA0006BE28CE297E00E94681260E3EAE0CE16D5
:103CB000D1042CF06F5F9AE0C91AD108F7CF8CE2DB
:103CC00097E00E94681260E36C0D8CE297E00E941E
:103CD000681258C1233631F0233781F0233509F0BB
:103CE00055C020C05601F2E0AF0EB11CF601808134
:103CF000898344244394512C630112C05601F2E09D
:103D0000AF0EB11CF601C080D18006FF03C0612F49
:103D100070E002C06FEF7FEFC6010E946E362C018B
:103D20000F7713C05601F2E0AF0EB11CF601C08050
:103D3000D18006FF03C0612F70E002C06FEF7FEFFC
:103D4000C6010E9463362C01006803FD1BC08F2D45
:103D500090E048165906B0F460E28CE297E00E94C9
:103D60006812FA94F4CFF60107FD659107FF61919F
:103D70006F018CE297E00E946812F110FA94F1E072
:103D80004F1A51084114510471F7FCC0243611F048
:103D9000293661F5560107FF09C024E0A20EB11CC7
:103DA000F60160817181828193810AC0F2E0AF0ED9
:103DB000B11CF60160817181072E000C880B990BF4
:103DC0000F76C02E97FF0AC09095809570956195EB
:103DD0007F4F8F4F9F4FF02FF068CF2E2AE030E0BB
:103DE000A3010E946922D82ED61848C0253729F48D
:103DF0000F7EE02E2AE030E025C0802F897FE82E5C
:103E00002F36C1F018F4283579F0E9C0203719F0C1
:103E1000283721F0E4C0982F9061E92EE4FE0DC010
:103E2000EE2DE460EE2E09C004FF0AC0F82FF66004
:103E3000EF2E06C028E030E005C020E130E002C0EF
:103E400020E132E05601E7FE09C084E0A80EB11C73
:103E5000F601608171818281938108C0F2E0AF0E2A
:103E6000B11CF6016081718180E090E0A3010E94A5
:103E70006922D82ED618FE2DFF77CF2EC6FE0BC096
:103E80000C2D0E7FD11650F4C4FE0AC0C2FC08C02F
:103E90000C2D0E7E05C0ED2C0C2D03C0ED2C01C0A9
:103EA000E12E04FF0DC0FE01ED0DF11D8081803378
:103EB00011F4097E09C002FF06C0E394E39404C034
:103EC000802F867809F0E39403FD11C000FF06C03F
:103ED0001D2DEF1418F41F0D1E19EF2CEF1458F4BC
:103EE00060E28CE297E00E946812E394F7CFEF144F
:103EF00010F4FE1801C0F12C04FF0DC060E38CE249
:103F000097E00E94681202FF14C001FD02C068E73A
:103F10000CC068E50AC0802F867859F001FF02C006
:103F20006BE201C060E207FD6DE28CE297E00E9467
:103F30006812D11638F460E38CE297E00E946812B0
:103F40001150F7CFDA94F301ED0DF11D60818CE291
:103F500097E00E946812D110F5CF14C024E02F150D
:103F600020F584E0F81A53FE17C041101FC003FF6C
:103F700023C00BE818E0F52DF0715F2EF801649175
:103F800061111DC0FF2009F4E8CC60E28CE297E0EB
:103F90000E946812FA94F6CF60E28CE297E00E94E9
:103FA0006812FA94F110F8CFE0CFF12C642D8CE276
:103FB00097E00E946812DBCF07E818E0DCCF5110D1
:103FC00060528CE297E00E9468120F5F1F4FD6CFBD
:103FD00083E08F1510F483E0C5CFF12CC8CF639632
:103FE0000FB6F894DEBF0FBECDBFDF91CF911F910A
:103FF0000F91FF90EF90DF90CF90BF90AF909F9088
:104000008F907F906F905F904F903F902F9008958A
:10401000CF93DF93CDB7DEB79E01275F3F4F4F8130
:10402000588561E08CE297E00E946A1CDF91CF9195
:1040300008957F936F939F938F938FE798E09F935B
:104040008F938CE297E09F938F930E9408208DB707
:104050009EB708960FB6F8949EBF0FBE8DBF089509
:10406000009769F0FC0101900020E9F73197AF015A
:10407000481B590BBC018CE297E00C94AC0F80E01C
:1040800090E008958F929F92AF92BF920F931F93EB
:10409000CF93DF93CDB7DEB7A1970FB6F894DEBF0D
:1040A0000FBECDBF19A2423008F44AE08E010F5D69
:1040B0001F4F842E912CA12CB12CA50194010E949C
:1040C0008D3AE62FB901CA0101501109EA3014F402
:1040D000E05D01C0E95CD801EC93232B242B252B58
:1040E00061F7C8010E943020A1960FB6F894DEBF98
:1040F0000FBECDBFDF91CF911F910F91BF90AF90B9
:104100009F908F9008959F92AF92BF92CF92DF922F
:10411000EF92FF920F931F93CF93DF93CDB7DEB74C
:104120002A970FB6F894DEBF0FBECDBFD62EB72E9E
:10413000C42EA22E9EEF99834A83309123073B839E
:10414000909111019C83909112019D838E833F5F1A
:10415000309323078FEF9FEF98878F838E010E5F39
:104160001F4F7E0187E0E80EF11C0E151F0539F088
:10417000B701F80181918F010E94330FF6CF8F8133
:1041800098859A8789870D2D1B2D9C2C9D0CBE012F
:10419000675F7F4F901631F0F80181918F010E9487
:1041A000330FF5CF8A2D0E94330F99858A859F831F
:1041B000888766E0CE0101960E940A156C2D8D2D30
:1041C0009B2D0E940A1562E0C7010E940A152A96DB
:1041D0000FB6F894DEBF0FBECDBFDF91CF911F9118
:1041E0000F91FF90EF90DF90CF90BF90AF909F9096
:1041F0000895CF93DF93CDB7DEB79E01275F3F4F82
:104200004F81588560E08CE297E00E946A1CDF9144
:10421000CF910895DF92EF92FF920F931F93CF9368
:10422000DF93C9E3D8E0FE01059114910115110552
:1042300009F46FC0FE013296849181110E94CA1266
:10424000FE01339684913196E590F490893691F091
:1042500030F4813609F43FC08836C1F004C083379A
:10426000F1F0863729F150E2D52E60E070E080E869
:104270009FE33AC0F70160817181072E000C880B23
:10428000990B0E94803640E2D42E35C0E0911A0787
:10429000F0911B073996D4900E948E0925C0E091B9
:1042A0001A07F0911B073896D4900E9446091CC04B
:1042B0000E948E0920910F07211114C0E0911A0766
:1042C000F0911B077296D49020E030E040E752E472
:1042D0000E94DF3609C031E4D32E6AE077ED83E235
:1042E0009CE302C028E1D22EF70120813181428176
:1042F00053810E94DF362D2DAB01BC01C8010E9405
:1043000085070E9429072796F8E0CF37DF0709F0D5
:104310008ACFDF91CF911F910F91FF90EF90DF90A7
:104320000895283008F027E03327DA01990F311D6E
:1043300087FD916000966105710539F432602E5F4A
:104340003D9330E32A95E1F708959F3F30F08038A0
:104350007105610509F03C5F3C5F3D93913008F0C9
:104360008068911DDF93CF931F930F93FF92EF927D
:10437000192F987F9695E92F96959695E90FFF2727
:10438000E15EF64F99273327EE24FF24A701E701CA
:1043900005900894079428F4360FE71EF81E491F6D
:1043A000511D660F771F881F991F0694A1F705906E
:1043B000079428F4E70EF81E491F561FC11D770FFA
:1043C000881F991F661F0694A1F70590079428F48B
:1043D000F80E491F561FC71FD11D880F991F661F52
:1043E000771F0694A1F70590079420F4490F561FF4
:1043F000C71FD81F990F661F771F881F0694A9F73C
:1044000084911095177041F0D695C79557954795AB
:10441000F794E7941A95C1F7E5ECF8E068941590E5
:10442000159135916591959105907FE27395E1180D
:10443000F10A430B560BC90BD009C0F7E10CF11E72
:10444000431F561FC91FD01D7EF4703311F48A9587
:10445000E6CFE894015030F0080F0AF40027021765
:1044600008F4202F2395022F7A3328F079E37D93E7
:104470002A95E9F710C07D932A9589F606949795B9
:104480006795379517951794E118F10A430B560B6A
:10449000C90BD00998F023957E9173957A3308F073
:1044A00070E37C932013B8F77E9170617D9330F0B8
:1044B000839571E37D9370E32A95E1F71124EF90E2
:1044C000FF900F911F91CF91DF91992787FD9095D4
:1044D0000895FA01AA27283051F1203181F1E8949A
:1044E0006F936E7F6E5F7F4F8F4F9F4FAF4FB1E0E7
:1044F0003ED0B4E03CD0670F781F891F9A1FA11DE2
:10450000680F791F8A1F911DA11D6A0F711D811DE2
:10451000911DA11D20D009F468943F912AE0269FA7
:1045200011243019305D3193DEF6CF010895462F06
:104530004770405D4193B3E00FD0C9F7F6CF462FE7
:104540004F70405D4A3318F0495D31FD4052419350
:1045500002D0A9F7EACFB4E0A6959795879577950D
:104560006795BA95C9F700976105710508959B0194
:10457000AC010A2E06945795479537952795BA951D
:10458000C9F7620F731F841F951FA01D0895CF9256
:10459000DF92EF92FF920F931F93E82FF92F05C040
:1045A000015011092109310961F190819623941775
:1045B000B9F305C0015011092109310911F19081A8
:1045C00096239413F7CFC12CD12CE12CF12C0AC0E7
:1045D0008FEFC81AD80AE80AF80A0C151D052E052F
:1045E0003F0579F080818623841791F36C2D7D2D12
:1045F0008E2D9F2D1F910F91FF90EF90DF90CF9008
:10460000089560E070E080E090E01F910F91FF90CE
:10461000EF90DF90CF900895CF93DF93CDB7DEB7C3
:10462000A2970FB6F894DEBF0FBECDBF789484B5C5
:10463000826084BD84B5816084BD85B5826085BD9E
:1046400085B5816085BD80916E00816080936E002C
:10465000109281008091810082608093810080911E
:1046600081008160809381008091800081608093CF
:1046700080008091B10084608093B1008091B0008F
:1046800081608093B00080917A00846080937A008A
:1046900080917A00826080937A0080917A008160B4
:1046A00080937A0080917A00806880937A001092DB
:1046B000C1000FB6F894A89580916000886180933E
:1046C0006000109260000FBE60E071EE80E090E04C
:1046D0000E9428124EE450E060E072E08DE292E029
:1046E0000E94F30D80912D0281FD03C089E592E0C7
:1046F00002C08CE692E090931B0780931A0780918A
:1047000047028F3421F4809148028A3119F081E008
:104710008093160784B58C7F84BD80912E0284FF20
:1047200002C081E001C083E08093000180917A00A3
:104730008B7F80937A0080917A00866080937A00E4
:10474000809169008C7F826080936900E89A8091F3
:104750003202813059F462E083E00E9413118091AB
:104760006900837F846080936900E99A88E297E01A
:1047700090938C0280938B02E9ECF2E064918F01BC
:104780000F5F1F4F662331F088E297E00E946812A6
:10479000F801F4CF5E9A0E946F12789480914902DA
:1047A000893341F480914A02833321F480914B0292
:1047B000843389F089E38093490283E380934A023A
:1047C00084E380934B0243E050E06CE172E089E4C3
:1047D00092E00E94C50D80917A02882351F01092D8
:1047E0007A0241E050E06DE472E08AE792E00E94D4
:1047F000C50D80917202882349F1E0917302EE2386
:1048000029F1F0E0EC53FD4F1491212F30E0F90134
:10481000EF54FD4F9491F901E356FD4F24912093FD
:104820000502E92FF0E0EE0FFF1FED56FD4F8591D9
:10483000949190933F0180933E01222319F080E0F0
:104840000E940B1461E0812F0E94131161E086E049
:104850000E94131162E082E00E94131161E08AE07D
:104860000E941311E9E8F2E08491E7EAF2E0049192
:10487000EBEBF2E01491112389F081110E94EA1010
:10488000E12FF0E0EE0FFF1FED56FD4FA591B49123
:104890008FB7F894EC91E02BEC938FBF0E94DF135D
:1048A0000E9471130E94BE130E949F0D0E94210F4F
:1048B00083EA91E022E3281B2F8F80E092E0AC0195
:1048C0004D52524059A348A3A89578940E94A6112E
:1048D0006C8B7D8B8E8B9F8B28EE33E040E050E01D
:1048E0000E948D3A30938A02209389026C897D89D7
:1048F0008E899F896C3D75408105910520F08091DE
:104900001607882319F00E949F0DDECFF09018043F
:10491000FF2009F43BC080911307811137C013E0D9
:10492000D12EEE24E39402ED12E0F8013196849149
:104930006091AA02662339F0880F880F0E94593AC5
:10494000811101C081E0F801249190E09A8389836C
:10495000FB821C822D83EE8224E946E0BE016F5F5C
:104960007F4F82E40E9483200E5F1F4FF2E00E3DD6
:104970001F07D9F666E970E080E090E00E946C11B4
:10498000DA94D110D0CF81E080931307ABEAEA2EFE
:10499000A2E0FA2EB0E4CB2EDD24D3948091FE0663
:1049A000811109C08091FF06811105C0809108071F
:1049B000882309F450C201E010E069E0A62EB12C72
:1049C00076E0272E312CE5E04E2E512CF3E06F2EB1
:1049D000712CA4E08A2E912CB2E0EB2EF12CCC2489
:1049E000CA94DC2C0E941912882309F42AC20E945E
:1049F000FC11282F10921C0780911F07909120070F
:104A00008B30910508F0C6C0FC01EC5CFF4F0C94A4
:104A1000CE3A10922707109226072E3F29F01093C6
:104A2000200700931F07B6C0F0922007E0921F07EF
:104A30001092AE02D092AC02C092AB02ABC02093F7
:104A4000AE0210922107622F8BEA92E00E94550F6E
:104A50009092200780921F079DC02093AF02622F83
:104A60008BEA92E00E94550F7092200760921F0718
:104A700091C02093B002622F8BEA92E00E94550F02
:104A80005092200740921F0785C02093B102622FE9
:104A90008BEA92E00E94550F3092200720921F0768
:104AA00079C02093B202622F8BEA92E00E94550FE8
:104AB0008091AE02811107C028E030E030932007DA
:104AC00020931F0767C047E050E0509320074093B2
:104AD0001F0760C0E091210781E08E0F80932107BE
:104AE000F0E0ED54FD4F2083622F8BEA92E00E94AC
:104AF000550F909121078091AE0298134BC0DCCFE7
:104B0000E091B202F0E0E252FD4F64918BEA92E054
:104B10002AA30E94550F2AA1422F50E08091AB0298
:104B20009091AC0299274817590751F02E3F09F48C
:104B30007BCF6AE070E07093200760931F072AC064
:104B4000B0922007A0921F07E0912107F0E0ED54FA
:104B5000FD4F1FC0422F50E07091AC02798F1A8E2A
:104B6000A98DBA8D4A175B0711F40A9731F4809129
:104B70001E078F5F80931E0750CFB1E0B0931C07D4
:104B80001093200700931F07E0912107F0E0EC54F9
:104B9000FD4F208320911C07222399F08091AF02C2
:104BA000809322078091240790912507009721F494
:104BB000109227071092260701969093250780935D
:104BC0002407809122078F5F8F8380912407909123
:104BD00025079A87898780911E0790E09C878B879D
:104BE00080911D078A8310921E07222309F409C1B0
:104BF0000E94FF078091B202833809F099C090911A
:104C0000B0028091A902981393C08091B1028436BA
:104C100009F08EC08091B3029091B4022091A70256
:104C20003091A8028217930709F482C09093A802DA
:104C30008093A7028091B5028E3E09F079C08091E1
:104C4000B6028F3409F074C08091B702833509F041
:104C50006FC08091B802843409F06AC08091B902B3
:104C6000823721F1873721F0823609F061C011C007
:104C70006091BA024091BB0250E0E0E86E9FB00143
:104C800011248CEB92E00E94C50D81E08093100707
:104C90004FC08091BB0281114BC0809110078823C7
:104CA00009F446C0EE27FF27099442C06091BA027A
:104CB0004091BB0250E0F0E86F9FB00111248CEBF3
:104CC00092E00E94F30D8EEF8093AD028FEF809300
:104CD000AE0283E88093B202809111018093B0020A
:104CE00084E68093B1028FEF9FEF9E878D870EEA57
:104CF00012E0BE01635F7F4FB3E0023B1B0731F060
:104D0000D8018D918D010E94330FF3CF8FED0E945A
:104D1000330F66E08DEA92E00E940A156FEF83EB95
:104D200092E00E940A1562E0CE010D960E940A15DB
:104D30008091B202882389F020911804222311F473
:104D40000C9431329091B002291711F40C94313245
:104D5000933309F076C00C9431328091B7028630DB
:104D600049F48091B0028093A9021092A802109297
:104D7000A70267C0853009F464C08A3109F461C0B4
:104D80008091B802809370018091B90287FB8827D7
:104D900080F9809303078091B3028093A5018091ED
:104DA000B002809318048091A602811121C08091E5
:104DB000A502882391F0809115078A3020F48F5F37
:104DC0008093150719C0109213078091AA028F379C
:104DD00098F4880F8093AA020FC0809114078A303C
:104DE00020F48F5F8093140707C01092130704C04C
:104DF00010921507109214071092A6021092A502A5
:104E000020C00E94420BEECD8F3310F00C94F23490
:104E10008D3111F40C94AF3210F00C949933823030
:104E200011F40C94B93210F40C941133883111F44C
:104E30000C9433338B3129F48091A5028F5F8093DA
:104E4000A5028091FE068093FF068091FC068823D0
:104E500009F4B0C171C0F7012C2D11922A95E9F720
:104E60001092C1000E94A6114B015C0134E6830E32
:104E7000911CA11CB11C0AEF1FEF0E94A6118616FF
:104E80009706A806B906A8F024EC39E040E050E007
:104E900060E080E00E94B8106F3F710581059105C8
:104EA00009F02CF4662319F0611708F4162F01504D
:104EB00021F71F3F19F41091010102C01093010165
:104EC0001B3068F0133170F01D3178F0183280F02B
:104ED0001C3388F0163990F021E080E411C028E1FD
:104EE00082E00EC02CE084E00BC028E086E008C021
:104EF00026E088E005C024E080E102C022E080E2F4
:104F00008093AA0230E0A0ECB2E10E94B3374B01DB
:104F10005C016093CC037093CD038093CE03909398
:104F2000CF0388E297E00E941E10C501B4010E94E1
:104F30002812D092FF0632CDF090F7018091320214
:104F4000833008F42CC1833029F40091A60110911C
:104F5000A70111C09BEF980F943048F4E82FF0E0C0
:104F6000EE0FFF1FEC5FFD4F0081118104C0009127
:104F7000140210911502980120523340293938400B
:104F800008F00DC1209105013091060102171307A9
:104F900020F4109306010093050120910301309144
:104FA00004012017310720F410930401009303013A
:104FB000843029F51091A5018AEF810F823008F421
:104FC000BDC08091C303811779F01093C30360E0E3
:104FD00070E08FEB93E00E94680A80910201181341
:104FE00003C081E0809300078FEB93E00E94C90823
:104FF000813D974008F4A2C0109302019FC08091A8
:10500000370281111FC0809103019091040120910A
:10501000050130910601609174022017310758F4A0
:10502000021B130B821B930B70E00E94653AC801B0
:105030000E94653A01C060E0F61609F47FC06093F3
:10504000F7017CC080912D0282FF39C0C090BD0362
:10505000D090BE030C151D0509F441C0C8018C1980
:105060009D09893C9105D8F18091BB039091BC03C7
:105070000817190731F0B801681B790B683C7105F6
:1050800078F48FEB93E00E94C908893E934018F0B2
:1050900081E0809300071092BC031092BB031FC0F5
:1050A00060E070E08FEB93E00E94680AD092BC034E
:1050B000C092BB031093BE030093BD0310C02091A8
:1050C0000301309104018091050190910601280FA0
:1050D000391F3695279581E02017310708F080E0C9
:1050E00090912D0290FF10C0882321F081E08093E1
:1050F000010724C080910107882319F081E0809383
:105100000007109201071AC08823C1F08090BF03E6
:105110009090C003A090C103B090C2030E94A6115A
:1051200086169706A806B90648F481E08093000722
:1051300064EF71E08FEB93E00E94680A80910007B2
:10514000882369F0109200078091F7018F5F8093A8
:10515000F70190917402981710F41092F701809162
:10516000F701F816E1F00E94210F809112078111DA
:1051700014C0A1E7B1E0E6EEF3E084918D9331969F
:105180008111FBCF9091F70180917801890F809375
:10519000780163E088E00E942E0910921207809146
:1051A000FD06811105C081E08093FD068093880291
:1051B0001092FC068091FD06882309F44EC180916F
:1051C000880281114AC11092FD068091CD01882389
:1051D00019F091E090930E079091FC01998B9B3010
:1051E00008F023C490910307911130C490930407F1
:1051F00090910A07992309F438C480910A07811114
:1052000054C488EC93E00E94C9089B8B8A8B60E0B1
:1052100070E088EC93E00E94680A2A893B89B90112
:1052200080E090E00E947E360E943F094B015C01C5
:105230006091160270911702072E000C880B990BD3
:105240000E9480366B017C0160911F0270912002E8
:1052500080E090E00E947E3620E030E543EC57E4A9
:105260000E94A638A70196010E94DF36AB01BC015F
:105270002AE08DEE91E00E943D08109109014090D6
:10528000E9015090EA016090EB017090EC010E94FE
:105290008E099B01AC01C301B2010E94DF3620E000
:1052A00030E040E752E40E94DF36AB01BC01212F21
:1052B00085EE91E00E943D0820911E028091E4015C
:1052C000082E000C990B422F50E08417950714F418
:1052D0002093E40180913102882309F489C4A50157
:1052E0009401C701B6010E94DF3620E030E044EBB4
:1052F00053E40E94A638AB01BC0184ED96E00E9405
:105300002B088091D7039091D80320913B0220FD78
:1053100098C4209075023090760200917702109127
:105320007802021513050CF085C4322D232D1801C7
:10533000032F122F41E0488F322D232D28163906D6
:1053400014F4382F292F632F722F061717070CF428
:10535000B8016219730980E090E00E947E366B8F7D
:105360007C8F8D8F9E8FB8016219730980E090E069
:105370000E947E369B01AC016B8D7C8D8D8D9E8D48
:105380000E94A63820E030E048EC52E40E94DF366C
:105390000E941839653671050CF44EC464E670E05D
:1053A000588D552331F084E690E0DC01A61BB70B45
:1053B000BD017093E3016093E2018091070780FDD6
:1053C00045C40E947113809131021091030781112D
:1053D000E8C41111B7C4109304078091740285309A
:1053E00018F084E08093740288EF91E00E94C9086D
:1053F000853C994008F4E9C41092FD011092FE0129
:105400001092FF011092000262E085E00E944913B1
:105410006091890270918A028091F1019091F2016C
:10542000681B790B8FEE93E00E9433076091CC03E9
:105430007091CD038091CE039091CF0361157105DA
:105440008105910519F04AE00E94422083E094E42E
:105450000E94C01A81E08093870280911404909189
:105460001504A0911604B09117042C893D894E892A
:105470005F8982179307A407B507E0F464E170E041
:1054800084E194E00E94590A80910502882319F072
:1054900081E00E940B1480918702882359F080914B
:1054A0008802882339F083E892E00E94C908C397F4
:1054B00008F09FC78091100490911104A0911204EC
:1054C000B09113044C895D896E897F898417950793
:1054D000A607B70708F059C264E670E080E194E0DF
:1054E0000E94590A80912D0284FD05C080912902F5
:1054F000882309F49AC010910D011F5F10930D01CC
:1055000080E10E944F111770E12FF0E0EE0FFF1FB6
:10551000E650FC4F9183808360E070E088E081502A
:10552000E82FF0E0EE0FFF1FE650FC4F20813181A5
:10553000620F731F8111F3CF20912102309122025B
:1055400047E0429FC001439F900D1124860F971F93
:1055500023E0969587952A95E1F790932202809310
:10556000210280912D0284FF60C080E090E00E94C3
:105570007E3620914F02309150024091510250915D
:1055800052020E94DF3629E53EEE49E050E40E94D7
:10559000DF360E941F3940911F02509120024115B1
:1055A000510529F47093200260931F0212C09A01E2
:1055B000220F331F240F351F2E5F3F4FA901460FC7
:1055C000571F5695479556954795509320024093FF
:1055D0001F0281E08093FC06E09136028E2F61E28B
:1055E0000E94593A482F80911F0290912002C29642
:1055F00064E670E00E94653AF0E09B012E1B3F0BD1
:10560000AFEFB0E00E94B3375AE2459F90011124FA
:105610002E1B3F0B032E000C440B550B0E94AF3A80
:10562000C9010E94341580931E0280912D0285FFCE
:1056300004C080911807811105C080912A02882337
:1056400009F497C010910C011F5F10930C018EE0BC
:105650000E944F111770E12FF0E0EE0FFF1FE6518F
:10566000FC4F9183808360E070E088E08150E82FF8
:10567000F0E0EE0FFF1FE651FC4F20813181620FF9
:10568000731F8111F3CF209123023091240247E050
:10569000429FC001439F900D1124860F971FA3E0E6
:1056A00096958795AA95E1F790932402809323021B
:1056B00080912D0285FF5DC080E090E00E947E36E3
:1056C000209153023091540240915502509156025C
:1056D0000E94DF3629EA3CEC48E050E40E94DF36C5
:1056E0000E941F3940911C0250911D024115510525
:1056F00029F470931D0260931C0212C09A01220FBC
:10570000331F240F351F2E5F3F4FA901460F571F30
:10571000569547955695479550931D0240931C0208
:10572000E0916F028E2F61E20E94593A482F8091DA
:105730001C0290911D02C29664E670E00E94653AD8
:10574000F0E09B012E1B3F0BAFEFB0E00E94B337A0
:10575000AAE24A9F900111242E1B3F0B032E000C3E
:10576000440B550B0E94AF3AC9010E943415809337
:10577000E90380912D0286FD05C080912B028823CC
:1057800009F47BC080911A02882351F020E137E2AE
:1057900040E050E061E08FE00E94B810CB0103C010
:1057A0008FE00E944F11E0910B01EF5FE0930B013E
:1057B000E770F0E0EE0FFF1FE752FC4F918380830C
:1057C00060E070E088E08150E82FF0E0EE0FFF1F0E
:1057D000E752FC4F20813181620F731F8111F3CF9B
:1057E000209125023091260247E0429FC001439F4D
:1057F000900D1124860F971F33E0969587953A9563
:10580000E1F7909326028093250280912D0286FF76
:1058100034C080E090E00E947E36209157023091A3
:1058200058024091590250915A020E94DF362DE0F1
:1058300032E348EC5CE30E94DF360E941F3940915E
:105840001602509117024115510529F47093170261
:105850006093160212C09A01220F331F240F351FC6
:105860002E5F3F4FA901460F571F569547955695F6
:105870004795509317024093160280913B028695FC
:10588000813041F050F1823049F0833051F5809100
:10589000D50325C081E10E944F1109C020E23EE4FA
:1058A00040E050E061E081E10E94B810CB010E942D
:1058B0003F1520915B0230915C0240915D02509156
:1058C0005E020E94DF360E941F397093D8036093F6
:1058D000D70381E08093FC063AC08091D60390E024
:1058E00004C080911402909115020E943F150E94FD
:1058F0001F397093D8036093D70380912C028823BB
:1059000031F180911B02882349F020E137E240E029
:1059100050E061E081E10E94B81004C081E10E9482
:105920004F11BC01809127029091280247E0489FC7
:105930009001499F300D1124620F731F83E076950B
:1059400067958A95E1F770932802609327029091FA
:105950000C0781E0892780930C078823B1F08091A0
:105960008202882369F08F5F80938202833068F01F
:10597000809181028F5F809381021092820205C024
:10598000809181028F5F8093810280910C049091BD
:105990000D04A0910E04B0910F042C893D894E890D
:1059A0005F8982179307A407B50710F00C9464244D
:1059B00064EF71E08CE094E00E94590A81E08093EA
:1059C000FC0680930B0790910B049F5F90930B0450
:1059D00090910807982790930807992311F40C9445
:1059E00064248093020780911707882399F080919F
:1059F0007D0290917E02A0917F02B091800201967B
:105A0000A11DB11D80937D0290937E02A0937F0221
:105A1000B093800280917C02882309F4F1C48091C4
:105A20007B02853008F413C5EBC420910701309147
:105A3000080120373E4F09F0D5CB2091CB013091A2
:105A4000CC013093080120930701CCCB20910407AF
:105A50002111CCCB10920A072091CB013091CC01BF
:105A60003093080120930701C1CB833008F4C5CBE4
:105A70008CE0E3EBF1E0AFEBB1E001900D928A95A1
:105A8000E1F781E080930A078091D2019091D301E0
:105A9000A091D401B091D5018093AF019093B00152
:105AA000A093B101B093B201A8CB8090BF019090B8
:105AB000C001A090C101B090C20120E030E0A90176
:105AC000C501B4010E94B43925E33AEF4EE85CE326
:105AD00018161CF4C501B40103C0C501B4019058E7
