:100000000C94E3040C94E5160C9472160C940B05F6
:100010000C940B050C940B050C940B050C940B0520
:100020000C940B050C940B050C940B050C940B0510
:100030000C940B050C940B050C940B050C940B0500
:100040000C9494120C940B050C94E60F0C94BA0FBC
:100050000C940B050C940B050C940B050C940B05E0
:100060000C940B050C940B05332537254925632586
:1000700057256F257B259425AA25D425D425084A04
:10008000D73B3BCE016E84BCBFFDC12F3D6C7431AC
:100090009ABD56833DDA3D00C77F11BED9E4BB4C03
:1000A0003E916BAAAABE000000803F05A84CCDB2CD
:1000B000D44EB93836A9020C50B9918688083CA6AE
:1000C000AAAA2ABE000000803F0664EC1B3C04BCC8
:1000D000163E3BE5B93CC93C37C29E5A3D66049882
:1000E000083EEA69AAAA3E000000803F5069746396
:1000F0006820696E204E54534300526F6C6C202070
:10010000696E204E54534300506974636820696ED1
:100110002050414C00526F6C6C2020696E20504181
:100120004C002020486F72697A6F6E20616E676C98
:10013000657300566572746963616C206F666673DF
:1001400000486F72697A6F6E74616C206F666673B7
:1001500000436F6E74726173740053637265656EF1
:100160007320436F756E7400202053637265656E53
:1001700020706172616D7300525353492077617230
:100180006E696E67004261747420636861726765AE
:10019000207761726E004F766572737065656420BA
:1001A0007761726E696E67005374616C6C20776161
:1001B000726E696E670042617474203220776172DA
:1001C0006E696E670042617474657279207761723E
:1001D0006E696E67002020204F534420736574754C
:1001E0007000252E336600252E30660025332E3113
:1001F000667600220168000000150166630225088A
:100200000166670225FA00666B0225EC00666F0244
:1002100025D50100000000C501423A0200B60142A6
:10022000730200A80162390210960162380210853B
:100230000162400210780162410210680100000072
:10024000005A016278021151016237021241015ACB
:1002500075021333017A74021466666640000080EA
:100260003F100CBA000A00001BE8031A52B80E40F7
:1002700085EB51401966BB0012800C1CA0141E00B7
:100280000000080002010000030407000000000055
:1002900000000000000000250028002B00010204DF
:1002A00008102040800102040810200102040810F8
:1002B00020040404040404040402020202020203EF
:1002C0000303030303100E0F1123317A7A7A7A7A2B
:1002D0000A000601020203050A0A0B020C01327C25
:1002E0008900EDD968770000005900000000000087
:1002F0000000D69FDCA81817AA90437327F6B968A8
:10030000EDF4DED409FEE61C1C84DDE80B992927F8
:10031000D6DF8D210F036418EFEE1E99B782527657
:10032000941500347C000026149E988F0000006A0B
:1003300031168F8C059600E7B73F360000000000AD
:100340000000AF669ED0385D8A6C20B95422007CD4
:10035000ED044C80387486EDCBFA57CBDC19E20003
:100360001DDF5506E5CB01C30000000000000000C2
:10037000009AB20086DBD0BC5416131586004E449A
:10038000BD7F6F151590010000B500000000000052
:100390002F0000AEE5000000000000000000004754
:1003A000000000000000000000000000000000004D
:1003B000000000000000000000000000000000003D
:1003C0000000000000000000000000000000005AD3
:1003D00000000000000008CC31AA2C532E000206B9
:1003E0000A0F141E2D3C53637265656E2030004E5B
:1003F0006F20696E707574206461746121202575A9
:10040000FF000000FF000100040000000300E1FF06
:100410001F00F1FF0F00FCFF0400C0E0401F9CFF25
:10042000640001000A006400E803EC01E701E20156
:1004300020284E5453432900202850414C290011B4
:10044000020C0000F3010576146107096614000030
:1004500000000015AB0E0001DB1C0002D31C0003E2
:100460008F20BC844D2026059C1C00079B1F003458
:10047000961F0335911F0418530700062E09000824
:100480000D1F0009801F00250020008BFB200B0A98
:100490004E1E00191505000C6B1F000D801E5C110F
:1004A000790A11166F0A121246051417370513132D
:1004B000B90702148B1D7F0FBE20BD2EF71C571BE2
:1004C00057091D9CFB0A151D9B1C000E5C0B091E89
:1004D000F60C00211E080020131D0022B20A8F24F2
:1004E000431D1F2BE31C1F2C3B21002D2B14002F21
:1004F0007B1100A70F1D00A80B1D00A9071D00AA56
:10050000031D001F55050026BC1D0030DB10003107
:10051000F21000333E11002317110032BD13009A70
:10052000D40B000000000046656E636520466172D2
:10053000210046656E63652048696768210046654D
:100540006E6365204C6F77210042617474204220F5
:100550006C6F772100486967682056537065656441
:100560002100204C6F77205273736921004261741F
:1005700074657279204C6F7721004F7665725370E5
:10058000656564210020205374616C6C21004E6FFE
:100590002047505320666978210042616420436FF0
:1005A0006E6669673A202564206D79203739004DE1
:1005B000696E696D4F53442D4578747261204D41C9
:1005C000564C696E6B20322E34FF506C616E652084
:1005D00072393334204456FF0025303269FF003A27
:1005E000253032693A00B0B1B4B5B6B77B7DB8B941
:1005F00000253469050025352E31660020909100D4
:1006000025322E3066002520342E30660025203419
:100610002E3166002520342E3266008E0585057A3F
:10062000056D056205550549053E05320527052579
:10063000392E3566002531302E3666002530356C72
:1006400064002530366C640025690043256920006C
:100650002E253032640025346900253369002533A6
:100660002E30660020207820207920207AFF00207C
:10067000B3FF20B3FF20C5FF20B3FF20B300B2FFBC
:10068000B2FFC6FFB2FFB20035062F0642063C0697
:1006900025342E3066000302010000000000240013
:1006A00027002A0000000000230026002900A125C1
:1006B000372E3266009125372E32660025362E31D0
:1006C000660025372E3266003420285253534929BC
:1006D000204B0033202843757272656E7429204BBD
:1006E00000322028563229204B00202020202020B4
:1006F000204100312028563129204B002020205055
:10070000696E2053656E736F727300C2060B68EAE0
:100710000600BC068F68E60600BC061473E20600FD
:10072000BC061D73DE0600BC061268DA0600B506BC
:100730009076D60600AE06A076D20600BC06BD6155
:10074000CE0600BC065777CA0600BC060166C60680
:1007500000432564253569FF00696E66006E616E91
:1007600000FC0600000000F30673800225EA067311
:10077000840227E10673000025EA0673000027D3F0
:100780000673000026EA0673000027C806730000FF
:1007900026EA0673000027716C6F690071686F7636
:1007A000007173746200696E697400677569640032
:1007B0006C6F69740072746C006175746F006174A1
:1007C000756E006372757A006662776200666277A2
:1007D00061006163726F00747261690073746162B9
:1007E000006369726300696E6974006D69737300F8
:1007F0006D5F256400706F736800616C7468006DD4
:10080000616E750061726D0025346905070025343D
:100810006905060025352E32660025342E31660026
:100820006F7665726C6F61640066726F7A656E00D8
:1008300053747265616D00FF20CECECECE60CECEF9
:10084000CECE00FF20202024CB7C40CB2400828011
:10085000818081808480818081808380818081808B
:1008600085808180818020C8C8C8C87EC8C8C8C8A3
:1008700020FF0020202024CBB8B9CB24202020FF4B
:10088000002058650025326900FF07E107DC07D723
:1008900007D207CD07C807C307BE07F007B907B5DA
:1008A00007B007F007F007AB07A607A1079C07975B
:1008B000070408FF07FA07F507F007EB07F007F052
:1008C00007E60725342E32660000407A10F35A00FE
:1008D000A0724E18090010A5D4E80000E876481769
:1008E0000000E40B54020000CA9A3B000000E1F54E
:1008F00005000080969800000040420F000000A014
:100900008601000000102700000000E8030000003E
:10091000006400000000000A000000000001000068
:100920000000002C76D888DC674F0823DFC1DFAEDB
:1009300059E1B1B796E5E3E453C63AE651997696A4
:10094000E8E6C28426EB898C9B62ED407C6FFCEF6D
:10095000BC9C9F40F2BAA56FA5F490055A2AF75C9B
:10096000936B6CF9676DC11BFCE0E40D47FEF5204D
:10097000E6B500D0ED902E03009435770500808415
:100980001E080000204E0A000000C80C3333333329
:100990000F986E12831141EF8D2114893BE6551695
:1009A000CFFEE6DB18D1844B381BF77C1D901DA4CD
:1009B000BBE424203284725E228100C9F124ECA1C0
:1009C000E53D27004B3611241FBECFEFD8E0DEBF38
:1009D000CDBF27E0A0E4B1E001C01D92A833B2076B
:1009E000E1F711E0A0E0B1E0EEEDF6E702C005901E
:1009F0000D92A034B107D9F714E0C3EED4E004C0DF
:100A00002197FE010E94033BC23ED107C9F70E9415
:100A100036230C946D3B0C9400008BE198E0019719
:100A2000F1F7089580E090E0089596FB442740F99F
:100A30006091E2017091E3018091E4019091E50100
:100A40000C94CD15CF93DF9388E80E947813CFE004
:100A5000D1E088810E94AC1389810E94AC138EE89A
:100A6000DF91CF910C94781385E20C94781396FB68
:100A7000222720F94091DA015091DB016091DC01DD
:100A80007091DD018EE596E00C94631596FB2227AC
:100A900020F940910102509102026091030270918D
:100AA00004028EE596E00C946315292F80918D0247
:100AB00090918E028F739927029710F026FF04C041
:100AC00082E492E00C943A1B08952F923F924F9249
:100AD0005F926F927F928F929F92AF92BF92CF92CE
:100AE000DF92EF92FF920F931F93CF93DF93CDB7D7
:100AF000DEB72F970FB6F894DEBF0FBECDBF809143
:100B0000F701803489F44090670250906802609049
:100B1000690270906A0220916302309164024091F0
:100B200065025091660210C040906F0250907002B2
:100B3000609071027090720220916B0230916C0291
:100B400040916D0250916E0260916B0170916C0149
:100B5000072E000C880B990B2A873B874C875D87F3
:100B60000E94B5362A853B854C855D850E941437E9
:100B70004B015C0180912E0480FF04C0B7FAB09451
:100B8000B7F8B094C501B4010E944D39AB016A3584
:100B9000710538F09B012D543F4F2935310578F40C
:100BA000A9014734510564F54A3151050CF54A3025
:100BB000510518F128E02F8783EF10ED2EC06B351B
:100BC00071051CF0AB01435B5109CA0157FF03C01B
:100BD0009195819591098734910594F48A31910515
:100BE0009CF40A97B0F038E03F8785EF12EE15C00D
:100BF00047E04F8788EF19ED10C059E05F870BC0C1
:100C00001F868DEC11EC09C067E06F878BEF1BEE40
:100C100004C089E08F878DEC16EC2CE030E03A833D
:100C2000298300E04F85042E000C550B58874F8315
:100C300086508987202F002E000C330B3C832B839A
:100C40006091690170916A01620F731F072E000C99
:100C5000880B990B0E94B53627EA32E94BE25CEB30
:100C60000E941437A30192010E9414370E94403A57
:100C700020E030E040EA50E40E94143720E030E009
:100C800040E951E40E9414376B017C0120E030E020
:100C9000A9010E94E93920E030E040E05FE387FDF0
:100CA0000BC0C701B6010E94F8370E944D391B01E5
:100CB0003DE2230E311C0AC0C701B6010E94F7377E
:100CC0000E944D391B014DE2240E311C9DE05981DB
:100CD000951B9E878B819C819195819591099E831F
:100CE0008D836E85862F90E029813A8128173907F8
:100CF0000CF47DC025E33AEF4EE85CE3C501B40196
:100D00000E9414370E94403A6B017C019E852CE0C2
:100D1000929F602D11246E54062E000C770B880BC9
:100D2000990B0E94B5369B01AC01C701B6010E9428
:100D300014370E944D399101260F371FC9010197C1
:100D40008A35910508F04FC062E170E00E94AE3A2A
:100D50007B014F85442379F05EEE5603C001579F17
:100D6000900D1124820F931F019697FD0196959582
:100D70008795D82E01C0D12C64E06E198E858150E4
:100D80000E948C13002399F06E85653081F46B818D
:100D90007C8177FF02C06D817E81072E000C880B5D
:100DA000990B4AE00E944C1B86E08E8704C08D2D73
:100DB000810F0E94AC13DD20B1F04D2D50E02F814A
:100DC0003885421753077CF034E0E316F10459F0FC
:100DD0004985D40E63E06E198E8581500E948C1374
:100DE0008D2D0E94AC135E855F5F5E877ACF37FEE4
:100DF00009C0025E89819A8104979A838983049746
:100E000039F018CF3BE52316310414F00E51F2CF20
:100E10002F960FB6F894DEBF0FBECDBFDF91CF91F6
:100E20001F910F91FF90EF90DF90CF90BF90AF9008
:100E30009F908F907F906F905F904F903F902F90FA
:100E40000895CF93813110F08051FCCF811101C002
:100E500080E1880FCEEFC80F80E98C0F0E94AC13A1
:100E600081E98C0FCF910C94AC1380E20C94781331
:100E700080913C048F5F80933C040C949D13692FF8
:100E80000C9454147F936F939F938F938EE197E00C
:100E90009F938F930E94121B0F900F900F900F90B3
:100EA0000F900F9008951F93CF93DF93382F192F32
:100EB0002091E8012F55C0912202263008F04FC042
:100EC000D0E080E09C2F64E670E00E949A3ACB016B
:100ED0006138710540F029E820930F01805891098D
:100EE000E0E1F1E012C02DE82093100162317105BC
:100EF00050F42091FA06222331F020E220930F01D2
:100F00002093100109C0EFE0F1E06AE170E00E9477
:100F10009A3A2DE8261B208337FF0E94220516FFF0
:100F20000AC0BE0185E898E00E944207DF91CF9198
:100F30001F910C9434056091C6067091C70680918C
:100F4000C8069091C9060E944D3986E596E00E9438
:100F5000420781E0DF91CF911F910C94781324E632
:100F6000C29FC00111246FEF70E00E94AE3AEB0106
:100F7000A8CF6091000270E08AE596E00E944207E7
:100F80000C943405EF92FF920F931F93CF93DF934E
:100F90008C01D62FC42F6CE370E00E949A3A7C013A
:100FA0008AE596E00E944207CC2349F0B7018FED15
:100FB00095E00E944207CF776C2F70E011C0DD23CF
:100FC00031F08091FA06882311F080E201C08AE3B3
:100FD0000E94AC13C8016CE370E00E949A3ABC0115
:100FE00089ED95E0DF91CF911F910F91FF90EF90E8
:100FF0000C944207CF93DF931F92CDB7DEB77F9358
:101000006F935F934F939F938F938EE197E09F939E
:101010008F9329830E94121B0FB6F894DEBF0FBE78
:10102000CDBF2981222331F0822F0F90DF91CF9104
:101030000C94AC130F90DF91CF910895CF92DF9273
:10104000EF92FF920F931F93CF93DF9380910C0742
:1010500090910D07FC013A96D4913296C4910D9669
:10106000FC010591149160915E0170915F0180E037
:1010700090E00E94B33620E030E040E251E40E946C
:10108000DB386B017C016C2F70E080E090E00E9407
:10109000B5369B01AC01C701B6010E9414376B0144
:1010A0007C01B80180E090E00E94B3369B01AC0166
:1010B000C701B6010E94F83720E030E048EC52E466
:1010C0000E94DB38AB01BC012D2F86EF95E0DF914C
:1010D000CF911F910F91FF90EF90DF90CF900C94E4
:1010E000FA0720E00C94FA070E9488126093FC0132
:1010F0007093FD018093FE019093FF0180918D021A
:1011000090918E029093F6018093F501EEEEF6E059
:1011100081E0808382830895CF93DF93EC01CB013C
:10112000BA010E94B53620E836E948E15BE40E9446
:10113000DB38688379838A839B83DF91CF9108951D
:10114000CF93DF93EC019A01AB01688179818A81A9
:101150009B810E94F837688379838A839B83DF9120
:10116000CF9108958F929F92AF92BF92CF92DF92CC
:10117000EF92FF920F931F93CF938C014A015B0173
:10118000C22FFC01C080D180E280F38020E030E0FB
:10119000A901C701B6010E94AE36882311F0C23002
:1011A00030F4F80180829182A282B3821FC0A7012D
:1011B0009601C501B4010E94F7374B015C016C2F09
:1011C00070E080E090E00E94B5369B01AC01C50163
:1011D000B4010E94DB389B01AC01C701B6010E943B
:1011E000F837F8016083718382839383CF911F91D5
:1011F0000F91FF90EF90DF90CF90BF90AF909F90B6
:101200008F900895CF92DF92EF92FF92CF93DF936A
:10121000EC016A017B019A01AB01688179818A81C5
:101220009B810E94AE3687FF04C0C882D982EA82C1
:10123000FB82DF91CF91FF90EF90DF90CF900895E8
:1012400024E0880F991F2A95E1F78C549F4F68E698
:1012500071E00E94AE3ACB01019608958091AD01F4
:101260009091AE010E9420090E9421076091AD017A
:101270007091AE0181EF95E00C944207CF93DF931C
:10128000EC010E94881228813981CB01821B930BCB
:10129000DF91CF91089597FF03C088599E4F08951D
:1012A000893621E0920714F08856914008950F93F3
:1012B0001F93CF93DF93C92F8091600190916101BB
:1012C0000E944B098C014091D6015091D701609149
:1012D000D8017091D90124E689E294E00E94B20815
:1012E000C6FBDD27D0F94091D6015091D70160911E
:1012F000D8017091D9012D2F8EE596E00E946315DB
:101300000E9438072091D3013091D401C801821B7B
:10131000930B0E9420099C2F9072C5FD98E0890FC5
:101320000E9421074091290450912A0460912B04C6
:1013300070912C042D2F80E096E0DF91CF911F91CA
:101340000F910C94631520918D0230918E02260F1F
:10135000311D309325072093240780932307809124
:10136000850280932207089520E030E04AE754E4A4
:101370000E94DB380895E0910C07F0910D0765910C
:1013800075918591949108958F929F92AF92BF929B
:10139000CF92DF92EF92FF9260911A0270911B023E
:1013A000072E000C880B990B0E94B5366B017C014F
:1013B0008090010290900202A0900302B09004027B
:1013C0000E94BB099B01AC01C501B4010E94143706
:1013D0009B01AC01C701B6010E94DB3820E030E080
:1013E00040E251E40E941437AB01BC0124E688E3DB
:1013F00094E0FF90EF90DF90CF90BF90AF909F90E0
:101400008F900C94B208E0910C07F0910D07349680
:1014100065917591859194910895CF92DF92EF92A5
:10142000FF920F931F93CF93DF9300D000D0CDB7DF
:10143000DEB79B01AC0169833A834B835C830E94D6
:10144000030A29813A814B815C810E9414376B0128
:101450007C0120E03CE34CE156E40E94AE36009172
:101460000C0710910D07F80118163CF039962491DD
:10147000B701A60180E996E024C070966591749149
:1014800080E090E00E94B3369B01AC01C701B60139
:101490000E94DB386B017C010E944D396A30710576
:1014A00034F06436710534F080E996E005C083ECD1
:1014B00098E002C08AE198E0F8013F962491B701D4
:1014C000A6010F900F900F900F90DF91CF911F9179
:1014D0000F91FF90EF90DF90CF900C94FA076091FE
:1014E00005027091060280910702909108020C9407
:1014F0000D0A0F931F93292F207495FF15C060913B
:10150000B7017091B8018091B9019091BA0122237D
:1015100029F12091B3013091B4014091B50150916E
:10152000B6010E94F7371AC06091C3017091C401DF
:101530008091C5019091C601222361F00091CF01F5
:101540001091D0012091D1013091D201601B710B1B
:10155000820B930B0E94B5360E94B4091F910F9124
:101560000C940D0A6091E6067091E7068091E806FA
:101570009091E9060C940D0A9B01FC014081518178
:1015800062817381420F531F611D711D408351831E
:101590006283738308950F931F93CF93DF93EC01BE
:1015A0008B010E948812DC01CB01800F911FA11DCD
:1015B000B11D88839983AA83BB83DF91CF911F914B
:1015C0000F91089596FB222720F930E095FD03C086
:1015D00080E090E002C082E090E0282B392B21507F
:1015E00031092330310528F4F901E85EFE4F80818E
:1015F000089580E00895CF92DF92EF92FF92CF930B
:10160000DF93D82FC92F0E94E20A80930901C7FDFA
:101610004CC0C4FF2AC081E08093010720E030E085
:1016200040E752E46091E9017091EA018091EB0199
:101630009091EC010E94DB386B017C010E944D39D6
:101640009B0177FF04C022273327261B370B2A3044
:1016500031052CF5D6FD03C084E196E002C08DE093
:1016600096E028E1B701A60112C010920107E091AF
:101670000C07F0910D07729624914091E901509169
:10168000EA016091EB017091EC0186E096E0DF9158
:10169000CF91FF90EF90DF90CF900C94FA07243613
:1016A0003105ECF286E096E0DCCFDF91CF91FF9040
:1016B000EF90DF90CF9008951F93CF93DF931F9209
:1016C000CDB7DEB7192F0E94E20A282F6091E601FC
:1016D0007091E70180E090E029830E94B336AB016E
:1016E000BC01298185E294E00E94B2086091250442
:1016F0007091260480912704909128040E944D390E
:101700008AE596E00E94420780913F0280FD08C072
:1017100014FF06C00F90DF91CF911F910C943405F8
:101720000F90DF91CF911F91089595FB222720F90B
:1017300094FD02C090E001C092E0922B86FD02C0B1
:1017400080E001C084E0892B08950E94FB12811182
:1017500002C00C940D0508958EBD0DB407FEFDCF9B
:101760008EB58FEF8EBD0DB407FEFDCF8EB50895FB
:101770008EBD0DB407FEFDCF8EB56EBD0DB407FE58
:10178000FDCF8EB50895CF93DF93FC016491EC01FA
:101790002196662331F08EE197E00E944A13CE0134
:1017A000F4CFDF91CF910895CF92DF92EF92FF9225
:1017B0000F931F93CF93DF938091F406882309F44E
:1017C000F7C0192F1092F406C090DA01D090DB0117
:1017D000E090DC01F090DD010E94BB099B01AC01AF
:1017E000C701B6010E9414370E944D39E0912302CF
:1017F000F091240280910007882349F081E090E075
:101800002091D501223008F080E0EC0102C0C0E058
:10181000D0E00091350201110AC02091390230E078
:101820006217730724F48091F90680FDC26020914D
:101830003802222329F030E0261737070CF4C46061
:10184000309122022091E80140913A02442369F04C
:10185000CF0164E670E00E949A3A6115710529F0A3
:10186000842F90E068177907E4F040914002442308
:10187000C9F054E6359FC0011124322F27FF02C062
:1018800031E0320F3595830F911D37FD9A95622F08
:10189000220F770B0E94AE3A842F90E068177907E9
:1018A0000CF4C86080913F0280FD0BC08091410222
:1018B00090E02091E6013091E7012817390708F4FC
:1018C000C061C090E901D090EA01E090EB01F09096
:1018D000EC0120E030E0A901C701B6010E94E9391E
:1018E00018161CF4C701B60103C0C701B601905811
:1018F0000E944D39CB016AE070E00E94AE3A01309F
:1019000049F480913902882329F090E086179707DF
:101910000CF4C06280912002909121022091730208
:10192000222369F064E670E00E949A3A611571051D
:1019300031F0822F90E0681779070CF4C06416FF2D
:101940000EC080915C01813011F4C0680DC08230FE
:1019500011F4D16009C0833011F4D26005C0209722
:1019600019F410922D0424C090912D0481E091115E
:10197000890F80932D0480912D044FEF480F21E0B3
:1019800030E002C0220F331F4A95E2F78B3018F087
:1019900081E021E030E0A9014C235D23452B21F4B7
:1019A0008F5F220F331FF2CF80932D048917C9F266
:1019B000E0912D04EE2389F0F0E0EE0FFF1FE75ECB
:1019C000F94F85919491DF91CF911F910F91FF90E5
:1019D000EF90DF90CF900C94C30BDF91CF911F91CC
:1019E0000F91FF90EF90DF90CF900895CF92DF920C
:1019F000EF92FF92CF932091F506222309F4FCC0C9
:101A0000C82F96FF13C020E030E0A90160910102C9
:101A10007091020280910302909104020E94AE36FE
:101A2000882309F4E9C00E94C40921C080913502CD
:101A30008111E2C020E030E0A901609101027091C3
:101A4000020280910302909104020E94AE36882324
:101A500009F4D2C00E94C409909100028091F80656
:101A6000933068F0811103C081E08093F8068C2FD9
:101A7000CF91FF90EF90DF90CF900C94A715882323
:101A800011F18091050290910602A0910702B09198
:101A900008028093210490932204A0932304B0931E
:101AA00024048091E6069091E706A091E806B091A3
:101AB000E90680931D0490931E04A0931F04B09325
:101AC00020041092F806C090ED01D090EE01E09055
:101AD000EF01F090F0012DEC3CEC4CE45DEBC70124
:101AE000B6010E94AE3687FF67C0C0900502D09055
:101AF0000602E0900702F0900802A70196016091AB
:101B000021047091220480912304909124040E9466
:101B1000F7379B01AC01C701B6010E94DB386B01AE
:101B20007C0120911D0430911E0440911F045091AE
:101B300020046091E6067091E7068091E806909196
:101B4000E9060E94F7379B01AC01C701B6010E946C
:101B500014376B017C010E94030A9B01AC01C70191
:101B6000B6010E9414376B017C010E944D39CB01F4
:101B70006031774224F41816190644F03DC0C12C98
:101B80008CE3D82E8CE1E82E86E4F82EC7FD03C046
:101B90008EEE0E947813E0910C07F0910D073996B4
:101BA0002491B701A60180E996E0CF91FF90EF90D4
:101BB000DF90CF900C94FA072DEC3CEC4CE45DEBFD
:101BC000C701B6010E94E93987FD16C080916901FD
:101BD00090916A0197FF10C08091FA06882319F04E
:101BE0008DEF95E002C08CEF95E0CF91FF90EF90E4
:101BF000DF90CF900C94C30BCF91FF90EF90DF90CC
:101C0000CF90089565E082E00E9454148FEA95E039
:101C10000E94C30B0E948812882799274AE00E94DD
:101C20004C1B80910807882359F061E081E00E94F5
:101C3000541460914B0270E08AE995E00E944207DB
:101C40000E94511366E970E080E090E00C944E121F
:101C5000CF92DF92EF92FF920F931F93CF93DF9378
:101C60001F92CDB7DEB76B017C018B01040F151FEE
:101C7000C016D10689F0F70161917F01C601698321
:101C80000E94D2376981861719F0C6010E94DA379F
:101C9000FFEFCF1ADF0AECCF0F90DF91CF911F91AA
:101CA0000F91FF90EF90DF90CF900895EF92FF9209
:101CB0000F931F93CF93DF938C01040F151FEC013B
:101CC0007B01E81AF90AC017D10739F0C7018C0F58
:101CD0009D1F0E94D2378993F6CFDF91CF911F913C
:101CE0000F91FF90EF900895CF93DF9300D0CDB781
:101CF000DEB79091FB01682F70E0660F771F80E8D8
:101D0000989F600D711D112442E050E0CE010196B4
:101D10000E94560E89819A810F900F90DF91CF918A
:101D2000089584E20E94740E8091D3019091D401B1
:101D3000880F991F8D966AE570E00E94AE3A77FF92
:101D400003C0685F7F4FFBCF67707727FB01EA51C5
:101D5000FA4F849108954F925F926F927F92BF9253
:101D6000CF92DF92EF92FF920F931F93CF93DF9367
:101D7000082FD92F96FD0CC06D2F81E0800F0E9497
:101D8000541480912E0481FD1CC00E94650519C069
:101D9000C5E082EB0E94AC131DE0115019F00E94C7
:101DA0003507FBCFC33011F083EB01C085EC0E94F7
:101DB000AC130E943807C150F9F2C33051F786ECDA
:101DC000E9CF07FD08C062E085E00E948C138EEE2B
:101DD00095E00E94C30BD4FF86C0C091AF01D091A3
:101DE000B0010091B1011091B201C80117FF04C008
:101DF00088279927801B910B6AEF70E00E94AE3A0A
:101E0000E62F472FCE01D7FF04C0882799278C1BC8
:101E10009D0B6AEF70E00E94AE3A8E2F942F8617CA
:101E200097070CF4CB01BC016F5F7F4F70932707BE
:101E300060932607072E000C880B990B0E94B5367D
:101E40006B017C010E94910EB82EB801110F880B16
:101E5000990B0E94B5362B013C012CEB34E743E98A
:101E60005CE3C701B6010E94DB389B01AC01C301F2
:101E7000B2010E94DB380E944D3912E0160FBE01FC
:101E8000DD0F880B990B0E94B5362B013C0122E433
:101E900030E645EE5CE3C701B6010E94DB389B01EA
:101EA000AC01C301B2010E94DB3820E030E040E029
:101EB0005FE30E94F8370E944D39962F612F86E02C
:101EC000891B0E948C138B2DDF91CF911F910F9155
:101ED000FF90EF90DF90CF90BF907F906F905F90DA
:101EE0004F900C94AC13DF91CF911F910F91FF9005
:101EF000EF90DF90CF90BF907F906F905F904F906A
:101F0000089581E08093EE0688E0E0E3F4E0DF01ED
:101F10001D928A95E9F780E00E94740E90932F0439
:101F200080932E040895FB012081822790E1899FF0
:101F3000900111242827822F90E0582F44279C01DC
:101F400063E0220F331F6A95E1F74227532721816F
:101F500030E02427352774E0959587957A95E1F749
:101F6000822793279183808308959C01862FB9014E
:101F70000C94930F1F920F920FB60F9211248F9310
:101F80009F93EF93FF939091C4048091C30498179B
:101F900079F0E091C404F0E0E154FB4F808180933C
:101FA000C6008091C4048F5F83708093C40405C011
:101FB0008091C1008F7D8093C100FF91EF919F912F
:101FC0008F910F900FBE0F901F9018951F920F9238
:101FD0000FB60F9211242F938F939F93EF93FF933C
:101FE0009091C6008091BD048F5F8F772091BE04D1
:101FF000821741F0E091BD04F0E0E35CFB4F908379
:102000008093BD04FF91EF919F918F912F910F903D
:102010000FBE0F901F901895CF92DF92EF92FF9214
:102020000F931F93CF93DF936C017A018B01C0E074
:10203000D0E0CE15DF0589F0D8016D918D01D60174
:10204000ED91FC910190F081E02DC6010995892B5D
:1020500011F47E0102C02196ECCFC701DF91CF9130
:102060001F910F91FF90EF90DF90CF90089508950A
:102070003FB7F8948091C2069091C306A091C40620
:10208000B091C50626B5A89B05C02F3F19F0019653
:10209000A11DB11D3FBFBA2FA92F982F8827820FEE
:1020A000911DA11DB11DBC01CD0142E0660F771F3E
:1020B000881F991F4A95D1F708959091C3049F5F97
:1020C00093702091C4049217E1F3E091C304F0E00F
:1020D000E154FB4F80839093C3048091C1008062E0
:1020E0008093C100089508958091C10084FF03C0CA
:1020F000862F0E945D1081E090E00895EDEBF4E002
:1021000081818083E3ECF4E0808181830895909164
:10211000C100892F807194FF0EC09091BD04809101
:10212000BE04981302C080E00895E091BE04F0E080
:10213000E35CFB4F80810895089580E0089580E07E
:10214000089580E00895CF92DF92EF92FF92CF93AF
:102150006B017C01C42F20E030E0A9010E94E93925
:10216000181624F0F7FAF094F7F8F094C701B601C6
:102170000E944D39072E000C880B990B0E94B53632
:102180009B01AC01C701B6010E94F737C11105C020
:1021900020E034E244E759E404C020E030E543ECB9
:1021A00057E40E9414370E944D39CF91FF90EF9071
:1021B000DF90CF90089508950E94683B882311F026
:1021C00080E401C080E09091F701981751F080936E
:1021D000F7015E986091F7016C6180E00E94B80B96
:1021E0005E9A0895CF93C92F809109078823E9F05B
:1021F00060918102709182028091830290918402A9
:102200002CE330E040E050E00E94C23ADA01C9011C
:10221000C5FF04C0462F406860E004C0C6FB6627C7
:1022200060F940E0CF910C94C207CF910895CF930D
:10223000DF9387FD04C084E696E00E94C30BC0E5EF
:10224000D1E049915991699179918EE596E00E948A
:10225000710881E0CC35D807A1F70E943807CAE49D
:10226000D1E0699179918AE596E00E94420781E088
:10227000C035D807B1F7DF91CF910895EF92FF9263
:102280000F931F93CF9302E411E0C0E096FD20C0AE
:1022900089E0E82EF12CF801819191918F018C5405
:1022A0009440B7010E949A3A81E596E00E94420765
:1022B000C13019F40E94380702C00E943507CF5F71
:1022C000C43049F712C00E943507CF5FC43069F0AF
:1022D000F801619171918F0186E596E00E944207B5
:1022E000C13089F70E943807F0CFCF911F910F912D
:1022F000FF90EF9008951F93CF93DF93182F0E94C4
:10230000950B8C5FC82FD0E017FD07C0BE016F5F33
:102310007F4F8BE496E00E944207CC0FDD1FC65F23
:10232000DD4F6881798186E596E0DF91CF911F913D
:102330000C9442070F931F9390E0FC01E356FD4F6E
:102340007491FC01EF54FD4FE491662311F0672F67
:1023500001C060E0F0E0EE0FFF1FEC55F94F8591F2
:10236000949189019A013F70462F672F0E94F122B4
:10237000611571058105910549F0DC01CB010196DC
:10238000A11DB11DBC01CD019F7003C060E070E0D4
:10239000CB011F910F910895833081F028F4813093
:1023A00099F08230A1F008958730A9F08830B9F013
:1023B0008430D1F4809180008F7D03C080918000B3
:1023C0008F7780938000089584B58F7702C084B59D
:1023D0008F7D84BD08958091B0008F7703C0809178
:1023E000B0008F7D8093B0000895CF93DF9390E08D
:1023F000FC01E356FD4F2491FC01EF54FD4F849105
:10240000882361F190E0880F991FFC01E656F94F8F
:10241000C591D491FC01ED56FD4FA591B491611188
:1024200009C09FB7F8948881209582238883EC9116
:102430002E230BC0623061F49FB7F8943881822F4D
:10244000809583238883EC912E2B2C939FBF06C00D
:102450008FB7F894E8812E2B28838FBFDF91CF911F
:1024600008958E3008F08E5087702091000190E41E
:10247000299F90011124822B80937C0080917A0007
:10248000806480937A0080917A0086FDFCCF8091F1
:1024900078002091790090E0922B08958F929F927E
:1024A000AF92BF92CF92DF92EF92FF926B017C01CD
:1024B0000E9438104B015C01C114D104E104F10405
:1024C000F1F00E943810DC01CB0188199909AA09A2
:1024D000BB09883E9340A105B10570F321E0C21A03
:1024E000D108E108F10888EE880E83E0981EA11C4F
:1024F000B11CC114D104E104F10419F7DDCFFF9040
:10250000EF90DF90CF90BF90AF909F908F90089505
:102510002FB7F8946091BE067091BF068091C006F7
:102520009091C1062FBF08951F920F920FB60F9280
:1025300011242F933F938F939F93AF93BF938091D9
:10254000BE069091BF06A091C006B091C106309121
:10255000BD0623E0230F2D3720F40196A11DB11DE8
:1025600005C026E8230F0296A11DB11D2093BD06CC
:102570008093BE069093BF06A093C006B093C10699
:102580008091C2069091C306A091C406B091C50681
:102590000196A11DB11D8093C2069093C306A0931E
:1025A000C406B093C506BF91AF919F918F913F91A3
:1025B0002F910F900FBE0F901F9018959091C10012
:1025C000892F807194FF14C09091BD048091BE0446
:1025D000981302C080E00895E091BE04F0E0E35C4F
:1025E000FB4F80819091BE049F5F9F779093BE04C4
:1025F00008950C94DE129091C100892F807194FF90
:1026000006C08091BD049091BE04891B8F77089508
:102610000C94FB129B01AC018091C10084FD1092CF
:10262000C1001092C4041092C3041092BE04109210
:10263000BD04211531054105510501F1211581EE3A
:1026400038074105510509F182E08093C00060E040
:1026500079E08DE390E00E94C23ADA01C901019766
:10266000A109B109AC01BD017695679557954795CC
:10267000942F852F8093C5009093C40088E98093A0
:10268000C10086E08093C20008951092C00090E1DE
:1026900080E0F0CFDC01ED91FC910190F081E02D24
:1026A00009945E9860E085E00E94B80B60E086E0E7
:1026B0000E94B80B61E084E00E94B80B5E9AEDEDD9
:1026C000F4E080E25E9890819EBD0DB407FEFDCFE0
:1026D0009EB581935E9A96E0ED3BF90798F35E987C
:1026E0008FEF8EBD0DB407FEFDCF8EB55E9A0895B7
:1026F0002091DB043091DC04203E91E0390758F44E
:10270000A9014F5F5F4F5093DC044093DB04F90154
:10271000E352FB4F8083089590913C04690F9091A0
:10272000DA04890F90E02EE1629F800D911D112443
:102730009093DC048093DB04089520913C04809105
:10274000DA0490E03EE1239F800D911D11249093C7
:10275000DC048093DB0408958F3F39F480913C04BE
:102760008F5F80933C040C949D130C947813862FF8
:102770000E94AC1381E090E008951F93CF93DF9304
:10278000182FC92F87FD10C096FF04C0D0E08FE638
:1027900096E003C0D1E08EE796E00E94C30B812F44
:1027A0009C2F0E943F0701C0D0E08091E9019091E9
:1027B000EA01A091EB01B091EC01BC01CD01905870
:1027C0009B01AC010E94F8370E944D3980912E0484
:1027D00082FF05C0CB016CE370E00E94AE3AC5FFFA
:1027E00005C0CB016AE070E00E94AE3AC4FF06C0AB
:1027F00077FF02C06F5F7F4F7595679516FF08C022
:1028000077FF02C06D5F7F4F7595679575956795EA
:102810009B01235D3F4F37FF02C02F5F3F4FC90130
:102820009595879569E070E00E94AE3A65302CF48A
:1028300067FD06C0CFECC81B05C0CEE764E002C050
:10284000C0E660E08D2F0E948C138C2FDF91CF911A
:102850001F910C94AC131F93CF93DF93182FC92FA4
:102860000E94950BD4E0D80F17FD08C06D2F70E0C3
:102870006F5F7F4F88E496E00E944207C6FB6627A1
:1028800060F98D2F0E941321D82FC0E0CD1302C014
:1028900081E801C080E80E94AC13CF5FC530B1F77A
:1028A000DF91CF911F9108958F718093DA046F703B
:1028B00060933C048091F701803411F0673010F48C
:1028C0000C949D13635060933C04FACFCF936AE05D
:1028D00086E00E945414C0E08C2F0E946E210E945A
:1028E0003807CF5FC430C1F7CF91089566E089E023
:1028F0000E9454140C9465055E988091320281FD0B
:1029000006C08091310283FF1CC081E01BC080EAB9
:102910000E94AC0B80FF07C081E00E94DE10809116
:102920003102886008C081FF09C080E00E94DE108B
:1029300080913102877F8093310206C082FDE1CF12
:1029400003C080E00E94DE105E9A0895CF93DF936B
:102950005E98E0913702E43008F0E0E0F0E0EA56FB
:10296000F94FC49180E1D1E0D80F6C2F0E94B80BD1
:102970008D2FD032C1F76091750282E00E94B80BB2
:102980006091740283E00E94B80B5E9ADF91CF9150
:1029900008955E988CEE0E94AC0B682F6F7E8CE6DB
:1029A0000E94B80B62E18CE00E94B80B6091F701C5
:1029B0006C6380E00E94B80B66E970E080E090E014
:1029C0000E944E126091F7016C6180E00E94B80B8A
:1029D0000C94A614CF93DF935E98C0E1DFEFC15053
:1029E00081F46091F701626080E00E94B80B6FE0B3
:1029F00070E080E090E00E944E12DF91CF910C9445
:102A0000C91480EA0E94AC0B877059F784E08150AA
:102A100031F0DEBD0DB407FEFDCF9EB5F8CF6FE0FF
:102A200070E080E090E00E944E12D9CFE0917602F3
:102A3000F0E0EE0FFF1FEE5EFD4F208131814FB7BA
:102A4000882309F0F89480917D02813001F118F01B
:102A5000823039F136C0E0914001F091410190811E
:102A600080910902892B80832230310540F0C90111
:102A7000880F991F880F991F05970197F1F7E0912B
:102A80004001F091410190818091090217C0E091CD
:102A90004001F0914101809109022D3D35406CF0DB
:102AA00009C0E0914001F0914101809109022C3D63
:102AB00035401CF49081892B03C090818095892337
:102AC00080834FBF0895CF92DF92EF92FF921F93C2
:102AD000CF93DF93EC016A017B01122F0E94BB09A7
:102AE0009B01AC01C701B6010E941437112341F0CC
:102AF00026E636E646E650E40E94DB3828E106C0CA
:102B0000E0910C07F0910D0738962491AB01BC01C0
:102B1000CE01DF91CF911F91FF90EF90DF90CF908A
:102B20000C94FA07262F30E0F901E35DFD4F87FD95
:102B30000CC091E09083F901E45EFD4F86FB99277C
:102B400090F99083862F0C946E2110820895CF9374
:102B5000C82F609138047091390480913A049091A3
:102B60003B040E944D39615071096F30774298F4EF
:102B7000C7FD03C086E10E9478134091380450914C
:102B8000390460913A0470913B0421E080E996E0B9
:102B9000CF910C94FA07CF910895CF93C42F28EECC
:102BA00033E040E050E00E94C23ADA01C90140E05F
:102BB0006C2FCF910C94C207CF93DF93282F86FB05
:102BC000442740F9E42FF0E0DB016D917D918D9178
:102BD0009C91EE0FFF1F25FF1DC0E457F94FC591D3
:102BE000D4910E94A3109F938F937F936F93DF9351
:102BF000CF938EE197E09F938F930E94121BADB706
:102C0000BEB718960FB6F894BEBF0FBEADBFDF912A
:102C1000CF910895E857F94F25913491AB01BC014C
:102C2000C901DF91CF910C947108EF92FF921F932D
:102C3000CF93DF931F92CDB7DEB7182F7C018E2D77
:102C4000811B861760F4F70181917F019091C1008B
:102C500094FFF5CF69830E945D106981F0CF0F90DA
:102C6000DF91CF911F91FF90EF9008950E94F73769
:102C700020EC3BE649ED57E40E941437089597FD98
:102C800005C08F3F910509F01CF4089580E0089578
:102C90008FEF0895E0911101EF5FE0931101E7706C
:102CA000F0E0EE0FFF1FE653FB4F9183808388E037
:102CB00060E070E08150E82FF0E0EE0FFF1FE65378
:102CC000FB4F20813181620F731F8111F3CF80E0B0
:102CD00090E00E94B33620E030E040E05EE30E94E6
:102CE000143708951F920F920FB60F921124CF92AE
:102CF000DF92EF92FF922F933F934F935F936F93E7
:102D00007F938F939F93AF93BF93CF93DF93EF9373
:102D1000FF930E9438106B017C01E2E8F2E084919D
:102D2000E0EAF2E0D491E4EBF2E0C491CC23B9F014
:102D300081110E94CC11EC2FF0E0EE0FFF1FEC553B
:102D4000F94FA591B491EC91ED2349F0C092C604DE
:102D5000D092C704E092C804F092C9041FC08091C9
:102D6000C6049091C704A091C804B091C90400970B
:102D7000A105B10599F0C81AD90AEA0AFB0AD0924E
:102D8000A901C092A8011092C6041092C704109223
:102D9000C8041092C90481E08093C504FF91EF91AB
:102DA000DF91CF91BF91AF919F918F917F916F9163
:102DB0005F914F913F912F91FF90EF90DF90CF90D7
:102DC0000F900FBE0F901F9018951F920F920FB685
:102DD0000F9211242F933F934F935F936F937F93A1
:102DE0008F939F93AF93BF93EF93FF9381E0809373
:102DF000800210928C0280917F028F5F80937F020D
:102E00000E948812609387027093880280938902DF
:102E100090938A0280918B02882321F00E945113A3
:102E200010928B02FF91EF91BF91AF919F918F9183
:102E30007F916F915F914F913F912F910F900FBEB6
:102E40000F901F901895E091FA0135E0E39FF00193
:102E50001124EF5BFB4F9491915020910A016091F6
:102E6000F8017091F90187FF03C0222339F004C0F3
:102E7000882311F0291721F0280F03C0292F01C042
:102E800020E0FB0136E0239FE00DF11D1124339675
:102E900045915491452B39F320930A01089590E010
:102EA000880F991FDC01A65FBD4FFC01E05DFB4F61
:102EB0008D919C9120813181821B930B0895AAE012
:102EC000B2E0E0E3F4E080819181883E934028F411
:102ED0008D919C911197918380833296129684E014
:102EE000E833F80781F708952F923F924F925F924F
:102EF0006F927F928F929F92AF92BF92CF92DF920A
:102F0000EF92FF920F931F93CF93DF93CDB7DEB76E
:102F100063970FB6F894DEBF0FBECDBF6C874A0132
:102F20006901CE0101963C01F4018C8580FD25915B
:102F300080FF21914F01222309F45BC3253241F424
:102F400080FD259180FF21914F01253291F409C028
:102F50002A3039F46DE08EE197E02B8B0E944A1302
:102F60002B89622F8EE197E00E944A13560165017A
:102F7000DBCF10E0F12C00E00032A0F42B3269F03E
:102F800030F4203259F0233269F400612CC02D3224
:102F900039F0203339F4016026C00260046023C098
:102FA000086021C007FD28C080ED820F8A3078F4C8
:102FB00006FF06C0FAE01F9F800D1124182F13C0D2
:102FC0002AE0F29E800D1124F82E00620CC02E32F1
:102FD00021F406FD0EC3006406C02C3611F400680F
:102FE00002C0283649F4F4018C8580FD259180FFCC
:102FF00021914F012111C0CF8BEB820F833018F448
:103000000061205E06C08BE9820F833008F06CC13E
:103010000F7E06FF16E00F73502E253621F4902FF9
:103020009064592E08C0263621F4E02FE0685E2E09
:1030300002C01111115057FE06C01C3350F4EE248B
:10304000E394E10E08C0183040F0E12C27E017E0CF
:1030500006C05CE3E52E27E002C0212FE12C5601DB
:10306000F4E0AF0EB11CF601608171818281938121
:103070000E2DA3010E94BB216C01098100FF02C03B
:1030800003FF07C051FC08C052FE09C040E2442EB5
:1030900007C03DE2432E04C02BE2422E01C0412C6A
:1030A000802F8C7019F0411063C29CC257FE0FC074
:1030B000EC0C04FF04C08A81813309F4EA941E14E5
:1030C00074F5F8E0FE1578F598E0E92E2CC056FC72
:1030D0002AC0812F90E08C159D059CF02CEFC21624
:1030E0002FEFD20674F0852D8068582E0AC0E2E0DA
:1030F000F0E0EC0FFD1FE10FF11D8081803319F42A
:1031000011501111F4CF57FE0EC0EE24E394E10EDE
:10311000812F90E0C816D9062CF41C1904C0EE24A7
:10312000E39401C010E057FE06C01C141D0434F4E3
:10313000C601019605C085E090E002C081E090E004
:1031400041100196112331F0212F30E02F5F3F4FC6
:10315000820F931F2F2D30E08217930714F4F81A73
:1031600001C0F12C852D897049F4FF2039F060E20F
:103170008EE197E00E944A13FA94F7CF442029F099
:10318000642D8EE197E00E944A1353FC09C0FF2092
:1031900039F060E38EE197E00E944A13FA94F7CF8A
:1031A00057FE54C09C2D8D2DD7FE02C090E080E0CC
:1031B000292E382E412C512CF601EE19F109FE87EB
:1031C000ED87C60182199309988B8F87612F70E074
:1031D000EE27FF27E61BF70BFA8BE98BFFEF2F1685
:1031E0003F0629F46EE28EE197E00E944A13C21472
:1031F000D3046CF08D859E858215930544F4EF858C
:10320000F889E40DF51DE60DF71D618101C060E34D
:1032100091E0291A3108EFEF4E1A5E0A89899A89DE
:10322000281639062CF08EE197E00E944A13D6CF7B
:103230002C143D0409F053C08A81863328F4853369
:1032400009F04DC004FD4BC061E349C06A816133A0
:1032500009F00F7E8EE197E00E944A13111104C01D
:1032600054FC17C065E616C06EE28EE197E00E943E
:103270004A1382E0EE24E394E80EF301E80FF11D17
:1032800060818EE197E00E944A1311508E2D91F7D4
:10329000E7CF65E48EE197E00E944A13D7FC05C0B2
:1032A000C114D10439F404FF05C0D194C194D108EC
:1032B0006DE201C06BE28EE197E00E944A1360E389
:1032C000EAE0CE16D1042CF06F5F9AE0C91AD1085B
:1032D000F7CF8EE197E00E944A1360E36C0D8EE118
:1032E00097E00E944A1358C1233631F0233781F00A
:1032F000233509F055C020C05601F2E0AF0EB11CD5
:10330000F6018081898344244394512C630112C0C7
:103310005601F2E0AF0EB11CF601C080D18006FF6D
:1033200003C0612F70E002C06FEF7FEFC6010E9403
:10333000A3362C010F7713C05601F2E0AF0EB11C7B
:10334000F601C080D18006FF03C0612F70E002C08B
:103350006FEF7FEFC6010E9498362C01006803FDD5
:103360001BC08F2D90E048165906B0F460E28EE144
:1033700097E00E944A13FA94F4CFF60107FD659195
:1033800007FF61916F018EE197E00E944A13F110EF
:10339000FA94F1E04F1A51084114510471F7FCC03E
:1033A000243611F0293661F5560107FF09C024E0E3
:1033B000A20EB11CF60160817181828193810AC0E5
:1033C000F2E0AF0EB11CF60160817181072E000C96
:1033D000880B990B0F76C02E97FF0AC090958095A9
:1033E000709561957F4F8F4F9F4FF02FF068CF2ED4
:1033F0002AE030E0A3010E949322D82ED61848C0BC
:10340000253729F40F7EE02E2AE030E025C0802FFA
:10341000897FE82E2F36C1F018F4283579F0E9C0FD
:10342000203719F0283721F0E4C0982F9061E92E59
:10343000E4FE0DC0EE2DE460EE2E09C004FF0AC0CC
:10344000F82FF660EF2E06C028E030E005C020E13E
:1034500030E002C020E132E05601E7FE09C084E01E
:10346000A80EB11CF601608171818281938108C030
:10347000F2E0AF0EB11CF6016081718180E090E056
:10348000A3010E949322D82ED618FE2DFF77CF2EAF
:10349000C6FE0BC00C2D0E7FD11650F4C4FE0AC020
:1034A000C2FC08C00C2D0E7E05C0ED2C0C2D03C0F7
:1034B000ED2C01C0E12E04FF0DC0FE01ED0DF11D4C
:1034C0008081803311F4097E09C002FF06C0E394B5
:1034D000E39404C0802F867809F0E39403FD11C0C3
:1034E00000FF06C01D2DEF1418F41F0D1E19EF2C40
:1034F000EF1458F460E28EE197E00E944A13E394DF
:10350000F7CFEF1410F4FE1801C0F12C04FF0DC02A
:1035100060E38EE197E00E944A1302FF14C001FDB0
:1035200002C068E70CC068E50AC0802F867859F0B1
:1035300001FF02C06BE201C060E207FD6DE28EE1B7
:1035400097E00E944A13D11638F460E38EE197E0C9
:103550000E944A131150F7CFDA94F301ED0DF11DDB
:1035600060818EE197E00E944A13D110F5CF14C01C
:1035700024E02F1520F584E0F81A53FE17C04110FF
:103580001FC003FF23C00DE517E0F52DF0715F2E7E
:10359000F801649161111DC0FF2009F4E8CC60E2DC
:1035A0008EE197E00E944A13FA94F6CF60E28EE132
:1035B00097E00E944A13FA94F110F8CFE0CFF12C73
:1035C000642D8EE197E00E944A13DBCF09E517E0F6
:1035D000DCCF511060528EE197E00E944A130F5FDA
:1035E0001F4FD6CF83E08F1510F483E0C5CFF12CA9
:1035F000C8CF63960FB6F894DEBF0FBECDBFDF9184
:10360000CF911F910F91FF90EF90DF90CF90BF90DF
:10361000AF909F908F907F906F905F904F903F9072
:103620002F900895CF93DF93CDB7DEB79E01275F2C
:103630003F4F4F81588561E08EE197E00E947417FB
:10364000DF91CF9108957F936F939F938F9381E53F
:1036500097E09F938F938EE197E09F938F930E94C3
:10366000121B8DB79EB708960FB6F8949EBF0FBE7B
:103670008DBF0895009769F0FC0101900020E9F7E3
:103680003197AF01481B590BBC018EE197E00C94B8
:103690000C1080E090E008958F929F92AF92BF92BD
:1036A0000F931F93CF93DF93CDB7DEB7A1970FB6DC
:1036B000F894DEBF0FBECDBF19A2423008F44AE035
:1036C0008E010F5D1F4F842E912CA12CB12CA501D2
:1036D00094010E94C23AE62FB901CA0101501109B2
:1036E000EA3014F4E05D01C0E95CD801EC93232BCF
:1036F000242B252B61F7C8010E943A1BA1960FB617
:10370000F894DEBF0FBECDBFDF91CF911F910F9117
:10371000BF90AF909F908F9008959F92AF92BF926D
:10372000CF92DF92EF92FF920F931F93CF93DF938D
:10373000CDB7DEB72A970FB6F894DEBF0FBECDBF68
:10374000D62EB72EC42EA22E9EEF99834A83309197
:1037500015073B83909112019C83909113019D83E7
:103760008E833F5F309315078FEF9FEF98878F838E
:103770008E010E5F1F4F7E0187E0E80EF11C0E15D3
:103780001F0539F0B701F80181918F010E94930F55
:10379000F6CF8F8198859A8789870D2D1B2D9C2CBC
:1037A0009D0CBE01675F7F4F901631F0F80181914B
:1037B0008F010E94930FF5CF8A2D0E94930F998558
:1037C0008A859F83888766E0CE0101960E94151640
:1037D0006C2D8D2D9B2D0E94151662E0C7010E9455
:1037E00015162A960FB6F894DEBF0FBECDBFDF9137
:1037F000CF911F910F91FF90EF90DF90CF90BF90EE
:10380000AF909F900895CF93DF93CDB7DEB79E0121
:10381000275F3F4F4F81588560E08EE197E00E941F
:103820007417DF91CF910895DF92EF92FF920F937B
:103830001F93CF93DF93CBE0D7E0FE010591149166
:103840000115110509F46FC0FE01329684918111B2
:103850000E94AC13FE01339684913196E590F4906A
:10386000893691F030F4813609F43FC08836C1F0D2
:1038700004C08337F1F0863729F150E2D52E60E09D
:1038800070E080E89FE33AC0F70160817181072E04
:10389000000C880B990B0E94B53640E2D42E35C03F
:1038A000E0910C07F0910D073996D4900E94030A1D
:1038B00025C0E0910C07F0910D073896D4900E9436
:1038C000BB091CC00E94030A20910107211114C0EA
:1038D000E0910C07F0910D077296D49020E030E053
:1038E00040E752E40E94143709C031E4D32E6AE065
:1038F00077ED83E29CE302C028E1D22EF70120811C
:103900003181428153810E9414372D2DAB01BC01BE
:10391000C8010E94FA070E9438072796F7E0C135D0
:10392000DF0709F08ACFDF91CF911F910F91FF90B0
:10393000EF90DF90089508951F93CF93DF93D82FD2
:10394000192F8091D501823019F020F0CFE003C00B
:10395000CFE101C0CAE280916F0190917001883C73
:10396000910520F08091FA068111C0E2D7FD02C0D6
:1039700016FF11C06091710170E085E898E00E9427
:103980004207D7FD0CC016FF0AC08C2FDF91CF91E4
:103990001F910C94AC138C2F0E94AC13EBCFDF91D2
:1039A000CF911F91089560916B0170916C018EE031
:1039B00098E00C9442076091690170916A0188E077
:1039C00098E00C94420760916F017091700180E063
:1039D00090E00E94B33620E030E048EC52E40E94D0
:1039E000DB38AB01BC0183EC98E00C94710840918A
:1039F000F1015091F2016091F3017091F4018EE5B3
:103A000096E00C94710863E0892F0C94921562E0A3
:103A1000892F0C94921561E0892F0C94921560E027
:103A2000892F0C9492150F931F93CF93DF930AE085
:103A300012E0C0E0D0E0F801619171918F01219610
:103A4000CE010E94231BC830D105A9F7DF91CF9189
:103A50001F910F910895CF93DF93611103C0C4E1CB
:103A6000D8E002C0CAE1D8E0BC0180E090E00E944A
:103A7000B3360E94B409AB01BC012DE0CE01DF9149
:103A8000CF910C94FA070F931F93CF93DF9300D03D
:103A900000D0CDB7DEB700912607109127070E940E
:103AA000030A9B01AC016AEF609FC001619F900D0A
:103AB0001124BC01990F880B990B2C8339834A83FD
:103AC0005B830E94B5362C8139814A815B810E94DB
:103AD0001437E0910C07F0910D07083211055CF0E6
:103AE0003F9624912C830E94B409AB01BC012C8128
:103AF00083EC98E006C039962491AB01BC0180E9C3
:103B000096E00F900F900F900F90DF91CF911F9143
:103B10000F910C94FA07809172018E30B9F42091C4
:103B2000A70130E087E090E0482FB901082E02C0DD
:103B3000759567950A94E2F760FD03C00197A0F7B9
:103B400048E04093A701E1EBF8E002C0E9E8F8E0C3
:103B50006091A70170E0CB01880F991FE80FF91F52
:103B6000859194910E9442078091F506882319F06F
:103B700086E80C9478130895EF92FF920F931F93A9
:103B8000CF93DF931F92CDB7DEB72091730122232D
:103B900009F470C0409124075091250720918D02AF
:103BA00030918E024217530709F464C020915D01E1
:103BB000233010F401E201C000E0692F182F80913A
:103BC00023079AE1F92EF81AF7FC14C08F2D869579
:103BD000810F0E94541417FD02C0011155C083E7E4
:103BE00091E00F90DF91CF911F910F91FF90EF9097
:103BF0000C943A1B17FD02C001114AC066FD1DC09E
:103C0000F1942F2D30E08091850290912207891B3D
:103C100090E0B901660F771F0E94AE3A409186028C
:103C200041110DC0009729F02150310982179307E7
:103C300031F421E02093860202C080E090E09C01F4
:103C40002D583E4F79018901065E1F4FF701819182
:103C50007F01811109C00F90DF91CF911F910F91CA
:103C6000FF90EF900C9435070E94AC13E016F1061C
:103C700069F7F1CF109273010F90DF91CF911F91EF
:103C80000F91FF90EF900895802F0E94AC13A7CF63
:103C9000802F69830E94AC136981B0CFCF9380914C
:103CA000FC06882359F1C92F8091AA010E9421079F
:103CB0008091AB019091AC01853B910534F0885621
:103CC00091409093AC018093AB018091AB019091B6
:103CD000AC018C342FEF920734F488599E4F9093A7
:103CE000AC018093AB01C6FF09C06091AB0170913C
:103CF000AC018AE596E0CF910C944207CF910895EC
:103D0000AF92BF92CF92DF92EF92FF921F93CF9329
:103D1000DF9300D000D0CDB7DEB78091A7018A3005
:103D200009F06DC0A0906301B090640188EEA81600
:103D300083E0B80654F489E1A8168CEFB8064CF479
:103D400089E1A82E8CEFB82E04C097EEA92E93E03F
:103D5000B92EE0910C07F0910D07399614916091FE
:103D6000620170E085E898E00E9442070E943507F2
:103D7000609165017091660180E090E00E94B33629
:103D80006B017C010E94030A9B01AC01C701B601D3
:103D90000E941437AB01BC01212F80E996E00E94FC
:103DA000FA070E94380781E898E00E94C30B0E943E
:103DB000030A9B01AC01B501BB0C880B990B29834D
:103DC0003A834B835C830E94B53629813A814B81CB
:103DD0005C810E941437AB01BC01212F80E996E081
:103DE0000F900F900F900F90DF91CF911F91FF9048
:103DF000EF90DF90CF90BF90AF900C94FA070F90A8
:103E00000F900F900F90DF91CF911F91FF90EF9047
:103E1000DF90CF90BF90AF900895FF920F931F93C4
:103E2000CF93DF93F82E092F192F107287FD08C04A
:103E300096FD06C01123C1F183E798E00E94C30BF1
:103E400083EC0E9478138091D3019091D40148E1D2
:103E5000489F9001499F300D1124C9010C9668E6D6
:103E600071E00E94AE3A64507109C62F77FF02C01C
:103E7000C8E1C60F111102C0D9E001C0DAE0EC2F91
:103E8000F0E0E25BF74F84910E94AC13CF5FC83142
:103E900008F0C0E0D15099F787E80E947813F7FC4A
:103EA00014C006FD04C011C086E698E0C7CF11110A
:103EB00003C087E398E002C083E498E0DF91CF91EC
:103EC0001F910F91FF900C94C30BDF91CF911F9125
:103ED0000F91FF90089580916201882381F0809175
:103EE0006701909168010E944B092091D3013091A4
:103EF000D401821B930B0E9420090C942107089582
:103F000087FD04C00E94910E0E94AC136091D30102
:103F10007091D4018AE596E00E94420785E00C94F6
:103F200078136FEB71E0892F0C94DC156BEB71E06B
:103F3000892F0C94DC151F93CF93DF934091BF0121
:103F40005091C0016091C1017091C201452B462B77
:103F5000472B69F44091BB015091BC016091BD01B8
:103F60007091BE01452B462B472B09F445C094FDAB
:103F700002C01FEF01C010E2C92FD82F8091FA06AE
:103F8000882301F1809106078A3050F080E398E0A1
:103F90000E94C30B812F0E94AC1389E298E00DC0F0
:103FA000809107078A3070F080E398E00E94C30B8D
:103FB000812F0E94AC1380E298E0DF91CF911F9196
:103FC0000C94C30BD7FD03C083E00E9478136BEB06
:103FD00071E08C2F0E94DC15812F0E94AC13D7FD5D
:103FE00003C084E00E9478136FEB71E08C2FDF91A7
:103FF000CF911F910C94DC15DF91CF911F91089503
:10400000CF93DF93D82FC92F0E943F0788E00E94EB
:1040100078138091340790913507A0913607B091BD
:104020003707892B8A2B8B2B81F48091E2019091A9
:10403000E301A091E401B091E501809334079093EE
:104040003507A0933607B093370760913407709116
:104050003507809136079091370740E00E94CD15D3
:104060000E94141CC6FF05C06C2F8AE08D0F0E94B1
:10407000541483E00E9478136BEB71E080E00E949F
:10408000DC150E94380784E00E9478136FEB71E022
:1040900080E0DF91CF910C94DC151F93CF93DF93D9
:1040A0001F92CDB7DEB797FD2DC0192F91E09093E9
:1040B0000A07912F0E94E20A282F60912002709136
:1040C000210280E090E029830E94B336AB01BC015D
:1040D000298180E397E00E94B208129511706091E7
:1040E00030077091310780913207909133070E9419
:1040F0005439DC01CB01612F0F90DF91CF911F91DB
:104100000C942B1D81E090917302911101C080E00D
:1041100080930A070F90DF91CF911F9108951F930D
:10412000CF93DF931F92CDB7DEB7192F0E94E20A1B
:10413000282F609123027091240280E090E029836F
:104140000E94B336AB01BC0129818CE297E00E944A
:10415000B2081295117060912C0770912D07809113
:104160002E0790912F070E945439DC01CB01612F5B
:104170000F90DF91CF911F910C942B1D0F931F93E4
:10418000CF93DF931F92CDB7DEB7192F0E94E20ABB
:10419000282F60911A0270911B02072E000C880BC9
:1041A000990B29830E94B536AB01BC01298188E2B5
:1041B00097E00E94B20814FD03C004E118E002C0B9
:1041C0000AE118E02AE037ED43E25CE3609128075A
:1041D0007091290780912A0790912B070E9414372C
:1041E000AB01BC012EE0C8010F90DF91CF911F9170
:1041F0000F910C94FA0796FB882780F980930B07A0
:104200008091FC06882371F097FD0CC06091DE015F
:104210007091DF018091E0019091E1010E94B5363B
:104220000C940D0A0895E82FF0E0EE0FFF1FE65FF3
:10423000FD4F20813181662329F040E253E088E977
:1042400098E004C048EE53E080ED97E0241735076E
:1042500080F0241B350B841B950B65E070E00E94F9
:104260009A3AC9010E949A3A862F653018F084E084
:10427000089580E008951F93CF93DF93182FC92FDF
:104280000E94950BD4E0D80F17FD08C06D2F70E089
:104290006F5F7F4F8BE496E00E944207C6FB662764
:1042A00060F98D2F0E941321182FC0E0D3E0CE01BA
:1042B0000E94D2378F3F71F0811103C0112351F05A
:1042C0001150111102C00E94AC132196C03883E036
:1042D000D80769F7DF91CF911F9108951F93CF936E
:1042E000DF93CDB7DEB768970FB6F894DEBF0FBE89
:1042F000CDBF182F88E1189FB001112460587D4F61
:1043000048E150E0CE0101960E94560EE12FF0E008
:10431000EE0FFF1FEB5DFD4F6081718180E090E04B
:104320000E94B33629813A814B815C810E94143707
:104330002D813E814F8158850E94F8379F938F933E
:104340007F936F93CE0109969F938F938EE197E0B1
:104350009F938F930E94031C0FB6F894DEBF0FBE8D
:10436000CDBF68960FB6F894DEBF0FBECDBFDF910C
:10437000CF911F910895283008F027E03327DA0104
:10438000990F311D87FD916000966105710539F423
:1043900032602E5F3D9330E32A95E1F708959F3F09
:1043A00030F080387105610509F03C5F3C5F3D935A
:1043B000913008F08068911DDF93CF931F930F9386
:1043C000FF92EF92192F987F9695E92F96959695E3
:1043D000E90FFF27ED5DF64F99273327EE24FF24E1
:1043E000A701E70105900894079428F4360FE71E0B
:1043F000F81E491F511D660F771F881F991F0694CD
:10440000A1F70590079428F4E70EF81E491F561FE0
:10441000C11D770F881F991F661F0694A1F705908D
:10442000079428F4F80E491F561FC71FD11D880F87
:10443000991F661F771F0694A1F70590079420F433
:10444000490F561FC71FD81F990F661F771F881F58
:104450000694A9F784911095177041F0D695C795E9
:1044600057954795F794E7941A95C1F7E9ECF8E06A
:1044700068941590159135916591959105907FE21D
:104480007395E118F10A430B560BC90BD009C0F71D
:10449000E10CF11E431F561FC91FD01D7EF470335F
:1044A00011F48A95E6CFE894015030F0080F0AF431
:1044B0000027021708F4202F2395022F7A3328F0C3
:1044C00079E37D932A95E9F710C07D932A9589F6C3
:1044D000069497956795379517951794E118F10A03
:1044E000430B560BC90BD00998F023957E91739519
:1044F0007A3308F070E37C932013B8F77E917061F3
:104500007D9330F0839571E37D9370E32A95E1F715
:104510001124EF90FF900F911F91CF91DF91992778
:1045200087FD90950895FA01AA27283051F120318E
:1045300081F1E8946F936E7F6E5F7F4F8F4F9F4F37
:10454000AF4FB1E03ED0B4E03CD0670F781F891F79
:104550009A1FA11D680F791F8A1F911DA11D6A0F47
:10456000711D811D911DA11D20D009F468943F91FA
:104570002AE0269F11243019305D3193DEF6CF01F9
:104580000895462F4770405D4193B3E00FD0C9F7BF
:10459000F6CF462F4F70405D4A3318F0495D31FD2C
:1045A0004052419302D0A9F7EACFB4E0A69597957F
:1045B000879577956795BA95C9F700976105710555
:1045C00008959B01AC010A2E06945795479537959F
:1045D0002795BA95C9F7620F731F841F951FA01DF9
:1045E0000895CF92DF92EF92FF920F931F93E82FDF
:1045F000F92F05C0015011092109310961F190819C
:1046000096239417B9F305C0015011092109310906
:1046100011F1908196239413F7CFC12CD12CE12C6A
:10462000F12C0AC08FEFC81AD80AE80AF80A0C154C
:104630001D052E053F0579F080818623841791F3AF
:104640006C2D7D2D8E2D9F2D1F910F91FF90EF9042
:10465000DF90CF90089560E070E080E090E01F91DF
:104660000F91FF90EF90DF90CF900895CF93DF935D
:10467000CDB7DEB7A2970FB6F894DEBF0FBECDBFA1
:10468000789484B5826084BD84B5816084BD85B52D
:10469000826085BD85B5816085BD80916E00816039
:1046A00080936E00109281008091810082608093DF
:1046B00081008091810081608093810080918000E1
:1046C0008160809380008091B10084608093B1000C
:1046D0008091B00081608093B00080917A00846006
:1046E00080937A0080917A00826080937A00809132
:1046F0007A00816080937A0080917A00806880934C
:104700007A001092C1000FB6F894A89580916000CD
:10471000886180936000109260000FBE60E07BE4CF
:1047200080E090E00E940A134EE450E060E072E006
:1047300081E392E00E94560E8091310281FD03C018
:1047400089E592E002C08CE692E090930D07809399
:104750000C0780914B028F3421F480914C028A31F6
:1047600019F081E08093080784B58C7F84BD809127
:10477000320284FF02C081E001C083E08093000127
:1047800080917A008B7F80937A0080917A00866096
:1047900080937A00809169008C7F826080936900A9
:1047A000E89A80913602813059F462E083E00E94F9
:1047B000F51180916900837F846080936900E99A94
:1047C0008AE197E09093900280938F02E9ECF2E007
:1047D00064918F010F5F1F4F662331F08AE197E0EC
:1047E0000E944A13F801F4CF5E9A0E945113789404
:1047F00080914D02893341F480914E02833321F43C
:1048000080914F02843389F089E380934D0283E3E2
:1048100080934E0284E380934F0243E050E06CE1CA
:1048200072E08DE492E00E94280E80917E0288233F
:1048300051F010927E0241E050E06DE472E08EE7AC
:1048400092E00E94280E80917602882349F1E0913F
:104850007702EE2329F1F0E0EC53FD4F1491212F64
:1048600030E0F901EF54FD4F9491F901E356FD4F0B
:10487000249120930902E92FF0E0EE0FFF1FED567F
:10488000FD4F8591949190934101809340012223A3
:1048900019F080E00E94161561E0812F0E94F51149
:1048A00061E086E00E94F51162E082E00E94F5116D
:1048B00061E08AE00E94F511E9E8F2E08491E7EA1C
:1048C000F2E00491EBEBF2E01491112389F08111F5
:1048D0000E94CC11E12FF0E0EE0FFF1FED56FD4FCF
:1048E000A591B4918FB7F894EC91E02BEC938FBF26
:1048F0000E94EA140E947C140E94C9140E94020EB5
:104900000E94810F85EA91E022E3281B2F8F80E02F
:1049100092E0AC014153524059A348A3A895789422
:104920000E9488126C8B7D8B8E8B9F8B28EE33E0E0
:1049300040E050E00E94C23A30938E0220938D02F4
:104940006C897D898E899F896C3D754081059105B3
:1049500020F080910807882319F00E94020EDECF14
:10496000F0901C04FF2009F43BC0809105078111E1
:1049700037C013E0D12EEE24E39402ED12E0F801EB
:10498000319684916091AE02662339F0880F880FCA
:104990000E948E3A811101C081E0F801249190E0DB
:1049A0009A838983FB821C822D83EE8224E946E070
:1049B000BE016F5F7F4F82E40E948D1B0E5F1F4F11
:1049C000F2E00E3D1F07D9F666E970E080E090E066
:1049D0000E944E12DA94D110D0CF81E08093050767
:1049E000AFEAEA2EA2E0FA2EB0E4CB2EDD24D39477
:1049F0008091F006811109C08091F106811105C0F6
:104A00008091FA06882309F450C201E010E069E0C1
:104A1000A62EB12C76E0272E312CE5E04E2E512C1F
:104A2000F3E06F2E712CA4E08A2E912CB2E0EB2ED5
:104A3000F12CCC24CA94DC2C0E94FB12882309F4AC
:104A40002AC20E94DE12282F10920E0780911107B1
:104A5000909112078B30910508F0C6C0FC01EC5C08
:104A6000FF4F0C94033B10921907109218072E3F2A
:104A700029F01093120700931107B6C0F0921207A5
:104A8000E09211071092B202D092B002C092AF022F
:104A9000ABC02093B20210921307622F8FEA92E00C
:104AA0000E94B50F90921207809211079DC020932B
:104AB000B302622F8FEA92E00E94B50F7092120744
:104AC0006092110791C02093B402622F8FEA92E0A6
:104AD0000E94B50F509212074092110785C0209393
:104AE000B502622F8FEA92E00E94B50F3092120752
:104AF0002092110779C02093B602622F8FEA92E0CC
:104B00000E94B50F8091B202811107C028E030E009
:104B1000309312072093110767C047E050E050938D
:104B200012074093110760C0E091130781E08E0FD8
:104B300080931307F0E0E954FD4F2083622F8FEA42
:104B400092E00E94B50F909113078091B2029813E2
:104B50004BC0DCCFE091B602F0E0E252FD4F649131
:104B60008FEA92E02AA30E94B50F2AA1422F50E0BB
:104B70008091AF029091B00299274817590751F0E0
:104B80002E3F09F47BCF6AE070E0709312076093C8
:104B900011072AC0B0921207A0921107E0911307E3
:104BA000F0E0E954FD4F1FC0422F50E07091B00279
:104BB000798F1A8EA98DBA8D4A175B0711F40A975F
:104BC00031F4809110078F5F8093100750CFB1E0D0
:104BD000B0930E071093120700931107E09113078B
:104BE000F0E0E854FD4F208320910E07222399F036
:104BF0008091B30280931407809116079091170754
:104C0000009721F4109219071092180701969093BB
:104C1000170780931607809114078F5F8F83809109
:104C20001607909117079A8789878091100790E05F
:104C30009C878B8780910F078A831092100722230D
:104C400009F409C10E9474088091B602833809F002
:104C500099C09091B4028091AD02981393C0809155
:104C6000B502843609F08EC08091B7029091B802E7
:104C70002091AB023091AC028217930709F482C0F5
:104C80009093AC028093AB028091B9028E3E09F002
:104C900079C08091BA028F3409F074C08091BB0250
:104CA000833509F06FC08091BC02843409F06AC07A
:104CB0008091BD02823721F1873721F0823609F0D9
:104CC00061C011C06091BE024091BF0250E0E0E8B7
:104CD0006E9FB001112480EC92E00E94280E81E0CA
:104CE000809302074FC08091BF0281114BC0809119
:104CF0000207882309F446C0EE27FF27099442C023
:104D00006091BE024091BF0250E0F0E86F9FB00199
:104D1000112480EC92E00E94560E8EEF8093B10237
:104D20008FEF8093B20283E88093B60280911201E4
:104D30008093B40284E68093B5028FEF9FEF9E8745
:104D40008D8702EB12E0BE01635F7F4FB3E0063B4D
:104D50001B0731F0D8018D918D010E94930FF3CF85
:104D60008FED0E94930F66E081EB92E00E94151692
:104D70006FEF87EB92E00E94151662E0CE010D9670
:104D80000E9415168091B602882389F020911C0498
:104D9000222311F40C9466329091B402291711F475
:104DA0000C946632933309F076C00C94663280918D
:104DB000BB02863049F48091B4028093AD02109218
:104DC000AC021092AB0267C0853009F464C08A312E
:104DD00009F461C08091BC02809372018091BD0290
:104DE00087FB882780F98093F5068091B70280932E
:104DF000A7018091B40280931C048091AA028111C2
:104E000021C08091A902882391F0809107078A3000
:104E100020F48F5F8093070719C0109205078091D7
:104E2000AE028F3798F4880F8093AE020FC0809146
:104E300006078A3020F48F5F8093060707C0109220
:104E4000050704C010920707109206071092AA02E5
:104E50001092A90220C00E94A50BEECD8F3310F056
:104E60000C9427358D3111F40C94E43210F00C942D
:104E7000CE33823011F40C94EE3210F40C9446339D
:104E8000883111F40C9468338B3129F48091A90294
:104E90008F5F8093A9028091F0068093F106809144
:104EA000EE06882309F4B0C171C0F7012C2D1192D0
:104EB0002A95E9F71092C1000E9488124B015C010B
:104EC00034E6830E911CA11CB11C0AEF1FEF0E9457
:104ED000881286169706A806B906A8F024EC39E0D1
:104EE00040E050E060E080E00E949A116F3F710561
:104EF0008105910509F02CF4662319F0611708F477
:104F0000162F015021F71F3F19F41091010102C023
:104F1000109301011B3068F0133170F01D3178F0EF
:104F2000183280F01C3388F0163990F021E080E4CC
:104F300011C028E182E00EC02CE084E00BC028E024
:104F400086E008C026E088E005C024E080E102C0D9
:104F500022E080E28093AE0230E0A0ECB2E10E9459
:104F6000E8374B015C016093D0037093D1038093C9
:104F7000D2039093D3038AE197E00E947E10C5018B
:104F8000B4010E940A13D092F10632CDF090FB01D9
:104F900080913602833008F42CC1833029F40091CB
:104FA000A8011091A90111C09BEF980F943048F40B
:104FB000E82FF0E0EE0FFF1FE85FFD4F0081118149
:104FC00004C0009118021091190298012052334038
:104FD0002939384008F00DC12091050130910601B2
:104FE0000217130720F41093060100930501209186
:104FF0000301309104012017310720F410930401BC
:1050000000930301843029F51091A7018AEF810FE5
:10501000823008F4BDC08091C703811779F01093E6
:10502000C70360E070E083EC93E00E94CB0A8091BC
:105030000201181303C081E08093F20683EC93E031
:105040000E943E09813D974008F4A2C010930201DE
:105050009FC080913B0281111FC0809103019091FC
:10506000040120910501309106016091780220171A
:10507000310758F4021B130B821B930B70E00E9444
:105080009A3AC8010E949A3A01C060E0F61609F403
:105090007FC06093FB017CC08091310282FF39C0E8
:1050A000C090C103D090C2030C151D0509F441C086
:1050B000C8018C199D09893C9105D8F18091BF03E5
:1050C0009091C0030817190731F0B801681B790BDC
:1050D000683C710578F483EC93E00E943E09893EB8
:1050E000934018F081E08093F2061092C003109272
:1050F000BF031FC060E070E083EC93E00E94CB0A26
:10510000D092C003C092BF031093C2030093C103A7
:1051100010C020910301309104018091050190910C
:105120000601280F391F3695279581E02017310792
:1051300008F080E09091310290FF10C0882321F0A8
:1051400081E08093F30624C08091F306882319F050
:1051500081E08093F2061092F3061AC08823C1F012
:105160008090C3039090C403A090C503B090C60381
:105170000E94881286169706A806B90648F481E0B0
:105180008093F20664EF71E083EC93E00E94CB0A17
:105190008091F206882369F01092F2068091FB015B
:1051A0008F5F8093FB0190917802981710F4109212
:1051B000FB018091FB01F816E1F00E94810F8091C4
:1051C0000407811114C0A3E7B1E0E6EEF3E0849197
:1051D0008D9331968111FBCF9091FB0180917A01E3
:1051E000890F80937A0163E088E00E94A3091092FE
:1051F00004078091EF06811105C081E08093EF06DE
:1052000080938C021092EE068091EF06882309F4B9
:1052100037C180918C02811133C11092EF068091C9
:10522000D501882319F091E0909300079091000236
:10523000998B9B3008F00DC49091F50691111AC41A
:105240009093F6069091FC06992309F422C480916C
:10525000FC0681113EC48CEC93E00E943E099B8BBE
:105260008A8B60E070E08CEC93E00E94CB0A2A8984
:105270003B89B90180E090E00E94B3360E94B409F6
:105280004B015C0160911A0270911B02072E000C09
:10529000880B990B0E94B5366B017C01609123024B
:1052A0007091240280E090E00E94B33620E030E567
:1052B00043EC57E40E94DB38A70196010E941437A3
:1052C000AB01BC012AE081EF91E00E94B20810918D
:1052D00009014090ED015090EE016090EF01709057
:1052E000F0010E94030A9B01AC01C301B2010E94BC
:1052F000143720E030E040E752E40E941437AB015D
:10530000BC01212F89EE91E00E94B2082091220277
:105310008091E801082E000C990B422F50E0841771
:10532000950714F42093E80180913502882309F44D
:1053300077C4A5019401C701B6010E94143720E08B
:1053400030E044EB53E40E94DB38AB01BC0186EC57
:1053500096E00E94A0088091DB039091DC032091ED
:105360003F0220FD86C42090790230907A0200919D
:105370007B0210917C02021513050CF073C4322DD0
:10538000232D1801032F122F41E0488F322D232D9A
:105390002816390614F4382F292F632F722F061779
:1053A00017070CF4B8016219730980E090E00E94BD
:1053B000B3366B8F7C8F8D8F9E8FB8016219730906
:1053C00080E090E00E94B3369B01AC016B8D7C8D38
:1053D0008D8D9E8D0E94DB3820E030E048EC52E459
:1053E0000E9414370E944D39653671050CF43CC497
:1053F00064E670E0588D552331F084E690E0DC01DE
:10540000A61BB70BBD017093E7016093E601809185
:10541000F90680FD33C40E947C14809135021091FE
:10542000F5068111D2C48091F90680FDA3C41093C2
:10543000F60680917802853018F084E08093780237
:105440008CEF91E00E943E09853C994008F0D1C460
:105450008091320280FDFAC48091780281111AC5D0
:1054600003E514E0F801B490C8010196FC01E59051
:10547000F490E114F10409F012C581E080938B02ED
:105480008091180490911904A0911A04B0911B0402
:105490002C893D894E895F8982179307A407B50738
:1054A000E8F464E170E088E194E00E94BC0A809135
:1054B0000902882319F081E00E94161580918B0261
:1054C000882361F080918C02882341F087E892E084
:1054D0000E943E09C39710F00C942D328091140461
:1054E00090911504A0911604B09117044C895D8920
:1054F0006E897F8984179507A607B70708F059C2F8
:1055000064E670E084E194E00E94BC0A809131027C
:1055100084FD05C080912D02882309F49AC0109162
:105520000D011F5F10930D0180E10E943112177071
:10553000E12FF0E0EE0FFF1FE250FC4F91838083DC
:1055400060E070E088E08150E82FF0E0EE0FFF1F90
:10555000E250FC4F20813181620F731F8111F3CF24
:10556000209125023091260247E0429FC001439FCF
:10557000900D1124860F971F23E0969587952A9505
:10558000E1F790932602809325028091310284FFF7
:1055900060C080E090E00E94B336209153023091C9
:1055A000540240915502509156020E94143729E549
:1055B0003EEE49E050E40E9414370E945439409175
:1055C0002302509124024115510529F470932402BD
:1055D0006093230212C09A01220F331F240F351F3C
:1055E0002E5F3F4FA901460F571F56954795569579
:1055F0004795509324024093230281E08093EE0666
:10560000E0913A028E2F61E20E948E3A482F8091FB
:10561000230290912402C29664E670E00E949A3AB6
:10562000F0E09B012E1B3F0BAFEFB0E00E94E8378C
:105630005AE2459F900111242E1B3F0B032E000CB4
:10564000440B550B0E94E43AC9010E943F16809317
:1056500022028091310285FF04C080910A078111E6
:1056600005C080912E02882309F497C010910C0187
:105670001F5F10930C018EE00E9431121770E12F12
:10568000F0E0EE0FFF1FE251FC4F9183808360E05A
:1056900070E088E08150E82FF0E0EE0FFF1FE2514C
:1056A000FC4F20813181620F731F8111F3CF209154
:1056B00027023091280247E0429FC001439F900D8E
:1056C0001124860F971FA3E096958795AA95E1F779
:1056D00090932802809327028091310285FF5DC05C
:1056E00080E090E00E94B33620915702309158023A
:1056F0004091590250915A020E94143729EA3CEC19
:1057000048E050E40E9414370E945439409120022E
:10571000509121024115510529F4709321026093A3
:10572000200212C09A01220F331F240F351F2E5F53
:105730003F4FA901460F571F5695479556954795D8
:105740005093210240932002E09173028E2F61E278
:105750000E948E3A482F8091200290912102C29699
:1057600064E670E00E949A3AF0E09B012E1B3F0B2A
:10577000AFEFB0E00E94E837AAE24A9F90011124FF
:105780002E1B3F0B032E000C440B550B0E94E43ADA
:10579000C9010E943F168093ED038091310286FD7E
:1057A00005C080912F02882309F47BC080911E02DE
:1057B000882351F020E137E240E050E061E08FE0E3
:1057C0000E949A11CB0103C08FE00E943112E09138
:1057D0000B01EF5FE0930B01E770F0E0EE0FFF1FAE
:1057E000E352FC4F9183808360E070E088E0815059
:1057F000E82FF0E0EE0FFF1FE352FC4F20813181D4
:10580000620F731F8111F3CF2091290230912A0278
:1058100047E0429FC001439F900D1124860F971FC0
:1058200033E0969587953A95E1F790932A02809315
:1058300029028091310286FF34C080E090E00E940E
:10584000B33620915B0230915C0240915D02509131
:105850005E020E9414372DE032E348EC5CE30E94C4
:1058600014370E94543940911A0250911B0241157D
:10587000510529F470931B0260931A0212C09A0119
:10588000220F331F240F351F2E5F3F4FA901460FF4
:10589000571F569547955695479550931B02409331
:1058A0001A0280913F028695813041F050F182309A
:1058B00049F0833051F58091D90325C081E10E94E0
:1058C000311209C020E23EE440E050E061E081E1B5
:1058D0000E949A11CB010E944A1620915F023091DA
:1058E000600240916102509162020E9414370E944E
:1058F00054397093DC036093DB0381E08093EE0600
:105900003AC08091DA0390E004C08091180290912F
:1059100019020E944A160E9454397093DC03609366
:10592000DB0380913002882331F180911F028823AC
:1059300049F020E137E240E050E061E081E10E947F
:105940009A1104C081E10E943112BC0180912B02A6
:1059500090912C0247E0489F9001499F300D1124FF
:10596000620F731F83E0769567958A95E1F77093D0
:105970002C0260932B029091FE0681E08927809390
:10598000FE068823B1F080918602882369F08F5F3C
:1059900080938602833068F0809185028F5F8093C8
:1059A00085021092860205C0809185028F5F8093E8
:1059B00085028091100490911104A0911204B0917D
:1059C00013042C893D894E895F8982179307A407A8
:1059D000B50710F00C948E2464EF71E080E194E040
:1059E0000E94BC0A81E08093EE068093FD069091B0
:1059F0000F049F5F90930F049091FA06982790935D
:105A0000FA06992311F40C948E248093F406809165
:105A10000907882399F08091810290918202A091D8
:105A20008302B09184020196A11DB11D8093810271
:105A300090938202A0938302B093840280918002AB
:105A4000882309F440C580917F02853008F40DC594
:105A50003AC5209107013091080120373E4F09F0E7
:105A6000EBCB2091D3013091D401309308012093E6
:105A70000701E2CB2091F6062111E2CB1092FC0641
:105A80002091D3013091D401309308012093070174
:105A9000D7CB833008F4DBCB8CE0EBEBF1E0A7EC69
:105AA000B1E001900D928A95E1F781E08093FC06C8
:105AB0008091B7019091B801A091B901B091BA015C
:105AC0008093B3019093B401A093B501B093B60154
:105AD000BECB8090C7019090C801A090C901B09042
