:100000000C94E1040C94D7150C9464150C94090518
:100010000C9409050C9409050C9409050C94090528
:100020000C9409050C9409050C9409050C94090518
:100030000C9409050C9409050C9409050C94090508
:100040000C94AF110C9409050C94830F0C94570F6A
:100050000C9409050C9409050C9409050C940905E8
:100060000C9409050C9409053E25422554256E255E
:1000700062257A2586259F25B525DF25DF25084AB7
:10008000D73B3BCE016E84BCBFFDC12F3D6C7431AC
:100090009ABD56833DDA3D00C77F11BED9E4BB4C03
:1000A0003E916BAAAABE000000803F05A84CCDB2CD
:1000B000D44EB93836A9020C50B9918688083CA6AE
:1000C000AAAA2ABE000000803F0664EC1B3C04BCC8
:1000D000163E3BE5B93CC93C37C29E5A3D66049882
:1000E000083EEA69AAAA3E000000803F5069746396
:1000F0006820696E204E54534300526F6C6C202070
:10010000696E204E54534300506974636820696ED1
:100110002050414C00526F6C6C2020696E20504181
:100120004C002020486F72697A6F6E20616E676C98
:10013000657300566572746963616C206F666673DF
:1001400000486F72697A6F6E74616C206F666673B7
:1001500000436F6E74726173740053637265656EF1
:100160007320436F756E7400202053637265656E53
:1001700020706172616D7300525353492077617230
:100180006E696E67004261747420636861726765AE
:10019000207761726E004F766572737065656420BA
:1001A0007761726E696E67005374616C6C20776161
:1001B000726E696E670042617474203220776172DA
:1001C0006E696E670042617474657279207761723E
:1001D0006E696E67002020204F534420736574754C
:1001E0007000252E336600252E30660025332E3113
:1001F000667600220168000000150166610225088C
:100200000166650225FA0066690225EC00666D024A
:1002100025D50100000000C50142380200B60142A8
:10022000710200A801623702109601623602108541
:1002300001623E02107801623F0210680100000076
:10024000005A016276021151016235021241015ACF
:1002500073021333017A72021466666640000080EE
:100260003F100CBA000A00001BE8031A52B80E40F7
:1002700085EB51401966BB0012800C1CA0141E00B7
:100280000000080002010000030407000000000055
:1002900000000000000000250028002B00010204DF
:1002A00008102040800102040810200102040810F8
:1002B00020040404040404040402020202020203EF
:1002C0000303030303100E0F1123317A7A7A7A7A2B
:1002D0000A000601020203050A0A0B020C01327C25
:1002E0008900EDD968770000005900000000000087
:1002F0000000D69FDCA81817AA90437327F6B968A8
:10030000EDF4DED409FEE61C1C84DDE80B992927F8
:10031000D6DF8D210F036418EFEE1E99B782527657
:10032000941500347C000026149E988F0000006A0B
:1003300031168F8C059600E7B73F360000000000AD
:100340000000AF669ED0385D8A6C20B95422007CD4
:10035000ED044C80387486EDCBFA57CBDC19E20003
:100360001DDF5506E5CB01C30000000000000000C2
:10037000009AB20086DBD0BC5416131586004E449A
:10038000BD7F6F151590010000B500000000000052
:100390002F0000AEE5000000000000000000004754
:1003A000000000000000000000000000000000004D
:1003B000000000000000000000000000000000003D
:1003C0000000000000000000000000000000005AD3
:1003D00000000000000008CC31AA2C532E000206B9
:1003E0000A0F141E2D3C53637265656E2030004E5B
:1003F0006F20696E707574206461746121202575A9
:10040000FF000000FF000100040000000300E1FF06
:100410001F00F1FF0F00FCFF0400C0E0401F9CFF25
:10042000640001000A006400E803EC01E701E20156
:1004300020284E5453432900202850414C290011B4
:10044000020C0000F3010568138F0809581300001F
:1004500000000015480E00010C17000204170003ED
:10046000681BBC84261B2605CD160007671A0034BE
:10047000621A03355D1A0418EC1B0006B90800085F
:10048000511900094C1A0025D91A008BD41B0B0AEC
:100490001F190019CC1A000DAF195C11160A11169C
:1004A000FA09121222051417130513134407021434
:1004B0005C187F0F971BBD2EC817571BE2081D9CA9
:1004C000980A151D8F16000EF90A091E930C0021BB
:1004D000A9070020E41700224F0A8F2414181F2BAD
:1004E000B4171F2C8117002D5817002F391700A79C
:1004F000E01700A8DC1700A9D81700AAD417001F1E
:10050000310500268D1800306616003114170033AF
:10051000901600238E100032D812009A710B000042
:1005200000000046656E63652046617221004665E5
:100530006E63652048696768210046656E636520C3
:100540004C6F772100426174742042206C6F7721D8
:100550000048696768205653706565642100204C27
:100560006F772052737369210042617474657279E8
:10057000204C6F7721004F7665725370656564215A
:100580000020205374616C6C21004E6F2047505343
:1005900020666978210042616420436F6E66696756
:1005A0003A202564206D79203739004D696E696DD8
:1005B0004F53442D4578747261204D41564C696EFD
:1005C0006B20322E34FF506C616E652072393334EB
:1005D000204456FF0025303269FF003A2530326949
:1005E0003A00B0B1B4B5B6B77B7DB8B9002534696F
:1005F000050025352E3166002090910025322E30E1
:1006000066002520342E3066002520342E31660009
:100610002520342E3266008A058105760569055E3F
:1006200005510545053A052E05230525392E356664
:10063000002531302E3666002530356C64002530BB
:10064000366C64002533690025332E306600202087
:100650007820207920207AFF0020B3FF20B3FF20EC
:10066000C5FF20B3FF20B300B2FFB2FFC6FFB2FF49
:10067000B20031062B063E06380625342E306600C1
:100680000302010000000000240027002A000000EF
:100690000000230026002900716C6F690071686FEB
:1006A00076007173746200696E69740067756964BD
:1006B000006C6F69740072746C006175746F006116
:1006C00074756E006372757A0066627762006662A6
:1006D0007761006163726F007472616900737461A5
:1006E00062006369726300696E6974006D69737397
:1006F000006D5F256400706F736800616C74680042
:100700006D616E750061726D002534690507002505
:10071000346905060025352E32660025342E3166F3
:10072000006F7665726C6F61640066726F7A656ED9
:100730000053747265616D00FF20CECECECE60CEC8
:10074000CECECE00FF20202024CB7C40CB240082C4
:10075000808180818084808180818083808180818C
:100760008085808180818020C8C8C8C87EC8C8C8EC
:10077000C820FF0020202024CBB8B9CB2420202083
:10078000FF0020586500253269000007E206DD06FB
:10079000D806D306CE06C906C406BF06F106BA06B9
:1007A000B606B106F106F106AC06A706A2069D063E
:1007B000980605070007FB06F606F106EC06F106AB
:1007C000F106E70625342E326600256900432569C7
:1007D00020002E253032640025346900A125372EF3
:1007E0003266009125372E32660025362E3166009E
:1007F00025372E3266003420285253534929204B86
:100800000033202843757272656E7429204B0032C4
:100810002028563229204B00202020202020204153
:1008200000312028563129204B0020202050696EAD
:100830002053656E736F727300F0070B68FE06003D
:10084000EA078F68FA0600EA071473F60600EA075B
:100850001D73F20600EA071268EE0600E3079076C1
:10086000EA0600DC07A076E60600EA07BD61E206BC
:1008700000EA075777DE0600EA070166DA0600435A
:100880002564253569FF00696E66006E616E002A79
:1008900008000000002108738002251808738402F4
:1008A000270F08730000251808730000270108733C
:1008B000000026180873000027F6077300002618AA
:1008C000087300002700407A10F35A00A0724E18F7
:1008D000090010A5D4E80000E87648170000E40BF2
:1008E00054020000CA9A3B000000E1F505000080B8
:1008F000969800000040420F000000A08601000012
:1009000000102700000000E8030000000064000061
:100910000000000A00000000000100000000002CA0
:1009200076D888DC674F0823DFC1DFAE59E1B1B765
:1009300096E5E3E453C63AE651997696E8E6C28432
:1009400026EB898C9B62ED407C6FFCEFBC9C9F404A
:10095000F2BAA56FA5F490055A2AF75C936B6CF96F
:10096000676DC11BFCE0E40D47FEF520E6B500D045
:10097000ED902E0300943577050080841E0800005A
:10098000204E0A000000C80C333333330F986E1228
:10099000831141EF8D2114893BE65516CFFEE6DB2E
:1009A00018D1844B381BF77C1D901DA4BBE4242078
:1009B0003284725E228100C9F124ECA1E53D27005A
:1009C0004B3611241FBECFEFD8E0DEBFCDBF27E0EE
:1009D000AEE3B1E001C01D92A633B207E1F711E02A
:1009E000A0E0B1E0EEEDF6E702C005900D92AE3367
:1009F000B107D9F714E0C1EED4E004C02197FE019D
:100A00000E94033BC03ED107C9F70E9441230C94CA
:100A10006D3B0C94000083EA92E00197F1F7089592
:100A200080E090E0089596FB222720F94091D801BC
:100A30005091D9016091DA017091DB0188E496E070
:100A40000C94551496FB222720F94091FF015091F8
:100A50000002609101027091020288E496E00C9419
:100A60005514292F80918B0290918C028F739927B6
:100A7000029710F026FF04C080E492E00C946520F9
:100A80000895CF93DF9388E80E949312CFE0D1E0DE
:100A900088810E94C71289810E94C7128EE8DF9167
:100AA000CF910C9493122F923F924F925F926F923C
:100AB0007F928F929F92AF92BF92CF92DF92EF92EE
:100AC000FF920F931F93CF93DF93CDB7DEB72F978E
:100AD0000FB6F894DEBF0FBECDBF8091F501803414
:100AE00089F44090650250906602609067027090B1
:100AF000680220916102309162024091630250913C
:100B0000640210C040906D0250906E0260906F02BF
:100B1000709070022091690230916A0240916B02DC
:100B200050916C026091690170916A01072E000C6E
:100B3000880B990B2A873B874C875D870E94B536C7
:100B40002A853B854C855D850E9414374B015C01ED
:100B500080912C0480FF04C0B7FAB094B7F8B09429
:100B6000C501B4010E944D39AB016A35710538F0F9
:100B70009B012D543F4F2935310578F4A9014734A5
:100B8000510564F54A3151050CF54A30510518F10B
:100B900028E02F8783EF10ED2EC06B3571051CF018
:100BA000AB01435B5109CA0157FF03C09195819581
:100BB00091098734910594F48A3191059CF40A9740
:100BC000B0F038E03F8785EF12EE15C047E04F8761
:100BD00088EF19ED10C059E05F870BC01F868DECC0
:100BE00011EC09C067E06F878BEF1BEE04C089E052
:100BF0008F878DEC16EC2CE030E03A83298300E0FF
:100C00004F85042E000C550B58874F8386508987DB
:100C1000202F002E000C330B3C832B836091670147
:100C200070916801620F731F072E000C880B990BDF
:100C30000E94B53627EA32E94BE25CEB0E9414379A
:100C4000A30192010E9414370E94403A20E030E054
:100C500040EA50E40E94143720E030E040E951E4DB
:100C60000E9414376B017C0120E030E0A9010E9452
:100C7000E93920E030E040E05FE387FD0BC0C701C9
:100C8000B6010E94F8370E944D391B013DE2230E48
:100C9000311C0AC0C701B6010E94F7370E944D39C6
:100CA0001B014DE2240E311C9DE05981951B9E874E
:100CB0008B819C819195819591099E838D836E8511
:100CC000862F90E029813A81281739070CF47DC0DE
:100CD00025E33AEF4EE85CE3C501B4010E94143706
:100CE0000E94403A6B017C019E852CE0929F602D12
:100CF00011246E54062E000C770B880B990B0E9462
:100D0000B5369B01AC01C701B6010E9414370E94A1
:100D10004D399101260F371FC90101978A35910579
:100D200008F04FC062E170E00E94AE3A7B014F854F
:100D3000442379F05EEE5603C001579F900D1124B5
:100D4000820F931F019697FD019695958795D82E52
:100D500001C0D12C64E06E198E8581500E94A712CB
:100D6000002399F06E85653081F46B817C8177FF7B
:100D700002C06D817E81072E000C880B990B4AE022
:100D80000E94772086E08E8704C08D2D810F0E94FF
:100D9000C712DD20B1F04D2D50E02F81388542176C
:100DA00053077CF034E0E316F10459F04985D40E82
:100DB00063E06E198E8581500E94A7128D2D0E94CE
:100DC000C7125E855F5F5E877ACF37FE09C0025E1D
:100DD00089819A8104979A838983049739F018CF7F
:100DE0003BE52316310414F00E51F2CF2F960FB6C7
:100DF000F894DEBF0FBECDBFDF91CF911F910F9151
:100E0000FF90EF90DF90CF90BF90AF909F908F902A
:100E10007F906F905F904F903F902F900895CF9369
:100E2000813110F08051FCCF811101C080E1880F29
:100E3000CEEFC80F80E98C0F0E94C71281E98C0F9A
:100E4000CF910C94C71285E20C94931280E20C941B
:100E5000931280913A048F5F80933A040C94B812F5
:100E6000692F0C9446137F936F939F938F9382E324
:100E700097E09F938F930E943D200F900F900F90CB
:100E80000F900F900F9008956091FE0170E084E440
:100E900096E00E9433070C942307EF92FF920F9382
:100EA0001F93CF93DF938C01D62FC42F6CE370E098
:100EB0000E949A3A7C0184E496E00E943307CC2396
:100EC00049F0B7018BED95E00E943307CF776C2F87
:100ED00070E011C0DD2331F080910E07882311F0FE
:100EE00080E201C08AE30E94C712C8016CE370E08F
:100EF0000E949A3ABC0185ED95E0DF91CF911F9158
:100F00000F91FF90EF900C943307CF93DF931F92D4
:100F1000CDB7DEB77F936F935F934F939F938F937C
:100F200082E397E09F938F9329830E943D200FB621
:100F3000F894DEBF0FBECDBF2981222331F0822F6E
:100F40000F90DF91CF910C94C7120F90DF91CF914A
:100F50000895CF92DF92EF92FF920F931F93CF935A
:100F6000DF938091200790912107FC013A96D4915C
:100F70003296C4910D96FC010591149160915C012B
:100F800070915D0180E090E00E94B33620E030E097
:100F900040E251E40E94DB386B017C016C2F70E071
:100FA00080E090E00E94B5369B01AC01C701B6011C
:100FB0000E9414376B017C01B80180E090E00E9430
:100FC000B3369B01AC01C701B6010E94F83720E09F
:100FD00030E048EC52E40E94DB38AB01BC012D2F1D
:100FE00082EF95E0DF91CF911F910F91FF90EF90ED
:100FF000DF90CF900C94850720E00C9485070E9429
:10100000A3116093FA017093FB018093FC0190930C
:10101000FD0180918B0290918C029093F40180935A
:10102000F301E2E0F7E081E0808382830895CF93CB
:10103000DF93EC01CB01BA010E94B53620E836E916
:1010400048E15BE40E94DB38688379838A839B8371
:10105000DF91CF910895CF93DF93EC019A01AB011B
:10106000688179818A819B810E94F83768837983BE
:101070008A839B83DF91CF9108958F929F92AF9245
:10108000BF92CF92DF92EF92FF920F931F93CF9375
:101090008C014A015B01C22FFC01C080D180E2803B
:1010A000F38020E030E0A901C701B6010E94AE360E
:1010B000882311F0C23030F4F80180829182A2823C
:1010C000B3821FC0A7019601C501B4010E94F73782
:1010D0004B015C016C2F70E080E090E00E94B5361F
:1010E0009B01AC01C501B4010E94DB389B01AC013E
:1010F000C701B6010E94F837F801608371838283CB
:101100009383CF911F910F91FF90EF90DF90CF903D
:10111000BF90AF909F908F900895CF92DF92EF9203
:10112000FF92CF93DF93EC016A017B019A01AB013F
:10113000688179818A819B810E94AE3687FF04C0D5
:10114000C882D982EA82FB82DF91CF91FF90EF9033
:10115000DF90CF90089524E0880F991F2A95E1F73A
:101160008C549F4F68E671E00E94AE3ACB01019625
:1011700008958091AB019091AC010E94AB080E9450
:101180000F076091AB017091AC018DEE95E00C946E
:101190003307CF93DF93EC010E94A311288139819B
:1011A000CB01821B930BDF91CF91089597FF03C072
:1011B00088599E4F0895893621E0920714F0885689
:1011C000914008950F931F93CF93DF93C92F809180
:1011D0005E0190915F010E94D6088C014091D00180
:1011E0005091D1016091D2017091D30124E687E240
:1011F00094E00E943D08C6FBDD27D0F94091D00164
:101200005091D1016091D2017091D3012D2F88E4CA
:1012100096E00E9455140E9429072091CD0130913B
:10122000CE01C801821B930B0E94AB089C2F9072C9
:10123000C5FD98E0890F0E940F0740912704509147
:1012400028046091290470912A042D2F8CEF95E0D9
:10125000DF91CF911F910F910C94551420918B0227
:1012600030918C02260F311D3093C7062093C6069D
:101270008093C506809183028093C406089520E080
:1012800030E04AE754E40E94DB380895E0912007FB
:10129000F0912107659175918591949108958F92B0
:1012A0009F92AF92BF92CF92DF92EF92FF926091A6
:1012B000180270911902072E000C880B990B0E94DE
:1012C000B5366B017C018090FF0190900002A090E8
:1012D0000102B09002020E9446099B01AC01C501C7
:1012E000B4010E9414379B01AC01C701B6010E94F2
:1012F000DB3820E030E040E251E40E941437AB01DB
:10130000BC0124E686E394E0FF90EF90DF90CF905D
:10131000BF90AF909F908F900C943D08E091200774
:10132000F091210734966591759185919491089576
:10133000CF92DF92EF92FF920F931F93CF93DF93A1
:1013400000D000D0CDB7DEB79B01AC0169833A83F2
:101350004B835C830E948E0929813A814B815C8199
:101360000E9414376B017C0120E03CE34CE156E421
:101370000E94AE360091200710912107F80118163F
:101380003CF039962491B701A6018AE796E024C083
:1013900070966591749180E090E00E94B3369B0155
:1013A000AC01C701B6010E94DB386B017C010E94D1
:1013B0004D396A30710534F06436710534F08AE7CE
:1013C00096E005C084EC97E002C08BE197E0F8015D
:1013D0003F962491B701A6010F900F900F900F90A8
:1013E000DF91CF911F910F91FF90EF90DF90CF9001
:1013F0000C9485074091030250910402609105020C
:101400007091060296FD09C04115510561057105EF
:1014100021F0CB01BA010C9498094091D40150916C
:10142000D5016091D6017091D701F3CF0F931F932F
:10143000292F207495FF15C06091D4017091D501BA
:101440008091D6019091D701222329F12091B101F9
:101450003091B2014091B3015091B4010E94F7372D
:101460001AC06091BD017091BE018091BF01909141
:10147000C001222361F00091C9011091CA0120919D
:10148000CB013091CC01601B710B820B930B0E943E
:10149000B5360E943F091F910F910C9498096091F5
:1014A000FA067091FB068091FC069091FD060C9463
:1014B00098099B01FC014081518162817381420F37
:1014C000531F611D711D408351836283738308958F
:1014D0000F931F93CF93DF93EC018B010E94A31115
:1014E000DC01CB01800F911FA11DB11D8883998361
:1014F000AA83BB83DF91CF911F910F91089596FB33
:10150000222720F930E095FD03C080E090E002C082
:1015100082E090E0282B392B21503109233031050E
:1015200028F4F901E95EFE4F8081089580E0089576
:10153000CF92DF92EF92FF92CF93DF93D82FC92FF4
:101540000E947F0A80930901C7FD4CC0C4FF2AC0D6
:1015500081E08093150720E030E040E752E460919D
:10156000E7017091E8018091E9019091EA010E9400
:10157000DB386B017C010E944D399B0177FF04C071
:1015800022273327261B370B2A3031052CF5D6FDB1
:1015900003C080E196E002C089E096E028E1B7014F
:1015A000A60112C010921507E0912007F0912107C3
:1015B000729624914091E7015091E8016091E90110
:1015C0007091EA0182E096E0DF91CF91FF90EF9079
:1015D000DF90CF900C94850724363105ECF282E041
:1015E00096E0DCCFDF91CF91FF90EF90DF90CF902E
:1015F00008951F93CF93DF931F92CDB7DEB7192FB6
:101600000E947F0A282F6091E4017091E50180E03B
:1016100090E029830E94B336AB01BC01298183E2AB
:1016200094E00E943D08609123047091240480910D
:101630002504909126040E944D3984E496E00E948E
:10164000330780913D0280FD08C014FF06C00F9053
:10165000DF91CF911F910C9423070F90DF91CF91D1
:101660001F91089595FB222720F994FD02C090E078
:1016700001C092E0922B86FD02C080E001C084E0B0
:10168000892B08950E941612811102C00C940B053B
:1016900008958EBD0DB407FEFDCF8EB58FEF8EBDC4
:1016A0000DB407FEFDCF8EB508958EBD0DB407FEB7
:1016B000FDCF8EB56EBD0DB407FEFDCF8EB508957E
:1016C000CF93DF93FC016491EC012196662331F006
:1016D00082E397E00E946512CE01F4CFDF91CF91B3
:1016E0000895CF92DF92EF92FF920F931F93CF93C3
:1016F000DF9380910807882309F4F7C0192F10920F
:101700000807C090D801D090D901E090DA01F0909C
:10171000DB010E9446099B01AC01C701B6010E9492
:1017200014370E944D39E0912102F09122028091FC
:101730001407882349F081E090E02091CF01223006
:1017400008F080E0EC0102C0C0E0D0E0009133027C
:1017500001110AC02091370230E06217730724F4A8
:1017600080910D0780FDC26020913602222329F06E
:1017700030E0261737070CF4C46030912002209126
:10178000E60140913802442369F0CF0164E670E03D
:101790000E949A3A6115710529F0842F90E068172C
:1017A0007907E4F040913E024423C9F054E6359FA6
:1017B000C0011124322F27FF02C031E0320F3595CE
:1017C000830F911D37FD9A95622F220F770B0E9490
:1017D000AE3A842F90E0681779070CF4C8608091C6
:1017E0003D0280FD0BC080913F0290E02091E4011A
:1017F0003091E5012817390708F4C061C090E7016E
:10180000D090E801E090E901F090EA0120E030E0BA
:10181000A901C701B6010E94E93918161CF4C701D5
:10182000B60103C0C701B60190580E944D39CB01E3
:101830006AE070E00E94AE3A013049F480913702CC
:10184000882329F090E0861797070CF4C0628091F6
:101850001E0290911F0220917102222369F064E61A
:1018600070E00E949A3A6115710531F0822F90E084
:10187000681779070CF4C06416FF0EC080915A01F6
:10188000813011F4C0680DC0823011F4D16009C0FC
:10189000833011F4D26005C0209719F410922B0404
:1018A00024C090912B0481E09111890F80932B0427
:1018B00080912B044FEF480F21E030E002C0220F4F
:1018C000331F4A95E2F78B3018F081E021E030E0D9
:1018D000A9014C235D23452B21F48F5F220F331F79
:1018E000F2CF80932B048917C9F2E0912B04EE23E9
:1018F00089F0F0E0EE0FFF1FEB5EF94F85919491B8
:10190000DF91CF911F910F91FF90EF90DF90CF90DB
:101910000C94600BDF91CF911F910F91FF90EF908E
:10192000DF90CF900895CF92DF92EF92FF92CF9306
:1019300020910907222309F4FCC0C82F96FF13C089
:1019400020E030E0A9016091FF01709100028091D8
:101950000102909102020E94AE36882309F4E9C088
:101960000E944F0921C0809133028111E2C020E022
:1019700030E0A9016091FF017091000280910102A5
:10198000909102020E94AE36882309F4D2C00E94D0
:101990004F099091FE0180910C07933068F08111FE
:1019A00003C081E080930C078C2FCF91FF90EF90C4
:1019B000DF90CF900C949914882311F18091030249
:1019C00090910402A0910502B091060280931F0439
:1019D00090932004A0932104B09322048091FA06EE
:1019E0009091FB06A091FC06B091FD0680931B042C
:1019F00090931C04A0931D04B0931E0410920C0736
:101A0000C090EB01D090EC01E090ED01F090EE0180
:101A10002DEC3CEC4CE45DEBC701B6010E94AE3608
:101A200087FF67C0C0900302D0900402E0900502D7
:101A3000F0900602A701960160911F0470912004A6
:101A400080912104909122040E94F7379B01AC0100
:101A5000C701B6010E94DB386B017C0120911B0499
:101A600030911C0440911D0450911E046091FA06AF
:101A70007091FB068091FC069091FD060E94F7375D
:101A80009B01AC01C701B6010E9414376B017C01B8
:101A90000E948E099B01AC01C701B6010E94143758
:101AA0006B017C010E944D39CB016031774224F4F7
:101AB0001816190644F03DC0C12C8CE3D82E8CE1D9
:101AC000E82E86E4F82EC7FD03C08EEE0E94931226
:101AD000E0912007F091210739962491B701A601E2
:101AE0008AE796E0CF91FF90EF90DF90CF900C9433
:101AF00085072DEC3CEC4CE45DEBC701B6010E9480
:101B0000E93987FD16C0809167019091680197FFC0
:101B100010C080910E07882319F089EF95E002C06C
:101B200088EF95E0CF91FF90EF90DF90CF900C94ED
:101B3000600BCF91FF90EF90DF90CF90089565E01C
:101B400082E00E9446138BEA95E00E94600B0E949F
:101B5000A311882799274AE00E94772080911C07CB
:101B6000882359F061E081E00E94461360914902A8
:101B700070E086E995E00E9433070E946C1266E9E6
:101B800070E080E090E00C946911CF92DF92EF92C8
:101B9000FF920F931F93CF93DF931F92CDB7DEB7C2
:101BA0006B017C018B01040F151FC016D10689F053
:101BB000F70161917F01C60169830E94D237698173
:101BC000861719F0C6010E94DA37FFEFCF1ADF0A35
:101BD000ECCF0F90DF91CF911F910F91FF90EF907D
:101BE000DF90CF900895EF92FF920F931F93CF93C2
:101BF000DF938C01040F151FEC017B01E81AF90A31
:101C0000C017D10739F0C7018C0F9D1F0E94D23732
:101C10008993F6CFDF91CF911F910F91FF90EF90B5
:101C20000895CF93DF9300D0CDB7DEB79091F9013F
:101C3000682F70E0660F771F80E8989F600D711D18
:101C4000112442E050E0CE0101960E94F30D8981FB
:101C50009A810F900F90DF91CF91089584E20E94B6
:101C6000110E8091CD019091CE01880F991F8D9614
:101C70006AE570E00E94AE3A77FF03C0685F7F4F6D
:101C8000FBCF67707727FB01EE51FA4F84910895DF
:101C90004F925F926F927F92BF92CF92DF92EF92BC
:101CA000FF920F931F93CF93DF93082FD92F96FDA9
:101CB0000CC06D2F81E0800F0E94461380912C0490
:101CC00081FD1CC00E94530519C0C5E082EB0E9433
:101CD000C7121DE0115019F00E942607FBCFC33038
:101CE00011F083EB01C085EC0E94C7120E94290706
:101CF000C150F9F2C33051F786ECE9CF07FD08C0B7
:101D000062E085E00E94A7128AEE95E00E94600BD7
:101D1000D4FF86C0C091AD01D091AE010091AF015A
:101D20001091B001C80117FF04C088279927801BB4
:101D3000910B6AEF70E00E94AE3AE62F472FCE017A
:101D4000D7FF04C0882799278C1B9D0B6AEF70E092
:101D50000E94AE3A8E2F942F861797070CF4CB0172
:101D6000BC016F5F7F4F7093C9066093C806072E52
:101D7000000C880B990B0E94B5366B017C010E9408
:101D80002E0EB82EB801110F880B990B0E94B53694
:101D90002B013C012CEB34E743E95CE3C701B601BE
:101DA0000E94DB389B01AC01C301B2010E94DB3809
:101DB0000E944D3912E0160FBE01DD0F880B990B02
:101DC0000E94B5362B013C0122E430E645EE5CE38F
:101DD000C701B6010E94DB389B01AC01C301B2010F
:101DE0000E94DB3820E030E040E05FE30E94F837FB
:101DF0000E944D39962F612F86E0891B0E94A71201
:101E00008B2DDF91CF911F910F91FF90EF90DF907D
:101E1000CF90BF907F906F905F904F900C94C712BF
:101E2000DF91CF911F910F91FF90EF90DF90CF90B6
:101E3000BF907F906F905F904F90089581E0809366
:101E4000020788E0EEE2F4E0DF011D928A95E9F7EF
:101E500080E00E94110E90932D0480932C0408952D
:101E6000FB012081822790E1899F9001112428277E
:101E7000822F90E0582F44279C0163E0220F331FEC
:101E80006A95E1F742275327218130E0242735273F
:101E900074E0959587957A95E1F78227932791834A
:101EA000808308959C01862FB9010C94300F1F92F6
:101EB0000F920FB60F9211248F939F93EF93FF937E
:101EC0009091C2048091C104981779F0E091C20406
:101ED000F0E0E354FB4F80818093C6008091C20400
:101EE0008F5F83708093C20405C08091C1008F7D95
:101EF0008093C100FF91EF919F918F910F900FBE42
:101F00000F901F9018951F920F920FB60F921124E9
:101F10002F938F939F93EF93FF939091C60080919F
:101F2000BB048F5F8F772091BC04821741F0E09152
:101F3000BB04F0E0E55CFB4F90838093BB04FF9112
:101F4000EF919F918F912F910F900FBE0F901F9047
:101F50001895CF92DF92EF92FF920F931F93CF933A
:101F6000DF936C017A018B01C0E0D0E0CE15DF0574
:101F700089F0D8016D918D01D601ED91FC91019010
:101F8000F081E02DC6010995892B11F47E0102C074
:101F90002196ECCFC701DF91CF911F910F91FF9058
:101FA000EF90DF90CF90089508953FB7F894809117
:101FB000C0069091C106A091C206B091C30626B595
:101FC000A89B05C02F3F19F00196A11DB11D3FBF71
:101FD000BA2FA92F982F8827820F911DA11DB11DFF
:101FE000BC01CD0142E0660F771F881F991F4A95FB
:101FF000D1F708959091C1049F5F93702091C2041E
:102000009217E1F3E091C104F0E0E354FB4F8083C9
:102010009093C1048091C10080628093C1000895B3
:1020200008958091C10084FF03C0862F0E94FA0F9B
:1020300081E090E00895EBEBF4E081818083E1ECB6
:10204000F4E08081818308959091C100892F80718F
:1020500094FF0EC09091BB048091BC04981302C001
:1020600080E00895E091BC04F0E0E55CFB4F8081E6
:102070000895089580E0089580E0089580E008952F
:10208000CF92DF92EF92FF92CF936B017C01C42F2E
:1020900020E030E0A9010E94E939181624F0F7FA8F
:1020A000F094F7F8F094C701B6010E944D39072E5D
:1020B000000C880B990B0E94B5369B01AC01C7013F
:1020C000B6010E94F737C11105C020E034E244E7B1
:1020D00059E404C020E030E543EC57E40E94143793
:1020E0000E944D39CF91FF90EF90DF90CF900895EF
:1020F0000E94683B882311F080E401C080E0909149
:10210000F501981751F08093F5015E986091F50103
:102110006C6180E00E94550B5E9A0895CF93DF9327
:1021200087FD04C08EE496E00E94600BCEE4D1E00F
:10213000499159916991799188E496E00E94FC0750
:1021400081E0CA35D807A1F70E942907C8E4D1E089
:102150006991799184E496E00E94330781E0CE345E
:10216000D807B1F7DF91CF9108950F931F9390E0B7
:10217000FC01E356FD4F7491FC01EF54FD4FE491D7
:10218000662311F0672F01C060E0F0E0EE0FFF1F43
:10219000E257F94F8591949189019A013F70462F3A
:1021A000672F0E94FC22611571058105910549F098
:1021B000DC01CB010196A11DB11DBC01CD019F70B9
:1021C00003C060E070E0CB011F910F910895833050
:1021D00081F028F4813099F08230A1F008958730A1
:1021E000A9F08830B9F08430D1F4809180008F7DDF
:1021F00003C0809180008F7780938000089584B51C
:102200008F7702C084B58F7D84BD08958091B00022
:102210008F7703C08091B0008F7D8093B0000895C8
:10222000CF93DF9390E0FC01E356FD4F2491FC0136
:10223000EF54FD4F8491882361F190E0880F991F3E
:10224000FC01EC57F94FC591D491FC01ED56FD4FBF
:10225000A591B491611109C09FB7F8948881209528
:1022600082238883EC912E230BC0623061F49FB7E8
:10227000F8943881822F809583238883EC912E2BCC
:102280002C939FBF06C08FB7F894E8812E2B28832C
:102290008FBFDF91CF9108958E3008F08E508770F8
:1022A0002091000190E4299F90011124822B8093BA
:1022B0007C0080917A00806480937A0080917A001B
:1022C00086FDFCCF809178002091790090E0922BE0
:1022D00008958F929F92AF92BF92CF92DF92EF922A
:1022E000FF926B017C010E94D50F4B015C01C11470
:1022F000D104E104F104F1F00E94D50FDC01CB011F
:1023000088199909AA09BB09883E9340A105B1051E
:1023100070F321E0C21AD108E108F10888EE880EB6
:1023200083E0981EA11CB11CC114D104E104F10486
:1023300019F7DDCFFF90EF90DF90CF90BF90AF9077
:102340009F908F9008952FB7F8946091BC0670917C
:10235000BD068091BE069091BF062FBF08951F92C3
:102360000F920FB60F9211242F933F938F939F9349
:10237000AF93BF938091BC069091BD06A091BE061D
:10238000B091BF063091BB0623E0230F2D3720F418
:102390000196A11DB11D05C026E8230F0296A11DBF
:1023A000B11D2093BB068093BC069093BD06A093FD
:1023B000BE06B093BF068091C0069091C106A09161
:1023C000C206B091C3060196A11DB11D8093C0063F
:1023D0009093C106A093C206B093C306BF91AF917C
:1023E0009F918F913F912F910F900FBE0F901F9053
:1023F00018959091C100892F807194FF14C090911D
:10240000BB048091BC04981302C080E00895E09161
:10241000BC04F0E0E55CFB4F80819091BC049F5FC1
:102420009F779093BC0408950C94F9119091C1008A
:10243000892F807194FF06C08091BB049091BC04E9
:10244000891B8F7708950C9416129B01AC01809123
:10245000C10084FD1092C1001092C2041092C10408
:102460001092BC041092BB042115310541055105A1
:1024700001F1211581EE38074105510509F182E08E
:102480008093C00060E079E08DE390E00E94C23A62
:10249000DA01C9010197A109B109AC01BD01769525
:1024A000679557954795942F852F8093C5009093F6
:1024B000C40088E98093C10086E08093C20008953B
:1024C0001092C00090E180E0F0CFDC01ED91FC9132
:1024D0000190F081E02D09945E9860E085E00E9413
:1024E000550B60E086E00E94550B61E084E00E949D
:1024F000550B5E9AEBEDF4E080E25E9890819EBD14
:102500000DB407FEFDCF9EB581935E9A96E0EB3B3E
:10251000F90798F35E988FEF8EBD0DB407FEFDCFDF
:102520008EB55E9A08952091D9043091DA04203E48
:1025300091E0390758F4A9014F5F5F4F5093DA04D7
:102540004093D904F901E552FB4F8083089590919F
:102550003A04690F9091D804890F90E02EE1629FB0
:10256000800D911D11249093DA048093D90408956D
:1025700020913A048091D80490E03EE1239F800DA1
:10258000911D11249093DA048093D90408958F3F0C
:1025900039F480913A048F5F80933A040C94B81216
:1025A0000C949312862F0E94C71281E090E0089548
:1025B0001F93CF93DF93182FC92F87FD10C096FF6D
:1025C00004C0D0E089E596E003C0D1E088E696E05B
:1025D0000E94600B812F9C2F0E94300701C0D0E029
:1025E0008091E7019091E801A091E901B091EA01A1
:1025F000BC01CD0190589B01AC010E94F8370E94AC
:102600004D3980912C0482FF05C0CB016CE370E052
:102610000E94AE3AC5FF05C0CB016AE070E00E949F
:10262000AE3AC4FF06C077FF02C06F5F7F4F75955B
:10263000679516FF08C077FF02C06D5F7F4F7595E5
:102640006795759567959B01235D3F4F37FF02C0E6
:102650002F5F3F4FC9019595879569E070E00E9413
:10266000AE3A65302CF467FD06C0CFECC81B05C040
:10267000CEE764E002C0C0E660E08D2F0E94A712A2
:102680008C2FDF91CF911F910C94C7128F71809383
:10269000D8046F7060933A048091F501803411F092
:1026A000673010F40C94B812635060933A04FACF78
:1026B000CF936AE086E00E944613C0E08C2F0E9410
:1026C000521C0E942907CF5FC430C1F7CF910895F3
:1026D00066E089E00E9446130C9453055E98809151
:1026E000300281FD06C080912F0283FF1CC081E073
:1026F0001BC080EA0E94490B80FF07C081E00E9456
:102700007A1080912F02886008C081FF09C080E0A4
:102710000E947A1080912F02877F80932F0206C03B
:1027200082FDE1CF03C080E00E947A105E9A089596
:10273000CF93DF935E98E0913502E43008F0E0E05B
:10274000F0E0E058F94FC49180E1D1E0D80F6C2F50
:102750000E94550B8D2FD032C1F76091730282E039
:102760000E94550B6091720283E00E94550B5E9AA5
:10277000DF91CF9108955E988CEE0E94490B682FEF
:102780006F7E8CE60E94550B62E18CE00E94550B37
:102790006091F5016C6380E00E94550B66E970E082
:1027A00080E090E00E9469116091F5016C6180E029
:1027B0000E94550B0C949813CF93DF935E98C0E161
:1027C000DFEFC15081F46091F501626080E00E940A
:1027D000550B6FE070E080E090E00E946911DF919E
:1027E000CF910C94BB1380EA0E94490B877059F774
:1027F00084E0815031F0DEBD0DB407FEFDCF9EB503
:10280000F8CF6FE070E080E090E00E946911D9CFCE
:10281000E0917402F0E0EE0FFF1FE05FFD4F2081BA
:1028200031814FB7882309F0F89480917B02813081
:1028300001F118F0823039F136C0E0913E01F0919B
:102840003F01908180910702892B808322303105DE
:1028500040F0C901880F991F880F991F05970197AC
:10286000F1F7E0913E01F0913F01908180910702E4
:1028700017C0E0913E01F0913F01809107022D3D8C
:1028800035406CF009C0E0913E01F0913F0180912C
:1028900007022C3D35401CF49081892B03C09081A8
:1028A0008095892380834FBF0895CF92DF92EF9266
:1028B000FF921F93CF93DF93EC016A017B01122FEC
:1028C0000E9446099B01AC01C701B6010E94143762
:1028D000112341F026E636E646E650E40E94DB3856
:1028E00028E106C0E0912007F09121073896249155
:1028F000AB01BC01CE01DF91CF911F91FF90EF9012
:10290000DF90CF900C948507262F30E0F901E55D2C
:10291000FD4F87FD0CC091E09083F901E65EFD4F0D
:1029200086FB992790F99083862F0C94521C108275
:102930000895CF93C82F6091360470913704809129
:102940003804909139040E944D39615071096F30FB
:10295000774298F4C7FD03C086E10E94931240912C
:10296000360450913704609138047091390421E0A5
:102970008AE796E0CF910C948507CF910895CF9385
:10298000C42F28EE33E040E050E00E94C23ADA0162
:10299000C90140E06C2FCF910C944D07CF93DF938A
:1029A000282F86FB442740F9E42FF0E0DB016D91EE
:1029B0007D918D919C91EE0FFF1F25FF1DC0EA5860
:1029C000F94FC591D4910E9440109F938F937F93AC
:1029D0006F93DF93CF9382E397E09F938F930E944F
:1029E0003D20ADB7BEB718960FB6F894BEBF0FBE68
:1029F000ADBFDF91CF910895EE58F94F25913491F5
:102A0000AB01BC01C901DF91CF910C94FC07EF929F
:102A1000FF921F93CF93DF931F92CDB7DEB7182F8E
:102A20007C018E2D811B861760F4F70181917F0157
:102A30009091C10094FFF5CF69830E94FA0F6981DC
:102A4000F0CF0F90DF91CF911F91FF90EF900895FD
:102A50000E94F73720EC3BE649ED57E40E9414371B
:102A6000089597FD05C08F3F910509F01CF4089566
:102A700080E008958FEF0895E0910E01EF5FE093FD
:102A80000E01E770F0E0EE0FFF1FE853FB4F91835C
:102A9000808388E060E070E08150E82FF0E0EE0F86
:102AA000FF1FE853FB4F20813181620F731F81119B
:102AB000F3CF80E090E00E94B33620E030E040E0C9
:102AC0005EE30E94143708951F920F920FB60F9283
:102AD0001124CF92DF92EF92FF922F933F934F9367
:102AE0005F936F937F938F939F93AF93BF93CF9396
:102AF000DF93EF93FF930E94D50F6B017C01E2E817
:102B0000F2E08491E0EAF2E0D491E4EBF2E0C491E7
:102B1000CC23B9F081110E94E710EC2FF0E0EE0F0A
:102B2000FF1FE257F94FA591B491EC91ED2349F0C5
:102B3000C092C404D092C504E092C604F092C704C7
:102B40001FC08091C4049091C504A091C604B091A7
:102B5000C7040097A105B10599F0C81AD90AEA0A75
:102B6000FB0AD092A701C092A6011092C404109251
:102B7000C5041092C6041092C70481E08093C30478
:102B8000FF91EF91DF91CF91BF91AF919F918F9185
:102B90007F916F915F914F913F912F91FF90EF90B7
:102BA000DF90CF900F900FBE0F901F9018951F923F
:102BB0000F920FB60F9211242F933F934F935F9371
:102BC0006F937F938F939F93AF93BF93EF93FF93F5
:102BD00081E080937E0210928A0280917D028F5F55
:102BE00080937D020E94A3116093850270938602F8
:102BF000809387029093880280918902882321F034
:102C00000E946C1210928902FF91EF91BF91AF91D7
:102C10009F918F917F916F915F914F913F912F91F4
:102C20000F900FBE0F901F901895E091F80135E0BE
:102C3000E39FF0011124EF5BFB4F949191502091A1
:102C40000A016091F6017091F70187FF03C022230A
:102C500039F004C0882311F0291721F0280F03C090
:102C6000292F01C020E0FB0136E0239FE00DF11D7C
:102C70001124339645915491452B39F320930A0141
:102C8000089590E0880F991FDC01A85FBD4FFC01FB
:102C9000E25DFB4F8D919C9120813181821B930BD2
:102CA0000895A8E0B2E0EEE2F4E080819181883EF0
:102CB000934028F48D919C91119791838083329653
:102CC000129684E0E633F80781F708950895E82F17
:102CD000F0E0EE0FFF1FE85FFD4F2081318166239A
:102CE00029F040E253E088E998E004C048EE53E060
:102CF00080ED97E02417350780F0241B350B841BEB
:102D0000950B65E070E00E949A3AC9010E949A3AD8
:102D1000862F653018F084E0089580E008950895C6
:102D2000EF92FF920F931F93CF9300E411E0C0E066
:102D300096FD20C089E0E82EF12CF8018191919157
:102D40008F018C549440B7010E949A3A83ED97E02A
:102D50000E943307C13019F40E94290702C00E9463
:102D60002607CF5FC43049F712C00E942607CF5F05
:102D7000C43069F0F801619171918F0188ED97E09D
:102D80000E943307C13089F70E942907F0CFCF9105
:102D90001F910F91FF90EF9008951F93CF93DF93B2
:102DA000D82F192F8091CF01823019F020F0CFE079
:102DB00003C0CFE101C0CAE280916D0190916E0124
:102DC000883C910520F080910E078111C0E2D7FD6B
:102DD00002C016FF11C060916F0170E086E897E0B5
:102DE0000E943307D7FD0CC016FF0AC08C2FDF915D
:102DF000CF911F910C94C7128C2F0E94C712EBCF5A
:102E0000DF91CF911F9108956091690170916A01DE
:102E10008FE097E00C94330760916701709168012F
:102E200089E097E00C943307CF93C92F80911D0759
:102E30008823E9F060917F02709180028091810285
:102E4000909182022CE330E040E050E00E94C23AD0
:102E5000DA01C901C5FF04C0462F406860E004C024
:102E6000C6FB662760F940E0CF910C944D07CF91E7
:102E700008951F93CF93DF93182F0E94320B8C5F1E
:102E8000C82FD0E017FD07C0BE016F5F7F4F8DECEC
:102E900097E00E943307CC0FDD1FC85FDD4F6881CC
:102EA000798188ED97E0DF91CF911F910C943307E2
:102EB0001F93CF93DF93182FC92F0E94320BD4E0BA
:102EC000D80F17FD08C06D2F70E06F5F7F4F8AEC41
:102ED00097E00E943307C6FB662760F98D2F0E949A
:102EE0006716D82FC0E0CD1302C081E801C080E88A
:102EF0000E94C712CF5FC530B1F7DF91CF911F910C
:102F000008951F93CF93DF93182FC92F0E94320B80
:102F1000D4E0D80F17FD08C06D2F70E06F5F7F4FB2
:102F20008DEC97E00E943307C6FB662760F98D2F72
:102F30000E946716182FC0E0D3E0CE010E94D2375E
:102F40008F3F71F0811103C0112351F01150111105
:102F500002C00E94C7122196C03883E0D80769F7E3
:102F6000DF91CF911F91089560916D0170916E0175
:102F700080E090E00E94B33620E030E048EC52E47C
:102F80000E94DB38AB01BC0184EC97E00C94FC0799
:102F90004091EF015091F0016091F1017091F201C7
:102FA00088E496E00C94FC0763E0892F0C94841469
:102FB00062E0892F0C94841461E0892F0C948414AE
:102FC00060E0892F0C9484140F931F93CF93DF93A9
:102FD00008E012E0C0E0D0E0F801619171918F014A
:102FE0002196CE010E944E20C830D105A9F7DF916D
:102FF000CF911F910F910895CF93DF93611103C07B
:10300000C5E1D7E002C0CBE1D7E0BC0180E090E0B1
:103010000E94B3360E943F09AB01BC012DE0CE01F6
:10302000DF91CF910C9485070F931F93CF93DF937C
:1030300000D000D0CDB7DEB70091C8061091C90608
:103040000E948E099B01AC016AEF609FC001619FE5
:10305000900D1124BC01990F880B990B2C83398397
:103060004A835B830E94B5362C8139814A815B811A
:103070000E941437E0912007F091210708321105D2
:103080005CF03F9624912C830E943F09AB01BC0168
:103090002C8184EC97E006C039962491AB01BC01E9
:1030A0008AE796E00F900F900F900F90DF91CF91ED
:1030B0001F910F910C948507809170018E30B9F4A7
:1030C0002091A50130E087E090E0482FB901082E5B
:1030D00002C0759567950A94E2F760FD03C00197F9
:1030E000A0F748E04093A501E2EBF7E002C0EAE870
:1030F000F7E06091A50170E0CB01880F991FE80F00
:10310000F91F859194910E943307809109078823C4
:1031100019F086E80C9493120895EF92FF920F93A2
:103120001F93CF93DF931F92CDB7DEB7209171012C
:10313000222309F470C04091C6065091C706209121
:103140008B0230918C024217530709F464C020911E
:103150005B01233010F401E201C000E0692F182F59
:103160008091C5069AE1F92EF81AF7FC14C08F2D4C
:103170008695810F0E94461317FD02C0011155C0AC
:1031800081E791E00F90DF91CF911F910F91FF9018
:10319000EF900C94652017FD02C001114AC066FD36
:1031A0001DC0F1942F2D30E0809183029091C406D0
:1031B000891B90E0B901660F771F0E94AE3A4091DB
:1031C000840241110DC0009729F021503109821766
:1031D000930731F421E02093840202C080E090E064
:1031E0009C012F583E4F79018901065E1F4FF70160
:1031F00081917F01811109C00F90DF91CF911F91C3
:103200000F91FF90EF900C9426070E94C712E016D2
:10321000F10669F7F1CF109271010F90DF91CF9114
:103220001F910F91FF90EF900895802F0E94C71279
:10323000A7CF802F69830E94C7126981B0CFCF9337
:1032400080911007882359F1C92F8091A8010E940D
:103250000F078091A9019091AA01853B910534F057
:10326000885691409093AA018093A9018091A90169
:103270009091AA018C342FEF920734F488599E4F15
:103280009093AA018093A901C6FF09C06091A9018A
:103290007091AA0184E496E0CF910C943307CF910A
:1032A0000895FF920F931F93CF93DF93F82E092F6A
:1032B000192F107287FD08C096FD06C01123C1F1B9
:1032C00084E797E00E94600B83EC0E949312809148
:1032D000CD019091CE0148E1489F9001499F300D6A
:1032E0001124C9010C9668E671E00E94AE3A645060
:1032F0007109C62F77FF02C0C8E1C60F111102C0C5
:10330000D9E001C0DAE0EC2FF0E0E15BF84F849106
:103310000E94C712CF5FC83108F0C0E0D15099F7C2
:1033200087E80E949312F7FC14C006FD04C011C088
:1033300087E697E0C7CF111103C088E397E002C08A
:1033400084E497E0DF91CF911F910F91FF900C944F
:10335000600BDF91CF911F910F91FF900895AF9275
:10336000BF92CF92DF92EF92FF921F93CF93DF93A2
:1033700000D000D0CDB7DEB78091A5018A3009F02A
:103380007DC0A0906101B090620188EEA81683E034
:10339000B80654F489E1A8168CEFB8064CF489E11C
:1033A000A82E8CEFB82E04C097EEA92E93E0B92E6C
:1033B000E0912007F0912107399614916091600106
:1033C00070E086E897E00E9433070E94260760912C
:1033D00063017091640180E090E00E94B3366B015C
:1033E0007C010E948E099B01AC01C701B6010E94BD
:1033F0001437AB01BC01212F8AE796E00E948507B4
:103400000E94290780916501909166010E94D6086B
:103410002091CD013091CE01821B930B0E94AB080D
:103420000E940F0782E897E00E94600B0E948E09BD
:103430009B01AC01B501BB0C880B990B29833A8326
:103440004B835C830E94B53629813A814B815C8134
:103450000E941437AB01BC01212F8AE796E00F9040
:103460000F900F900F90DF91CF911F91FF90EF90F1
:10347000DF90CF90BF90AF900C9485070F900F9086
:103480000F900F90DF91CF911F91FF90EF90DF9001
:10349000CF90BF90AF90089587FD04C00E942E0E7C
:1034A0000E94C7126091CD017091CE0184E496E034
:1034B0000E94330785E00C94931269EB71E0892F29
:1034C0000C94CE1465EB71E0892F0C94CE141F93ED
:1034D000CF93DF934091B9015091BA016091BB0144
:1034E0007091BC01452B462B472B69F44091B501E7
:1034F0005091B6016091B7017091B801452B462BF0
:10350000472B09F445C094FD02C01FEF01C010E233
:10351000C92FD82F80910E07882301F180911A07B7
:103520008A3050F081E397E00E94600B812F0E9467
:10353000C7128AE297E00DC080911B078A3070F0B5
:1035400081E397E00E94600B812F0E94C71281E205
:1035500097E0DF91CF911F910C94600BD7FD03C0D2
:1035600083E00E94931265EB71E08C2F0E94CE14D1
:10357000812F0E94C712D7FD03C084E00E949312DE
:1035800069EB71E08C2FDF91CF911F910C94CE14D9
:10359000DF91CF911F91089596FB442740F96091E8
:1035A000E0017091E1018091E2019091E3010C94BE
:1035B000BF14CF93DF93D82FC92F0E94300788E024
:1035C0000E9493128091D6069091D706A091D806BA
:1035D000B091D906892B8A2B8B2B81F48091E00145
:1035E0009091E101A091E201B091E3018093D606B0
:1035F0009093D706A093D806B093D9066091D606CB
:103600007091D7068091D8069091D90640E00E942B
:10361000BF140E943F21C6FF05C06C2F8AE08D0FAA
:103620000E94461383E00E94931265EB71E080E0F4
:103630000E94CE140E94290784E00E94931269EB35
:1036400071E080E0DF91CF910C94CE141F93CF9363
:10365000DF931F92CDB7DEB797FD2DC0192F91E0F4
:1036600090931E07912F0E947F0A282F60911E02BF
:1036700070911F0280E090E029830E94B336AB0175
:10368000BC01298182ED96E00E943D0812951170DF
:103690006091D2067091D3068091D4069091D506A0
:1036A0000E945439DC01CB01612F0F90DF91CF9143
:1036B0001F910C94FC1781E090917102911101C04F
:1036C00080E080931E070F90DF91CF911F910895A6
:1036D0001F93CF93DF931F92CDB7DEB7192F0E94B0
:1036E0007F0A282F609121027091220280E090E0F1
:1036F00029830E94B336AB01BC0129818EEC96E090
:103700000E943D08129511706091CE067091CF060F
:103710008091D0069091D1060E945439DC01CB01F2
:10372000612F0F90DF91CF911F910C94FC170F9395
:103730001F93CF93DF931F92CDB7DEB7192F0E944F
:103740007F0A282F6091180270911902072E000C31
:10375000880B990B29830E94B536AB01BC012981E6
:103760008AEC96E00E943D0814FD03C005E117E0D5
:1037700002C00BE117E02AE037ED43E25CE3609121
:10378000CA067091CB068091CC069091CD060E941E
:103790001437AB01BC012EE0C8010F90DF91CF912F
:1037A0001F910F910C94850796FB882780F98093D1
:1037B0001F0780911007882371F097FD0CC060915E
:1037C000DC017091DD018091DE019091DF010E94AA
:1037D000B5360C94980908951F93CF93DF93382F33
:1037E000192F2091E6012F55C0912002263008F0B4
:1037F0004FC0D0E080E09C2F64E670E00E949A3ACF
:10380000CB016138710540F029E820930F01805801
:103810009109E0E1F1E012C02DE82093100162313E
:10382000710550F420910E07222331F020E22093FD
:103830000F012093100109C0EFE0F1E06AE170E0B0
:103840000E949A3A2DE8261B208337FF0E944105EB
:1038500016FF0AC0BE0186E897E00E943307DF9199
:10386000CF911F910C9423076091DA067091DB06CB
:103870008091DC069091DD060E944D3988ED97E03D
:103880000E94330781E0DF91CF911F910C94931236
:1038900024E6C29FC00111246FEF70E00E94AE3A8F
:1038A000EB01A8CF1F93CF93DF93CDB7DEB7689717
:1038B0000FB6F894DEBF0FBECDBF182F88E1189F5A
:1038C000B001112460587D4F48E150E0CE010196CF
:1038D0000E94F30DE12FF0E0EE0FFF1FED5DFD4FB5
:1038E0006081718180E090E00E94B33629813A8145
:1038F0004B815C810E9414372D813E814F81588518
:103900000E94F8379F938F937F936F93CE01099610
:103910009F938F9382E397E09F938F930E942E2132
:103920000FB6F894DEBF0FBECDBF68960FB6F89401
:10393000DEBF0FBECDBFDF91CF911F9108952F92B3
:103940003F924F925F926F927F928F929F92AF922F
:10395000BF92CF92DF92EF92FF920F931F93CF937C
:10396000DF93CDB7DEB763970FB6F894DEBF0FBE17
:10397000CDBF6C874A016901CE0101963C01F4017B
:103980008C8580FD259180FF21914F01222309F430
:103990005BC3253241F480FD259180FF21914F01C9
:1039A000253291F409C02A3039F46DE082E397E0C2
:1039B0002B8B0E9465122B89622F82E397E00E9475
:1039C000651256016501DBCF10E0F12C00E00032FA
:1039D000A0F42B3269F030F4203259F0233269F42C
:1039E00000612CC02D3239F0203339F4016026C03B
:1039F0000260046023C0086021C007FD28C080ED7C
:103A0000820F8A3078F406FF06C0FAE01F9F800D0F
:103A10001124182F13C02AE0F29E800D1124F82ED5
:103A200000620CC02E3221F406FD0EC3006406C0F5
:103A30002C3611F4006802C0283649F4F4018C8554
:103A400080FD259180FF21914F012111C0CF8BEB8B
:103A5000820F833018F40061205E06C08BE9820F6C
:103A6000833008F06CC10F7E06FF16E00F73502EF6
:103A7000253621F4902F9064592E08C0263621F463
:103A8000E02FE0685E2E02C01111115057FE06C0F3
:103A90001C3350F4EE24E394E10E08C0183040F0DB
:103AA000E12C27E017E006C05CE3E52E27E002C02A
:103AB000212FE12C5601F4E0AF0EB11CF60160811C
:103AC0007181828193810E2DA3010E94C6216C0118
:103AD000098100FF02C003FF07C051FC08C052FE6D
:103AE00009C040E2442E07C03DE2432E04C02BE251
:103AF000422E01C0412C802F8C7019F0411063C2FE
:103B00009CC257FE0FC0EC0C04FF04C08A818133B5
:103B100009F4EA941E1474F5F8E0FE1578F598E0BF
:103B2000E92E2CC056FC2AC0812F90E08C159D05F3
:103B30009CF02CEFC2162FEFD20674F0852D806812
:103B4000582E0AC0E2E0F0E0EC0FFD1FE10FF11D7E
:103B50008081803319F411501111F4CF57FE0EC03B
:103B6000EE24E394E10E812F90E0C816D9062CF4E0
:103B70001C1904C0EE24E39401C010E057FE06C0F7
:103B80001C141D0434F4C601019605C085E090E0C4
:103B900002C081E090E041100196112331F0212F05
:103BA00030E02F5F3F4F820F931F2F2D30E08217A1
:103BB000930714F4F81A01C0F12C852D897049F48B
:103BC000FF2039F060E282E397E00E946512FA94E8
:103BD000F7CF442029F0642D82E397E00E9465121C
:103BE00053FC09C0FF2039F060E382E397E00E94B4
:103BF0006512FA94F7CF57FE54C09C2D8D2DD7FE39
:103C000002C090E080E0292E382E412C512CF60184
:103C1000EE19F109FE87ED87C60182199309988B89
:103C20008F87612F70E0EE27FF27E61BF70BFA8BDB
:103C3000E98BFFEF2F163F0629F46EE282E397E04F
:103C40000E946512C214D3046CF08D859E85821586
:103C5000930544F4EF85F889E40DF51DE60DF71D95
:103C6000618101C060E391E0291A3108EFEF4E1A3B
:103C70005E0A89899A89281639062CF082E397E032
:103C80000E946512D6CF2C143D0409F053C08A81DE
:103C9000863328F4853309F04DC004FD4BC061E341
:103CA00049C06A81613309F00F7E82E397E00E9488
:103CB0006512111104C054FC17C065E616C06EE20F
:103CC00082E397E00E94651282E0EE24E394E80E1E
:103CD000F301E80FF11D608182E397E00E94651215
:103CE00011508E2D91F7E7CF65E482E397E00E94B3
:103CF0006512D7FC05C0C114D10439F404FF05C016
:103D0000D194C194D1086DE201C06BE282E397E0E7
:103D10000E94651260E3EAE0CE16D1042CF06F5FDA
:103D20009AE0C91AD108F7CF82E397E00E946512A2
:103D300060E36C0D82E397E00E94651258C1233660
:103D400031F0233781F0233509F055C020C05601EA
:103D5000F2E0AF0EB11CF6018081898344244394C4
:103D6000512C630112C05601F2E0AF0EB11CF601F6
:103D7000C080D18006FF03C0612F70E002C06FEFEA
:103D80007FEFC6010E94A3362C010F7713C05601A6
:103D9000F2E0AF0EB11CF601C080D18006FF03C077
:103DA000612F70E002C06FEF7FEFC6010E9498366E
:103DB0002C01006803FD1BC08F2D90E048165906AA
:103DC000B0F460E282E397E00E946512FA94F4CFC7
:103DD000F60107FD659107FF61916F0182E397E0AE
:103DE0000E946512F110FA94F1E04F1A5108411443
:103DF000510471F7FCC0243611F0293661F55601E3
:103E000007FF09C024E0A20EB11CF6016081718198
:103E1000828193810AC0F2E0AF0EB11CF60160818D
:103E20007181072E000C880B990B0F76C02E97FF1F
:103E30000AC090958095709561957F4F8F4F9F4FE9
:103E4000F02FF068CF2E2AE030E0A3010E949E22DE
:103E5000D82ED61848C0253729F40F7EE02E2AE048
:103E600030E025C0802F897FE82E2F36C1F018F46E
:103E7000283579F0E9C0203719F0283721F0E4C05F
:103E8000982F9061E92EE4FE0DC0EE2DE460EE2E39
:103E900009C004FF0AC0F82FF660EF2E06C028E024
:103EA00030E005C020E130E002C020E132E0560100
:103EB000E7FE09C084E0A80EB11CF60160817181A3
:103EC0008281938108C0F2E0AF0EB11CF6016081DF
:103ED000718180E090E0A3010E949E22D82ED61826
:103EE000FE2DFF77CF2EC6FE0BC00C2D0E7FD116F8
:103EF00050F4C4FE0AC0C2FC08C00C2D0E7E05C0E2
:103F0000ED2C0C2D03C0ED2C01C0E12E04FF0DC0E3
:103F1000FE01ED0DF11D8081803311F4097E09C091
:103F200002FF06C0E394E39404C0802F867809F072
:103F3000E39403FD11C000FF06C01D2DEF1418F41B
:103F40001F0D1E19EF2CEF1458F460E282E397E086
:103F50000E946512E394F7CFEF1410F4FE1801C02D
:103F6000F12C04FF0DC060E382E397E00E9465122C
:103F700002FF14C001FD02C068E70CC068E50AC07A
:103F8000802F867859F001FF02C06BE201C060E229
:103F900007FD6DE282E397E00E946512D11638F4C6
:103FA00060E382E397E00E9465121150F7CFDA9444
:103FB000F301ED0DF11D608182E397E00E9465122F
:103FC000D110F5CF14C024E02F1520F584E0F81AA5
:103FD00053FE17C041101FC003FF23C00BE818E0B9
:103FE000F52DF0715F2EF801649161111DC0FF2065
:103FF00009F4E8CC60E282E397E00E946512FA944B
:10400000F6CF60E282E397E00E946512FA94F11025
:10401000F8CFE0CFF12C642D82E397E00E94651287
:10402000DBCF07E818E0DCCF5110605282E397E065
:104030000E9465120F5F1F4FD6CF83E08F1510F4DB
:1040400083E0C5CFF12CC8CF63960FB6F894DEBFDE
:104050000FBECDBFDF91CF911F910F91FF90EF90D9
:10406000DF90CF90BF90AF909F908F907F906F9098
:104070005F904F903F902F900895CF93DF93CDB7EF
:10408000DEB79E01275F3F4F4F81588561E082E395
:1040900097E00E949F1CDF91CF9108957F936F93CB
:1040A0009F938F938FE798E09F938F9382E397E09E
:1040B0009F938F930E943D208DB79EB708960FB6B1
:1040C000F8949EBF0FBE8DBF0895009769F0FC0164
:1040D00001900020E9F73197AF01481B590BBC0153
:1040E00082E397E00C94A90F80E090E008958F920E
:1040F0009F92AF92BF920F931F93CF93DF93CDB751
:10410000DEB7A1970FB6F894DEBF0FBECDBF19A2E0
:10411000423008F44AE08E010F5D1F4F842E912C2F
:10412000A12CB12CA50194010E94C23AE62FB9013D
:10413000CA0101501109EA3014F4E05D01C0E95CE4
:10414000D801EC93232B242B252B61F7C8010E9467
:104150006520A1960FB6F894DEBF0FBECDBFDF91EC
:10416000CF911F910F91BF90AF909F908F90089526
:104170009F92AF92BF92CF92DF92EF92FF920F93F6
:104180001F93CF93DF93CDB7DEB72A970FB6F8947E
:10419000DEBF0FBECDBFD62EB72EC42EA22E9EEFF1
:1041A00099834A83309129073B83909111019C8325
:1041B000909112019D838E833F5F309329078FEF8B
:1041C0009FEF98878F838E010E5F1F4F7E0187E0E0
:1041D000E80EF11C0E151F0539F0B701F8018191A9
:1041E0008F010E94300FF6CF8F8198859A8789873B
:1041F0000D2D1B2D9C2C9D0CBE01675F7F4F9016D3
:1042000031F0F80181918F010E94300FF5CF8A2D96
:104210000E94300F99858A859F83888766E0CE014A
:1042200001960E9407156C2D8D2D9B2D0E94071560
:1042300062E0C7010E9407152A960FB6F894DEBF08
:104240000FBECDBFDF91CF911F910F91FF90EF90E7
:10425000DF90CF90BF90AF909F900895CF93DF9362
:10426000CDB7DEB79E01275F3F4F4F81588560E095
:1042700082E397E00E949F1CDF91CF910895DF9227
:10428000EF92FF920F931F93CF93DF93C9E3D8E090
:10429000FE01059114910115110509F46FC0FE018D
:1042A0003296849181110E94C712FE013396849147
:1042B0003196E590F490893691F030F4813609F426
:1042C0003FC08836C1F004C08337F1F0863729F14A
:1042D00050E2D52E60E070E080E89FE33AC0F7013D
:1042E00060817181072E000C880B990B0E94B536F6
:1042F00040E2D42E35C0E0912007F0912107399695
:10430000D4900E948E0925C0E0912007F0912107EA
:104310003896D4900E9446091CC00E948E092091B4
:104320001507211114C0E0912007F0912107729622
:10433000D49020E030E040E752E40E94143709C0F6
:1043400031E4D32E6AE077ED83E29CE302C028E1FA
:10435000D22EF70120813181428153810E9414378E
:104360002D2DAB01BC01C8010E9485070E942907C1
:104370002796F8E0CF37DF0709F08ACFDF91CF919A
:104380001F910F91FF90EF90DF900895283008F073
:1043900027E03327DA01990F311D87FD91600096E0
:1043A0006105710539F432602E5F3D9330E32A9543
:1043B000E1F708959F3F30F080387105610509F0FD
:1043C0003C5F3C5F3D93913008F08068911DDF9326
:1043D000CF931F930F93FF92EF92192F987F96958B
:1043E000E92F96959695E90FFF27E15EF64F9927FD
:1043F0003327EE24FF24A701E701059008940794D2
:1044000028F4360FE71EF81E491F511D660F771F4F
:10441000881F991F0694A1F70590079428F4E70ECA
:10442000F81E491F561FC11D770F881F991F661F51
:104430000694A1F70590079428F4F80E491F561F1B
:10444000C71FD11D880F991F661F771F0694A1F7FC
:104450000590079420F4490F561FC71FD81F990FC6
:10446000661F771F881F0694A9F78491109517700F
:1044700041F0D695C79557954795F794E7941A95C7
:10448000C1F7E5ECF8E068941590159135916591C8
:10449000959105907FE27395E118F10A430B560B55
:1044A000C90BD009C0F7E10CF11E431F561FC91FED
:1044B000D01D7EF4703311F48A95E6CFE894015054
:1044C00030F0080F0AF40027021708F4202F239574
:1044D000022F7A3328F079E37D932A95E9F710C00B
:1044E0007D932A9589F60694979567953795179544
:1044F0001794E118F10A430B560BC90BD00998F039
:1045000023957E9173957A3308F070E37C932013A2
:10451000B8F77E9170617D9330F0839571E37D9360
:1045200070E32A95E1F71124EF90FF900F911F910E
:10453000CF91DF91992787FD90950895FA01AA27D9
:10454000283051F1203181F1E8946F936E7F6E5FD6
:104550007F4F8F4F9F4FAF4FB1E03ED0B4E03CD084
:10456000670F781F891F9A1FA11D680F791F8A1F67
:10457000911DA11D6A0F711D811D911DA11D20D0CE
:1045800009F468943F912AE0269F11243019305D88
:104590003193DEF6CF010895462F4770405D419379
:1045A000B3E00FD0C9F7F6CF462F4F70405D4A33C6
:1045B00018F0495D31FD4052419302D0A9F7EACF8E
:1045C000B4E0A6959795879577956795BA95C9F7BD
:1045D00000976105710508959B01AC010A2E0694B0
:1045E0005795479537952795BA95C9F7620F731F69
:1045F000841F951FA01D0895CF92DF92EF92FF9226
:104600000F931F93E82FF92F05C0015011092109BD
:10461000310961F1908196239417B9F305C00150D7
:1046200011092109310911F1908196239413F7CFD3
:10463000C12CD12CE12CF12C0AC08FEFC81AD80A5A
:10464000E80AF80A0C151D052E053F0579F0808152
:104650008623841791F36C2D7D2D8E2D9F2D1F9118
:104660000F91FF90EF90DF90CF90089560E070E0A1
:1046700080E090E01F910F91FF90EF90DF90CF903E
:104680000895CF93DF93CDB7DEB7A2970FB6F89416
:10469000DEBF0FBECDBF789484B5826084BD84B583
:1046A000816084BD85B5826085BD85B5816085BD2D
:1046B00080916E00816080936E00109281008091E5
:1046C000810082608093810080918100816080936D
:1046D0008100809180008160809380008091B10092
:1046E00084608093B1008091B00081608093B000BD
:1046F00080917A00846080937A0080917A00826051
:1047000080937A0080917A00816080937A00809112
:104710007A00806880937A001092C1000FB6F894F6
:10472000A89580916000886180936000109260007D
:104730000FBE60E071EE80E090E00E9425124EE432
:1047400050E060E072E08FE292E00E94F30D809111
:104750002F0281FD03C089E592E002C08CE692E061
:104760009093210780932007809149028F3421F490
:1047700080914A028A3119F081E080931C0784B548
:104780008C7F84BD8091300284FF02C081E001C033
:1047900083E08093000180917A008B7F80937A0080
:1047A00080917A00866080937A00809169008C7F86
:1047B000826080936900E89A80913402813059F4D4
:1047C00062E083E00E94101180916900837F846021
:1047D00080936900E99A8EE297E090938E0280932D
:1047E0008D02E9ECF2E064918F010F5F1F4F6623A9
:1047F00031F08EE297E00E946512F801F4CF5E9AE4
:104800000E946C12789480914B02893341F480911C
:104810004C02833321F480914D02843389F089E383
:1048200080934B0283E380934C0284E380934D0298
:1048300043E050E06CE172E08BE492E00E94C50D31
:1048400080917C02882351F010927C0241E050E07C
:104850006DE472E08CE792E00E94C50D80917402D5
:10486000882349F1E0917502EE2329F1F0E0EC5341
:10487000FD4F1491212F30E0F901EF54FD4F949139
:10488000F901E356FD4F249120930702E92FF0E050
:10489000EE0FFF1FED56FD4F8591949190933F01D0
:1048A00080933E01222319F080E00E94081461E009
:1048B000812F0E94101161E086E00E94101162E0D9
:1048C00082E00E94101161E08AE00E941011E9E884
:1048D000F2E08491E7EAF2E00491EBEBF2E014916C
:1048E000112389F081110E94E710E12FF0E0EE0F13
:1048F000FF1FED56FD4FA591B4918FB7F894EC9141
:10490000E02BEC938FBF0E94DC130E946E130E9479
:10491000BB130E949F0D0E941E0F83EA91E022E3C9
:10492000281B2F8F80E092E0AC014F52524059A3D8
:1049300048A3A89578940E94A3116C8B7D8B8E8BD5
:104940009F8B28EE33E040E050E00E94C23A309363
:104950008C0220938B026C897D898E899F896C3DA6
:1049600075408105910520F080911C07882319F07E
:104970000E949F0DDECFF0901A04FF2009F43BC087
:1049800080911907811137C013E0D12EEE24E394F2
:1049900002ED12E0F801319684916091AC02662339
:1049A00039F0880F880F0E948E3A811101C081E092
:1049B000F801249190E09A838983FB821C822D83E5
:1049C000EE8224E946E0BE016F5F7F4F82E40E94E1
:1049D000B8200E5F1F4FF2E00E3D1F07D9F666E9C3
:1049E00070E080E090E00E946911DA94D110D0CF9D
:1049F00081E080931907ADEAEA2EA2E0FA2EB0E436
:104A0000CB2EDD24D39480910407811109C08091BD
:104A10000507811105C080910E07882309F450C253
:104A200001E010E069E0A62EB12C76E0272E312CB3
:104A3000E5E04E2E512CF3E06F2E712CA4E08A2E6F
:104A4000912CB2E0EB2EF12CCC24CA94DC2C0E94E9
:104A50001612882309F42AC20E94F911282F1092F5
:104A6000220780912507909126078B30910508F049
:104A7000C6C0FC01EC5CFF4F0C94033B10922D0769
:104A800010922C072E3F29F010932607009325073C
:104A9000B6C0F0922607E09225071092B002D0929D
:104AA000AE02C092AD02ABC02093B00210922707B5
:104AB000622F8DEA92E00E94520F90922607809218
:104AC00025079DC02093B102622F8DEA92E00E94DB
:104AD000520F709226076092250791C02093B20270
:104AE000622F8DEA92E00E94520F50922607409268
:104AF000250785C02093B302622F8DEA92E00E94C1
:104B0000520F309226072092250779C02093B402D5
:104B1000622F8DEA92E00E94520F8091B0028111C3
:104B200007C028E030E0309326072093250767C0B0
:104B300047E050E0509326074093250760C0E0917E
:104B4000270781E08E0F80932707F0E0EB54FD4F9D
:104B50002083622F8DEA92E00E94520F90912707E6
:104B60008091B00298134BC0DCCFE091B402F0E02A
:104B7000E252FD4F64918DEA92E02AA30E94520F07
:104B80002AA1422F50E08091AD029091AE02992768
:104B90004817590751F02E3F09F47BCF6AE070E0C7
:104BA00070932607609325072AC0B0922607A0922B
:104BB0002507E0912707F0E0EB54FD4F1FC0422F7F
:104BC00050E07091AE02798F1A8EA98DBA8D4A1776
:104BD0005B0711F40A9731F4809124078F5F80936B
:104BE000240750CFB1E0B09322071093260700931B
:104BF0002507E0912707F0E0EA54FD4F208320913C
:104C00002207222399F08091B10280932807809196
:104C10002A0790912B07009721F410922D071092EC
:104C20002C07019690932B0780932A0780912807E1
:104C30008F5F8F8380912A0790912B079A878987AE
:104C40008091240790E09C878B87809123078A833B
:104C500010922407222309F409C10E94FF078091C2
:104C6000B402833809F099C09091B2028091AB02EE
:104C7000981393C08091B302843609F08EC080915E
:104C8000B5029091B6022091A9023091AA02821732
:104C9000930709F482C09093AA028093A90280919D
:104CA000B7028E3E09F079C08091B8028F3409F0C6
:104CB00074C08091B902833509F06FC08091BA0247
:104CC000843409F06AC08091BB02823721F18737B2
:104CD00021F0823609F061C011C06091BC024091A0
:104CE000BD0250E0E0E86E9FB00111248EEB92E02F
:104CF0000E94C50D81E0809316074FC08091BD02D0
:104D000081114BC080911607882309F446C0EE2715
:104D1000FF27099442C06091BC024091BD0250E05F
:104D2000F0E86F9FB00111248EEB92E00E94F30D2A
:104D30008EEF8093AF028FEF8093B00283E8809371
:104D4000B402809111018093B20284E68093B30291
:104D50008FEF9FEF9E878D8700EB12E0BE01635FB0
:104D60007F4FB3E0043B1B0731F0D8018D918D01DB
:104D70000E94300FF3CF8FED0E94300F66E08FEA74
:104D800092E00E9407156FEF85EB92E00E940715F5
:104D900062E0CE010D960E9407158091B40288232F
:104DA00089F020911A04222311F40C946632909118
:104DB000B202291711F40C946632933309F076C0CD
:104DC0000C9466328091B902863049F48091B20227
:104DD0008093AB021092AA021092A90267C085309C
:104DE00009F464C08A3109F461C08091BA028093E9
:104DF00070018091BB0287FB882780F980930907A7
:104E00008091B5028093A5018091B20280931A042B
:104E10008091A802811121C08091A702882391F07E
:104E200080911B078A3020F48F5F80931B0719C085
:104E3000109219078091AC028F3798F4880F8093F5
:104E4000AC020FC080911A078A3020F48F5F8093E4
:104E50001A0707C01092190704C010921B0710927E
:104E60001A071092A8021092A70220C00E94420BBB
:104E7000EECD8F3310F00C9427358D3111F40C9456
:104E8000E43210F00C94CE33823011F40C94EE32F4
:104E900010F40C944633883111F40C9468338B3140
:104EA00029F48091A7028F5F8093A7028091040765
:104EB0008093050780910207882309F4B0C171C06F
:104EC000F7012C2D11922A95E9F71092C1000E944A
:104ED000A3114B015C0134E6830E911CA11CB11C93
:104EE0000AEF1FEF0E94A31186169706A806B906BF
:104EF000A8F024EC39E040E050E060E080E00E945F
:104F0000B5106F3F71058105910509F02CF46623FA
:104F100019F0611708F4162F015021F71F3F19F4FB
:104F20001091010102C0109301011B3068F0133190
:104F300070F01D3178F0183280F01C3388F016398B
:104F400090F021E080E411C028E182E00EC02CE066
:104F500084E00BC028E086E008C026E088E005C0B9
:104F600024E080E102C022E080E28093AC0230E0E5
:104F7000A0ECB2E10E94E8374B015C016093CE03E4
:104F80007093CF038093D0039093D1038EE297E088
:104F90000E941B10C501B4010E942512D092050782
:104FA00032CDF090F90180913402833008F42CC1A5
:104FB000833029F40091A6011091A70111C09BEF45
:104FC000980F943048F4E82FF0E0EE0FFF1FEA5FEF
:104FD000FD4F0081118104C000911602109117024B
:104FE0009801205233402939384008F00DC12091F2
:104FF0000501309106010217130720F410930601F2
:10500000009305012091030130910401201731071D
:1050100020F41093040100930301843029F51091CA
:10502000A5018AEF810F823008F4BDC08091C503CD
:10503000811779F01093C50360E070E081EC93E094
:105040000E94680A80910201181303C081E08093D6
:10505000060781EC93E00E94C908813D974008F45F
:10506000A2C0109302019FC08091390281111FC01C
:105070008091030190910401209105013091060176
:10508000609176022017310758F4021B130B821B24
:10509000930B70E00E949A3AC8010E949A3A01C0AC
:1050A00060E0F61609F47FC06093F9017CC080913E
:1050B0002F0282FF39C0C090BF03D090C0030C15EF
:1050C0001D0509F441C0C8018C199D09893C910551
:1050D000D8F18091BD039091BE030817190731F0F4
:1050E000B801681B790B683C710578F481EC93E09A
:1050F0000E94C908893E934018F081E0809306071A
:105100001092BE031092BD031FC060E070E081ECFE
:1051100093E00E94680AD092BE03C092BD03109330
:10512000C0030093BF0310C020910301309104011C
:105130008091050190910601280F391F369527951A
:1051400081E02017310708F080E090912F0290FF56
:1051500010C0882321F081E08093070724C080914C
:105160000707882319F081E080930607109207074C
:105170001AC08823C1F08090C1039090C203A09010
:10518000C303B090C4030E94A31186169706A80615
:10519000B90648F481E08093060764EF71E081EC82
:1051A00093E00E94680A80910607882369F01092B4
:1051B00006078091F9018F5F8093F9019091760243
:1051C000981710F41092F9018091F901F816E1F0A6
:1051D0000E941E0F80911807811114C0A1E7B1E051
:1051E000E6EEF3E084918D9331968111FBCF90919F
:1051F000F90180917801890F8093780163E088E05C
:105200000E942E091092180780910307811105C092
:1052100081E08093030780938A02109202078091B5
:105220000307882309F44EC180918A0281114AC183
:10523000109203078091CF01882319F091E0909399
:1052400014079091FE01998B9B3008F023C4909134
:105250000907911130C490930A0790911007992380
:1052600009F438C480911007811154C48AEC93E08A
:105270000E94C9089B8B8A8B60E070E08AEC93E007
:105280000E94680A2A893B89B90180E090E00E9467
:10529000B3360E943F094B015C0160911802709186
:1052A0001902072E000C880B990B0E94B5366B0172
:1052B0007C01609121027091220280E090E00E94C6
:1052C000B33620E030E543EC57E40E94DB38A70119
:1052D00096010E941437AB01BC012AE08FEE91E0E9
:1052E0000E943D08109109014090EB015090EC01A3
:1052F0006090ED017090EE010E948E099B01AC015F
:10530000C301B2010E94143720E030E040E752E4CC
:105310000E941437AB01BC01212F87EE91E00E945F
:105320003D08209120028091E601082E000C990B87
:10533000422F50E08417950714F42093E6018091E2
:105340003302882309F48DC4A5019401C701B60175
:105350000E94143720E030E044EB53E40E94DB3835
:10536000AB01BC018AED96E00E942B088091D90325
:105370009091DA0320913D0220FD9CC42090770299
:10538000309078020091790210917A02021513058B
:105390000CF089C4322D232D1801032F122F41E068
:1053A000488F322D232D2816390614F4382F292F33
:1053B000632F722F061717070CF4B80162197309CF
:1053C00080E090E00E94B3366B8F7C8F8D8F9E8F34
:1053D000B8016219730980E090E00E94B3369B0126
:1053E000AC016B8D7C8D8D8D9E8D0E94DB3820E015
:1053F00030E048EC52E40E9414370E944D39653683
:1054000071050CF452C464E670E0588D552331F0F8
:1054100084E690E0DC01A61BB70BBD017093E501AB
:105420006093E40180910D0780FD49C40E946E13D2
:1054300080913302109109078111ECC41111BBC492
:1054400010930A0780917602853018F084E08093EB
:1054500076028AEF91E00E94C908853C994008F4E1
:10546000EDC41092FF0110920002109201021092FE
:10547000020262E085E00E94461360918B02709107
:105480008C028091F3019091F401681B790B8FEEEF
:1054900093E00E9433076091CE037091CF03809117
:1054A000D0039091D103611571058105910519F023
:1054B0004AE00E94772083E094E40E94D91A81E0B8
:1054C000809389028091160490911704A09118048A
:1054D000B09119042C893D894E895F898217930701
:1054E000A407B507E0F464E170E086E194E00E946F
:1054F000590A80910702882319F081E00E9408145C
:1055000080918902882359F080918A02882339F09A
:1055100085E892E00E94C908C39708F09FC7809170
:10552000120490911304A0911404B09115044C89B5
:105530005D896E897F8984179507A607B70708F0EC
:1055400059C264E670E082E194E00E94590A8091B9
:105550002F0284FD05C080912B02882309F49AC094
:1055600010910D011F5F10930D0180E10E944C11FD
:105570001770E12FF0E0EE0FFF1FE450FC4F918316
:10558000808360E070E088E08150E82FF0E0EE0F6B
:10559000FF1FE450FC4F20813181620F731F811186
:1055A000F3CF209123023091240247E0429FC001B3
:1055B000439F900D1124860F971F23E096958795A2
:1055C0002A95E1F7909324028093230280912F0281
:1055D00084FF60C080E090E00E94B33620915102C9
:1055E0003091520240915302509154020E9414375C
:1055F00029E53EEE49E050E40E9414370E945439F8
:1056000040912102509122024115510529F47093D5
:1056100022026093210212C09A01220F331F240F2D
:10562000351F2E5F3F4FA901460F571F56954795CF
:1056300056954795509322024093210281E0809332
:105640000207E09138028E2F61E20E948E3A482FC5
:105650008091210290912202C29664E670E00E943D
:105660009A3AF0E09B012E1B3F0BAFEFB0E00E9497
:10567000E8375AE2459F900111242E1B3F0B032E61
:10568000000C440B550B0E94E43AC9010E943115ED
:105690008093200280912F0285FF04C080911E0715
:1056A000811105C080912C02882309F497C01091C4
:1056B0000C011F5F10930C018EE00E944C111770BB
:1056C000E12FF0E0EE0FFF1FE451FC4F9183808348
:1056D00060E070E088E08150E82FF0E0EE0FFF1FFF
:1056E000E451FC4F20813181620F731F8111F3CF90
:1056F000209125023091260247E0429FC001439F3E
:10570000900D1124860F971FA3E096958795AA9573
:10571000E1F7909326028093250280912F0285FF66
:105720005DC080E090E00E94B33620915502309138
:10573000560240915702509158020E94143729EAAC
:105740003CEC48E050E40E9414370E9454394091E8
:105750001E0250911F024115510529F470931F023A
:1057600060931E0212C09A01220F331F240F351FAF
:105770002E5F3F4FA901460F571F569547955695E7
:10578000479550931F0240931E02E09171028E2FA5
:1057900061E20E948E3A482F80911E0290911F0272
:1057A000C29664E670E00E949A3AF0E09B012E1BDC
:1057B0003F0BAFEFB0E00E94E837AAE24A9F9001AA
:1057C00011242E1B3F0B032E000C440B550B0E9483
:1057D000E43AC9010E9431158093EB0380912F02B6
:1057E00086FD05C080912D02882309F47BC080913D
:1057F0001C02882351F020E137E240E050E061E0F4
:105800008FE00E94B510CB0103C08FE00E944C11C5
:10581000E0910B01EF5FE0930B01E770F0E0EE0F1A
:10582000FF1FE552FC4F9183808360E070E088E0C9
:105830008150E82FF0E0EE0FFF1FE552FC4F208172
:105840003181620F731F8111F3CF209127023091B4
:10585000280247E0429FC001439F900D1124860F0C
:10586000971F33E0969587953A95E1F79093280234
:105870008093270280912F0286FF34C080E090E061
:105880000E94B3362091590230915A0240915B0236
:1058900050915C020E9414372DE032E348EC5CE347
:1058A0000E9414370E9454394091180250911902F5
:1058B0004115510529F4709319026093180212C022
:1058C0009A01220F331F240F351F2E5F3F4FA9016E
:1058D000460F571F56954795569547955093190271
:1058E0004093180280913D028695813041F050F13D
:1058F000823049F0833051F58091D70325C081E192
:105900000E944C1109C020E23EE440E050E061E01A
:1059100081E10E94B510CB010E943C1520915D02EF
:1059200030915E0240915F02509160020E941437F4
:105930000E9454397093DA036093D90381E0809315
:1059400002073AC08091D80390E004C0809116020B
:10595000909117020E943C150E9454397093DA030B
:105960006093D90380912E02882331F180911D022A
:10597000882349F020E137E240E050E061E081E136
:105980000E94B51004C081E10E944C11BC018091BD
:10599000290290912A0247E0489F9001499F300DCB
:1059A0001124620F731F83E0769567958A95E1F75E
:1059B00070932A02609329029091120781E089274F
:1059C000809312078823B1F080918402882369F0C4
:1059D0008F5F80938402833068F0809183028F5FB1
:1059E000809383021092840205C0809183028F5FAE
:1059F0008093830280910E0490910F04A091100473
:105A0000B09111042C893D894E895F8982179307D3
:105A1000A407B50710F00C94992464EF71E08EE0B0
:105A200094E00E94590A81E0809302078093110755
:105A300090910D049F5F90930D0490910E0798270D
:105A400090930E07992311F40C94992480930807DE
:105A500080911D07882399F080917F0290918002A8
:105A6000A0918102B09182020196A11DB11D809387
:105A70007F0290938002A0938102B0938202809172
:105A80007E02882309F41FC580917D02853008F4C9
:105A9000ECC419C5209107013091080120373E4F11
:105AA00009F0D5CB2091CD013091CE013093080182
:105AB00020930701CCCB20910A072111CCCB109267
:105AC00010072091CD013091CE0130930801209331
:105AD0000701C1CB833008F4C5CB8CE0E5EBF1E0E6
