:100000000C94E1040C94DF150C946C150C94090508
:100010000C9409050C9409050C9409050C94090528
:100020000C9409050C9409050C9409050C94090518
:100030000C9409050C9409050C9409050C94090508
:100040000C94B7110C9409050C948C0F0C94600F50
:100050000C9409050C9409050C9409050C940905E8
:100060000C9409050C9409050E25122524253E251E
:1000700032254A2556256F258525AF25AF25084A07
:10008000D73B3BCE016E84BCBFFDC12F3D6C7431AC
:100090009ABD56833DDA3D00C77F11BED9E4BB4C03
:1000A0003E916BAAAABE000000803F05A84CCDB2CD
:1000B000D44EB93836A9020C50B9918688083CA6AE
:1000C000AAAA2ABE000000803F0664EC1B3C04BCC8
:1000D000163E3BE5B93CC93C37C29E5A3D66049882
:1000E000083EEA69AAAA3E000000803F5069746396
:1000F0006820696E204E54534300526F6C6C202070
:10010000696E204E54534300506974636820696ED1
:100110002050414C00526F6C6C2020696E20504181
:100120004C002020486F72697A6F6E20616E676C98
:10013000657300566572746963616C206F666673DF
:1001400000486F72697A6F6E74616C206F666673B7
:1001500000436F6E74726173740053637265656EF1
:100160007320436F756E7400202053637265656E53
:1001700020706172616D7300525353492077617230
:100180006E696E67004261747420636861726765AE
:10019000207761726E004F766572737065656420BA
:1001A0007761726E696E67005374616C6C20776161
:1001B000726E696E670042617474203220776172DA
:1001C0006E696E670042617474657279207761723E
:1001D0006E696E67002020204F534420736574754C
:1001E0007000252E336600252E30660025332E3113
:1001F0006676002201680000001501665D02250890
:100200000166610225FA0066650225EC0066690256
:1002100025D50100000000C50142340200B60142AC
:100220006D0200A80162330210960162320210854D
:1002300001623A02107801623B021068010000007E
:10024000005A016272021151016231021241015AD7
:100250006F021333017A6E021466666640000080F6
:100260003F100CBA000A00001BE8031A52B80E40F7
:1002700085EB51401966BB0012800C1CA0141E00B7
:100280000000080002010000030407000000000055
:1002900000000000000000250028002B00010204DF
:1002A00008102040800102040810200102040810F8
:1002B00020040404040404040402020202020203EF
:1002C0000303030303100E0F1123317A7A7A7A7A2B
:1002D0000A000601020203050A0A0B020C01327C25
:1002E0008900EDD968770000005900000000000087
:1002F0000000D69FDCA81817AA90437327F6B968A8
:10030000EDF4DED409FEE61C1C84DDE80B992927F8
:10031000D6DF8D210F036418EFEE1E99B782527657
:10032000941500347C000026149E988F0000006A0B
:1003300031168F8C059600E7B73F360000000000AD
:100340000000AF669ED0385D8A6C20B95422007CD4
:10035000ED044C80387486EDCBFA57CBDC19E20003
:100360001DDF5506E5CB01C30000000000000000C2
:10037000009AB20086DBD0BC5416131586004E449A
:10038000BD7F6F151590010000B500000000000052
:100390002F0000AEE5000000000000000000004754
:1003A000000000000000000000000000000000004D
:1003B000000000000000000000000000000000003D
:1003C0000000000000000000000000000000005AD3
:1003D00000000000000008CC31AA2C532E000206B9
:1003E0000A0F141E2D3C53637265656E2030004E5B
:1003F0006F20696E707574206461746121202575A9
:10040000FF000000FF000100040000000300E1FF06
:100410001F00F1FF0F00FCFF0400C0E0401F9CFF25
:10042000640001000A006400E803EC01E701E20156
:1004300020284E5453432900202850414C290011B4
:10044000020C0000F3010570138F0809601300000F
:10045000000000154F0E0001141700020C170003D6
:10046000381BBC84F61A2605D5160007531A00342B
:100470004E1A0335491A0418BC1B0006B6080008BA
:100480003D190009381A0025C51A008BA41B0B0A58
:1004900027190019B81A000D9B195C11130A1116BF
:1004A000F70912121F051417100513134107021440
:1004B00064187F0F671BBD2ED017571BDF081D9CCC
:1004C000950A151D9716000EF60A091E900C0021BC
:1004D000A6070020EC1700224C0A8F241C181F2BA3
:1004E000BC171F2C8917002D6017002F411700A77C
:1004F000E81700A8E41700A9E01700AADC17001FFE
:100500002E050026951800306E1600311C1700339A
:100510009816002396100032E012009A6E0B00002D
:1005200000000046656E63652046617221004665E5
:100530006E63652048696768210046656E636520C3
:100540004C6F772100426174742042206C6F7721D8
:100550000048696768205653706565642100204C27
:100560006F772052737369210042617474657279E8
:10057000204C6F7721004F7665725370656564215A
:100580000020205374616C6C21004E6F2047505343
:1005900020666978210042616420436F6E66696756
:1005A0003A202564206D79203739004D696E696DD8
:1005B0004F53442D4578747261204D41564C696EFD
:1005C0006B20322E34FF506C616E652072393334EB
:1005D000204456FF0025303269FF003A2530326949
:1005E0003A00B0B1B4B5B6B77B7DB8B9002534696F
:1005F000050025352E3166002090910025322E30E1
:1006000066002520342E3066002520342E31660009
:100610002520342E3266008A058105760569055E3F
:1006200005510545053A052E05230525392E356664
:10063000002531302E3666002530356C64002530BB
:10064000366C64002533690025332E306600202087
:100650007820207920207AFF0020B3FF20B3FF20EC
:10066000C5FF20B3FF20B300B2FFB2FFC6FFB2FF49
:10067000B20031062B063E06380625342E306600C1
:100680000302010000000000240027002A000000EF
:100690000000230026002900716C6F690071686FEB
:1006A00076007173746200696E69740067756964BD
:1006B000006C6F69740072746C006175746F006116
:1006C00074756E006372757A0066627762006662A6
:1006D0007761006163726F007472616900737461A5
:1006E00062006369726300696E6974006D69737397
:1006F000006D5F256400706F736800616C74680042
:100700006D616E750061726D002534690507002505
:10071000346905060025352E32660025342E3166F3
:10072000006F7665726C6F61640066726F7A656ED9
:100730000053747265616D00FF20CECECECE60CEC8
:10074000CECECE00FF20202024CB7C40CB240082C4
:10075000808180818084808180818083808180818C
:100760008085808180818020C8C8C8C87EC8C8C8EC
:10077000C820FF0020202024CBB8B9CB2420202083
:10078000FF0020586500253269000007E206DD06FB
:10079000D806D306CE06C906C406BF06F106BA06B9
:1007A000B606B106F106F106AC06A706A2069D063E
:1007B000980605070007FB06F606F106EC06F106AB
:1007C000F106E70625342E326600256900432569C7
:1007D00020002E253032640025346900A125372EF3
:1007E0003266009125372E32660025362E3166009E
:1007F00025372E3266003420285253534929204B86
:100800000033202843757272656E7429204B0032C4
:100810002028563229204B00202020202020204153
:1008200000312028563129204B0020202050696EAD
:100830002053656E736F727300F0070B68F6060045
:10084000EA078F68F20600EA071473EE0600EA076B
:100850001D73EA0600EA071268E60600E3079076D1
:10086000E20600DC07A076DE0600EA07BD61DA06D4
:1008700000EA075777D60600EA070166D20600436A
:100880002564253569FF00696E66006E616E002A79
:1008900008000000002108738002251808738402F4
:1008A000270F08730000251808730000270108733C
:1008B000000026180873000027F6077300002618AA
:1008C000087300002700407A10F35A00A0724E18F7
:1008D000090010A5D4E80000E87648170000E40BF2
:1008E00054020000CA9A3B000000E1F505000080B8
:1008F000969800000040420F000000A08601000012
:1009000000102700000000E8030000000064000061
:100910000000000A00000000000100000000002CA0
:1009200076D888DC674F0823DFC1DFAE59E1B1B765
:1009300096E5E3E453C63AE651997696E8E6C28432
:1009400026EB898C9B62ED407C6FFCEFBC9C9F404A
:10095000F2BAA56FA5F490055A2AF75C936B6CF96F
:10096000676DC11BFCE0E40D47FEF520E6B500D045
:10097000ED902E0300943577050080841E0800005A
:10098000204E0A000000C80C333333330F986E1228
:10099000831141EF8D2114893BE65516CFFEE6DB2E
:1009A00018D1844B381BF77C1D901DA4BBE4242078
:1009B0003284725E228100C9F124ECA1E53D27005A
:1009C0001B3611241FBECFEFD8E0DEBFCDBF11E034
:1009D000A0E0B1E0EEE7F6E702C005900D92AC337F
:1009E000B107D9F727E0ACE3B1E001C01D92AE3208
:1009F000B207E1F714E0C1EED4E004C02197FE0194
:100A00000E94DD36C03ED107C9F70E9411230C9425
:100A10003D3B0C94000083EA92E00197F1F70895C2
:100A200096FB222720F94091D4015091D501609185
:100A3000D6017091D70188E496E00C945D1496FB82
:100A4000222720F94091FB015091FC016091FD01AA
:100A50007091FE0188E496E00C945D14292F80913A
:100A60008702909188028F739927029710F026FFD2
:100A700004C08CE392E00C9435200895CF93DF936B
:100A800088E80E949B12C0E1D1E088810E94CF12C9
:100A900089810E94CF128EE8DF91CF910C949B1236
:100AA0002F923F924F925F926F927F928F929F927E
:100AB000AF92BF92CF92DF92EF92FF920F931F936C
:100AC000CF93DF93CDB7DEB72F970FB6F894DEBF85
:100AD0000FBECDBF8091F101803489F44090610256
:100AE00050906202609063027090640220915D02F7
:100AF00030915E0240915F025091600210C04090C0
:100B0000690250906A0260906B0270906C022091B2
:100B100065023091660240916702509168026091CF
:100B2000670170916801072E000C880B990B2A87CA
:100B30003B874C875D870E94FB392A853B854C8526
:100B40005D850E945A3A4B015C018091280480FF28
:100B500004C0B7FAB094B7F8B094C501B4010E94CC
:100B60009838AB016A35710538F09B012D543F4F21
:100B70002935310578F4A9014734510564F54A3126
:100B800051050CF54A30510518F128E02F8783EF05
:100B900010ED2EC06B3571051CF0AB01435B5109A4
:100BA000CA0157FF03C0919581959109873491053A
:100BB00094F48A3191059CF40A97B0F038E03F87AD
:100BC00085EF12EE15C047E04F8788EF19ED10C092
:100BD00059E05F870BC01F868DEC11EC09C067E000
:100BE0006F878BEF1BEE04C089E08F878DEC16ECCE
:100BF0002CE030E03A83298300E04F85042E000C7E
:100C0000550B58874F8386508987202F002E000C64
:100C1000330B3C832B836091650170916601620FF9
:100C2000731F072E000C880B990B0E94FB3927EAD3
:100C300032E94BE25CEB0E945A3AA30192010E9416
:100C40005A3A0E948B3920E030E040EA50E40E949A
:100C50005A3A20E030E040E951E40E945A3A6B01F0
:100C60007C0120E030E0A9010E94343920E030E02E
:100C700040E05FE387FD0BC0C701B6010E94433728
:100C80000E9498381B013DE2230E311C0AC0C701A7
:100C9000B6010E9442370E9498381B014DE2240E93
:100CA000311C9DE05981951B9E878B819C8191957C
:100CB000819591099E838D836E85862F90E0298191
:100CC0003A81281739070CF47DC025E33AEF4EE846
:100CD0005CE3C501B4010E945A3A0E948B396B0152
:100CE0007C019E852CE0929F602D11246E54062E6F
:100CF000000C770B880B990B0E94FB399B01AC0110
:100D0000C701B6010E945A3A0E9498389101260FF5
:100D1000371FC90101978A35910508F04FC062E17C
:100D200070E00E9488367B014F85442379F05EEEA7
:100D30005603C001579F900D1124820F931F0196F7
:100D400097FD019695958795D82E01C0D12C64E02A
:100D50006E198E8581500E94AF12002399F06E8526
:100D6000653081F46B817C8177FF02C06D817E816B
:100D7000072E000C880B990B4AE00E94472086E062
:100D80008E8704C08D2D810F0E94CF12DD20B1F01F
:100D90004D2D50E02F813885421753077CF034E009
:100DA000E316F10459F04985D40E63E06E198E857F
:100DB00081500E94AF128D2D0E94CF125E855F5F21
:100DC0005E877ACF37FE09C0025E89819A810497D7
:100DD0009A838983049739F018CF3BE523163104B1
:100DE00014F00E51F2CF2F960FB6F894DEBF0FBE5F
:100DF000CDBFDF91CF911F910F91FF90EF90DF90CA
:100E0000CF90BF90AF909F908F907F906F905F90AA
:100E10004F903F902F900895CF93813110F08051E3
:100E2000FCCF811101C080E1880FCEEFC80F80E9AF
:100E30008C0F0E94CF1281E98C0FCF910C94CF12AE
:100E400085E20C949B1280E20C949B1280913604F4
:100E50008F5F809336040C94C012692F0C944E134C
:100E60007F936F939F938F938AE297E09F938F93E3
:100E70000E940D200F900F900F900F900F900F90E9
:100E800008956091FA0170E084E496E00E943007D2
:100E90000C942007EF92FF920F931F93CF93DF9351
:100EA0008C01D62FC42F6CE370E00E9474367C0155
:100EB00084E496E00E943007CC2349F0B7018BED23
:100EC00095E00E943007CF776C2F70E011C0DD23D2
:100ED00031F080910607882311F080E201C08AE397
:100EE0000E94CF12C8016CE370E00E947436BC010E
:100EF00085ED95E0DF91CF911F910F91FF90EF90DD
:100F00000C943007CF93DF931F92CDB7DEB77F935A
:100F10006F935F934F939F938F938AE297E09F9392
:100F20008F9329830E940D200FB6F894DEBF0FBE69
:100F3000CDBF2981222331F0822F0F90DF91CF91F5
:100F40000C94CF120F90DF91CF910895CF92DF9242
:100F5000EF92FF920F931F93CF93DF938091180727
:100F600090911907FC013A96D4913296C4910D964E
:100F7000FC010591149160915A0170915B0180E030
:100F800090E00E94F93920E030E040E251E40E9414
:100F900026386B017C016C2F70E080E090E00E94AD
:100FA000FB399B01AC01C701B6010E945A3A6B01A3
:100FB0007C01B80180E090E00E94F9399B01AC010E
:100FC000C701B6010E94433720E030E048EC52E40C
:100FD0000E942638AB01BC012D2F82EF95E0DF91F6
:100FE000CF911F910F91FF90EF90DF90CF900C94D5
:100FF000820720E00C9482070E94AB116093F601F7
:101000007093F7018093F8019093F9018091870222
:10101000909188029093F0018093EF01EAEFF6E05F
:1010200081E0808382830895CF93DF93EC01CB012D
:10103000BA010E94FB3920E836E948E15BE40E94EE
:101040002638688379838A839B83DF91CF910895C3
:10105000CF93DF93EC019A01AB01688179818A819A
:101060009B810E944337688379838A839B83DF91C6
:10107000CF9108958F929F92AF92BF92CF92DF92BD
:10108000EF92FF920F931F93CF938C014A015B0164
:10109000C22FFC01C080D180E280F38020E030E0EC
:1010A000A901C701B6010E94F439882311F0C230AA
:1010B00030F4F80180829182A282B3821FC0A7011E
:1010C0009601C501B4010E9442374B015C016C2FAF
:1010D00070E080E090E00E94FB399B01AC01C5010B
:1010E000B4010E9426389B01AC01C701B6010E94E1
:1010F0004337F8016083718382839383CF911F917B
:101100000F91FF90EF90DF90CF90BF90AF909F90A6
:101110008F900895CF92DF92EF92FF92CF93DF935B
:10112000EC016A017B019A01AB01688179818A81B6
:101130009B810E94F43987FF04C0C882D982EA8269
:10114000FB82DF91CF91FF90EF90DF90CF900895D9
:1011500024E0880F991F2A95E1F78C549F4F68E689
:1011600071E00E948836CB01019608958091A70115
:101170009091A8010E94A8080E940C076091A70105
:101180007091A8018DEE95E00C943007CF93DF931A
:10119000EC010E94AB1128813981CB01821B930B9A
:1011A000DF91CF91089597FF03C088599E4F08950E
:1011B000893621E0920714F08856914008950F93E4
:1011C0001F93CF93DF93C92F80915C0190915D01B4
:1011D0000E94D3088C014091CC015091CD016091C7
:1011E000CE017091CF0124E683E294E00E943A0898
:1011F000C6FBDD27D0F94091CC015091CD01609123
:10120000CE017091CF012D2F88E496E00E945D14ED
:101210000E9426072091C9013091CA01C801821B92
:10122000930B0E94A8089C2F9072C5FD98E0890F2F
:101230000E940C07409123045091240460912504DE
:10124000709126042D2F8CEF95E0DF91CF911F91A7
:101250000F910C945D142091870230918802260F23
:10126000311D3093C3062093C2068093C10680913E
:101270007F028093C006089520E030E04AE754E4FE
:101280000E9426380895E0911807F091190765919A
:1012900075918591949108958F929F92AF92BF928C
:1012A000CF92DF92EF92FF9260911402709115023B
:1012B000072E000C880B990B0E94FB396B017C01F7
:1012C0008090FB019090FC01A090FD01B090FE0188
:1012D0000E9443099B01AC01C501B4010E945A3A26
:1012E0009B01AC01C701B6010E94263820E030E026
:1012F00040E251E40E945A3AAB01BC0124E682E389
:1013000094E0FF90EF90DF90CF90BF90AF909F90D0
:101310008F900C943A08E0911807F09119073496D1
:1013200065917591859194910895CF92DF92EF9296
:10133000FF920F931F93CF93DF9300D000D0CDB7D0
:10134000DEB79B01AC0169833A834B835C830E94C7
:101350008B0929813A814B815C810E945A3A6B0149
:101360007C0120E03CE34CE156E40E94F43900911A
:10137000180710911907F80118163CF039962491B6
:10138000B701A6018AE796E024C070966591749132
:1013900080E090E00E94F9399B01AC01C701B601E1
:1013A0000E9426386B017C010E9498386A307105D2
:1013B00034F06436710534F08AE796E005C084ECB9
:1013C00097E002C08BE197E0F8013F962491B701C6
:1013D000A6010F900F900F900F90DF91CF911F916A
:1013E0000F91FF90EF90DF90CF900C948207409187
:1013F000FF0150910002609101027091020296FD7E
:1014000009C0411551056105710521F0CB01BA01F3
:101410000C9495094091D0015091D1016091D20175
:101420007091D301F3CF0F931F93292F207495FF51
:1014300015C06091D0017091D1018091D20190913D
:10144000D301222329F12091AD013091AE014091C9
:10145000AF015091B0010E9442371AC06091B901AA
:101460007091BA018091BB019091BC01222361F07F
:101470000091C5011091C6012091C7013091C801AA
:10148000601B710B820B930B0E94FB390E943C097D
:101490001F910F910C9495096091F2067091F306DB
:1014A0008091F4069091F5060C9495099B01FC013E
:1014B0004081518162817381420F531F611D711DF3
:1014C000408351836283738308950F931F93CF9357
:1014D000DF93EC018B010E94AB11DC01CB01800F8B
:1014E000911FA11DB11D88839983AA83BB83DF91BE
:1014F000CF911F910F91089596FB222720F930E09C
:1015000095FD03C080E090E002C082E090E0282BCF
:10151000392B215031092330310528F4F901E85ED7
:10152000FE4F8081089580E00895CF92DF92EF9280
:10153000FF92CF93DF93D82FC92F0E947C0A80930C
:101540000901C7FD4CC0C4FF2AC081E080930D078C
:1015500020E030E040E752E46091E3017091E40163
:101560008091E5019091E6010E9426386B017C0193
:101570000E9498389B0177FF04C022273327261B3F
:10158000370B2A3031052CF5D6FD03C080E196E0FB
:1015900002C089E096E028E1B701A60112C01092CE
:1015A0000D07E0911807F091190772962491409168
:1015B000E3015091E4016091E5017091E60182E060
:1015C00096E0DF91CF91FF90EF90DF90CF900C9459
:1015D000820724363105ECF282E096E0DCCFDF9121
:1015E000CF91FF90EF90DF90CF9008951F93CF930E
:1015F000DF931F92CDB7DEB7192F0E947C0A282FE8
:101600006091E0017091E10180E090E029830E9407
:10161000F939AB01BC0129818FE194E00E943A08BD
:1016200060911F0470912004809121049091220404
:101630000E94983884E496E00E9430078091390235
:1016400080FD08C014FF06C00F90DF91CF911F915D
:101650000C9420070F90DF91CF911F91089595FB77
:10166000222720F994FD02C090E001C092E0922B65
:1016700086FD02C080E001C084E0892B08950E94AD
:101680001E12811102C00C940B0508958EBD0DB47D
:1016900007FEFDCF8EB58FEF8EBD0DB407FEFDCFDB
:1016A0008EB508958EBD0DB407FEFDCF8EB56EBD0F
:1016B0000DB407FEFDCF8EB50895CF93DF93FC01E7
:1016C0006491EC012196662331F08AE297E00E9452
:1016D0006D12CE01F4CFDF91CF910895CF92DF92BA
:1016E000EF92FF920F931F93CF93DF9380910007A8
:1016F000882309F4F7C0192F10920007C090D40175
:10170000D090D501E090D601F090D7010E94430916
:101710009B01AC01C701B6010E945A3A0E94983859
:10172000E0911D02F0911E0280910C07882349F080
:1017300081E090E02091CB01223008F080E0EC01C4
:1017400002C0C0E0D0E000912F0201110AC0209138
:10175000330230E06217730724F48091050780FD9F
:10176000C26020913202222329F030E02617370789
:101770000CF4C46030911C022091E20140913402CB
:10178000442369F0CF0164E670E00E94743661156D
:10179000710529F0842F90E068177907E4F04091F3
:1017A0003A024423C9F054E6359FC0011124322F78
:1017B00027FF02C031E0320F3595830F911D37FDB1
:1017C0009A95622F220F770B0E948836842F90E023
:1017D000681779070CF4C8608091390280FD0BC04E
:1017E00080913B0290E02091E0013091E1012817C7
:1017F000390708F4C061C090E301D090E401E090A3
:10180000E501F090E60120E030E0A901C701B60152
:101810000E94343918161CF4C701B60103C0C70171
:10182000B60190580E949838CB016AE070E00E949F
:101830008836013049F480913302882329F090E002
:10184000861797070CF4C06280911A0290911B02D0
:1018500020916D02222369F064E670E00E947436E4
:101860006115710531F0822F90E0681779070CF44B
:10187000C06416FF0EC080915801813011F4C06819
:101880000DC0823011F4D16009C0833011F4D260F0
:1018900005C0209719F41092270424C090912704C2
:1018A00081E09111890F80932704809127044FEFE5
:1018B000480F21E030E002C0220F331F4A95E2F7C3
:1018C0008B3018F081E021E030E0A9014C235D234A
:1018D000452B21F48F5F220F331FF2CF8093270413
:1018E0008917C9F2E0912704EE2389F0F0E0EE0FAA
:1018F000FF1FEB5EF94F85919491DF91CF911F917E
:101900000F91FF90EF90DF90CF900C945D0BDF91E3
:10191000CF911F910F91FF90EF90DF90CF9008959E
:10192000CF92DF92EF92FF92CF9320910107222373
:1019300009F4FCC0C82F96FF13C020E030E0A901D5
:101940006091FB017091FC018091FD019091FE017D
:101950000E94F439882309F4E9C00E944C0921C08F
:1019600080912F028111E2C020E030E0A901609156
:10197000FB017091FC018091FD019091FE010E949C
:10198000F439882309F4D2C00E944C099091FA01DD
:1019900080910407933068F0811103C081E0809347
:1019A00004078C2FCF91FF90EF90DF90CF900C9495
:1019B000A114882311F18091FF0190910002A09160
:1019C0000102B091020280931B0490931C04A09327
:1019D0001D04B0931E048091F2069091F306A0912D
:1019E000F406B091F5068093170490931804A09321
:1019F0001904B0931A0410920407C090E701D09024
:101A0000E801E090E901F090EA012DEC3CEC4CE4B7
:101A10005DEBC701B6010E94F43987FF67C0C09033
:101A2000FF01D0900002E0900102F0900202A701B5
:101A3000960160911B0470911C0480911D0490918B
:101A40001E040E9442379B01AC01C701B6010E94EF
:101A500026386B017C0120911704309118044091C5
:101A6000190450911A046091F2067091F306809166
:101A7000F4069091F5060E9442379B01AC01C70124
:101A8000B6010E945A3A6B017C010E948B099B01AE
:101A9000AC01C701B6010E945A3A6B017C010E9459
:101AA0009838CB016031774224F41816190644F0B7
:101AB0003DC0C12C8CE3D82E8CE1E82E86E4F82EB4
:101AC000C7FD03C08EEE0E949B12E0911807F091B3
:101AD000190739962491B701A6018AE796E0CF91BC
:101AE000FF90EF90DF90CF900C9482072DEC3CECB0
:101AF0004CE45DEBC701B6010E94343987FD16C086
:101B0000809165019091660197FF10C08091060752
:101B1000882319F089EF95E002C088EF95E0CF9116
:101B2000FF90EF90DF90CF900C945D0BCF91FF90E2
:101B3000EF90DF90CF90089565E082E00E944E1311
:101B40008BEA95E00E945D0B0E94AB1188279927D4
:101B50004AE00E94472080911407882359F061E0F1
:101B600081E00E944E136091450270E086E995E0A5
:101B70000E9430070E94741266E970E080E090E0F5
:101B80000C947111CF92DF92EF92FF920F931F93FB
:101B9000CF93DF931F92CDB7DEB76B017C018B0132
:101BA000040F151FC016D10689F0F70161917F015E
:101BB000C60169830E94183B6981861719F0C60126
:101BC0000E94203BFFEFCF1ADF0AECCF0F90DF918E
:101BD000CF911F910F91FF90EF90DF90CF900895DC
:101BE000EF92FF920F931F93CF93DF938C01040F1B
:101BF000151FEC017B01E81AF90AC017D10739F06B
:101C0000C7018C0F9D1F0E94183B8993F6CFDF916F
:101C1000CF911F910F91FF90EF900895CF93DF9395
:101C200000D0CDB7DEB79091F501682F70E0660F58
:101C3000771F80E8989F600D711D112442E050E0ED
:101C4000CE0101960E94F00D89819A810F900F902C
:101C5000DF91CF91089584E20E940E0E96FF08C096
:101C60008091A60190E08C549F4F0E94D30804C03D
:101C70008091C9019091CA01880F991F8D966AE5DC
:101C800070E00E94883677FF03C0685F7F4FFBCF0C
:101C900067707727FB01EE51FA4F849108954F92B8
:101CA0005F926F927F928F929F92AF92BF92EF92CC
:101CB000FF920F931F93CF93DF93F82ED92F96FDAA
:101CC0000CC06D2F81E08F0D0E944E13809128046F
:101CD00081FD1CC00E94500519C0C5E082EB0E9426
:101CE000CF121DE0115019F00E942307FBCFC33023
:101CF00011F083EB01C085EC0E94CF120E942607F1
:101D0000C150F9F2C33051F786ECE9CFD4FF78C067
:101D1000C091AB01D091AC010091A9011091AA0131
:101D2000C80117FF04C088279927801B910B6AEF11
:101D300070E00E948836E62F472FCE01D7FF04C0FF
:101D4000882799278C1B9D0B6AEF70E00E948836CC
:101D50002E2F342F261737070CF49B01B9016F5F24
:101D60007F4F7093C5066093C406072E000C880B46
:101D7000990B0E94FB394B015C010E942B0EE82E4F
:101D8000B801110F880B990B0E94FB392B013C0104
:101D90002CEB34E743E95CE3C501B4010E9426382B
:101DA0009B01AC01C301B2010E9426380E94983801
:101DB00012E0161BBE01DD0F880B990B0E94FB3948
:101DC0002B013C0122E430E645EE5CE3C501B401A1
:101DD0000E9426389B01AC01C301B2010E94263843
:101DE00020E030E040E05FE30E9443370E949838F3
:101DF000862F612F8B5F0E94AF128E2D0E94CF1213
:101E0000F7FC16C062E085E00E94AF128AEE95E012
:101E1000DF91CF911F910F91FF90EF90BF90AF9006
:101E20009F908F907F906F905F904F900C945D0B80
:101E3000DF91CF911F910F91FF90EF90BF90AF90E6
:101E40009F908F907F906F905F904F90089581E06A
:101E50008093FA0688E0EAE2F4E0DF011D928A95B9
:101E6000E9F780E00E940E0E9093290480932804E5
:101E70000895FB012081822790E1899F9001112420
:101E80002827822F90E0582F44279C0163E0220FDF
:101E9000331F6A95E1F742275327218130E0242739
:101EA000352774E0959587957A95E1F782279327F2
:101EB0009183808308959C01862FB9010C94390F7A
:101EC0001F920F920FB60F9211248F939F93EF934F
:101ED000FF939091BE048091BD04981779F0E09132
:101EE000BE04F0E0E754FB4F80818093C6008091F0
:101EF000BE048F5F83708093BE0405C08091C100D3
:101F00008F7D8093C100FF91EF919F918F910F90F2
:101F10000FBE0F901F9018951F920F920FB60F9241
:101F200011242F938F939F93EF93FF939091C6006B
:101F30008091B7048F5F8F772091B804821741F0AA
:101F4000E091B704F0E0E95CFB4F90838093B70425
:101F5000FF91EF919F918F912F910F900FBE0F9056
:101F60001F901895CF92DF92EF92FF920F931F93DD
:101F7000CF93DF936C017A018B01C0E0D0E0CE15E6
:101F8000DF0589F0D8016D918D01D601ED91FC91AD
:101F90000190F081E02DC6010995892B11F47E0195
:101FA00002C02196ECCFC701DF91CF911F910F9115
:101FB000FF90EF90DF90CF9008953FB7F894809115
:101FC000BC069091BD06A091BE06B091BF0626B595
:101FD000A89B05C02F3F19F00196A11DB11D3FBF61
:101FE000BA2FA92F982F8827820F911DA11DB11DEF
:101FF000BC01CD0142E0660F771F881F991F4A95EB
:10200000D1F708959091BD049F5F93702091BE0415
:102010009217E1F3E091BD04F0E0E754FB4F8083B9
:102020009093BD048091C10080628093C1000895A7
:1020300008958091C10084FF03C0862F0E94021082
:1020400081E090E00895E7EBF4E081818083EDEB9F
:10205000F4E08081818308959091C100892F80717F
:1020600094FF0EC09091B7048091B804981302C0F9
:1020700080E00895E091B804F0E0E95CFB4F8081D6
:102080000895089580E0089580E0089580E008951F
:10209000CF92DF92EF92FF92CF936B017C01C42F1E
:1020A00020E030E0A9010E943439181624F0F7FA34
:1020B000F094F7F8F094C701B6010E949838072E03
:1020C000000C880B990B0E94FB399B01AC01C701E6
:1020D000B6010E944237C11105C020E034E244E756
:1020E00059E404C020E030E543EC57E40E945A3A3A
:1020F0000E949838CF91FF90EF90DF90CF90089595
:102100000E94D939882311F080E401C080E09091C9
:10211000F101981751F08093F1015E986091F101FF
:102120006C6180E00E94520B5E9A0895CF93DF931A
:1021300087FD04C08EE496E00E945D0BCCE4D1E004
:10214000499159916991799188E496E00E94F90743
:1021500081E0C835D807A1F70E942607C6E4D1E080
:102160006991799184E496E00E94300781E0CC3453
:10217000D807B1F7DF91CF9108950F931F9390E0A7
:10218000FC01E356FD4F7491FC01EF54FD4FE491C7
:10219000662311F0672F01C060E0F0E0EE0FFF1F33
:1021A000E257F94F8591949189019A013F70462F2A
:1021B000672F0E94CC22611571058105910549F0B8
:1021C000DC01CB010196A11DB11DBC01CD019F70A9
:1021D00003C060E070E0CB011F910F910895833040
:1021E00081F028F4813099F08230A1F00895873091
:1021F000A9F08830B9F08430D1F4809180008F7DCF
:1022000003C0809180008F7780938000089584B50B
:102210008F7702C084B58F7D84BD08958091B00012
:102220008F7703C08091B0008F7D8093B0000895B8
:10223000CF93DF9390E0FC01E356FD4F2491FC0126
:10224000EF54FD4F8491882361F190E0880F991F2E
:10225000FC01EC57F94FC591D491FC01ED56FD4FAF
:10226000A591B491611109C09FB7F8948881209518
:1022700082238883EC912E230BC0623061F49FB7D8
:10228000F8943881822F809583238883EC912E2BBC
:102290002C939FBF06C08FB7F894E8812E2B28831C
:1022A0008FBFDF91CF9108958E3008F08E508770E8
:1022B0002091000190E4299F90011124822B8093AA
:1022C0007C0080917A00806480937A0080917A000B
:1022D00086FDFCCF809178002091790090E0922BD0
:1022E00008958F929F92AF92BF92CF92DF92EF921A
:1022F000FF926B017C010E94DD0F4B015C01C11458
:10230000D104E104F104F1F00E94DD0FDC01CB0106
:1023100088199909AA09BB09883E9340A105B1050E
:1023200070F321E0C21AD108E108F10888EE880EA6
:1023300083E0981EA11CB11CC114D104E104F10476
:1023400019F7DDCFFF90EF90DF90CF90BF90AF9067
:102350009F908F9008952FB7F8946091B806709170
:10236000B9068091BA069091BB062FBF08951F92BF
:102370000F920FB60F9211242F933F938F939F9339
:10238000AF93BF938091B8069091B906A091BA0619
:10239000B091BB063091B70623E0230F2D3720F410
:1023A0000196A11DB11D05C026E8230F0296A11DAF
:1023B000B11D2093B7068093B8069093B906A093F9
:1023C000BA06B093BB068091BC069091BD06A09161
:1023D000BE06B091BF060196A11DB11D8093BC063B
:1023E0009093BD06A093BE06B093BF06BF91AF9178
:1023F0009F918F913F912F910F900FBE0F901F9043
:1024000018959091C100892F807194FF14C090910C
:10241000B7048091B804981302C080E00895E09159
:10242000B804F0E0E95CFB4F80819091B8049F5FB5
:102430009F779093B80408950C9401129091C10075
:10244000892F807194FF06C08091B7049091B804E1
:10245000891B8F7708950C941E129B01AC0180910B
:10246000C10084FD1092C1001092BE041092BD0400
:102470001092B8041092B704211531054105510599
:1024800001F1211581EE38074105510509F182E07E
:102490008093C00060E079E08DE390E00E949C367C
:1024A000DA01C9010197A109B109AC01BD01769515
:1024B000679557954795942F852F8093C5009093E6
:1024C000C40088E98093C10086E08093C20008952B
:1024D0001092C00090E180E0F0CFDC01ED91FC9122
:1024E0000190F081E02D09945E9860E085E00E9403
:1024F000520B60E086E00E94520B61E084E00E9493
:10250000520B5E9AE7EDF4E080E25E9890819EBD0A
:102510000DB407FEFDCF9EB581935E9A96E0E73B32
:10252000F90798F35E988FEF8EBD0DB407FEFDCFCF
:102530008EB55E9A08952091D5043091D604203E40
:1025400091E0390758F4A9014F5F5F4F5093D604CB
:102550004093D504F901E952FB4F8083089590918F
:102560003604690F9091D404890F90E02EE1629FA8
:10257000800D911D11249093D6048093D504089565
:10258000209136048091D40490E03EE1239F800D99
:10259000911D11249093D6048093D50408958F3F04
:1025A00039F4809136048F5F809336040C94C01206
:1025B0000C949B12862F0E94CF1281E090E0089528
:1025C0001F93CF93DF93182FC92F87FD10C096FF5D
:1025D00004C0D0E089E596E003C0D1E088E696E04B
:1025E0000E945D0B812F9C2F0E942D0701C0D0E01F
:1025F0008091E3019091E401A091E501B091E601A1
:10260000BC01CD0190589B01AC010E9443370E9450
:1026100098388091280482FF05C0CB016CE370E0FC
:102620000E948836C5FF05C0CB016AE070E00E94B9
:102630008836C4FF06C077FF02C06F5F7F4F759575
:10264000679516FF08C077FF02C06D5F7F4F7595D5
:102650006795759567959B01235D3F4F37FF02C0D6
:102660002F5F3F4FC9019595879569E070E00E9403
:10267000883665302CF467FD06C0CFECC81B05C05A
:10268000CEE764E002C0C0E660E08D2F0E94AF128A
:102690008C2FDF91CF911F910C94CF128F7180936B
:1026A000D4046F70609336048091F101803411F08E
:1026B000673010F40C94C012635060933604FACF64
:1026C000CF936AE086E00E944E13C0E08C2F0E94F8
:1026D000221C0E942607CF5FC430C1F7CF91089516
:1026E00066E089E00E944E130C9450055E9880913C
:1026F0002C0281FD06C080912B0283FF1CC081E06B
:102700001BC080EA0E94460B80FF07C081E00E9448
:10271000821080912B02886008C081FF09C080E090
:102720000E94821080912B02877F80932B0206C02B
:1027300082FDE1CF03C080E00E9482105E9A08957E
:10274000CF93DF935E98E0913102E43008F0E0E04F
:10275000F0E0E058F94FC49180E1D1E0D80F6C2F40
:102760000E94520B8D2FD032C1F760916F0282E030
:102770000E94520B60916E0283E00E94520B5E9A9F
:10278000DF91CF9108955E988CEE0E94460B682FE2
:102790006F7E8CE60E94520B62E18CE00E94520B2D
:1027A0006091F1016C6380E00E94520B66E970E079
:1027B00080E090E00E9471116091F1016C6180E015
:1027C0000E94520B0C94A013CF93DF935E98C0E14C
:1027D000DFEFC15081F46091F101626080E00E94FE
:1027E000520B6FE070E080E090E00E947111DF9189
:1027F000CF910C94C31380EA0E94460B877059F75F
:1028000084E0815031F0DEBD0DB407FEFDCF9EB5F2
:10281000F8CF6FE070E080E090E00E947111D9CFB6
:10282000E0917002F0E0EE0FFF1FE45FFD4F2081AA
:1028300031814FB7882309F0F89480917702813075
:1028400001F118F0823039F136C0E0913C01F0918D
:102850003D01908180910302892B808322303105D4
:1028600040F0C901880F991F880F991F059701979C
:10287000F1F7E0913C01F0913D01908180910302DC
:1028800017C0E0913C01F0913D01809103022D3D84
:1028900035406CF009C0E0913C01F0913D01809120
:1028A00003022C3D35401CF49081892B03C090819C
:1028B0008095892380834FBF0895CF92DF92EF9256
:1028C000FF921F93CF93DF93EC016A017B01122FDC
:1028D0000E9443099B01AC01C701B6010E945A3A0C
:1028E000112341F026E636E646E650E40E942638FB
:1028F00028E106C0E0911807F09119073896249155
:10290000AB01BC01CE01DF91CF911F91FF90EF9001
:10291000DF90CF900C948207262F30E0F901E95D1B
:10292000FD4F87FD0CC091E09083F901EA5EFD4FF9
:1029300086FB992790F99083862F0C94221C108295
:102940000895CF93C82F6091320470913304809121
:102950003404909135040E949838615071096F30A9
:10296000774298F4C7FD03C086E10E949B12409114
:10297000320450913304609134047091350421E0A5
:102980008AE796E0CF910C948207CF910895CF9378
:10299000C42F28EE33E040E050E00E949C36DA017C
:1029A000C90140E06C2FCF910C944A07CF93DF937D
:1029B000282F86FB442740F9E42FF0E0DB016D91DE
:1029C0007D918D919C91EE0FFF1F25FF1DC0EA5850
:1029D000F94FC591D4910E9448109F938F937F9394
:1029E0006F93DF93CF938AE297E09F938F930E9438
:1029F0000D20ADB7BEB718960FB6F894BEBF0FBE88
:102A0000ADBFDF91CF910895EE58F94F25913491E4
:102A1000AB01BC01C901DF91CF910C94F907EF9292
:102A2000FF921F93CF93DF931F92CDB7DEB7182F7E
:102A30007C018E2D811B861760F4F70181917F0147
:102A40009091C10094FFF5CF69830E9402106981C3
:102A5000F0CF0F90DF91CF911F91FF90EF900895ED
:102A60000E94423720EC3BE649ED57E40E945A3A77
:102A7000089597FD05C08F3F910509F01CF4089556
:102A800080E008958FEF0895E0910F01EF5FE093EC
:102A90000F01E770F0E0EE0FFF1FEC53FB4F918347
:102AA000808388E060E070E08150E82FF0E0EE0F76
:102AB000FF1FEC53FB4F20813181620F731F811187
:102AC000F3CF80E090E00E94F93920E030E040E070
:102AD0005EE30E945A3A08951F920F920FB60F922A
:102AE0001124CF92DF92EF92FF922F933F934F9357
:102AF0005F936F937F938F939F93AF93BF93CF9386
:102B0000DF93EF93FF930E94DD0F6B017C01E2E8FE
:102B1000F2E08491E0EAF2E0D491E4EBF2E0C491D7
:102B2000CC23B9F081110E94EF10EC2FF0E0EE0FF2
:102B3000FF1FE257F94FA591B491EC91ED2349F0B5
:102B4000C092C004D092C104E092C204F092C304C7
:102B50001FC08091C0049091C104A091C204B091A3
:102B6000C3040097A105B10599F0C81AD90AEA0A69
:102B7000FB0AD092A501C092A4011092C004109249
:102B8000C1041092C2041092C30481E08093BF0478
:102B9000FF91EF91DF91CF91BF91AF919F918F9175
:102BA0007F916F915F914F913F912F91FF90EF90A7
:102BB000DF90CF900F900FBE0F901F9018951F922F
:102BC0000F920FB60F9211242F933F934F935F9361
:102BD0006F937F938F939F93AF93BF93EF93FF93E5
:102BE00081E080937A0210928602809179028F5F51
:102BF000809379020E94AB116093810270938202EC
:102C0000809383029093840280918502882321F02F
:102C10000E94741210928502FF91EF91BF91AF91C3
:102C20009F918F917F916F915F914F913F912F91E4
:102C30000F900FBE0F901F901895E091F40135E0B2
:102C4000E39FF0011124EF5BFB4F94919150209191
:102C50000A016091F2017091F30187FF03C0222302
:102C600039F004C0882311F0291721F0280F03C080
:102C7000292F01C020E0FB0136E0239FE00DF11D6C
:102C80001124339645915491452B39F320930A0131
:102C9000089590E0880F991FDC01AC5FBD4FFC01E7
:102CA000E65DFB4F8D919C9120813181821B930BBE
:102CB0000895A4E0B2E0EAE2F4E080819181883EE8
:102CC000934028F48D919C91119791838083329643
:102CD000129684E0E233F80781F708950895E82F0B
:102CE000F0E0EE0FFF1FEC5FFD4F20813181662386
:102CF00029F040E253E088E998E004C048EE53E050
:102D000080ED97E02417350780F0241B350B841BDA
:102D1000950B65E070E00E947436C9010E9474361C
:102D2000862F653018F084E0089580E008950895B6
:102D3000EF92FF920F931F93CF930EE311E0C0E049
:102D400096FD20C089E0E82EF12CF8018191919147
:102D50008F018C549440B7010E94743683ED97E044
:102D60000E943007C13019F40E94260702C00E9459
:102D70002307CF5FC43049F712C00E942307CF5FFB
:102D8000C43069F0F801619171918F0188ED97E08D
:102D90000E943007C13089F70E942607F0CFCF91FB
:102DA0001F910F91FF90EF9008951F93CF93DF93A2
:102DB000D82F192F8091CB01823019F020F0CFE06D
:102DC00003C0CFE101C0CAE280916B0190916C0118
:102DD000883C910520F0809106078111C0E2D7FD63
:102DE00002C016FF11C060916D0170E086E897E0A7
:102DF0000E943007D7FD0CC016FF0AC08C2FDF9150
:102E0000CF911F910C94CF128C2F0E94CF12EBCF39
:102E1000DF91CF911F9108956091670170916801D2
:102E20008FE097E00C943007609165017091660126
:102E300089E097E00C943007CF93C92F8091150754
:102E40008823E9F060917B0270917C0280917D0281
:102E500090917E022CE330E040E050E00E949C36EE
:102E6000DA01C901C5FF04C0462F406860E004C014
:102E7000C6FB662760F940E0CF910C944A07CF91DA
:102E800008951F93CF93DF93182F0E942F0B8C5F11
:102E9000C82FD0E017FD07C0BE016F5F7F4F8DECDC
:102EA00097E00E943007CC0FDD1FCC5FDD4F6881BB
:102EB000798188ED97E0DF91CF911F910C943007D5
:102EC0001F93CF93DF93182FC92F0E942F0BD4E0AD
:102ED000D80F17FD08C06D2F70E06F5F7F4F8AEC31
:102EE00097E00E943007C6FB662760F98D2F0E948D
:102EF0006F16D82FC0E0CD1302C081E801C080E872
:102F00000E94CF12CF5FC530B1F7DF91CF911F91F3
:102F100008951F93CF93DF93182FC92F0E942F0B73
:102F2000D4E0D80F17FD08C06D2F70E06F5F7F4FA2
:102F30008DEC97E00E943007C6FB662760F98D2F65
:102F40000E946F16182FC0E0D3E0CE010E94183BFC
:102F50008F3F71F0811103C0112351F011501111F5
:102F600002C00E94CF122196C03883E0D80769F7CB
:102F7000DF91CF911F91089560916B0170916C0169
:102F800080E090E00E94F93920E030E048EC52E423
:102F90000E942638AB01BC0184EC97E00C94F90741
:102FA0004091EB015091EC016091ED017091EE01C7
:102FB00088E496E00C94F90763E0892F0C948C1454
:102FC00062E0892F0C948C1461E0892F0C948C148E
:102FD00060E0892F0C948C140F931F93CF93DF9391
:102FE00004E012E0C0E0D0E0F801619171918F013E
:102FF0002196CE010E941E20C830D105A9F7DF918D
:10300000CF911F910F910895CF93DF93611103C06A
:10301000C5E1D7E002C0CBE1D7E0BC0180E090E0A1
:103020000E94F9390E943C09AB01BC012DE0CE01A0
:10303000DF91CF910C9482070F931F93CF93DF936F
:1030400000D000D0CDB7DEB70091C4061091C50600
:103050000E948B099B01AC016AEF609FC001619FD8
:10306000900D1124BC01990F880B990B2C83398387
:103070004A835B830E94FB392C8139814A815B81C1
:103080000E945A3AE0911807F09119070832110589
:103090005CF03F9624912C830E943C09AB01BC015B
:1030A0002C8184EC97E006C039962491AB01BC01D9
:1030B0008AE796E00F900F900F900F90DF91CF91DD
:1030C0001F910F910C94820780916E018E30B9F49C
:1030D0002091A30130E087E090E0482FB901082E4D
:1030E00002C0759567950A94E2F760FD03C00197E9
:1030F000A0F748E04093A301E2EBF7E002C0EAE862
:10310000F7E06091A30170E0CB01880F991FE80FF1
:10311000F91F859194910E943007809101078823BF
:1031200019F086E80C949B120895EF92FF920F938A
:103130001F93CF93DF931F92CDB7DEB720916F011E
:10314000222309F470C04091C2065091C306209119
:103150008702309188024217530709F464C0209116
:103160005901233010F401E201C000E0692F182F4B
:103170008091C1069AE1F92EF81AF7FC14C08F2D40
:103180008695810F0E944E1317FD02C0011155C094
:103190008FE691E00F90DF91CF911F910F91FF90FB
:1031A000EF900C94352017FD02C001114AC066FD56
:1031B0001DC0F1942F2D30E080917F029091C006C8
:1031C000891B90E0B901660F771F0E9488364091F5
:1031D000800241110DC0009729F02150310982175A
:1031E000930731F421E02093800202C080E090E058
:1031F0009C0121593E4F79018901065E1F4FF7015D
:1032000081917F01811109C00F90DF91CF911F91B2
:103210000F91FF90EF900C9423070E94CF12E016BD
:10322000F10669F7F1CF10926F010F90DF91CF9106
:103230001F910F91FF90EF900895802F0E94CF1261
:10324000A7CF802F69830E94CF126981B0CFCF931F
:1032500080910807882379F0C92F8091A6010E94E8
:103260000C07C6FF08C06091A60170E084E496E0F8
:10327000CF910C943007CF910895FF920F931F9335
:10328000CF93DF93F82E092F192F107287FD08C0F6
:1032900096FD06C01123C1F184E797E00E945D0B03
:1032A00083EC0E949B128091C9019091CA0148E170
:1032B000489F9001499F300D1124C9010C9668E682
:1032C00071E00E94883664507109C62F77FF02C0F2
:1032D000C8E1C60F111102C0D9E001C0DAE0EC2F3D
:1032E000F0E0E15BF84F84910E94CF12CF5FC831CC
:1032F00008F0C0E0D15099F787E80E949B12F7FCD4
:1033000014C006FD04C011C087E697E0C7CF1111B5
:1033100003C088E397E002C084E497E0DF91CF9197
:103320001F910F91FF900C945D0BDF91CF911F9136
:103330000F91FF900895AF92BF92CF92DF92EF92DC
:10334000FF921F93CF93DF9300D000D0CDB7DEB7AD
:103350008091A3018A3009F07DC0A0905F01B090F8
:10336000600188EEA81683E0B80654F489E1A81637
:103370008CEFB8064CF489E1A82E8CEFB82E04C06F
:1033800097EEA92E93E0B92EE0911807F091190756
:103390003996149160915E0170E086E897E00E9492
:1033A00030070E942307609161017091620180E003
:1033B00090E00E94F9396B017C010E948B099B010E
:1033C000AC01C701B6010E945A3AAB01BC01212FE2
:1033D0008AE796E00E9482070E9426078091630197
:1033E000909164010E94D3082091C9013091CA01D3
:1033F000821B930B0E94A8080E940C0782E897E0AA
:103400000E945D0B0E948B099B01AC01B501BB0CB6
:10341000880B990B29833A834B835C830E94FB3989
:1034200029813A814B815C810E945A3AAB01BC01EF
:10343000212F8AE796E00F900F900F900F90DF9169
:10344000CF911F91FF90EF90DF90CF90BF90AF9002
:103450000C9482070F900F900F900F90DF91CF91F7
:103460001F91FF90EF90DF90CF90BF90AF900895A5
:1034700087FD04C00E942B0E0E94CF126091C901EB
:103480007091CA0184E496E00E94300785E00C94B4
:103490009B1265EB71E0892F0C94D61461EB71E0FF
:1034A000892F0C94D6141F93CF93DF934091B501CD
:1034B0005091B6016091B7017091B801452B462B30
:1034C000472B69F44091B1015091B2016091B30171
:1034D0007091B401452B462B472B09F445C094FD50
:1034E00002C01FEF01C010E2C92FD82F809106073C
:1034F000882301F1809112078A3050F081E397E030
:103500000E945D0B812F0E94CF128AE297E00DC0CE
:10351000809113078A3070F081E397E00E945D0B81
:10352000812F0E94CF1281E297E0DF91CF911F910E
:103530000C945D0BD7FD03C083E00E949B1261EBEE
:1035400071E08C2F0E94D614812F0E94CF12D7FDDC
:1035500003C084E00E949B1265EB71E08C2FDF9129
:10356000CF911F910C94D614DF91CF911F910895A4
:1035700096FB442740F96091DC017091DD01809158
:10358000DE019091DF010C94C714CF93DF93D82F05
:10359000C92F0E942D0788E00E949B126091DC01D8
:1035A0007091DD018091DE019091DF0140E00E9489
:1035B000C7140E940F21C6FF05C06C2F8AE08D0F33
:1035C0000E944E1383E00E949B1261EB71E080E049
:1035D0000E94D6140E94260784E00E949B1265EB8D
:1035E00071E080E0DF91CF910C94D6141F93CF93BC
:1035F000DF931F92CDB7DEB797FD2DC0192F91E055
:1036000090931607912F0E947C0A282F60911A022E
:1036100070911B0280E090E029830E94F939AB0190
:10362000BC0129818EEC96E00E943A081295117037
:103630006091CE067091CF068091D0069091D10610
:103640000E949F38DC01CB01612F0F90DF91CF9159
:103650001F910C94041881E090916D02911101C0AA
:1036600080E0809316070F90DF91CF911F9108950E
:103670001F93CF93DF931F92CDB7DEB7192F0E9410
:103680007C0A282F60911D0270911E0280E090E05C
:1036900029830E94F939AB01BC0129818AEC96E0AB
:1036A0000E943A08129511706091CA067091CB067B
:1036B0008091CC069091CD060E949F38DC01CB0111
:1036C000612F0F90DF91CF911F910C9404180F93ED
:1036D0001F93CF93DF931F92CDB7DEB7192F0E94B0
:1036E0007C0A282F6091140270911502072E000C9D
:1036F000880B990B29830E94FB39AB01BC012981FE
:1037000086EC96E00E943A0814FD03C005E117E03C
:1037100002C00BE117E02AE037ED43E25CE3609181
:10372000C6067091C7068091C8069091C9060E948E
:103730005A3AAB01BC012EE0C8010F90DF91CF9146
:103740001F910F910C94820796FB882780F9809334
:10375000170780910807882371F097FD0CC06091CE
:10376000D8017091D9018091DA019091DB010E941A
:10377000FB390C94950908951F93CF93DF93382F4D
:10378000192F2091E2012F55C0911C02263008F01C
:103790004FC0D0E080E09C2F64E670E00E94743659
:1037A000CB016138710540F029E820931001805861
:1037B0009109E1E1F1E012C02DE82093110162319D
:1037C000710550F420910607222331F020E2209366
:1037D00010012093110109C0E0E1F1E06AE170E01D
:1037E0000E9474362DE8261B208337FF0E943E0579
:1037F00016FF0AC0BE0186E897E00E943007DF91FD
:10380000CF911F910C9420076091D2067091D3063E
:103810008091D4069091D5060E94983888ED97E063
:103820000E94300781E0DF91CF911F910C949B1291
:1038300024E6C29FC00111246FEF70E00E94883619
:10384000EB01A8CF1F93CF93DF93CDB7DEB7689777
:103850000FB6F894DEBF0FBECDBF182F88E1189FBA
:10386000B001112460587D4F48E150E0CE0101962F
:103870000E94F00DE12FF0E0EE0FFF1FE15EFD4F23
:103880006081718180E090E00E94F93929813A815C
:103890004B815C810E945A3A2D813E814F8158852F
:1038A0000E9443379F938F937F936F93CE01099626
:1038B0009F938F938AE297E09F938F930E94FE20BD
:1038C0000FB6F894DEBF0FBECDBF68960FB6F89462
:1038D000DEBF0FBECDBFDF91CF911F9108952F9214
:1038E0003F924F925F926F927F928F929F92AF9290
:1038F000BF92CF92DF92EF92FF920F931F93CF93DD
:10390000DF93CDB7DEB763970FB6F894DEBF0FBE77
:10391000CDBF6C874A016901CE0101963C01F401DB
:103920008C8580FD259180FF21914F01222309F490
:103930005BC3253241F480FD259180FF21914F0129
:10394000253291F409C02A3039F46DE08AE297E01B
:103950002B8B0E946D122B89622F8AE297E00E94C6
:103960006D1256016501DBCF10E0F12C00E0003252
:10397000A0F42B3269F030F4203259F0233269F48C
:1039800000612CC02D3239F0203339F4016026C09B
:103990000260046023C0086021C007FD28C080EDDC
:1039A000820F8A3078F406FF06C0FAE01F9F800D70
:1039B0001124182F13C02AE0F29E800D1124F82E36
:1039C00000620CC02E3221F406FD0EC3006406C056
:1039D0002C3611F4006802C0283649F4F4018C85B5
:1039E00080FD259180FF21914F012111C0CF8BEBEC
:1039F000820F833018F40061205E06C08BE9820FCD
:103A0000833008F06CC10F7E06FF16E00F73502E56
:103A1000253621F4902F9064592E08C0263621F4C3
:103A2000E02FE0685E2E02C01111115057FE06C053
:103A30001C3350F4EE24E394E10E08C0183040F03B
:103A4000E12C27E017E006C05CE3E52E27E002C08A
:103A5000212FE12C5601F4E0AF0EB11CF60160817C
:103A60007181828193810E2DA3010E9496216C01A8
:103A7000098100FF02C003FF07C051FC08C052FECD
:103A800009C040E2442E07C03DE2432E04C02BE2B1
:103A9000422E01C0412C802F8C7019F0411063C25E
:103AA0009CC257FE0FC0EC0C04FF04C08A81813316
:103AB00009F4EA941E1474F5F8E0FE1578F598E020
:103AC000E92E2CC056FC2AC0812F90E08C159D0554
:103AD0009CF02CEFC2162FEFD20674F0852D806873
:103AE000582E0AC0E2E0F0E0EC0FFD1FE10FF11DDF
:103AF0008081803319F411501111F4CF57FE0EC09C
:103B0000EE24E394E10E812F90E0C816D9062CF440
:103B10001C1904C0EE24E39401C010E057FE06C057
:103B20001C141D0434F4C601019605C085E090E024
:103B300002C081E090E041100196112331F0212F65
:103B400030E02F5F3F4F820F931F2F2D30E0821701
:103B5000930714F4F81A01C0F12C852D897049F4EB
:103B6000FF2039F060E28AE297E00E946D12FA9439
:103B7000F7CF442029F0642D8AE297E00E946D126D
:103B800053FC09C0FF2039F060E38AE297E00E940D
:103B90006D12FA94F7CF57FE54C09C2D8D2DD7FE91
:103BA00002C090E080E0292E382E412C512CF601E5
:103BB000EE19F109FE87ED87C60182199309988BEA
:103BC0008F87612F70E0EE27FF27E61BF70BFA8B3C
:103BD000E98BFFEF2F163F0629F46EE28AE297E0A9
:103BE0000E946D12C214D3046CF08D859E858215DF
:103BF000930544F4EF85F889E40DF51DE60DF71DF6
:103C0000618101C060E391E0291A3108EFEF4E1A9B
:103C10005E0A89899A89281639062CF08AE297E08B
:103C20000E946D12D6CF2C143D0409F053C08A8136
:103C3000863328F4853309F04DC004FD4BC061E3A1
:103C400049C06A81613309F00F7E8AE297E00E94E1
:103C50006D12111104C054FC17C065E616C06EE267
:103C60008AE297E00E946D1282E0EE24E394E80E6F
:103C7000F301E80FF11D60818AE297E00E946D1266
:103C800011508E2D91F7E7CF65E48AE297E00E940C
:103C90006D12D7FC05C0C114D10439F404FF05C06E
:103CA000D194C194D1086DE201C06BE28AE297E041
:103CB0000E946D1260E3EAE0CE16D1042CF06F5F33
:103CC0009AE0C91AD108F7CF8AE297E00E946D12F4
:103CD00060E36C0D8AE297E00E946D1258C12336B2
:103CE00031F0233781F0233509F055C020C056014B
:103CF000F2E0AF0EB11CF601808189834424439425
:103D0000512C630112C05601F2E0AF0EB11CF60156
:103D1000C080D18006FF03C0612F70E002C06FEF4A
:103D20007FEFC6010E94E9392C010F7713C05601BD
:103D3000F2E0AF0EB11CF601C080D18006FF03C0D7
:103D4000612F70E002C06FEF7FEFC6010E94DE3985
:103D50002C01006803FD1BC08F2D90E0481659060A
:103D6000B0F460E28AE297E00E946D12FA94F4CF18
:103D7000F60107FD659107FF61916F018AE297E007
:103D80000E946D12F110FA94F1E04F1A510841149B
:103D9000510471F7FCC0243611F0293661F5560143
:103DA00007FF09C024E0A20EB11CF60160817181F9
:103DB000828193810AC0F2E0AF0EB11CF6016081EE
:103DC0007181072E000C880B990B0F76C02E97FF80
:103DD0000AC090958095709561957F4F8F4F9F4F4A
:103DE000F02FF068CF2E2AE030E0A3010E946E226F
:103DF000D82ED61848C0253729F40F7EE02E2AE0A9
:103E000030E025C0802F897FE82E2F36C1F018F4CE
:103E1000283579F0E9C0203719F0283721F0E4C0BF
:103E2000982F9061E92EE4FE0DC0EE2DE460EE2E99
:103E300009C004FF0AC0F82FF660EF2E06C028E084
:103E400030E005C020E130E002C020E132E0560160
:103E5000E7FE09C084E0A80EB11CF6016081718103
:103E60008281938108C0F2E0AF0EB11CF60160813F
:103E7000718180E090E0A3010E946E22D82ED618B6
:103E8000FE2DFF77CF2EC6FE0BC00C2D0E7FD11658
:103E900050F4C4FE0AC0C2FC08C00C2D0E7E05C042
:103EA000ED2C0C2D03C0ED2C01C0E12E04FF0DC044
:103EB000FE01ED0DF11D8081803311F4097E09C0F2
:103EC00002FF06C0E394E39404C0802F867809F0D3
:103ED000E39403FD11C000FF06C01D2DEF1418F47C
:103EE0001F0D1E19EF2CEF1458F460E28AE297E0E0
:103EF0000E946D12E394F7CFEF1410F4FE1801C086
:103F0000F12C04FF0DC060E38AE297E00E946D127D
:103F100002FF14C001FD02C068E70CC068E50AC0DA
:103F2000802F867859F001FF02C06BE201C060E289
:103F300007FD6DE28AE297E00E946D12D11638F417
:103F400060E38AE297E00E946D121150F7CFDA9495
:103F5000F301ED0DF11D60818AE297E00E946D1280
:103F6000D110F5CF14C024E02F1520F584E0F81A05
:103F700053FE17C041101FC003FF23C00BE818E019
:103F8000F52DF0715F2EF801649161111DC0FF20C5
:103F900009F4E8CC60E28AE297E00E946D12FA949C
:103FA000F6CF60E28AE297E00E946D12FA94F11077
:103FB000F8CFE0CFF12C642D8AE297E00E946D12D9
:103FC000DBCF07E818E0DCCF511060528AE297E0BF
:103FD0000E946D120F5F1F4FD6CF83E08F1510F434
:103FE00083E0C5CFF12CC8CF63960FB6F894DEBF3F
:103FF0000FBECDBFDF91CF911F910F91FF90EF903A
:10400000DF90CF90BF90AF909F908F907F906F90F8
:104010005F904F903F902F900895CF93DF93CDB74F
:10402000DEB79E01275F3F4F4F81588561E08AE2EE
:1040300097E00E946F1CDF91CF9108957F936F935B
:104040009F938F938FE798E09F938F938AE297E0F7
:104050009F938F930E940D208DB79EB708960FB641
:10406000F8949EBF0FBE8DBF0895009769F0FC01C4
:1040700001900020E9F73197AF01481B590BBC01B3
:104080008AE297E00C94B20F80E090E008958F925E
:104090009F92AF92BF920F931F93CF93DF93CDB7B1
:1040A000DEB7A1970FB6F894DEBF0FBECDBF19A241
:1040B000423008F44AE08E010F5D1F4F842E912C90
:1040C000A12CB12CA50194010E949C36E62FB901C8
:1040D000CA0101501109EA3014F4E05D01C0E95C45
:1040E000D801EC93232B242B252B61F7C8010E94C8
:1040F0003520A1960FB6F894DEBF0FBECDBFDF917D
:10410000CF911F910F91BF90AF909F908F90089586
:104110009F92AF92BF92CF92DF92EF92FF920F9356
:104120001F93CF93DF93CDB7DEB72A970FB6F894DE
:10413000DEBF0FBECDBFD62EB72EC42EA22E9EEF51
:1041400099834A83309121073B83909112019C838C
:10415000909113019D838E833F5F309321078FEFF2
:104160009FEF98878F838E010E5F1F4F7E0187E040
:10417000E80EF11C0E151F0539F0B701F801819109
:104180008F010E94390FF6CF8F8198859A87898792
:104190000D2D1B2D9C2C9D0CBE01675F7F4F901633
:1041A00031F0F80181918F010E94390FF5CF8A2DEE
:1041B0000E94390F99858A859F83888766E0CE01A2
:1041C00001960E940F156C2D8D2D9B2D0E940F15B1
:1041D00062E0C7010E940F152A960FB6F894DEBF61
:1041E0000FBECDBFDF91CF911F910F91FF90EF9048
:1041F000DF90CF90BF90AF909F900895CF93DF93C3
:10420000CDB7DEB79E01275F3F4F4F81588560E0F5
:104210008AE297E00E946F1CDF91CF910895DF92B0
:10422000EF92FF920F931F93CF93DF93C9E3D8E0F0
:10423000FE01059114910115110509F46FC0FE01ED
:104240003296849181110E94CF12FE01339684919F
:104250003196E590F490893691F030F4813609F486
:104260003FC08836C1F004C08337F1F0863729F1AA
:1042700050E2D52E60E070E080E89FE33AC0F7019D
:1042800060817181072E000C880B990B0E94FB390D
:1042900040E2D42E35C0E0911807F0911907399605
:1042A000D4900E948B0925C0E0911807F09119075E
:1042B0003896D4900E9443091CC00E948B0920911B
:1042C0000D07211114C0E0911807F091190772969B
:1042D000D49020E030E040E752E40E945A3A09C00E
:1042E00031E4D32E6AE077ED83E29CE302C028E15B
:1042F000D22EF70120813181428153810E945A3AA6
:104300002D2DAB01BC01C8010E9482070E94260727
:104310002796F8E0CF37DF0709F08ACFDF91CF91FA
:104320001F910F91FF90EF90DF900895283008F0D3
:1043300027E03327DA01990F311D87FD9160009640
:104340006105710539F432602E5F3D9330E32A95A3
:10435000E1F708959F3F30F080387105610509F05D
:104360003C5F3C5F3D93913008F08068911DDF9386
:10437000CF931F930F93FF92EF92192F987F9695EB
:10438000E92F96959695E90FFF27E15EF64F99275D
:104390003327EE24FF24A701E70105900894079432
:1043A00028F4360FE71EF81E491F511D660F771FB0
:1043B000881F991F0694A1F70590079428F4E70E2B
:1043C000F81E491F561FC11D770F881F991F661FB2
:1043D0000694A1F70590079428F4F80E491F561F7C
:1043E000C71FD11D880F991F661F771F0694A1F75D
:1043F0000590079420F4490F561FC71FD81F990F27
:10440000661F771F881F0694A9F78491109517706F
:1044100041F0D695C79557954795F794E7941A9527
:10442000C1F7E5ECF8E06894159015913591659128
:10443000959105907FE27395E118F10A430B560BB5
:10444000C90BD009C0F7E10CF11E431F561FC91F4D
:10445000D01D7EF4703311F48A95E6CFE8940150B4
:1044600030F0080F0AF40027021708F4202F2395D4
:10447000022F7A3328F079E37D932A95E9F710C06B
:104480007D932A9589F606949795679537951795A4
:104490001794E118F10A430B560BC90BD00998F099
:1044A00023957E9173957A3308F070E37C93201303
:1044B000B8F77E9170617D9330F0839571E37D93C1
:1044C00070E32A95E1F71124EF90FF900F911F916F
:1044D000CF91DF91992787FD90950895FA01AA273A
:1044E000283051F1203181F1E8946F936E7F6E5F37
:1044F0007F4F8F4F9F4FAF4FB1E03ED0B4E03CD0E5
:10450000670F781F891F9A1FA11D680F791F8A1FC7
:10451000911DA11D6A0F711D811D911DA11D20D02E
:1045200009F468943F912AE0269F11243019305DE8
:104530003193DEF6CF010895462F4770405D4193D9
:10454000B3E00FD0C9F7F6CF462F4F70405D4A3326
:1045500018F0495D31FD4052419302D0A9F7EACFEE
:10456000B4E0A6959795879577956795BA95C9F71D
:1045700000976105710508959B01AC010A2E069410
:104580005795479537952795BA95C9F7620F731FC9
:10459000841F951FA01D0895CF92DF92EF92FF9286
:1045A0000F931F93E82FF92F05C00150110921091E
:1045B000310961F1908196239417B9F305C0015038
:1045C00011092109310911F1908196239413F7CF34
:1045D000C12CD12CE12CF12C0AC08FEFC81AD80ABB
:1045E000E80AF80A0C151D052E053F0579F08081B3
:1045F0008623841791F36C2D7D2D8E2D9F2D1F9179
:104600000F91FF90EF90DF90CF90089560E070E001
:1046100080E090E01F910F91FF90EF90DF90CF909E
:104620000895CF93DF93CDB7DEB7A2970FB6F89476
:10463000DEBF0FBECDBF789484B5826084BD84B5E3
:10464000816084BD85B5826085BD85B5816085BD8D
:1046500080916E00816080936E0010928100809145
:1046600081008260809381008091810081608093CD
:104670008100809180008160809380008091B100F2
:1046800084608093B1008091B00081608093B0001D
:1046900080917A00846080937A0080917A008260B1
:1046A00080937A0080917A00816080937A00809173
:1046B0007A00806880937A001092C1000FB6F89457
:1046C000A8958091600088618093600010926000DE
:1046D0000FBE60E071EE80E090E00E942D124EE48B
:1046E00050E060E072E08BE292E00E94F00D809179
:1046F0002B0281FD03C089E592E002C08CE692E0C6
:104700009093190780931807809145028F3421F404
:10471000809146028A3119F081E08093140784B5B4
:104720008C7F84BD80912C0284FF02C081E001C097
:1047300083E08093000180917A008B7F80937A00E0
:1047400080917A00866080937A00809169008C7FE6
:10475000826080936900E89A80913002813059F438
:1047600062E083E00E94181180916900837F846079
:1047700080936900E99A86E297E090938A02809399
:104780008902E9ECF2E064918F010F5F1F4F66230D
:1047900031F086E297E00E946D12F801F4CF5E9A44
:1047A0000E947412789480914702893341F4809179
:1047B0004802833321F480914902843389F089E3EC
:1047C0008093470283E38093480284E38093490205
:1047D00043E050E06CE172E087E492E00E94C20D99
:1047E00080917802882351F01092780241E050E0E5
:1047F0006DE472E088E792E00E94C20D8091700241
:10480000882349F1E0917102EE2329F1F0E0EC53A5
:10481000FD4F1491212F30E0F901EF54FD4F949199
:10482000F901E356FD4F249120930302E92FF0E0B4
:10483000EE0FFF1FED56FD4F8591949190933D0132
:1048400080933C01222319F080E00E94101461E063
:10485000812F0E94181161E086E00E94181162E029
:1048600082E00E94181161E08AE00E941811E9E8D4
:10487000F2E08491E7EAF2E00491EBEBF2E01491CC
:10488000112389F081110E94EF10E12FF0E0EE0F6B
:10489000FF1FED56FD4FA591B4918FB7F894EC91A1
:1048A000E02BEC938FBF0E94E4130E9476130E94CA
:1048B000C3130E949C0D0E94270F81EA91E022E31E
:1048C000281B2F8F80E092E0AC014B52524059A33D
:1048D00048A3A89578940E94AB116C8B7D8B8E8B2E
:1048E0009F8B28EE33E040E050E00E949C363093EE
:1048F0008802209387026C897D898E899F896C3D0F
:1049000075408105910520F080911407882319F0E6
:104910000E949C0DDECFF0901604FF2009F43BC0EE
:1049200080911107811137C013E0D12EEE24E3945A
:1049300002ED12E0F801319684916091A80266239D
:1049400039F0880F880F0E946836811101C081E01C
:10495000F801249190E09A838983FB821C822D8345
:10496000EE8224E946E0BE016F5F7F4F82E40E9441
:1049700088200E5F1F4FF2E00E3D1F07D9F666E953
:1049800070E080E090E00E947111DA94D110D0CFF5
:1049900081E080931107A9EAEA2EA2E0FA2EB0E4A2
:1049A000CB2EDD24D3948091FC06811109C0809127
:1049B000FD06811105C080910607882309F450C2C5
:1049C00001E010E069E0A62EB12C76E0272E312C14
:1049D000E5E04E2E512CF3E06F2E712CA4E08A2ED0
:1049E000912CB2E0EB2EF12CCC24CA94DC2C0E944A
:1049F0001E12882309F42AC20E940112282F109245
:104A00001A0780911D0790911E078B30910508F0C1
:104A1000C6C0FC01EC5CFF4F0C94DD3610922507FC
:104A2000109224072E3F29F010931E0700931D07B4
:104A3000B6C0F0921E07E0921D071092AC02D09211
:104A4000AA02C092A902ABC02093AC0210921F0729
:104A5000622F89EA92E00E945B0F90921E0780927B
:104A60001D079DC02093AD02622F89EA92E00E944B
:104A70005B0F70921E0760921D0791C02093AE02DB
:104A8000622F89EA92E00E945B0F50921E074092CB
:104A90001D0785C02093AF02622F89EA92E00E9431
:104AA0005B0F30921E0720921D0779C02093B00241
:104AB000622F89EA92E00E945B0F8091AC02811123
:104AC00007C028E030E030931E0720931D0767C021
:104AD00047E050E050931E0740931D0760C0E091EF
:104AE0001F0781E08E0F80931F07F0E0EF54FD4F0A
:104AF0002083622F89EA92E00E945B0F90911F074A
:104B00008091AC0298134BC0DCCFE091B002F0E092
:104B1000E252FD4F649189EA92E02AA30E945B0F62
:104B20002AA1422F50E08091A9029091AA029927D0
:104B30004817590751F02E3F09F47BCF6AE070E027
:104B400070931E0760931D072AC0B0921E07A092A3
:104B50001D07E0911F07F0E0EF54FD4F1FC0422FEB
:104B600050E07091AA02798F1A8EA98DBA8D4A17DA
:104B70005B0711F40A9731F480911C078F5F8093D3
:104B80001C0750CFB1E0B0931A0710931E07009393
:104B90001D07E0911F07F0E0EE54FD4F20832091A8
:104BA0001A07222399F08091AD028093200780910B
:104BB000220790912307009721F410922507109265
:104BC0002407019690932307809322078091200762
:104BD0008F5F8F8380912207909123079A8789871F
:104BE00080911C0790E09C878B8780911B078A83AC
:104BF00010921C07222309F409C10E94FC0780912E
:104C0000B002833809F099C09091AE028091A7025A
:104C1000981393C08091AF02843609F08EC08091C2
:104C2000B1029091B2022091A5023091A6028217A2
:104C3000930709F482C09093A6028093A502809105
:104C4000B3028E3E09F079C08091B4028F3409F02E
:104C500074C08091B502833509F06FC08091B602AF
:104C6000843409F06AC08091B702823721F1873716
:104C700021F0823609F061C011C06091B802409104
:104C8000B90250E0E0E86E9FB00111248AEB92E097
:104C90000E94C20D81E080930E074FC08091B9023F
:104CA00081114BC080910E07882309F446C0EE277E
:104CB000FF27099442C06091B8024091B90250E0C8
:104CC000F0E86F9FB00111248AEB92E00E94F00D92
:104CD0008EEF8093AB028FEF8093AC0283E88093DA
:104CE000B002809112018093AE0284E68093AF02FD
:104CF0008FEF9FEF9E878D870CEA12E0BE01635F06
:104D00007F4FB3E0003B1B0731F0D8018D918D013F
:104D10000E94390FF3CF8FED0E94390F66E08BEAC6
:104D200092E00E940F156FEF81EB92E00E940F1549
:104D300062E0CE010D960E940F158091B00288238B
:104D400089F020911604222311F40C9436329091AC
:104D5000AE02291711F40C943632933309F076C061
:104D60000C9436328091B502863049F48091AE02BF
:104D70008093A7021092A6021092A50267C0853008
:104D800009F464C08A3109F461C08091B60280934D
:104D90006E018091B70287FB882780F98093010715
:104DA0008091B1028093A3018091AE02809316049A
:104DB0008091A402811121C08091A302882391F0E7
:104DC000809113078A3020F48F5F8093130719C0F6
:104DD000109211078091A8028F3798F4880F809362
:104DE000A8020FC0809112078A3020F48F5F809351
:104DF000120707C01092110704C0109213071092F7
:104E000012071092A4021092A30220C00E943F0B2E
:104E1000EECD8F3310F00C94F7348D3111F40C94E7
:104E2000B43210F00C949E33823011F40C94BE32E4
:104E300010F40C941633883111F40C9438338B3100
:104E400029F48091A3028F5F8093A3028091FC06D6
:104E50008093FD068091FA06882309F4B0C171C0E1
:104E6000F7012C2D11922A95E9F71092C1000E94AA
:104E7000AB114B015C0134E6830E911CA11CB11CEB
:104E80000AEF1FEF0E94AB1186169706A806B90617
:104E9000A8F024EC39E040E050E060E080E00E94BF
:104EA000BD106F3F71058105910509F02CF4662353
:104EB00019F0611708F4162F015021F71F3F19F45C
:104EC0001091010102C0109301011B3068F01331F1
:104ED00070F01D3178F0183280F01C3388F01639EC
:104EE00090F021E080E411C028E182E00EC02CE0C7
:104EF00084E00BC028E086E008C026E088E005C01A
:104F000024E080E102C022E080E28093A80230E049
:104F1000A0ECB2E10E942E3B4B015C016093CA03FE
:104F20007093CB038093CC039093CD0386E297E0FC
:104F30000E942310C501B4010E942D12D092FD06DB
:104F400032CDF090F50180913002833008F42CC10D
:104F5000833029F40091A4011091A50111C09BEFA9
:104F6000980F943048F4E82FF0E0EE0FFF1FEE5F4B
:104F7000FD4F0081118104C00091120210911302B3
:104F80009801205233402939384008F00DC1209152
:104F90000501309106010217130720F41093060152
:104FA000009305012091030130910401201731077E
:104FB00020F41093040100930301843029F510912B
:104FC000A3018AEF810F823008F4BDC08091C10334
:104FD000811779F01093C10360E070E08DEB93E0EE
:104FE0000E94650A80910201181303C081E080933A
:104FF000FE068DEB93E00E94C608813D974008F4C1
:10500000A2C0109302019FC08091350281111FC080
:1050100080910301909104012091050130910601D6
:10502000609172022017310758F4021B130B821B88
:10503000930B70E00E947436C8010E94743601C060
:1050400060E0F61609F47FC06093F5017CC08091A2
:105050002B0282FF39C0C090BB03D090BC030C155B
:105060001D0509F441C0C8018C199D09893C9105B1
:10507000D8F18091B9039091BA030817190731F05C
:10508000B801681B790B683C710578F48DEB93E0EF
:105090000E94C608893E934018F081E08093FE0686
:1050A0001092BA031092B9031FC060E070E08DEB5C
:1050B00093E00E94650AD092BA03C092B90310939C
:1050C000BC030093BB0310C0209103013091040185
:1050D0008091050190910601280F391F369527957B
:1050E00081E02017310708F080E090912B0290FFBB
:1050F00010C0882321F081E08093FF0624C08091B6
:10510000FF06882319F081E08093FE061092FF06C7
:105110001AC08823C1F08090BD039090BE03A09078
:10512000BF03B090C0030E94AB1186169706A80675
:10513000B90648F481E08093FE0664EF71E08DEBE0
:1051400093E00E94650A8091FE06882369F0109220
:10515000FE068091F5018F5F8093F50190917202B8
:10516000981710F41092F5018091F501F816E1F00E
:105170000E94270F80911007811114C0AFE6B1E0A3
:10518000E6EEF3E084918D9331968111FBCF9091FF
:10519000F50180917601890F8093760163E088E0C4
:1051A0000E942B09109210078091FB06811105C007
:1051B00081E08093FB06809386021092FA0680912C
:1051C000FB06882309F44EC18091860281114AC1F1
:1051D0001092FB068091CB01882319F091E0909307
:1051E0000C079091FA01998B9B3008F023C49091A1
:1051F0000107911130C490930207909108079923F9
:1052000009F438C480910807811154C486EC93E0F6
:105210000E94C6089B8B8A8B60E070E086EC93E06E
:105220000E94650A2A893B89B90180E090E00E94CA
:10523000F9390E943C094B015C01609114027091A4
:105240001502072E000C880B990B0E94FB396B018D
:105250007C0160911D0270911E0280E090E00E942E
:10526000F93920E030E543EC57E40E942638A701E5
:1052700096010E945A3AAB01BC012AE08BEE91E004
:105280000E943A08109109014090E7015090E8010E
:105290006090E9017090EA010E948B099B01AC01CA
:1052A000C301B2010E945A3A20E030E040E752E4E4
:1052B0000E945A3AAB01BC01212F83EE91E00E947B
:1052C0003A0820911C028091E201082E000C990BF3
:1052D000422F50E08417950714F42093E201809147
:1052E0002F02882309F489C4A5019401C701B601DE
:1052F0000E945A3A20E030E044EB53E40E94263802
:10530000AB01BC0182ED96E00E9428088091D50394
:105310009091D6032091390220FD98C42090730209
:1053200030907402009175021091760202151305F7
:105330000CF085C4322D232D1801032F122F41E0CC
:10534000488F322D232D2816390614F4382F292F93
:10535000632F722F061717070CF4B801621973092F
:1053600080E090E00E94F9396B8F7C8F8D8F9E8F4B
:10537000B8016219730980E090E00E94F9399B013D
:10538000AC016B8D7C8D8D8D9E8D0E94263820E02A
:1053900030E048EC52E40E945A3A0E949838653650
:1053A00071050CF44EC464E670E0588D552331F05D
:1053B00084E690E0DC01A61BB70BBD017093E10110
:1053C0006093E0018091050780FD45C40E9476133B
:1053D00080912F02109101078111E8C41111B7C407
:1053E0001093020780917202853018F084E0809358
:1053F000720286EF91E00E94C608853C994008F44D
:10540000E9C41092FB011092FC011092FD01109270
:10541000FE0162E085E00E944E1360918702709168
:1054200088028091EF019091F001681B790B8FEE5B
:1054300093E00E9430076091CA037091CB03809182
:10544000CC039091CD03611571058105910519F08B
:105450004AE00E94472083E094E40E94C51A81E05C
:10546000809385028091120490911304A0911404FA
:10547000B09115042C893D894E895F898217930765
:10548000A407B507E0F464E170E082E194E00E94D3
:10549000560A80910302882319F081E00E941014BB
:1054A00080918502882359F080918602882339F003
:1054B00081E892E00E94C608C39708F09FC78091D8
:1054C0000E0490910F04A0911004B09111044C8926
:1054D0005D896E897F8984179507A607B70708F04D
:1054E00059C264E670E08EE094E00E94560A809112
:1054F0002B0284FD05C080912702882309F49AC0FD
:1055000010910D011F5F10930D0180E10E94541155
:105510001770E12FF0E0EE0FFF1FE850FC4F918372
:10552000808360E070E088E08150E82FF0E0EE0FCB
:10553000FF1FE850FC4F20813181620F731F8111E2
:10554000F3CF20911F023091200247E0429FC0011B
:10555000439F900D1124860F971F23E09695879502
:105560002A95E1F79093200280931F0280912B02ED
:1055700084FF60C080E090E00E94F93920914D02E4
:1055800030914E0240914F02509150020E945A3A7F
:1055900029E53EEE49E050E40E945A3A0E949F38C5
:1055A00040911D0250911E024115510529F470933E
:1055B0001E0260931D0212C09A01220F331F240F96
:1055C000351F2E5F3F4FA901460F571F5695479530
:1055D0005695479550931E0240931D0281E080939B
:1055E000FA06E09134028E2F61E20E946836482F5D
:1055F00080911D0290911E02C29664E670E00E94A6
:105600007436F0E09B012E1B3F0BAFEFB0E00E9421
:105610002E3B5AE2459F900111242E1B3F0B032E77
:10562000000C440B550B0E94BE36C9010E9439156F
:1056300080931C0280912B0285FF04C08091160785
:10564000811105C080912802882309F497C0109128
:105650000C011F5F10930C018EE00E945411177013
:10566000E12FF0E0EE0FFF1FE851FC4F91838083A4
:1056700060E070E088E08150E82FF0E0EE0FFF1F5F
:10568000E851FC4F20813181620F731F8111F3CFEC
:10569000209121023091220247E0429FC001439FA6
:1056A000900D1124860F971FA3E096958795AA95D4
:1056B000E1F7909322028093210280912B0285FFD3
:1056C0005DC080E090E00E94F93920915102309154
:1056D000520240915302509154020E945A3A29EAD0
:1056E0003CEC48E050E40E945A3A0E949F384091B6
:1056F0001A0250911B024115510529F470931B02A7
:1057000060931A0212C09A01220F331F240F351F13
:105710002E5F3F4FA901460F571F56954795569547
:10572000479550931B0240931A02E0916D028E2F11
:1057300061E20E946836482F80911A0290911B0204
:10574000C29664E670E00E947436F0E09B012E1B66
:105750003F0BAFEFB0E00E942E3BAAE24A9F9001C0
:1057600011242E1B3F0B032E000C440B550B0E94E3
:10577000BE36C9010E9439158093E70380912B0240
:1057800086FD05C080912902882309F47BC08091A1
:105790001802882351F020E137E240E050E061E058
:1057A0008FE00E94BD10CB0103C08FE00E94541116
:1057B000E0910B01EF5FE0930B01E770F0E0EE0F7B
:1057C000FF1FE952FC4F9183808360E070E088E026
:1057D0008150E82FF0E0EE0FFF1FE952FC4F2081CF
:1057E0003181620F731F8111F3CF20912302309119
:1057F000240247E0429FC001439F900D1124860F71
:10580000971F33E0969587953A95E1F79093240298
:105810008093230280912B0286FF34C080E090E0C9
:105820000E94F93920915502309156024091570259
:10583000509158020E945A3A2DE032E348EC5CE362
:105840000E945A3A0E949F384091140250911502CA
:105850004115510529F4709315026093140212C08A
:105860009A01220F331F240F351F2E5F3F4FA901CE
:10587000460F571F569547955695479550931502D5
:1058800040931402809139028695813041F050F1A5
:10589000823049F0833051F58091D30325C081E1F6
:1058A0000E94541109C020E23EE440E050E061E073
:1058B00081E10E94BD10CB010E9444152091590244
:1058C00030915A0240915B0250915C020E945A3A18
:1058D0000E949F387093D6036093D50381E0809334
:1058E000FA063AC08091D40390E004C0809112027D
:1058F000909113020E9444150E949F387093D60322
:105900006093D50380912A02882331F18091190296
:10591000882349F020E137E240E050E061E081E196
:105920000E94BD1004C081E10E945411BC0180910D
:1059300025029091260247E0489F9001499F300D33
:105940001124620F731F83E0769567958A95E1F7BE
:10595000709326026093250290910A0781E08927BF
:1059600080930A078823B1F080918002882369F030
:105970008F5F80938002833068F080917F028F5F19
:1059800080937F021092800205C080917F028F5F1A
:1059900080937F0280910A0490910B04A0910C04E3
:1059A000B0910D042C893D894E895F898217930738
:1059B000A407B50710F00C94692464EF71E08AE045
:1059C00094E00E94560A81E08093FA0680930907CA
:1059D000909109049F5F909309049091060798277E
:1059E00090930607992311F40C946924809300077F
:1059F00080911507882399F080917B0290917C0219
:105A0000A0917D02B0917E020196A11DB11D8093EF
:105A10007B0290937C02A0937D02B0937E028091E2
:105A20007A02882309F4F1C480917902853008F460
:105A300013C5EBC4209107013091080120373E4F78
:105A400009F0D5CB2091C9013091CA0130930801EA
:105A500020930701CCCB209102072111CCCB1092CF
:105A600008072091C9013091CA01309308012093A1
:105A70000701C1CB833008F4C5CB8CE0E1EBF1E04A
:105A8000ADEBB1E001900D928A95E1F781E0809352
:105A900008078091D0019091D101A091D201B091DD
:105AA000D3018093AD019093AE01A093AF01B09369
:105AB000B001A8CB8090BD019090BE01A090BF0125
:105AC000B090C00120E030E0A901C501B4010E94FE
:105AD000343925E33AEF4EE85CE318161CF4C501AF
