:100000000C94E3040C946D1C0C94FA1B0C940B05DB
:100010000C940B050C940B050C940B050C940B0520
:100020000C940B050C940B050C940B050C940B0510
:100030000C940B050C940B050C940B050C940B0500
:100040000C9492180C940B050C94580F0C942C0FD4
:100050000C940B050C940B050C940B050C940B05E0
:100060000C940B050C940B055E25622574258E25DA
:1000700082259A25A625BF25D525FF25FF25084AD7
:10008000D73B3BCE016E84BCBFFDC12F3D6C7431AC
:100090009ABD56833DDA3D00C77F11BED9E4BB4C03
:1000A0003E916BAAAABE000000803F05A84CCDB2CD
:1000B000D44EB93836A9020C50B9918688083CA6AE
:1000C000AAAA2ABE000000803F0664EC1B3C04BCC8
:1000D000163E3BE5B93CC93C37C29E5A3D66049882
:1000E000083EEA69AAAA3E000000803F5069746396
:1000F0006820696E204E54534300526F6C6C202070
:10010000696E204E54534300506974636820696ED1
:100110002050414C00526F6C6C2020696E20504181
:100120004C002020486F72697A6F6E20616E676C98
:10013000657300566572746963616C206F666673DF
:1001400000486F72697A6F6E74616C206F666673B7
:1001500000436F6E74726173740053637265656EF1
:100160007320436F756E7400202053637265656E53
:1001700020706172616D7300525353492077617230
:100180006E696E67004261747420636861726765AE
:10019000207761726E004F766572737065656420BA
:1001A0007761726E696E67005374616C6C20776161
:1001B000726E696E670042617474203220776172DA
:1001C0006E696E670042617474657279207761723E
:1001D0006E696E67002020204F534420736574754C
:1001E0007000252E336600252E30660025332E3113
:1001F0006676002201680000001501665F0225088E
:100200000166630225FA0066670225EC00666B0250
:1002100025D50100000000C50142360200B60142AA
:100220006F0200A801623502109601623402108547
:1002300001623C02107801623D021068010000007A
:10024000005A016274021151016233021241015AD3
:1002500071021333017A70021466666640000080F2
:100260003F100CBA000A00001BE8031A52B80E40F7
:1002700085EB51401966BB0012800C1CA0141E10A7
:100280000E0F1123317A7A7A7A7A0A000601020275
:1002900003050A0A0B020C01327C8900EDD968774C
:1002A000000000590000000000000000D69FDCA8FC
:1002B0001817AA90437327F6B968EDF4DED409FE47
:1002C000E61C1C84DDE80B992927D6DF8D210F035E
:1002D0006418EFEE1E99B7825276941500347C00B4
:1002E0000026149E988F0000006A31168F8C0596A8
:1002F00000E7B73F3600000000000000AF669ED068
:10030000385D8A6C20B95422007CED044C8038742E
:1003100086EDCBFA57CBDC19E2001DDF5506E5CBA5
:1003200001C30000000000000000009AB20086DB5C
:10033000D0BC5416131586004E44BD7F6F15159022
:10034000010000B50000000000002F0000AEE50035
:100350000000000000000000004700000000000056
:10036000000000000000000000000000000000008D
:10037000000000000000000000000000000000007D
:100380000000000000000000005A00000000000013
:1003900008CC31AA2C532E0002060A0F141E2D3C45
:1003A00053637265656E2030004E6F20696E707504
:1003B00074206461746121202575FF000000FF0036
:1003C0000100040000000300E1FF1F00F1FF0F0027
:1003D000FCFF0400C0E0401F9CFF640001000A0015
:1003E0006400E803EC01E701E20120284E54534386
:1003F0002900202850414C290011020C0000F30173
:10040000054B1A9308093B1A0000000000151D0E49
:100410000001E70F0002DF0F00030515BC84C314C1
:100420002605A80F000704140034FF130335FA1340
:100430000418C7150006A008000859120009E9139E
:1004400000257614008BAF150B0A5B130019691495
:10045000000CD413000D9B115C11EB091116E1097E
:10046000121224051417150513132D160214281241
:100470007F0F7215BD2E0310571BC9081D9C6D0AF6
:10048000151DA70F000ECE0A091E680C002190074B
:10049000002023110022240A8F2453111F2BEF0F59
:1004A0001F2CE010002DB710002F981000A71F116F
:1004B00000A81B1100A9171100AA1311001F330572
:1004C0000026C91200307E0F003173100033361041
:1004D00000230F100032BB19001A460B0000000069
:1004E0000046656E636520466172210046656E6355
:1004F000652048696768210046656E6365204C6F1A
:10050000772100426174742042206C6F772100488B
:10051000696768205653706565642100204C6F77C9
:100520002052737369210042617474657279204CA2
:100530006F7721004F7665725370656564210020E6
:10054000205374616C6C21004E6F2047505320661D
:100550006978210042616420436F6E6669673A20C2
:100560002564206D79203739004D696E696D4F53D0
:10057000442D4578747261204D41564C696E6B2054
:10058000322E34FF506C616E652072393334204452
:1005900056FF0025303269FF003A253032693A00B3
:1005A000B0B1B4B5B6B77B7DB8B9002534690500E4
:1005B00025352E3166002090910025322E306600C0
:1005C0002520342E3066002520342E31660025206B
:1005D000342E32660048053F05340527051C050FFB
:1005E000050305F804EC04E104716C6F690071689F
:1005F0006F76007173746200696E69740067756963
:1006000064006C6F69740072746C006175746F00C3
:100610006174756E006372757A0066627762006657
:10062000627761006163726F007472616900737454
:100630006162006369726300696E6974006D697359
:1006400073006D5F256400706F736800616C74687F
:10065000006D616E750061726D00253469050700DB
:1006600025346905060025352E32660025342E31E5
:1006700066006F7665726C6F61640066726F7A6592
:100680006E0053747265616D00FF20CECECECE60D9
:10069000CECECECE00FF20202024CB7C40CB240029
:1006A000828081808180848081808180838081803C
:1006B000818085808180818020C8C8C8C87EC8C8E4
:1006C000C8C820FF0020202024CBB8B9CB2420208C
:1006D00020FF002058650025326900510633062EA0
:1006E00006290624061F061A061506100642060BE2
:1006F000060706020642064206FD05F805F305EE6A
:1007000005E905560651064C06470642063D0642D7
:10071000064206380625342E326600256900432538
:100720006920002E253032640025346900253369A4
:100730000025332E30660020207820207920207A72
:10074000FF0025392E3566002531302E366600250E
:1007500030356C64002530366C640020B3FF20B364
:10076000FF20C5FF20B3FF20B300B2FFB2FFC6FFDA
:10077000B2FFB2004807420755074F0725342E3015
:1007800066000302010000000000240027002A0088
:1007900000000000250028002B00000000080002D7
:1007A000010000030407000000000000000000003A
:1007B00000002300260029000404040404040404A7
:1007C00002020202020203030303030301020408FC
:1007D00010204080010204081020010204081020AB
:1007E000A125372E3266009125372E326600253638
:1007F0002E31660025372E3266003420285253539E
:100800004929204B0033202843757272656E742984
:10081000204B00322028563229204B002020202057
:100820002020204100312028563129204B00202053
:100830002050696E2053656E736F727300F4070B5E
:1008400068FD0600EE078F68F90600EE071473F5E1
:100850000600EE071D73F10600EE071268ED0600B4
:10086000E7079076E90600E007A076E50600EE07C8
:10087000BD61E10600EE075777DD0600EE07016671
:10088000D90600432564253569FF00696E66006E50
:10089000616E002E08000000002508738002251CF0
:1008A00008738402271308730000251C08730000D6
:1008B000270508730000261C0873000027FA077339
:1008C0000000261C087300002700407A10F35A002D
:1008D000A0724E18090010A5D4E80000E876481769
:1008E0000000E40B54020000CA9A3B000000E1F54E
:1008F00005000080969800000040420F000000A014
:100900008601000000102700000000E8030000003E
:10091000006400000000000A000000000001000068
:100920000000002C76D888DC674F0823DFC1DFAEDB
:1009300059E1B1B796E5E3E453C63AE651997696A4
:10094000E8E6C28426EB898C9B62ED407C6FFCEF6D
:10095000BC9C9F40F2BAA56FA5F490055A2AF75C9B
:10096000936B6CF9676DC11BFCE0E40D47FEF5204D
:10097000E6B500D0ED902E03009435770500808415
:100980001E080000204E0A000000C80C3333333329
:100990000F986E12831141EF8D2114893BE6551695
:1009A000CFFEE6DB18D1844B381BF77C1D901DA4CD
:1009B000BBE424203284725E228100C9F124ECA1C0
:1009C000E53D27003A3611241FBECFEFD8E0DEBF49
:1009D000CDBF11E0A0E0B1E0EAECF6E702C005907F
:1009E0000D92AE33B107D9F727E0AEE3B1E001C015
:1009F0001D92A533B207E1F714E0C3EED4E004C0C2
:100A00002197FE010E94F23AC23ED107C9F70E9427
:100A10009E230C94633B0C94000083EA92E00197C0
:100A2000F1F7089580E090E0089596FB222720F9E1
:100A30004091D7015091D8016091D9017091DA01AC
:100A400081E397E00C94EB1A96FB222720F9409162
:100A5000FE015091FF01609100027091010281E35B
:100A600097E00C94EB1A292F8091890290918A02C9
:100A70008F739927029710F026FF04C08EE392E04F
:100A80000C94C22008952F923F924F925F926F92E2
:100A90007F928F929F92AF92BF92CF92DF92EF920E
:100AA000FF920F931F93CF93DF93CDB7DEB72F97AE
:100AB0000FB6F894DEBF0FBECDBF8091F401803435
:100AC00089F44090630250906402609065027090D7
:100AD000660220915F023091600240916102509164
:100AE000620210C040906B0250906C0260906D02E8
:100AF00070906E0220916702309168024091690205
:100B000050916A026091680170916901072E000C92
:100B1000880B990B2A873B874C875D870E94A436F8
:100B20002A853B854C855D850E9403374B015C011E
:100B30008091410480FF04C0B7FAB094B7F8B09434
:100B4000C501B4010E947D39AB016A35710538F0E9
:100B50009B012D543F4F2935310578F4A9014734C5
:100B6000510564F54A3151050CF54A30510518F12B
:100B700028E02F8783EF10ED2EC06B3571051CF038
:100B8000AB01435B5109CA0157FF03C091958195A1
:100B900091098734910594F48A3191059CF40A9760
:100BA000B0F038E03F8785EF12EE15C047E04F8781
:100BB00088EF19ED10C059E05F870BC01F868DECE0
:100BC00011EC09C067E06F878BEF1BEE04C089E072
:100BD0008F878DEC16EC2CE030E03A83298300E01F
:100BE0004F85042E000C550B58874F8386508987FC
:100BF000202F002E000C330B3C832B836091660169
:100C000070916701620F731F072E000C880B990B00
:100C10000E94A43627EA32E94BE25CEB0E940337DC
:100C2000A30192010E9403370E94703A20E030E055
:100C300040EA50E40E94033720E030E040E951E40C
:100C40000E9403376B017C0120E030E0A9010E9483
:100C5000193A20E030E040E05FE387FD0BC0C701B8
:100C6000B6010E9428380E947D391B013DE2230E07
:100C7000311C0AC0C701B6010E9427380E947D3985
:100C80001B014DE2240E311C9DE05981951B9E876E
:100C90008B819C819195819591099E838D836E8531
:100CA000862F90E029813A81281739070CF47DC0FE
:100CB00025E33AEF4EE85CE3C501B4010E94033737
:100CC0000E94703A6B017C019E852CE0929F602D02
:100CD00011246E54062E000C770B880B990B0E9482
:100CE000A4369B01AC01C701B6010E9403370E94E4
:100CF0007D399101260F371FC90101978A3591056A
:100D000008F04FC062E170E00E94DE3A7B014F853F
:100D1000442379F05EEE5603C001579F900D1124D5
:100D2000820F931F019697FD019695958795D82E72
:100D300001C0D12C64E06E198E8581500E948A1901
:100D4000002399F06E85653081F46B817C8177FF9B
:100D500002C06D817E81072E000C880B990B4AE042
:100D60000E94D42086E08E8704C08D2D810F0E94C2
:100D7000AA19DD20B1F04D2D50E02F8138854217A2
:100D800053077CF034E0E316F10459F04985D40EA2
:100D900063E06E198E8581500E948A198D2D0E9404
:100DA000AA195E855F5F5E877ACF37FE09C0025E53
:100DB00089819A8104979A838983049739F018CF9F
:100DC0003BE52316310414F00E51F2CF2F960FB6E7
:100DD000F894DEBF0FBECDBFDF91CF911F910F9171
:100DE000FF90EF90DF90CF90BF90AF909F908F904B
:100DF0007F906F905F904F903F902F900895CF938A
:100E0000813110F08051FCCF811101C080E1880F49
:100E1000CEEFC80F80E98C0F0E94AA1981E98C0FD0
:100E2000CF910C94AA1985E20C94761980E20C9467
:100E3000761980914F048F5F80934F040C949B1917
:100E4000692F0C94291A7F936F939F938F9381E35B
:100E500097E09F938F930E949A200F900F900F908E
:100E60000F900F900F900895EF92FF920F931F93A2
:100E7000CF93DF938C01D62FC42F6CE370E00E94D8
:100E8000CA3A7C018DE297E00E942307CC2349F007
:100E9000B70189E995E00E942307CF776C2F70E0B6
:100EA00011C0DD2331F080910D07882311F080E21D
:100EB00001C08AE30E94AA19C8016CE370E00E9495
:100EC000CA3ABC0183E995E0DF91CF911F910F9160
:100ED000FF90EF900C942307CF93DF931F92CDB731
:100EE000DEB77F936F935F934F939F938F9381E3CD
:100EF00097E09F938F9329830E949A200FB6F894CE
:100F0000DEBF0FBECDBF2981222331F0822F0F908B
:100F1000DF91CF910C94AA190F90DF91CF91089592
:100F2000CF92DF92EF92FF920F931F93CF93DF93B5
:100F300080911F0790912007FC013A96D491329638
:100F4000C4910D96FC010591149160915B01709123
:100F50005C0180E090E00E94A23620E030E040E2B8
:100F600051E40E940B396B017C016C2F70E080E032
:100F700090E00E94A4369B01AC01C701B6010E941B
:100F800003376B017C01B80180E090E00E94A2363B
:100F90009B01AC01C701B6010E94283820E030E077
:100FA00048EC52E40E940B39AB01BC012D2F80EBC1
:100FB00095E0DF91CF911F910F91FF90EF90DF901F
:100FC000CF900C946C0720E00C946C070E9486185C
:100FD0006093F9017093FA018093FB019093FC01F7
:100FE0008091890290918A029093F3018093F2019B
:100FF000E1E0F7E081E0808382830895CF93DF937F
:10100000EC01CB01BA010E94A43620E836E948E1A0
:101010005BE40E940B39688379838A839B83DF9129
:10102000CF910895CF93DF93EC019A01AB016881D2
:1010300079818A819B810E942838688379838A8399
:101040009B83DF91CF9108958F929F92AF92BF9231
:10105000CF92DF92EF92FF920F931F93CF938C0169
:101060004A015B01C22FFC01C080D180E280F38085
:1010700020E030E0A901C701B6010E949D36882317
:1010800011F0C23030F4F80180829182A282B382E2
:101090001FC0A7019601C501B4010E9427384B016A
:1010A0005C016C2F70E080E090E00E94A4369B0110
:1010B000AC01C501B4010E940B399B01AC01C70111
:1010C000B6010E942838F80160837183828393837C
:1010D000CF911F910F91FF90EF90DF90CF90BF9035
:1010E000AF909F908F900895CF92DF92EF92FF92F2
:1010F000CF93DF93EC016A017B019A01AB01688118
:1011000079818A819B810E949D3687FF04C0C882B5
:10111000D982EA82FB82DF91CF91FF90EF90DF903E
:10112000CF90089524E0880F991F2A95E1F78C54F9
:101130009F4F68E671E00E94DE3ACB010196089568
:101140008091AA019091AB010E9492080E94FF0633
:101150006091AA017091AB018BEA95E00C94230792
:10116000CF93DF93EC010E94861828813981CB014F
:10117000821B930BDF91CF91089597FF03C088598D
:101180009E4F0895893621E0920714F088569140C9
:1011900008950F931F93CF93DF93C92F80915D0123
:1011A00090915E010E94BD088C014091D301509145
:1011B000D4016091D5017091D60124E685E294E0D6
:1011C0000E942408C6FBDD27D0F94091D30150913D
:1011D000D4016091D5017091D6012D2F81E397E064
:1011E0000E94EB1A0E9419072091D0013091D10181
:1011F000C801821B930B0E9492089C2F9072C5FD20
:1012000098E0890F0E94FF06409125045091260422
:1012100060912704709128042D2F8AEB95E0DF91CF
:10122000CF911F910F910C94EB1A2091890230916C
:101230008A02260F311D30932D0420932C048093B5
:101240002B048091810280932A04089520E030E0ED
:101250004AE754E40E940B390895E0911F07F0918A
:101260002007659175918591949108958F929F9231
:10127000AF92BF92CF92DF92EF92FF9260911602EF
:1012800070911702072E000C880B990B0E94A43650
:101290006B017C018090FE019090FF01A090000204
:1012A000B09001020E942D099B01AC01C501B4015F
:1012B0000E9403379B01AC01C701B6010E940B39A4
:1012C00020E030E040E251E40E940337AB01BC0172
:1012D00024E68BE494E0FF90EF90DF90CF90BF90F6
:1012E000AF909F908F900C942408E0911F07F0918D
:1012F0002007349665917591859194910895CF92C8
:10130000DF92EF92FF920F931F93CF93DF9300D062
:1013100000D0CDB7DEB79B01AC0169833A834B8324
:101320005C830E94750929813A814B815C810E940E
:1013300003376B017C0120E03CE34CE156E40E9462
:101340009D3600911F0710912007F80118163CF0F8
:1013500039962491B701A6018CE797E024C07096D6
:101360006591749180E090E00E94A2369B01AC01EF
:10137000C701B6010E940B396B017C010E947D39C7
:101380006A30710534F06436710534F08CE797E00B
:1013900005C085E197E002C08CE696E0F8013F9633
:1013A0002491B701A6010F900F900F900F90DF913D
:1013B000CF911F910F91FF90EF90DF90CF900C9401
:1013C0006C07609102027091030280910402909177
:1013D00005020C947F090F931F93292F207495FF0A
:1013E00015C06091B4017091B5018091B6019091E2
:1013F000B701222329F12091B0013091B101409130
:10140000B2015091B3010E9427381AC06091C00107
:101410007091C1018091C2019091C301222361F0BA
:101420000091CC011091CD012091CE013091CF01DE
:10143000601B710B820B930B0E94A4360E9426093D
:101440001F910F910C947F096091F9067091FA0633
:101450008091FB069091FC060C947F099B01FC0196
:101460004081518162817381420F531F611D711D43
:10147000408351836283738308950F931F93CF93A7
:10148000DF93EC018B010E948618DC01CB01800FF9
:10149000911FA11DB11D88839983AA83BB83DF910E
:1014A000CF911F910F91089596FB222720F930E0EC
:1014B00095FD03C080E090E002C082E090E0282B20
:1014C000392B215031092330310528F4F901E95E27
:1014D000FE4F8081089580E00895CF92DF92EF92D1
:1014E000FF92CF93DF93D82FC92F0E94540A809385
:1014F0000901C7FD4CC0C4FF2AC081E080931407D6
:1015000020E030E040E752E46091E6017091E701AD
:101510008091E8019091E9010E940B396B017C01F7
:101520000E947D399B0177FF04C022273327261BA9
:10153000370B2A3031052CF5D6FD03C08EEC95E033
:1015400002C087EC95E028E1B701A60112C0109215
:101550001407E0911F07F0912007729624914091A3
:10156000E6015091E7016091E8017091E90180EC9A
:1015700095E0DF91CF91FF90EF90DF90CF900C94AA
:101580006C0724363105ECF280EC95E0DCCFDF917E
:10159000CF91FF90EF90DF90CF9008951F93CF935E
:1015A000DF931F92CDB7DEB7192F0E94540A282F60
:1015B0006091E3017091E40180E090E029830E9452
:1015C000A236AB01BC01298181E294E00E9424088B
:1015D000609121047091220480912304909124044D
:1015E0000E947D398DE297E00E94230780913B02A3
:1015F00080FD08C014FF06C00F90DF91CF911F91AE
:101600000C9413070F90DF91CF911F91089595FBD4
:10161000222720F994FD02C090E001C092E0922BB5
:1016200086FD02C080E001C084E0892B08950E94FD
:10163000F918811102C00C940D0508958EBD0DB4EA
:1016400007FEFDCF8EB58FEF8EBD0DB407FEFDCF2B
:101650008EB508958EBD0DB407FEFDCF8EB56EBD5F
:101660000DB407FEFDCF8EB50895CF93DF93FC0137
:101670006491EC012196662331F081E397E00E94AA
:101680004819CE01F4CFDF91CF910895CF92DF9228
:10169000EF92FF920F931F93CF93DF9380910707F1
:1016A000882309F4F7C0192F10920707C090D701BB
:1016B000D090D801E090D901F090DA010E942D0974
:1016C0009B01AC01C701B6010E9403370E947D391E
:1016D000E0911F02F091200280911307882349F0C6
:1016E00081E090E02091D201223008F080E0EC010E
:1016F00002C0C0E0D0E00091310201110AC0209187
:10170000350230E06217730724F480910C0780FDE6
:10171000C26020913402222329F030E026173707D7
:101720000CF4C46030911E022091E5014091360214
:10173000442369F0CF0164E670E00E94CA3A611563
:10174000710529F0842F90E068177907E4F0409143
:101750003C024423C9F054E6359FC0011124322FC6
:1017600027FF02C031E0320F3595830F911D37FD01
:101770009A95622F220F770B0E94DE3A842F90E019
:10178000681779070CF4C86080913B0280FD0BC09C
:1017900080913D0290E02091E3013091E40128170F
:1017A000390708F4C061C090E601D090E701E090ED
:1017B000E801F090E90120E030E0A901C701B6019D
:1017C0000E94193A18161CF4C701B60103C0C701DC
:1017D000B60190580E947D39CB016AE070E00E940A
:1017E000DE3A013049F480913502882329F090E0F7
:1017F000861797070CF4C06280911C0290911D021D
:1018000020916F02222369F064E670E00E94CA3AD8
:101810006115710531F0822F90E0681779070CF49B
:10182000C06416FF0EC080915901813011F4C06868
:101830000DC0823011F4D16009C0833011F4D26040
:1018400005C0209719F41092290424C0909129040E
:1018500081E09111890F80932904809129044FEF31
:10186000480F21E030E002C0220F331F4A95E2F713
:101870008B3018F081E021E030E0A9014C235D239A
:10188000452B21F48F5F220F331FF2CF8093290461
:101890008917C9F2E0912904EE2389F0F0E0EE0FF8
:1018A000FF1FED52FA4F85919491DF91CF911F91D7
:1018B0000F91FF90EF90DF90CF900C94350BDF915C
:1018C000CF911F910F91FF90EF90DF90CF900895EF
:1018D000CF92DF92EF92FF92CF93209108072223BD
:1018E00009F4FCC0C82F96FF13C020E030E0A90126
:1018F0006091FE017091FF018091000290910102C0
:101900000E949D36882309F4E9C00E94360921C04F
:10191000809131028111E2C020E030E0A9016091A4
:10192000FE017091FF0180910002909101020E94DE
:101930009D36882309F4D2C00E9436099091FD019A
:1019400080910B07933068F0811103C081E0809390
:101950000B078C2FCF91FF90EF90DF90CF900C94DE
:101960002F1B882311F18091020290910302A09114
:101970000402B091050280931D0490931E04A0936D
:101980001F04B09320048091F9069091FA06A0916B
:10199000FB06B091FC068093190490931A04A0935F
:1019A0001B04B0931C0410920B07C090EA01D09066
:1019B000EB01E090EC01F090ED012DEC3CEC4CE4FF
:1019C0005DEBC701B6010E949D3687FF67C0C090DE
:1019D0000202D0900302E0900402F0900502A701F9
:1019E000960160911D0470911E0480911F049091D6
:1019F00020040E9427389B01AC01C701B6010E9458
:101A00000B396B017C012091190430911A0440912B
:101A10001B0450911C046091F9067091FA068091A4
:101A2000FB069091FC060E9427389B01AC01C70180
:101A3000B6010E9403376B017C010E9475099B016E
:101A4000AC01C701B6010E9403376B017C010E9403
:101A50007D39CB016031774224F41816190644F021
:101A60003DC0C12C8CE3D82E8CE1E82E86E4F82E04
:101A7000C7FD03C08EEE0E947619E0911F07F0911A
:101A8000200739962491B701A6018CE797E0CF9102
:101A9000FF90EF90DF90CF900C946C072DEC3CEC16
:101AA0004CE45DEBC701B6010E94193A87FD16C0F0
:101AB000809166019091670197FF10C080910D079A
:101AC000882319F087EB95E002C086EB95E0CF9173
:101AD000FF90EF90DF90CF900C94350BCF91FF905B
:101AE000EF90DF90CF90089565E082E00E94291A80
:101AF00089E695E00E94350B0E9486188827992771
:101B00004AE00E94D42080911B07882359F061E0AD
:101B100081E00E94291A6091470270E084E595E017
:101B20000E9423070E944F1966E970E080E090E070
:101B30000C944C18CF92DF92EF92FF920F931F9369
:101B4000CF93DF931F92CDB7DEB76B017C018B0182
:101B5000040F151FC016D10689F0F70161917F01AE
:101B6000C60169830E94C1376981861719F0C601D1
:101B70000E94C937FFEFCF1ADF0AECCF0F90DF9139
:101B8000CF911F910F91FF90EF90DF90CF9008952C
:101B9000EF92FF920F931F93CF93DF938C01040F6B
:101BA000151FEC017B01E81AF90AC017D10739F0BB
:101BB000C7018C0F9D1F0E94C1378993F6CFDF911B
:101BC000CF911F910F91FF90EF900895CF93DF93E6
:101BD00000D0CDB7DEB79091F801682F70E0660FA6
:101BE000771F80E8989F600D711D112442E050E03E
:101BF000CE0101960E94C80D89819A810F900F90A5
:101C0000DF91CF91089584E20E94E60D8091D0018A
:101C10009091D101880F991F8D966AE570E00E941E
:101C2000DE3A77FF03C0685F7F4FFBCF677077278F
:101C3000FB01E056FA4F849108954F925F926F92A4
:101C40007F92BF92CF92DF92EF92FF920F931F93FA
:101C5000CF93DF93082FD92F96FD0CC06D2F81E015
:101C6000800F0E94291A8091410481FD1CC00E94AE
:101C7000430519C0C5E082EB0E94AA191DE011506E
:101C800019F00E941607FBCFC33011F083EB01C09F
:101C900085EC0E94AA190E941907C150F9F2C330BD
:101CA00051F786ECE9CF07FD08C062E085E00E94AD
:101CB0008A1988EA95E00E94350BD4FF86C0C0914E
:101CC000AC01D091AD010091AE011091AF01C801FE
:101CD00017FF04C088279927801B910B6AEF70E0DB
:101CE0000E94DE3AE62F472FCE01D7FF04C0882797
:101CF00099278C1B9D0B6AEF70E00E94DE3A8E2FB5
:101D0000942F861797070CF4CB01BC016F5F7F4FB0
:101D100070932F0460932E04072E000C880B990BF0
:101D20000E94A4366B017C010E94030EB82EB801FC
:101D3000110F880B990B0E94A4362B013C012CEB50
:101D400034E743E95CE3C701B6010E940B399B010C
:101D5000AC01C301B2010E940B390E947D3912E02F
:101D6000160FBE01DD0F880B990B0E94A4362B01C4
:101D70003C0122E430E645EE5CE3C701B6010E9477
:101D80000B399B01AC01C301B2010E940B3920E069
:101D900030E040E05FE30E9428380E947D39962FB2
:101DA000612F86E0891B0E948A198B2DDF91CF91CC
:101DB0001F910F91FF90EF90DF90CF90BF907F9099
:101DC0006F905F904F900C94AA19DF91CF911F9163
:101DD0000F91FF90EF90DF90CF90BF907F906F902A
:101DE0005F904F90089581E08093010788E0E3E4DD
:101DF000F4E0DF011D928A95E9F780E00E94E60D8C
:101E000090934204809341040895FB01208182272E
:101E100090E1899F900111242827822F90E0582F6C
:101E200044279C0163E0220F331F6A95E1F74227A4
:101E30005327218130E02427352774E09595879535
:101E40007A95E1F7822793279183808308959C01F7
:101E5000862FB9010C94050F1F920F920FB60F92A7
:101E600011248F939F93EF93FF939091D7048091C8
:101E7000D604981779F0E091D704F0E0EE52FB4FCA
:101E800080818093C6008091D7048F5F8370809398
:101E9000D70405C08091C1008F7D8093C100FF9160
:101EA000EF919F918F910F900FBE0F901F901895FB
:101EB0001F920F920FB60F9211242F938F939F931F
:101EC000EF93FF939091C6008091D0048F5F8F773E
:101ED0002091D104821741F0E091D004F0E0E05B62
:101EE000FB4F90838093D004FF91EF919F918F914E
:101EF0002F910F900FBE0F901F9018950895E82F07
:101F0000F0E0EE0FFF1FEA5FFD4F20813181662375
:101F100029F040E253E088E998E004C048EE53E03D
:101F200080ED97E02417350780F0241B350B841BC8
:101F3000950B65E070E00E94CA3AC9010E94CA3A56
:101F4000862F653018F084E0089580E008950895A4
:101F50001F93CF93DF93D82F192F8091D201823016
:101F600019F020F0CFE003C0CFE101C0CAE28091B8
:101F70006C0190916D01883C910520F080910D07D6
:101F80008111C0E2D7FD02C016FF11C060916E0141
:101F900070E087ED96E00E942307D7FD0CC016FF86
:101FA0000AC08C2FDF91CF911F910C94AA198C2F0E
:101FB0000E94AA19EBCFDF91CF911F9108956091F4
:101FC00068017091690180E696E00C9423076091A6
:101FD0006601709167018AE596E00C942307609191
:101FE0006C0170916D0180E090E00E94A23620E0CB
:101FF00030E048EC52E40E940B39AB01BC0185E1B2
:1020000097E00C94E3074091EE015091EF0160914D
:10201000F0017091F10181E397E00C94E307CF9315
:10202000DF9387FD04C087E397E00E94350BCDE482
:10203000D1E0499159916991799181E397E00E94AA
:10204000E30781E0C935D807A1F70E941907C7E463
:10205000D1E0699179918DE297E00E94230781E0B8
:10206000CD34D807B1F7DF91CF910895EF92FF9269
:102070000F931F93CF930FE311E0C0E096FD20C0B4
:1020800089E0E82EF12CF801819191918F018C5417
:102090009440B7010E94CA3A84E297E00E94230765
:1020A000C13019F40E94190702C00E941607CF5FC1
:1020B000C43049F712C00E941607CF5FC43069F0E0
:1020C000F801619171918F0189E297E00E942307E5
:1020D000C13089F70E941907F0CFCF911F910F915E
:1020E000FF90EF900895CF93C92F80911C0788230C
:1020F000E9F060917D0270917E0280917F02909163
:1021000080022CE330E040E050E00E94F637DA0134
:10211000C901C5FF04C0462F406860E004C0C6FB8B
:10212000662760F940E0CF910C943407CF91089571
:102130001F93CF93DF93182F0E94070B8C5FC82F3C
:10214000D0E017FD07C0BE016F5F7F4F8EE197E0C3
:102150000E942307CC0FDD1FCA5FDD4F68817981A4
:1021600089E297E0DF91CF911F910C9423071F9391
:10217000CF93DF93182FC92F0E94070BD4E0D80FFD
:1021800017FD08C06D2F70E06F5F7F4F8BE197E008
:102190000E942307C6FB662760F98D2F0E947F0FE0
:1021A000D82FC0E0CD1302C081E801C080E80E94B2
:1021B000AA19CF5FC530B1F7DF91CF911F91089574
:1021C0001F93CF93DF93182FC92F0E94070BD4E0E2
:1021D000D80F17FD08C06D2F70E06F5F7F4F8EE145
:1021E00097E00E942307C6FB662760F98D2F0E94A7
:1021F0007F0F182FC0E0D3E0CE010E94C1378F3F80
:1022000071F0811103C0112351F01150111102C05E
:102210000E94AA192196C03883E0D80769F7DF9198
:10222000CF911F91089563E0892F0C941A1B62E0EF
:10223000892F0C941A1B61E0892F0C941A1B60E003
:10224000892F0C941A1B0F931F93CF93DF9306E0F3
:1022500012E0C0E0D0E0F801619171918F01219608
:10226000CE010E94AB20C830D105A9F7DF91CF91F4
:102270001F910F910895CF93DF93611103C0C6E6BC
:10228000D6E002C0CCE6D6E0BC0180E090E00E943F
:10229000A2360E942609AB01BC012DE0CE01DF91E0
:1022A000CF910C946C070F931F93CF93DF9300D0C3
:1022B00000D0CDB7DEB700912E0410912F040E94FC
:1022C00075099B01AC016AEF609FC001619F900D91
:1022D0001124BC01990F880B990B2C8339834A83F5
:1022E0005B830E94A4362C8139814A815B810E94E4
:1022F0000337E0911F07F0912007083211055CF0C9
:102300003F9624912C830E942609AB01BC012C81AD
:1023100085E197E006C039962491AB01BC018CE7BA
:1023200097E00F900F900F900F90DF91CF911F913A
:102330000F910C946C07AF92BF92CF92DF92EF9205
:10234000FF921F93CF93DF9300D000D0CDB7DEB7BD
:102350008091A4018A3009F06DC0A0906001B09016
:10236000610188EEA81683E0B80654F489E1A81646
:102370008CEFB8064CF489E1A82E8CEFB82E04C07F
:1023800097EEA92E93E0B92EE0911F07F091200758
:102390003996149160915F0170E087ED96E00E949C
:1023A00023070E941607609162017091630180E02B
:1023B00090E00E94A2366B017C010E9475099B018E
:1023C000AC01C701B6010E940337AB01BC01212F4C
:1023D0008CE797E00E946C070E94190783ED96E056
:1023E0000E94350B0E9475099B01AC01B501BB0C25
:1023F000880B990B29833A834B835C830E94A43614
:1024000029813A814B815C810E940337AB01BC0179
:10241000212F8CE797E00F900F900F900F90DF9196
:10242000CF911F91FF90EF90DF90CF90BF90AF9032
:102430000C946C070F900F900F900F90DF91CF913D
:102440001F91FF90EF90DF90CF90BF90AF900895D5
:1024500080916F018E30B9F42091A40130E087E0C3
:1024600090E0482FB901082E02C0759567950A942F
:10247000E2F760FD03C00197A0F748E04093A40194
:10248000E3E0F7E002C0EBEDF6E06091A40170E05C
:10249000CB01880F991FE80FF91F859194910E9435
:1024A000230780910807882319F086E80C94761991
:1024B0000895FF920F931F93CF93DF93F82E092F68
:1024C000192F107287FD08C096FD06C01123C1F1B7
:1024D00085EC96E00E94350B83EC0E947619809182
:1024E000D0019091D10148E1489F9001499F300D62
:1024F0001124C9010C9668E671E00E94DE3A64502E
:102500007109C62F77FF02C0C8E1C60F111102C0C2
:10251000D9E001C0DAE0EC2FF0E0E056F94F849109
:102520000E94AA19CF5FC83108F0C0E0D15099F7D6
:1025300087E80E947619F7FC14C006FD04C011C09C
:1025400088EB96E0C7CF111103C089E896E002C07E
:1025500085E996E0DF91CF911F910F91FF900C9448
:10256000350BDF91CF911F910F91FF900895CF937D
:10257000DF9388E80E947619CEE0D1E088810E943E
:10258000AA1989810E94AA198EE8DF91CF910C9433
:102590007619EF92FF920F931F93CF93DF931F92C1
:1025A000CDB7DEB720917001222309F470C04091AD
:1025B0002C0450912D042091890230918A024217F7
:1025C000530709F464C020915A01233010F401E24A
:1025D00001C000E0692F182F80912B049AE1F92E99
:1025E000F81AF7FC14C08F2D8695810F0E94291AC6
:1025F00017FD02C0011155C080E791E00F90DF91F7
:10260000CF911F910F91FF90EF900C94C22017FD76
:1026100002C001114AC066FD1DC0F1942F2D30E0AB
:102620008091810290912A04891B90E0B901660F84
:10263000771F0E94DE3A4091820241110DC000973F
:1026400029F0215031098217930731F421E02093BA
:10265000820202C080E090E09C0120593E4F790147
:102660008901065E1F4FF70181917F01811109C029
:102670000F90DF91CF911F910F91FF90EF900C94ED
:1026800016070E94AA19E016F10669F7F1CF109219
:1026900070010F90DF91CF911F910F91FF90EF90FC
:1026A0000895802F0E94AA19A7CF802F69830E94C6
:1026B000AA196981B0CFCF93DF9380910F07882348
:1026C00009F46FC0C92F8091A7010E94FF06809175
:1026D000A8019091A901853B910534F0885691405D
:1026E0009093A9018093A8018091A8019091A901DC
:1026F0008C342FEF920734F488599E4F9093A901A0
:102700008093A801C6FF08C06091A8017091A9013B
:102710008DE297E00E9423078091A8019091A90182
:1027200097FF06C088599E4F9093A9018093A801F6
:10273000C091A801D091A90161E080913E010E9461
:10274000C31720ED37E0DE010E94F83A28E631E0B9
:1027500040E050E00E94D737CA01B9010E94A43678
:1027600024E332EA44E75FE30E94033720E030E0ED
:102770004AEF53E40E9428380E947D396230710587
:1027800048F0660F771F660F771F65507109CB0100
:102790000197F1F760E080913E01DF91CF910C94B9
:1027A000C317DF91CF91089580915F01882381F055
:1027B00080916401909165010E94BD082091D00133
:1027C0003091D101821B930B0E9492080C94FF065A
:1027D000089587FD04C00E94030E0E94AA1960910B
:1027E000D0017091D1018DE297E00E94230785E02E
:1027F0000C9476196CEB71E0892F0C94641B68EBD8
:1028000071E0892F0C94641B1F93CF93DF93409149
:10281000BC015091BD016091BE017091BF01452B7B
:10282000462B472B69F44091B8015091B901609152
:10283000BA017091BB01452B462B472B09F445C0CB
:1028400094FD02C01FEF01C010E2C92FD82F809164
:102850000D07882301F1809119078A3050F082E832
:1028600096E00E94350B812F0E94AA198BE796E013
:102870000DC080911A078A3070F082E896E00E94BD
:10288000350B812F0E94AA1982E796E0DF91CF9144
:102890001F910C94350BD7FD03C083E00E9476197D
:1028A00068EB71E08C2F0E94641B812F0E94AA1993
:1028B000D7FD03C084E00E9476196CEB71E08C2F89
:1028C000DF91CF911F910C94641BDF91CF911F91E9
:1028D000089596FB442740F96091DF017091E00173
:1028E0008091E1019091E2010C94551BCF93DF930D
:1028F000D82FC92F0E94200788E00E947619809166
:102900003D0490913E04A0913F04B0914004892B76
:102910008A2B8B2B81F48091DF019091E001A091B3
:10292000E101B091E20180933D0490933E04A093B5
:102930003F04B093400460913D0470913E04809147
:102940003F049091400440E00E94551B0E949C214E
:10295000C6FF05C06C2F8AE08D0F0E94291A83E004
:102960000E94761968EB71E080E00E94641B0E946F
:10297000190784E00E9476196CEB71E080E0DF912A
:10298000CF910C94641B1F93CF93DF931F92CDB70D
:10299000DEB797FD2DC0192F91E090931D07912F61
:1029A0000E94540A282F60911C0270911D0280E041
:1029B00090E029830E94A236AB01BC01298189E302
:1029C00094E00E942408129511706091390470916E
:1029D0003A0480913B0490913C040E948439DC01CC
:1029E000CB01612F0F90DF91CF911F910C943B1180
:1029F00081E090916F02911101C080E080931D07EA
:102A00000F90DF91CF911F9108951F93CF93DF9384
:102A10001F92CDB7DEB7192F0E94540A282F60915C
:102A20001F027091200280E090E029830E94A2366C
:102A3000AB01BC01298185E394E00E942408129532
:102A40001170609135047091360480913704909133
:102A500038040E948439DC01CB01612F0E943B11B4
:102A60008091340481111EC080911F029091200238
:102A70000097C1F064E670E00E94CA3A80E090E0FE
:102A80000E94A23620E030E040E352E40E940B397D
:102A900020E030E040E85FE30E9428380E9484395B
:102AA000609334040E9419076091340470E080E060
:102AB00090E00E94A4369B01AC01609135047091B6
:102AC000360480913704909138040E940B390E949B
:102AD0008439DC01CB01612F0F90DF91CF911F91E1
:102AE0000C943B110F931F93CF93DF931F92CDB79D
:102AF000DEB7192F0E94540A282F60911602709198
:102B00001702072E000C880B990B29830E94A4360C
:102B1000AB01BC01298180E394E00E94240814FDEC
:102B200003C006E616E002C00CE616E02AE037ED28
:102B300043E25CE36091300470913104809132048F
:102B4000909133040E940337AB01BC012EE0C80111
:102B50000F90DF91CF911F910F910C946C0796FB12
:102B6000882780F980931E0780910F07882371F0D2
:102B700097FD0CC06091DB017091DC018091DD015B
:102B80009091DE010E94A4360C947F0908951F9352
:102B9000CF93DF93382F192F2091E5012F55C09146
:102BA0001E02263008F04FC0D0E080E09C2F64E683
:102BB00070E00E94CA3ACB016138710540F029E803
:102BC00020930E0180589109EFE0F1E012C02DE84A
:102BD00020930F016231710550F420910D072223DB
:102BE00031F020E220930E0120930F0109C0EEE0A6
:102BF000F1E06AE170E00E94CA3A2DE8261B2083CA
:102C000037FF0E94B71216FF0AC0BE0187ED96E09B
:102C10000E942307DF91CF911F910C9413076091BD
:102C2000D9067091DA068091DB069091DC060E944D
:102C30007D3989E297E00E94230781E0DF91CF91FF
:102C40001F910C94761924E6C29FC00111246FEFE6
:102C500070E00E94DE3AEB01A8CF6091FD0170E0C8
:102C60008DE297E00E9423070C9413071F93CF93E4
:102C7000DF93CDB7DEB768970FB6F894DEBF0FBE0F
:102C8000CDBF182F88E1189FB001112460587D4FE7
:102C900048E150E0CE0101960E94C80DE12FF0E01E
:102CA000EE0FFF1FEF5DFD4F6081718180E090E0CE
:102CB0000E94A23629813A814B815C810E940337B0
:102CC0002D813E814F8158850E9428389F938F9394
:102CD0007F936F93CE0109969F938F9381E397E043
:102CE0009F938F930E948B210FB6F894DEBF0FBE87
:102CF000CDBF68960FB6F894DEBF0FBECDBFDF9193
:102D0000CF911F910895CF92DF92EF92FF920F9390
:102D10001F93CF93DF936C017A018B01C0E0D0E069
:102D2000CE15DF0589F0D8016D918D01D601ED91A9
:102D3000FC910190F081E02DC6010995892B11F4D9
:102D40007E0102C02196ECCFC701DF91CF911F9188
:102D50000F91FF90EF90DF90CF900895089583300A
:102D600081F028F4813099F08230A1F00895873005
:102D7000A9F08830B9F08430D1F4809180008F7D43
:102D800003C0809180008F7780938000089584B580
:102D90008F7702C084B58F7D84BD08958091B00087
:102DA0008F7703C08091B0008F7D8093B00008952D
:102DB0003FB7F8948091D5069091D606A091D7069A
:102DC000B091D80626B5A89B05C02F3F19F00196F3
:102DD000A11DB11D3FBFBA2FA92F982F8827820FA1
:102DE000911DA11DB11DBC01CD0142E0660F771FF1
:102DF000881F991F4A95D1F708959091D6049F5F37
:102E000093702091D7049217E1F3E091D604F0E09B
:102E1000EE52FB4F80839093D6048091C100806274
:102E20008093C100089508958091C10084FF03C07C
:102E3000862F0E94FD1681E090E00895E0EDF4E019
:102E400081818083E6EDF4E0808181830895909113
:102E5000C100892F807194FF0EC09091D0048091A1
:102E6000D104981302C080E00895E091D104F0E00D
:102E7000E05BFB4F80810895089580E0089580E035
:102E8000089580E00895CF92DF92EF92FF92CF9362
:102E90006B017C01C42F20E030E0A9010E94193AA7
:102EA000181624F0F7FAF094F7F8F094C701B60179
:102EB0000E947D39072E000C880B990B0E94A436C6
:102EC0009B01AC01C701B6010E942738C11105C0A2
:102ED00020E034E244E759E404C020E030E543EC6C
:102EE00057E40E9403370E947D39CF91FF90EF9005
:102EF000DF90CF9008950E945E3B882311F080E41C
:102F000001C080E09091F401981751F08093F40192
:102F10005E986091F4016C6180E00E942A0B5E9AD9
:102F200008950F931F9390E0FC01E453F84F7491C0
:102F3000FC01E854F84FE491662311F0672F01C0BB
:102F400060E0F0E0EE0FFF1FE255F84F859194919D
:102F500089019A013F70462F672F0E9459236115FE
:102F600071058105910549F0DC01CB010196A11D98
:102F7000B11DBC01CD019F7003C060E070E0CB01CA
:102F80001F910F9108951F93CF93DF93282F30E067
:102F9000F901E656F84F8491F901E453F84FD491C2
:102FA000F901E854F84FC491CC23C9F0162F8111D0
:102FB0000E94AF16EC2FF0E0EE0FFF1FE057F84F26
:102FC000A591B4918FB7F894111105C09C91ED2F84
:102FD000E095E92302C0EC91ED2BEC938FBFDF91DC
:102FE000CF911F910895CF93DF9390E0FC01E453BC
:102FF000F84F2491FC01E854F84F8491882361F143
:1030000090E0880F991FFC01EA57F84FC591D491C1
:10301000FC01E057F84FA591B491611109C09FB729
:10302000F8948881209582238883EC912E230BC00D
:10303000623061F49FB7F8943881822F80958323A2
:103040008883EC912E2B2C939FBF06C08FB7F894EA
:10305000E8812E2B28838FBFDF91CF9108958E308A
:1030600008F08E5087702091000190E4299F900114
:103070001124822B80937C0080917A00806480935D
:103080007A0080917A0086FDFCCF809178002091B3
:10309000790090E0922B08958F929F92AF92BF9209
:1030A000CF92DF92EF92FF926B017C010E94D816C3
:1030B0004B015C01C114D104E104F104F1F00E9460
:1030C000D816DC01CB0188199909AA09BB09883EE9
:1030D0009340A105B10570F321E0C21AD108E108BF
:1030E000F10888EE880E83E0981EA11CB11CC11463
:1030F000D104E104F10419F7DDCFFF90EF90DF90E8
:10310000CF90BF90AF909F908F9008952FB7F89475
:103110006091D1067091D2068091D3069091D40629
:103120002FBF08951F920F920FB60F9211242F9365
:103130003F938F939F93AF93BF938091D1069091CC
:10314000D206A091D306B091D4063091D00623E0E8
:10315000230F2D3720F40196A11DB11D05C026E8CF
:10316000230F0296A11DB11D2093D0068093D10696
:103170009093D206A093D306B093D4068091D5063F
:103180009091D606A091D706B091D8060196A11DC0
:10319000B11D8093D5069093D606A093D706B09321
:1031A000D806BF91AF919F918F913F912F910F9032
:1031B0000FBE0F901F9018959091C100892F8071BC
:1031C00094FF14C09091D0048091D104981302C050
:1031D00080E00895E091D104F0E0E05BFB4F808156
:1031E0009091D1049F5F9F779093D10408950C94A0
:1031F000DC189091C100892F807194FF06C08091E6
:10320000D0049091D104891B8F7708950C94F918FC
:103210009B01AC018091C10084FD1092C10010920D
:10322000D7041092D6041092D1041092D004211524
:1032300031054105510501F1211581EE38074105A0
:10324000510509F182E08093C00060E079E08DE3F0
:1032500090E00E94F637DA01C9010197A109B1098E
:10326000AC01BD017695679557954795942F852FAD
:103270008093C5009093C40088E98093C10086E0E4
:103280008093C20008951092C00090E180E0F0CFDA
:10329000DC01ED91FC910190F081E02D09945E98A4
:1032A00060E085E00E942A0B60E086E00E942A0B25
:1032B00061E084E00E942A0B5E9AE0EFF4E080E295
:1032C0005E9890819EBD0DB407FEFDCF9EB58193A3
:1032D0005E9A96E0E03DF90798F35E988FEF8EBD19
:1032E0000DB407FEFDCF8EB55E9A08952091EE04D1
:1032F0003091EF04203E91E0390758F4A9014F5F67
:103300005F4F5093EF044093EE04F901E051FB4FFF
:103310008083089590914F04690F9091ED04890F77
:1033200090E02EE1629F800D911D11249093EF0497
:103330008093EE04089520914F048091ED0490E075
:103340003EE1239F800D911D11249093EF04809303
:10335000EE0408958F3F39F480914F048F5F80937E
:103360004F040C949B190C947619862F0E94AA196D
:1033700081E090E008951F93CF93DF93182FC92F1A
:1033800087FD10C096FF04C0D0E08BE597E003C036
:10339000D1E08AE697E00E94350B812F9C2F0E9496
:1033A000200701C0D0E08091E6019091E701A09153
:1033B000E801B091E901BC01CD0190589B01AC013D
:1033C0000E9428380E947D398091410482FF05C007
:1033D000CB016CE370E00E94DE3AC5FF05C0CB0173
:1033E0006AE070E00E94DE3AC4FF06C077FF02C0C8
:1033F0006F5F7F4F7595679516FF08C077FF02C016
:103400006D5F7F4F75956795759567959B01235DFA
:103410003F4F37FF02C02F5F3F4FC90195958795FA
:1034200069E070E00E94DE3A65302CF467FD06C06A
:10343000CFECC81B05C0CEE764E002C0C0E660E088
:103440008D2F0E948A198C2FDF91CF911F910C94A0
:10345000AA198F718093ED046F7060934F0480916F
:10346000F401803411F0673010F40C949B19635010
:1034700060934F04FACFCF936AE086E00E94291A46
:10348000C0E08C2F0E9436160E941907CF5FC4300F
:10349000C1F7CF91089566E089E00E94291A0C9443
:1034A00043055E9880912E0281FD06C080912D0219
:1034B00083FF1CC081E01BC080EA0E941E0B80FFBE
:1034C00007C081E00E947D1780912D02886008C0AE
:1034D00081FF09C080E00E947D1780912D02877FC7
:1034E00080932D0206C082FDE1CF03C080E00E94E0
:1034F0007D175E9A0895CF93DF935E98E091330233
:10350000E43008F0E0E0F0E0EE57F84FC49180E1DD
:10351000D1E0D80F6C2F0E942A0B8D2FD032C1F72B
:103520006091710282E00E942A0B6091700283E038
:103530000E942A0B5E9ADF91CF9108955E988CEEDF
:103540000E941E0B682F6F7E8CE60E942A0B62E1A0
:103550008CE00E942A0B6091F4016C6380E00E9471
:103560002A0B66E970E080E090E00E944C186091C0
:10357000F4016C6180E00E942A0B0C947B1ACF93BB
:10358000DF935E98C0E1DFEFC15081F46091F401F8
:10359000626080E00E942A0B6FE070E080E090E0C3
:1035A0000E944C18DF91CF910C949E1A80EA0E94E1
:1035B0001E0B877059F784E0815031F0DEBD0DB4E9
:1035C00007FEFDCF9EB5F8CF6FE070E080E090E0A1
:1035D0000E944C18D9CFCF92DF92EF92FF921F93A7
:1035E000CF93DF93EC016A017B01122F0E942D091A
:1035F0009B01AC01C701B6010E940337112341F0C2
:1036000026E636E646E650E40E940B3928E106C07D
:10361000E0911F07F091200738962491AB01BC017F
:10362000CE01DF91CF911F91FF90EF90DF90CF906F
:103630000C946C07262F30E0F901E75DFD4F87FD04
:103640000CC091E09083F901E85EFD4F86FB99275D
:1036500090F99083862F0C94361610820895CF939C
:10366000C82F60914B0470914C0480914D0490914F
:103670004E040E947D39615071096F30774298F491
:10368000C7FD03C086E10E94761940914B0450911A
:103690004C0460914D0470914E0421E08CE797E05A
:1036A000CF910C946C07CF910895CF93C42F28EE3F
:1036B00033E040E050E00E94F637DA01C90140E013
:1036C0006C2FCF910C943407CF93DF93282F86FB78
:1036D000442740F9E42FF0E0DB016D917D918D915D
:1036E0009C91EE0FFF1F25FF1DC0E858F84FC591B4
:1036F000D4910E9443179F938F937F936F93DF938F
:10370000CF9381E397E09F938F930E949A20ADB768
:10371000BEB718960FB6F894BEBF0FBEADBFDF910F
:10372000CF910895EC58F84F25913491AB01BC012D
:10373000C901DF91CF910C94E307EF92FF921F93A1
:10374000CF93DF931F92CDB7DEB7182F7C018E2D5C
:10375000811B861760F4F70181917F019091C10070
:1037600094FFF5CF69830E94FD166981F0CF0F9019
:10377000DF91CF911F91FF90EF9008950E9427381D
:1037800020EC3BE649ED57E40E940337089597FD8E
:1037900005C08F3F910509F01CF4089580E008955D
:1037A0008FEF0895E0911001EF5FE0931001E77053
:1037B000F0E0EE0FFF1FE352FB4F9183808388E020
:1037C00060E070E08150E82FF0E0EE0FFF1FE35261
:1037D000FB4F20813181620F731F8111F3CF80E095
:1037E00090E00E94A23620E030E040E05EE30E94DC
:1037F000033708951F920F920FB60F921124CF92A4
:10380000DF92EF92FF922F933F934F935F936F93CB
:103810007F938F939F93AF93BF93CF93DF93EF9358
:10382000FF930E94D8166B017C01EDE9F7E08491CB
:10383000EFECF7E0D491EBEBF7E0C491CC23B9F0D7
:1038400081110E94AF16EC2FF0E0EE0FFF1FE25542
:10385000F84FA591B491EC91ED2349F0C092D904B1
:10386000D092DA04E092DB04F092DC041FC0809175
:10387000D9049091DA04A091DB04B091DC040097A4
:10388000A105B10599F0C81AD90AEA0AFB0AD09233
:10389000A601C092A5011092D9041092DA041092E8
:1038A000DB041092DC0481E08093D804FF91EF9157
:1038B000DF91CF91BF91AF919F918F917F916F9148
:1038C0005F914F913F912F91FF90EF90DF90CF90BC
:1038D0000F900FBE0F901F9018951F920F920FB66A
:1038E0000F9211242F933F934F935F936F937F9386
:1038F0008F939F93AF93BF93EF93FF9381E0809358
:103900007C021092880280917B028F5F80937B0201
:103910000E948618609383027093840280938502CC
:103920009093860280918702882321F00E944F198C
:1039300010928702FF91EF91BF91AF919F918F916C
:103940007F916F915F914F913F912F910F900FBE9B
:103950000F901F901895E091F70135E0E39FF0017B
:103960001124E550FC4F9491915020910A016091EF
:10397000F5017091F60187FF03C0222339F004C0DE
:10398000882311F0291721F0280F03C0292F01C027
:1039900020E0FB0136E0239FE00DF11D112433965A
:1039A00045915491452B39F320930A01089590E0F5
:1039B000880F991FDC01AA5FBD4FFC01ED5BFB4F37
:1039C0008D919C9120813181821B930B0895A6E0FB
:1039D000B2E0E3E4F4E080819181883E934028F4F2
:1039E0008D919C911197918380833296129684E0F9
:1039F000EB34F80781F708952F923F924F925F9230
:103A00006F927F928F929F92AF92BF92CF92DF92EE
:103A1000EF92FF920F931F93CF93DF93CDB7DEB753
:103A200063970FB6F894DEBF0FBECDBF6C874A0117
:103A30006901CE0101963C01F4018C8580FD259140
:103A400080FF21914F01222309F45BC3253241F409
:103A500080FD259180FF21914F01253291F409C00D
:103A60002A3039F46DE081E397E02B8B0E944819EE
:103A70002B89622F81E397E00E9448195601650166
:103A8000DBCF10E0F12C00E00032A0F42B3269F023
:103A900030F4203259F0233269F400612CC02D3209
:103AA00039F0203339F4016026C00260046023C07D
:103AB000086021C007FD28C080ED820F8A3078F4AD
:103AC00006FF06C0FAE01F9F800D1124182F13C0B7
:103AD0002AE0F29E800D1124F82E00620CC02E32D6
:103AE00021F406FD0EC3006406C02C3611F40068F4
:103AF00002C0283649F4F4018C8580FD259180FFB1
:103B000021914F012111C0CF8BEB820F833018F42C
:103B10000061205E06C08BE9820F833008F06CC123
:103B20000F7E06FF16E00F73502E253621F4902FDE
:103B30009064592E08C0263621F4E02FE0685E2EEE
:103B400002C01111115057FE06C01C3350F4EE2470
:103B5000E394E10E08C0183040F0E12C27E017E0B4
:103B600006C05CE3E52E27E002C0212FE12C5601C0
:103B7000F4E0AF0EB11CF601608171818281938106
:103B80000E2DA3010E9423226C01098100FF02C0B7
:103B900003FF07C051FC08C052FE09C040E2442E9A
:103BA00007C03DE2432E04C02BE2422E01C0412C4F
:103BB000802F8C7019F0411063C29CC257FE0FC059
:103BC000EC0C04FF04C08A81813309F4EA941E14CA
:103BD00074F5F8E0FE1578F598E0E92E2CC056FC57
:103BE0002AC0812F90E08C159D059CF02CEFC21609
:103BF0002FEFD20674F0852D8068582E0AC0E2E0BF
:103C0000F0E0EC0FFD1FE10FF11D8081803319F40E
:103C100011501111F4CF57FE0EC0EE24E394E10EC3
:103C2000812F90E0C816D9062CF41C1904C0EE248C
:103C3000E39401C010E057FE06C01C141D0434F4C8
:103C4000C601019605C085E090E002C081E090E0E9
:103C500041100196112331F0212F30E02F5F3F4FAB
:103C6000820F931F2F2D30E08217930714F4F81A58
:103C700001C0F12C852D897049F4FF2039F060E2F4
:103C800081E397E00E944819FA94F7CF442029F085
:103C9000642D81E397E00E94481953FC09C0FF207E
:103CA00039F060E381E397E00E944819FA94F7CF76
:103CB00057FE54C09C2D8D2DD7FE02C090E080E0B1
:103CC000292E382E412C512CF601EE19F109FE87D0
:103CD000ED87C60182199309988B8F87612F70E059
:103CE000EE27FF27E61BF70BFA8BE98BFFEF2F166A
:103CF0003F0629F46EE281E397E00E944819C2145E
:103D0000D3046CF08D859E858215930544F4EF8570
:103D1000F889E40DF51DE60DF71D618101C060E332
:103D200091E0291A3108EFEF4E1A5E0A89899A89C3
:103D3000281639062CF081E397E00E944819D6CF67
:103D40002C143D0409F053C08A81863328F485334E
:103D500009F04DC004FD4BC061E349C06A81613385
:103D600009F00F7E81E397E00E944819111104C009
:103D700054FC17C065E616C06EE281E397E00E942E
:103D8000481982E0EE24E394E80EF301E80FF11DF8
:103D9000608181E397E00E94481911508E2D91F7C0
:103DA000E7CF65E481E397E00E944819D7FC05C09E
:103DB000C114D10439F404FF05C0D194C194D108D1
:103DC0006DE201C06BE281E397E00E94481960E375
:103DD000EAE0CE16D1042CF06F5F9AE0C91AD10840
:103DE000F7CF81E397E00E94481960E36C0D81E30F
:103DF00097E00E94481958C1233631F0233781F0EB
:103E0000233509F055C020C05601F2E0AF0EB11CB9
:103E1000F6018081898344244394512C630112C0AC
:103E20005601F2E0AF0EB11CF601C080D18006FF52
:103E300003C0612F70E002C06FEF7FEFC6010E94E8
:103E400092362C010F7713C05601F2E0AF0EB11C71
:103E5000F601C080D18006FF03C0612F70E002C070
:103E60006FEF7FEFC6010E9487362C01006803FDCB
:103E70001BC08F2D90E048165906B0F460E281E334
:103E800097E00E944819FA94F4CFF60107FD659176
:103E900007FF61916F0181E397E00E944819F110DB
:103EA000FA94F1E04F1A51084114510471F7FCC023
:103EB000243611F0293661F5560107FF09C024E0C8
:103EC000A20EB11CF60160817181828193810AC0CA
:103ED000F2E0AF0EB11CF60160817181072E000C7B
:103EE000880B990B0F76C02E97FF0AC0909580958E
:103EF000709561957F4F8F4F9F4FF02FF068CF2EB9
:103F00002AE030E0A3010E94FB22D82ED61848C038
:103F1000253729F40F7EE02E2AE030E025C0802FDF
:103F2000897FE82E2F36C1F018F4283579F0E9C0E2
:103F3000203719F0283721F0E4C0982F9061E92E3E
:103F4000E4FE0DC0EE2DE460EE2E09C004FF0AC0B1
:103F5000F82FF660EF2E06C028E030E005C020E123
:103F600030E002C020E132E05601E7FE09C084E003
:103F7000A80EB11CF601608171818281938108C015
:103F8000F2E0AF0EB11CF6016081718180E090E03B
:103F9000A3010E94FB22D82ED618FE2DFF77CF2E2C
:103FA000C6FE0BC00C2D0E7FD11650F4C4FE0AC005
:103FB000C2FC08C00C2D0E7E05C0ED2C0C2D03C0DC
:103FC000ED2C01C0E12E04FF0DC0FE01ED0DF11D31
:103FD0008081803311F4097E09C002FF06C0E3949A
:103FE000E39404C0802F867809F0E39403FD11C0A8
:103FF00000FF06C01D2DEF1418F41F0D1E19EF2C25
:10400000EF1458F460E281E397E00E944819E394CA
:10401000F7CFEF1410F4FE1801C0F12C04FF0DC00F
:1040200060E381E397E00E94481902FF14C001FD9C
:1040300002C068E70CC068E50AC0802F867859F096
:1040400001FF02C06BE201C060E207FD6DE281E3A7
:1040500097E00E944819D11638F460E381E397E0B5
:104060000E9448191150F7CFDA94F301ED0DF11DBC
:10407000608181E397E00E944819D110F5CF14C008
:1040800024E02F1520F584E0F81A53FE17C04110E4
:104090001FC003FF23C00FE818E0F52DF0715F2E5D
:1040A000F801649161111DC0FF2009F4E8CC60E2C1
:1040B00081E397E00E944819FA94F6CF60E281E329
:1040C00097E00E944819FA94F110F8CFE0CFF12C54
:1040D000642D81E397E00E944819DBCF0BE818E0DC
:1040E000DCCF5110605281E397E00E9448190F5FC6
:1040F0001F4FD6CF83E08F1510F483E0C5CFF12C8E
:10410000C8CF63960FB6F894DEBF0FBECDBFDF9168
:10411000CF911F910F91FF90EF90DF90CF90BF90C4
:10412000AF909F908F907F906F905F904F903F9057
:104130002F900895CF93DF93CDB7DEB79E01275F11
:104140003F4F4F81588561E081E397E00E94FC1C5E
:10415000DF91CF9108957F936F939F938F9383E81F
:1041600098E09F938F9381E397E09F938F930E94B2
:104170009A208DB79EB708960FB6F8949EBF0FBED3
:104180008DBF0895009769F0FC0101900020E9F7C8
:104190003197AF01481B590BBC0181E397E00C94A8
:1041A000831680E090E008958F929F92AF92BF9225
:1041B0000F931F93CF93DF93CDB7DEB7A1970FB6C1
:1041C000F894DEBF0FBECDBF19A2423008F44AE01A
:1041D0008E010F5D1F4F842E912CA12CB12CA501B7
:1041E00094010E94F637E62FB901CA010150110966
:1041F000EA3014F4E05D01C0E95CD801EC93232BB4
:10420000242B252B61F7C8010E94C220A1960FB66E
:10421000F894DEBF0FBECDBFDF91CF911F910F91FC
:10422000BF90AF909F908F9008959F92AF92BF9252
:10423000CF92DF92EF92FF920F931F93CF93DF9372
:10424000CDB7DEB72A970FB6F894DEBF0FBECDBF4D
:10425000D62EB72EC42EA22E9EEF99834A8330917C
:1042600028073B83909111019C83909112019D83BB
:104270008E833F5F309328078FEF9FEF98878F8360
:104280008E010E5F1F4F7E0187E0E80EF11C0E15B8
:104290001F0539F0B701F80181918F010E94050FC8
:1042A000F6CF8F8198859A8789870D2D1B2D9C2CA1
:1042B0009D0CBE01675F7F4F901631F0F801819130
:1042C0008F010E94050FF5CF8A2D0E94050F998559
:1042D0008A859F83888766E0CE0101960E949D1B98
:1042E0006C2D8D2D9B2D0E949D1B62E0C7010E94AD
:1042F0009D1B2A960FB6F894DEBF0FBECDBFDF918F
:10430000CF911F910F91FF90EF90DF90CF90BF90D2
:10431000AF909F900895CF93DF93CDB7DEB79E0106
:10432000275F3F4F4F81588560E081E397E00E940F
:10433000FC1CDF91CF910895DF92EF92FF920F93D3
:104340001F93CF93DF93CDE3D8E0FE010591149145
:104350000115110509F46FC0FE0132968491811197
:104360000E94AA19FE01339684913196E590F4904B
:10437000893691F030F4813609F43FC08836C1F0B7
:1043800004C08337F1F0863729F150E2D52E60E082
:1043900070E080E89FE33AC0F70160817181072EE9
:1043A000000C880B990B0E94A43640E2D42E35C035
:1043B000E0911F07F09120073996D4900E9475096B
:1043C00025C0E0911F07F09120073896D4900E94F5
:1043D0002D091CC00E94750920911407211114C0D9
:1043E000E0911F07F09120077296D49020E030E012
:1043F00040E752E40E94033709C031E4D32E6AE05B
:1044000077ED83E29CE302C028E1D22EF701208100
:104410003181428153810E9403372D2DAB01BC01B4
:10442000C8010E946C070E9419072796F8E0C3385C
:10443000DF0709F08ACFDF91CF911F910F91FF9095
:10444000EF90DF900895283008F027E03327DA0155
:10445000990F311D87FD916000966105710539F452
:1044600032602E5F3D9330E32A95E1F708959F3F38
:1044700030F080387105610509F03C5F3C5F3D9389
:10448000913008F08068911DDF93CF931F930F93B5
:10449000FF92EF92192F987F9695E92F9695969512
:1044A000E90FFF27ED5DF64F99273327EE24FF2410
:1044B000A701E70105900894079428F4360FE71E3A
:1044C000F81E491F511D660F771F881F991F0694FC
:1044D000A1F70590079428F4E70EF81E491F561F10
:1044E000C11D770F881F991F661F0694A1F70590BD
:1044F000079428F4F80E491F561FC71FD11D880FB7
:10450000991F661F771F0694A1F70590079420F462
:10451000490F561FC71FD81F990F661F771F881F87
:104520000694A9F784911095177041F0D695C79518
:1045300057954795F794E7941A95C1F7E9ECF8E099
:1045400068941590159135916591959105907FE24C
:104550007395E118F10A430B560BC90BD009C0F74C
:10456000E10CF11E431F561FC91FD01D7EF470338E
:1045700011F48A95E6CFE894015030F0080F0AF460
:104580000027021708F4202F2395022F7A3328F0F2
:1045900079E37D932A95E9F710C07D932A9589F6F2
:1045A000069497956795379517951794E118F10A32
:1045B000430B560BC90BD00998F023957E91739548
:1045C0007A3308F070E37C932013B8F77E91706122
:1045D0007D9330F0839571E37D9370E32A95E1F745
:1045E0001124EF90FF900F911F91CF91DF919927A8
:1045F00087FD90950895FA01AA27283051F12031BE
:1046000081F1E8946F936E7F6E5F7F4F8F4F9F4F66
:10461000AF4FB1E03ED0B4E03CD0670F781F891FA8
:104620009A1FA11D680F791F8A1F911DA11D6A0F76
:10463000711D811D911DA11D20D009F468943F9129
:104640002AE0269F11243019305D3193DEF6CF0128
:104650000895462F4770405D4193B3E00FD0C9F7EE
:10466000F6CF462F4F70405D4A3318F0495D31FD5B
:104670004052419302D0A9F7EACFB4E0A6959795AE
:10468000879577956795BA95C9F700976105710584
:1046900008959B01AC010A2E0694579547953795CE
:1046A0002795BA95C9F7620F731F841F951FA01D28
:1046B0000895CF92DF92EF92FF920F931F93E82F0E
:1046C000F92F05C0015011092109310961F19081CB
:1046D00096239417B9F305C0015011092109310936
:1046E00011F1908196239413F7CFC12CD12CE12C9A
:1046F000F12C0AC08FEFC81AD80AE80AF80A0C157C
:104700001D052E053F0579F080818623841791F3DE
:104710006C2D7D2D8E2D9F2D1F910F91FF90EF9071
:10472000DF90CF90089560E070E080E090E01F910E
:104730000F91FF90EF90DF90CF900895CF93DF938C
:10474000CDB7DEB7A2970FB6F894DEBF0FBECDBFD0
:10475000789484B5826084BD84B5816084BD85B55C
:10476000826085BD85B5816085BD80916E00816068
:1047700080936E001092810080918100826080930E
:104780008100809181008160809381008091800010
:104790008160809380008091B10084608093B1003B
:1047A0008091B00081608093B00080917A00846035
:1047B00080937A0080917A00826080937A00809161
:1047C0007A00816080937A0080917A00806880937B
:1047D0007A001092C1000FB6F894A89580916000FD
:1047E000886180936000109260000FBE60E071EEFF
:1047F00080E090E00E9408194EE450E060E072E032
:104800008DE292E00E94C80D80912D0281FD03C0CF
:1048100089E592E002C08CE692E0909320078093B5
:104820001F07809147028F3421F4809148028A311A
:1048300019F081E080931B0784B58C7F84BD809143
:104840002E0284FF02C081E001C083E0809300015A
:1048500080917A008B7F80937A0080917A008660C5
:1048600080937A00809169008C7F826080936900D8
:10487000E89A80913202813059F462E083E00E942C
:10488000F31780916900837F846080936900E99ABF
:104890008DE297E090938C0280938B02E3E8F2E044
:1048A00064918F010F5F1F4F662331F08DE297E017
:1048B0000E944819F801F4CF5E9A0E944F1978942B
:1048C00080914902893341F480914A02833321F473
:1048D00080914B02843389F089E38093490283E31A
:1048E00080934A0284E380934B0243E050E06CE102
:1048F00072E089E492E00E949A0D80917A02882306
:1049000051F010927A0241E050E06DE472E08AE7E3
:1049100092E00E949A0DE1E8F2E0849180933E01DA
:1049200061E00E94F31761E086E00E94F31762E005
:1049300082E00E94F31761E08AE00E94F31761E0D1
:104940008AE00E94C3170E94BF1A0E94511A0E9457
:104950009E1A0E94740D0E94F30E82EA91E022E3F7
:10496000281B2F8F80E092E0AC014D52524059A39A
:1049700048A3A89578940E9486186C8B7D8B8E8BAB
:104980009F8B28EE33E040E050E00E94F6373093F2
:104990008A02209389026C897D898E899F896C3D6A
:1049A00075408105910520F080911B07882319F03F
:1049B0000E94740DDECFF0901804FF2009F43BC074
:1049C00080911807811137C013E0D12EEE24E394B3
:1049D0000CE812E0F801319684916091AA026623F6
:1049E00039F0880F880F0E94BE3A811101C081E022
:1049F000F801249190E09A838983FB821C822D83A5
:104A0000EE8224E946E0BE016F5F7F4F82E40E94A0
:104A100015210E5F1F4FF2E008391F07D9F666E92E
:104A200070E080E090E00E944C18DA94D110D0CF72
:104A300081E080931807ABEAEA2EA2E0FA2EB0E4F8
:104A4000CB2EDD24D39480910307811109C080917E
:104A50000407811105C080910D07882309F450C215
:104A600001E010E069E0A62EB12C76E0272E312C73
:104A7000E5E04E2E512CF3E06F2E712CA4E08A2E2F
:104A8000912CB2E0EB2EF12CCC24CA94DC2C0E94A9
:104A9000F918882309F42AC20E94DC18282F1092E2
:104AA000210780912407909125078B30910508F00C
:104AB000C6C0FC01EC5CFF4F0C94F23A10922C073C
:104AC00010922B072E3F29F01093250700932407FF
:104AD000B6C0F0922507E09224071092AE02D09261
:104AE000AC02C092AB02ABC02093AE02109226077C
:104AF000622F8BEA92E00E94270F90922507809206
:104B000024079DC02093AF02622F8BEA92E00E949F
:104B1000270F709225076092240791C02093B0025E
:104B2000622F8BEA92E00E94270F50922507409255
:104B3000240785C02093B102622F8BEA92E00E9485
:104B4000270F309225072092240779C02093B202C4
:104B5000622F8BEA92E00E94270F8091AE028111B2
:104B600007C028E030E0309325072093240767C072
:104B700047E050E0509325074093240760C0E09140
:104B8000260781E08E0F80932607F0E0ED54FD4F5D
:104B90002083622F8BEA92E00E94270F90912607D4
:104BA0008091AE0298134BC0DCCFE091B202F0E0EE
:104BB000E856FD4F64918BEA92E02AA30E94270FEA
:104BC0002AA1422F50E08091AB029091AC0299272C
:104BD0004817590751F02E3F09F47BCF6AE070E087
:104BE00070932507609324072AC0B0922507A092EE
:104BF0002407E0912607F0E0ED54FD4F1FC0422F3F
:104C000050E07091AC02798F1A8EA98DBA8D4A1737
:104C10005B0711F40A9731F4809123078F5F80932B
:104C2000230750CFB1E0B0932107109325070093DD
:104C30002407E0912607F0E0EC54FD4F20832091FB
:104C40002107222399F08091AF028093270780915A
:104C5000290790912A07009721F410922C071092AF
:104C60002B07019690932A078093290780912707A5
:104C70008F5F8F838091290790912A079A87898770
:104C80008091230790E09C878B87809122078A83FD
:104C900010922307222309F409C10E94E60780919C
:104CA000B202833809F099C09091B0028091A902B4
:104CB000981393C08091B102843609F08EC0809120
:104CC000B3029091B4022091A7023091A8028217FA
:104CD000930709F482C09093A8028093A702809161
:104CE000B5028E3E09F079C08091B6028F3409F08A
:104CF00074C08091B702833509F06FC08091B8020B
:104D0000843409F06AC08091B902823721F1873773
:104D100021F0823609F061C011C06091BA02409161
:104D2000BB0250E0E0E86E9FB00111248CEB92E0F2
:104D30000E949A0D81E0809315074FC08091BB02BD
:104D400081114BC080911507882309F446C0EE27D6
:104D5000FF27099442C06091BA024091BB0250E023
:104D6000F0E86F9FB00111248CEB92E00E94C80D17
:104D70008EEF8093AD028FEF8093AE0283E8809335
:104D8000B202809111018093B00284E68093B10257
:104D90008FEF9FEF9E878D870EEA12E0BE01635F63
:104DA0007F4FB3E0023B1B0731F0D8018D918D019D
:104DB0000E94050FF3CF8FED0E94050F66E08DEA8C
:104DC00092E00E949D1B6FEF83EB92E00E949D1B7F
:104DD00062E0CE010D960E949D1B8091B202882355
:104DE00089F020911804222311F40C9455329091EB
:104DF000B002291711F40C945532933309F076C0A0
:104E00000C9455328091B702863049F48091B002FB
:104E10008093A9021092A8021092A70267C0853061
:104E200009F464C08A3109F461C08091B8028093AA
:104E30006F018091B90287FB882780F9809308076A
:104E40008091B3028093A4018091B00280931804F2
:104E50008091A602811121C08091A502882391F042
:104E600080911A078A3020F48F5F80931A0719C047
:104E7000109218078091AA028F3798F4880F8093B8
:104E8000AA020FC0809119078A3020F48F5F8093A7
:104E9000190707C01092180704C010921A07109241
:104EA00019071092A6021092A50220C00E94170BAB
:104EB000EECD8F3310F00C9416358D3111F40C9427
:104EC000D33210F00C94BD33823011F40C94DD32E7
:104ED00010F40C943533883111F40C9457338B3122
:104EE00029F48091A5028F5F8093A502809103072A
:104EF0008093040780910107882309F4B0C171C031
:104F0000F7012C2D11922A95E9F71092C1000E9409
:104F100086184B015C0134E6830E911CA11CB11C68
:104F20000AEF1FEF0E94861886169706A806B90694
:104F3000A8F024EC39E040E050E060E080E00E941E
:104F400091176F3F71058105910509F02CF46623D7
:104F500019F0611708F4162F015021F71F3F19F4BB
:104F60001091010102C0109301011B3068F0133150
:104F700070F01D3178F0183280F01C3388F016394B
:104F800090F021E080E411C028E182E00EC02CE026
:104F900084E00BC028E086E008C026E088E005C079
:104FA00024E080E102C022E080E28093AA0230E0A7
:104FB000A0ECB2E10E9418384B015C016093CC0375
:104FC0007093CD038093CE039093CF038DE297E04F
:104FD0000E941E17C501B4010E940819D09204074F
:104FE00032CDF090F80180913202833008F42CC168
:104FF000833029F40091A5011091A60111C09BEF07
:10500000980F943048F4E82FF0E0EE0FFF1FEC5FAC
:10501000FD4F0081118104C000911402109115020E
:105020009801205233402939384008F00DC12091B1
:105030000501309106010217130720F410930601B1
:1050400000930501209103013091040120173107DD
:1050500020F41093040100930301843029F510918A
:10506000A4018AEF810F823008F4BDC08091C30390
:10507000811779F01093C30360E070E08FEB93E049
:105080000E943D0A80910201181303C081E08093C1
:1050900005078FEB93E00E94B008813D974008F42C
:1050A000A2C0109302019FC08091370281111FC0DE
:1050B0008091030190910401209105013091060136
:1050C000609174022017310758F4021B130B821BE6
:1050D000930B70E00E94CA3AC8010E94CA3A01C00C
:1050E00060E0F61609F47FC06093F8017CC08091FF
:1050F0002D0282FF39C0C090BD03D090BE030C15B5
:105100001D0509F441C0C8018C199D09893C910510
:10511000D8F18091BB039091BC030817190731F0B7
:10512000B801681B790B683C710578F48FEB93E04C
:105130000E94B008893E934018F081E080930507F3
:105140001092BC031092BB031FC060E070E08FEBB5
:1051500093E00E943D0AD092BC03C092BB0310931F
:10516000BE030093BD0310C02091030130910401E0
:105170008091050190910601280F391F36952795DA
:1051800081E02017310708F080E090912D0290FF18
:1051900010C0882321F081E08093060724C080910D
:1051A0000607882319F081E080930507109206070F
:1051B0001AC08823C1F08090BF039090C003A090D4
:1051C000C103B090C2030E94861886169706A806EF
:1051D000B90648F481E08093050764EF71E08FEB36
:1051E00093E00E943D0A80910507882369F01092A0
:1051F00005078091F8018F5F8093F8019091740208
:10520000981710F41092F8018091F801F816E1F067
:105210000E94F30E80911707811114C0A0E7B1E03E
:10522000E0EAF3E084918D9331968111FBCF909168
:10523000F80180917701890F8093770163E088E01E
:105240000E9415091092170780910207811105C06D
:1052500081E0809302078093880210920107809179
:105260000207882309F47AC180918802811176C1EE
:10527000109202078091D201882319F091E0909357
:1052800013079091FD01998B9B3008F048C49091D1
:105290000807911155C49093090790910F0799231E
:1052A00009F45DC480910F07811179C488EC93E003
:1052B0000E94B0089B8B8A8B60E070E088EC93E0E2
:1052C0000E943D0A2A893B89B90180E090E00E9452
:1052D000A2360E9426094B015C0160911602709172
:1052E0001702072E000C880B990B0E94A4366B0145
:1052F0007C0160911F027091200280E090E00E948A
:10530000A23620E030E543EC57E40E940B39A701B8
:1053100096010E940337AB01BC012AE08EEE91E0BA
:105320000E942408109109014090EA015090EB017D
:105330006090EC017090ED010E9475099B01AC0139
:10534000C301B2010E94033720E030E040E752E49D
:105350000E940337AB01BC01212F86EE91E00E9431
:10536000240820911E028091E501082E000C990B63
:10537000422F50E08417950714F42093E5018091A3
:105380003102882309F4B2C4A5019401C701B60112
:105390000E94033720E030E044EB53E40E940B39D5
:1053A000AB01BC0189ED96E00E9412088091D70301
:1053B0009091D80320913B0220FDC1C4209075023A
:1053C0003090760200917702109178020215130551
:1053D0000CF0AEC4322D232D1801032F122F41E003
:1053E000488F322D232D2816390614F4382F292FF3
:1053F000632F722F061717070CF4B801621973098F
:1054000080E090E00E94A2366B8F7C8F8D8F9E8F04
:10541000B8016219730980E090E00E94A2369B01F6
:10542000AC016B8D7C8D8D8D9E8D0E940B3920E0A3
:1054300030E048EC52E40E9403370E947D39653623
:1054400071050CF477C464E670E0588D552331F093
:1054500084E690E0DC01A61BB70BBD017093E4016C
:105460006093E30180910C0780FD6EC40E94511A85
:1054700080910C0780FDE4C48091080780930907A0
:1054800080917402853018F084E08093740289EF73
:1054900091E00E94B008853C994008F0FCC48091DE
:1054A000D1039091D203A091D303B091D403892B5F
:1054B0008A2B8B2B09F01CC5809116078823D1F10C
:1054C0008091D0039091F801891721F08093F80121
:1054D0001092160782E00E94D71C092E000CAA0B1E
:1054E000BB0BB7FF07C0B095A095909581959F4FD6
:1054F000AF4FBF4F8D329140A105B1050CF09AC757
:1055000083E00E94D71C092E000CAA0BBB0BB7FF2F
:1055100007C0B095A095909581959F4FAF4FBF4F15
:105520008D329140A105B1050CF084C78091080728
:10553000811180C7809174028111F0C40DE014E0E4
:10554000F801B490C8010196FC01E590F490E114D3
:10555000F10409F0E8C481E080938702809114048B
:1055600090911504A0911604B09117042C893D89DF
:105570004E895F8982179307A407B507A8F464E1F1
:1055800070E084E194E00E942E0A809187028823D3
:1055900059F080918802882339F083E892E00E94D4
:1055A000B008C39708F049C7809110049091110486
:1055B000A0911204B09113044C895D896E897F8992
:1055C00084179507A607B70708F059C264E670E08C
:1055D00080E194E00E942E0A80912D0284FD05C096
:1055E00080912902882309F49AC010910D011F5F50
:1055F00010930D0180E10E942F181770E12FF0E049
:10560000EE0FFF1FE650FC4F9183808360E070E057
:1056100088E08150E82FF0E0EE0FFF1FE650FC4FCE
:1056200020813181620F731F8111F3CF20912102FC
:105630003091220247E0429FC001439F900D112408
:10564000860F971F23E0969587952A95E1F790930B
:1056500022028093210280912D0284FF60C080E0AD
:1056600090E00E94A23620914F023091500240916A
:105670005102509152020E94033729E53EEE49E063
:1056800050E40E9403370E94843940911F025091D8
:1056900020024115510529F47093200260931F02E6
:1056A00012C09A01220F331F240F351F2E5F3F4F68
:1056B000A901460F571F5695479556954795509304
:1056C000200240931F0281E080930107E09136029F
:1056D0008E2F61E20E94BE3A482F80911F02909166
:1056E0002002C29664E670E00E94CA3AF0E09B0194
:1056F0002E1B3F0BAFEFB0E00E9418385AE2459FD7
:10570000900111242E1B3F0B032E000C440B550B54
:105710000E94D737C9010E94C71B80931E02809147
:105720002D0285FF04C080911D07811105C0809165
:105730002A02882309F497C010910C011F5F10936F
:105740000C018EE00E942F181770E12FF0E0EE0F91
:10575000FF1FE651FC4F9183808360E070E088E09A
:105760008150E82FF0E0EE0FFF1FE651FC4F208143
:105770003181620F731F8111F3CF20912302309189
:10578000240247E0429FC001439F900D1124860FE1
:10579000971FA3E096958795AA95E1F79093240229
:1057A0008093230280912D0285FF5DC080E090E010
:1057B0000E94A2362091530230915402409155022A
:1057C000509156020E94033729EA3CEC48E050E42D
:1057D0000E9403370E94843940911C0250911D029F
:1057E0004115510529F470931D0260931C0212C0EB
:1057F0009A01220F331F240F351F2E5F3F4FA9013F
:10580000460F571F569547955695479550931D023D
:1058100040931C02E0916F028E2F61E20E94BE3A1B
:10582000482F80911C0290911D02C29664E670E0A0
:105830000E94CA3AF0E09B012E1B3F0BAFEFB0E095
:105840000E941838AAE24A9F900111242E1B3F0B98
:10585000032E000C440B550B0E94D737C9010E9440
:10586000C71B8093E90380912D0286FD05C08091BE
:105870002B02882309F47BC080911A02882351F0FF
:1058800020E137E240E050E061E08FE00E949117B4
:10589000CB0103C08FE00E942F18E0910B01EF5F56
:1058A000E0930B01E770F0E0EE0FFF1FE752FC4FB3
:1058B0009183808360E070E088E08150E82FF0E021
:1058C000EE0FFF1FE752FC4F20813181620F731FE3
:1058D0008111F3CF209125023091260247E0429FAB
:1058E000C001439F900D1124860F971F33E09695BA
:1058F00087953A95E1F7909326028093250280914F
:105900002D0286FF34C080E090E00E94A2362091F4
:105910005702309158024091590250915A020E9408
:1059200003372DE032E348EC5CE30E9403370E942A
:10593000843940911602509117024115510529F4FE
:10594000709317026093160212C09A01220F331F40
:10595000240F351F2E5F3F4FA901460F571F569545
:10596000479556954795509317024093160280919C
:105970003B028695813041F050F1823049F083300E
:1059800051F58091D50325C081E10E942F1809C0EF
:1059900020E23EE440E050E061E081E10E949117A6
:1059A000CB010E94D21B20915B0230915C0240919E
:1059B0005D0250915E020E9403370E948439709309
:1059C000D8036093D70381E0809301073AC08091A8
:1059D000D60390E004C080911402909115020E94B9
:1059E000D21B0E9484397093D8036093D7038091AF
:1059F0002C02882331F180911B02882349F020E199
:105A000037E240E050E061E081E10E94911704C07C
:105A100081E10E942F18BC018091270290912802F9
:105A200047E0489F9001499F300D1124620F731F7A
:105A300083E0769567958A95E1F7709328026093E5
:105A400027029091110781E089278093110788230D
:105A5000B1F080918202882369F08F5F8093820287
:105A6000833068F0809181028F5F80938102109271
:105A7000820205C0809181028F5F809381028091B4
:105A80000C0490910D04A0910E04B0910F042C8988
:105A90003D894E895F8982179307A407B50710F0E7
:105AA0000C94B92464EF71E08CE094E00E942E0A1B
:105AB00081E0809301078093100790910B049F5F12
:105AC00090930B0490910D07982790930D079923BD
:105AD00011F40C94B9248093070780911C07882344
